:020000040800F2
:100000000080012025170008351500083B15000861
:1000100041150008471500084D15000800000000B4
:10002000000000000000000000000000517E0008F9
:100030005315000800000000A1800008D15A0008F4
:100040007517000875170008751700087517000860
:100050007517000875170008751700087517000850
:100060007517000875170008751700087517000840
:100070007517000875170008751700087517000830
:100080007517000875170008751700087517000820
:100090007517000875170008751700087517000810
:1000A0007517000861150008751700087517000816
:1000B00075170008751700087517000875170008F0
:1000C00075170008751700087517000875170008E0
:1000D00075170008751700087517000875170008D0
:1000E00075170008751700087517000875170008C0
:1000F00075170008751700087517000875170008B0
:10010000751700087517000875170008751700089F
:10011000751700087517000875170008751700088F
:10012000751700087517000875170008751700087F
:10013000751700087517000875170008751700086F
:10014000751700087517000875170008751700085F
:10015000751700087517000875170008751700084F
:10016000751700087517000875170008751700083F
:1001700075170008751700087517000800000000C3
:0801800075170008751700084F
:1001900010B5054C237833B9044B13B10448AFF3C1
:1001A00000800123237010BDD80100200000000052
:1001B000FCAF000808B5034B1BB103490348AFF37C
:1001C000008008BD00000000DC010020FCAF00083A
:1001D00001F0FF01102A2BDB10F0070F08D010F8F8
:1001E000013B013A8B422DD010F0070F42B3F6D1FC
:1001F000F0B441EA012141EA014122F007047FF015
:1002000000070023F0E80256083C85EA010586EA6B
:10021000010685FA47F5A3FA87F586FA47F6A5FAA7
:1002200087F68EB9EED1F0BC01F0FF0102F00702B3
:1002300032B110F8013B013A83EA010313B1F8D15E
:100240000020704701387047002D06BF354603383F
:10025000073815F0010F07D1013015F4807F02BF78
:10026000013015F4C03F0130F0BC0138704700BFC9
:10027000034613F8012B002AFBD1181A01387047E6
:1002800081F0004102E000BF83F0004330B54FEA47
:1002900041044FEA430594EA050F08BF90EA020FB4
:1002A0001FBF54EA000C55EA020C7FEA645C7FEA47
:1002B000655C00F0E2804FEA5454D4EB5555B8BF6A
:1002C0006D420CDD2C4480EA020281EA030382EADB
:1002D000000083EA010180EA020281EA0303362D6D
:1002E00088BF30BD11F0004F4FEA01314FF4801C40
:1002F0004CEA113102D0404261EB410113F0004F52
:100300004FEA03334CEA133302D0524263EB430308
:1003100094EA050F00F0A780A4F10104D5F1200EA6
:100320000DDB02FA0EFC22FA05F2801841F1000101
:1003300003FA0EF2801843FA05F359410EE0A5F1D5
:1003400020050EF1200E012A03FA0EFC28BF4CF006
:10035000020C43FA05F3C01851EBE37101F00045BC
:1003600007D54FF0000EDCF1000C7EEB00006EEBC9
:100370000101B1F5801F1BD3B1F5001F0CD3490853
:100380005FEA30004FEA3C0C04F101044FEA4452AA
:1003900012F5800F80F09A80BCF1004F08BF5FEA31
:1003A000500C50F1000041EB045141EA050130BD11
:1003B0005FEA4C0C404141EB0101013C28BFB1F523
:1003C000801FE9D291F0000F04BF01460020B1FA6E
:1003D00081F308BF2033A3F10B03B3F120020CDA41
:1003E0000C3208DD02F1140CC2F10C0201FA0CF01F
:1003F00021FA02F10CE002F11402D8BFC2F1200C84
:1004000001FA02F120FA0CFCDCBF41EA0C01904039
:10041000E41AA2BF01EB0451294330BD6FEA040482
:100420001F3C1CDA0C340EDC04F11404C4F120026D
:1004300020FA04F001FA02F340EA030021FA04F37F
:1004400045EA030130BDC4F10C04C4F1200220FAD6
:1004500002F001FA04F340EA0300294630BD21FA14
:1004600004F0294630BD94F0000F83F4801306BFDA
:1004700081F480110134013D4EE77FEA645C18BFCE
:100480007FEA655C29D094EA050F08BF90EA020F65
:1004900005D054EA000C04BF1946104630BD91EA5D
:1004A000030F1EBF0021002030BD5FEA545C05D160
:1004B0004000494128BF41F0004130BD14F580049F
:1004C0003CBF01F5801130BD01F0004545F0FE4113
:1004D00041F470014FF0000030BD7FEA645C1ABF48
:1004E000194610467FEA655C1CBF0B46024650EA7F
:1004F000013406BF52EA033591EA030F41F40021AB
:1005000030BD00BF90F0000F04BF0021704730B530
:100510004FF4806404F132044FF000054FF0000105
:1005200050E700BF90F0000F04BF0021704730B5C6
:100530004FF4806404F1320410F0004548BF40429B
:100540004FF000013EE700BF42004FEAE2014FEAF0
:1005500031014FEA02701FBF12F07F4393F07F4FCB
:1005600081F06051704732F07F4208BF704793F0CE
:100570007F4F04BF41F40021704730B54FF46074E1
:1005800001F0004521F000411CE700BF50EA0102E4
:1005900008BF704730B54FF000050AE050EA01028D
:1005A00008BF704730B511F0004502D5404261EBFD
:1005B00041014FF4806404F132045FEA915C3FF43E
:1005C000D8AE4FF003025FEADC0C18BF03325FEADB
:1005D000DC0C18BF033202EBDC02C2F1200300FA8C
:1005E00003FC20FA02F001FA03FE40EA0E0021FAB1
:1005F00002F11444BDE600BF70B54FF0FF0C4CF49F
:10060000E06C1CEA11541DBF1CEA135594EA0C0F50
:1006100095EA0C0F00F0DEF82C4481EA030621EA8B
:100620004C5123EA4C5350EA013518BF52EA0335C6
:1006300041F4801143F4801338D0A0FB02CE4FF078
:100640000005E1FB02E506F00042E0FB03E54FF0A8
:100650000006E1FB03569CF0000F18BF4EF0010EA0
:10066000A4F1FF04B6F5007F64F5407404D25FEA9C
:100670004E0E6D4146EB060642EAC62141EA55514F
:100680004FEAC52040EA5E504FEACE2EB4F1FD0C91
:1006900088BFBCF5E06F1ED8BEF1004F08BF5FEA0F
:1006A000500E50F1000041EB045170BD06F00046C1
:1006B00046EA010140EA020081EA0301B4EB5C046E
:1006C000C2BFD4EB0C0541EA045170BD41F4801166
:1006D0004FF0000E013C00F3AB8014F1360FDEBF8B
:1006E000002001F0004170BDC4F10004203C35DA67
:1006F0000C341BDC04F11404C4F1200500FA05F3EA
:1007000020FA04F001FA05F240EA020001F000428A
:1007100021F0004110EBD37021FA04F642EB060100
:100720005EEA430E08BF20EAD37070BDC4F10C042A
:10073000C4F1200500FA04F320FA05F001FA04F2EE
:1007400040EA020001F0004110EBD37041F10001DA
:100750005EEA430E08BF20EAD37070BDC4F12005E5
:1007600000FA05F24EEA020E20FA04F301FA05F24D
:1007700043EA020321FA04F001F0004121FA04F2F5
:1007800020EA020000EBD3705EEA430E08BF20EAC5
:10079000D37070BD94F0000F0FD101F000464000FF
:1007A00041EB010111F4801F08BF013CF7D041EA81
:1007B000060195F0000F18BF704703F00046520085
:1007C00043EB030313F4801F08BF013DF7D043EA56
:1007D0000603704794EA0C0F0CEA135518BF95EA0C
:1007E0000C0F0CD050EA410618BF52EA4306D1D193
:1007F00081EA030101F000414FF0000070BD50EAB2
:10080000410606BF1046194652EA430619D094EA3B
:100810000C0F02D150EA013613D195EA0C0F05D125
:1008200052EA03361CBF104619460AD181EA030179
:1008300001F0004141F0FE4141F470014FF0000031
:1008400070BD41F0FE4141F4780170BD70B54FF0CC
:10085000FF0C4CF4E06C1CEA11541DBF1CEA13554C
:1008600094EA0C0F95EA0C0F00F0A7F8A4EB05042E
:1008700081EA030E52EA03354FEA013100F0888025
:100880004FEA03334FF0805545EA131343EA1263EE
:100890004FEA022245EA111545EA10654FEA0026A3
:1008A0000EF000419D4208BF964244F1FD0404F55C
:1008B000407402D25B084FEA3202B61A65EB0305B8
:1008C0005B084FEA32024FF480104FF4002CB6EB75
:1008D000020E75EB030E22BFB61A754640EA0C00F5
:1008E0005B084FEA3202B6EB020E75EB030E22BF35
:1008F000B61A754640EA5C005B084FEA3202B6EB76
:10090000020E75EB030E22BFB61A754640EA9C0034
:100910005B084FEA3202B6EB020E75EB030E22BF04
:10092000B61A754640EADC0055EA060E18D04FEAC2
:10093000051545EA16754FEA06164FEAC30343EA62
:1009400052734FEAC2025FEA1C1CC0D111F4801F2F
:100950000BD141EA00014FF000004FF0004CB6E728
:1009600011F4801F04BF01430020B4F1FD0C88BFC7
:10097000BCF5E06F3FF6AFAEB5EB030C04BFB6EBD2
:10098000020C5FEA500C50F1000041EB045170BDC5
:100990000EF0004E4EEA113114EB5C04C2BFD4EBF2
:1009A0000C0541EA045170BD41F480114FF0000E76
:1009B000013C90E645EA060E8DE60CEA135594EAF2
:1009C0000C0F08BF95EA0C0F3FF43BAF94EA0C0FF5
:1009D0000AD150EA01347FF434AF95EA0C0F7FF46A
:1009E00025AF104619462CE795EA0C0F06D152EABE
:1009F00003353FF4FDAE1046194622E750EA4106A2
:100A000018BF52EA43067FF4C5AE50EA41047FF4B2
:100A10000DAF52EA43057FF4EBAE12E74FF0FF3C17
:100A200006E000BF4FF0010C02E000BF4FF0010CE8
:100A30004DF804CD4FEA410C7FEA6C5C4FEA430C61
:100A400018BF7FEA6C5C1BD001B050EA410C0CBFB0
:100A500052EA430C91EA030F02BF90EA020F002012
:100A6000704710F1000F91EA030F58BF994208BF79
:100A700090422CBFD8176FEAE37040F00100704736
:100A80004FEA410C7FEA6C5C02D150EA013C07D18D
:100A90004FEA430C7FEA6C5CD6D152EA033CD3D0D8
:100AA0005DF8040B704700BF8446104662468C46D2
:100AB0001946634600E000BF01B5FFF7B7FF002805
:100AC00048BF10F1000F01BD4DF808EDFFF7F4FF2E
:100AD0000CBF012000205DF808FB00BF4DF808EDB9
:100AE000FFF7EAFF34BF012000205DF808FB00BFDC
:100AF0004DF808EDFFF7E0FF94BF012000205DF8FE
:100B000008FB00BF4DF808EDFFF7CEFF94BF0120B2
:100B100000205DF808FB00BF4DF808EDFFF7C4FFAB
:100B200034BF012000205DF808FB00BF4FEA410CF4
:100B30007FEA6C5C02D150EA013C0AD14FEA430CD7
:100B40007FEA6C5C02D152EA033C02D14FF0000014
:100B500070474FF0010070474FEA410212F5001252
:100B600015D211D56FF47873B3EB625212D94FEAF4
:100B7000C12343F0004343EA505311F0004F23FADE
:100B800002F018BF404270474FF00000704750EA33
:100B9000013005D111F0004008BF6FF000407047F0
:100BA0004FF00000704700BF53B94AB9002908BF91
:100BB00000281CBF4FF0FF314FF0FF3000F070B93C
:100BC000ADF1080C6DE904CE00F006F8DDF804E0A4
:100BD000DDE9022304B070472DE9F047089E0D4679
:100BE00004460F46002B4AD18A42944665D9B2FA90
:100BF00082F343B102FA03FCC3F120029F4020FAC2
:100C000002F217439C404FEA1C4E1FFA8CF5B7FBCB
:100C1000FEF1220C0EFB117742EA074201FB05F0C0
:100C200090420AD91CEB020201F1FF3780F01C81CF
:100C3000904240F2198102396244121AA4B2B2FB06
:100C4000FEF00EFB102244EA024400FB05F5A5422B
:100C50000AD91CEB040400F1FF3280F00781A542A1
:100C600040F204816444023840EA0140641B0021E0
:100C70001EB1DC400023C6E90043BDE8F0878B428B
:100C800008D9002E00F0ED800021C6E900050846D5
:100C9000BDE8F087B3FA83F1002949D1AB4202D312
:100CA000824200F2F880841A65EB030201201746A5
:100CB000002EE2D0C6E90047DFE702B9FFDEB2FA54
:100CC00082F3002B40F090808A1A4FEA1C471FFAEB
:100CD0008CFE0121B2FBF7F507FB1520220C42EA3E
:100CE00000420EFB05F0904208D91CEB020205F110
:100CF000FF3802D2904200F2CB804546121AA4B2CD
:100D0000B2FBF7F007FB102244EA02440EFB00FEA0
:100D1000A64508D91CEB040400F1FF3202D2A64517
:100D200000F2BB801046A4EB0E0440EA05409FE7AA
:100D3000C1F120078B4022FA07FC4CEA030C05FAAC
:100D400001F420FA07F3FD404FEA1C492343B5FBA9
:100D5000F9F81FFA8CFE09FB18551C0C44EA0544EF
:100D600008FB0EF5A54202FA01F200FA01F00BD9D8
:100D70001CEB040408F1FF3A80F08880A54240F2A1
:100D80008580A8F102086444641B9DB2B4FBF9F3AA
:100D900009FB134445EA044403FB0EFEA64508D9AB
:100DA0001CEB040403F1FF356CD2A6456AD9023B63
:100DB000644443EA0843A3FB0295A4EB0E04AC424F
:100DC000C846AE4656D353D056B1B0EB080264EBDA
:100DD0000E0404FA07F7CA40CC401743C6E9007472
:100DE00018460021BDE8F087C3F1200102FA03FC98
:100DF00020FA01F225FA01F19D402A434FEA1C47EF
:100E00001FFA8CFEB1FBF7F007FB1015110C41EA3D
:100E1000054100FB0EF58D4204FA03F408D91CEBE2
:100E2000010100F1FF382FD28D422DD902386144E3
:100E3000491B92B2B1FBF7F507FB151142EA0142DB
:100E400005FB0EF1914208D91CEB020205F1FF38B7
:100E500016D2914214D9023D6244521A45EA004129
:100E600038E73146304608E73946E6E61046FBE605
:100E70004845A9D2B9EB020865EB0C0E013BA3E78C
:100E80004546EAE72B4694E74046D1E7D0467BE764
:100E9000023D624432E708460AE76444023842E70A
:100EA000704700BF80B500AF00F066FC00F034F87A
:100EB00000F00AF900F0D8F800F080F804F022FE03
:100EC0000F4B1B6800221A600D4B1B680D4A194618
:100ED0000D4804F061FE03460C4A1360084B1B6882
:100EE00001221A60064B1B68094A1946064804F09D
:100EF00053FE0346074A136004F028FEFEE700BFD6
:100F0000E802002048B0000801120008DC020020BE
:100F10006CB00008E002002080B596B000AF07F189
:100F2000140344220021184608F0C1F83B46002271
:100F30001A605A609A60DA601A614FF4007002F029
:100F4000D1FA0346002B01D000F092F902237B6115
:100F50004FF480733B6210237B620223FB63022306
:100F60003B6401237B640A23BB640723FB640223E5
:100F70003B6502237B6507F11403184602F008FB6A
:100F80000346002B01D000F073F90F233B600323CD
:100F90007B600023BB600023FB6000233B613B467A
:100FA0000421184602F0D0FE0346002B01D000F0C9
:100FB0005FF900BF5837BD4680BD000080B584B0E2
:100FC00000AF3B1D00221A605A609A60244B254AEC
:100FD0001A60234B4FF480125A60214B00229A6012
:100FE0001F4B0022DA601E4B01221A611C4B0822A3
:100FF0005A611B4B00221A76194B01225A76184B64
:101000000222DA61164B002283F82020144B0022C2
:101010009A62134B0022DA62114B002283F83020CF
:101020000F4B4FF480525A630D4B002283F8382047
:101030000B4800F013FE0346002B01D000F018F916
:1010400000237B603B1D1946054801F0E9FE03467D
:10105000002B01D000F00CF900BF1037BD4680BD59
:10106000F40100200000045080B500AF144B154A75
:101070001A60134B4FF4E1325A60114B00229A6010
:101080000F4B0022DA600E4B00221A610C4B0C222F
:101090005A610B4B00229A61094B0022DA61084B1E
:1010A00000221A62064B00225A62054804F030F80A
:1010B0000346002B01D000F0DBF800BF80BD00BF6D
:1010C000580200200044004080B58AB000AF07F10C
:1010D000140300221A605A609A60DA601A612B4B7E
:1010E000DB6C2A4A43F00403D364284BDB6C03F027
:1010F00004033B613B69254BDB6C244A43F08003CE
:10110000D364224BDB6C03F08003FB60FB681F4B56
:10111000DB6C1E4A43F00103D3641C4BDB6C03F011
:101120000103BB60BB68194BDB6C184A43F0020338
:10113000D364164BDB6C03F002037B607B680022F8
:1011400020214FF0904002F0A7F94FF400537B614B
:101150004FF40413BB610023FB6107F1140319462C
:101160000B4801F0EFFF20237B610123BB610023CB
:10117000FB6100233B6207F1140319464FF09040D6
:1011800001F0E0FF00BF2837BD4680BD00100240DF
:101190000008004880B586B000AF3B4600221A60C8
:1011A0005A609A60DA601A615A61114B1B681B68B9
:1011B000002B02D10F4B3B6001E00F4B3B6006233D
:1011C0007B600123BB607F23FB6004233B61002322
:1011D0007B613B461946094801F06AF80346002B3B
:1011E00001D000F045F800BF1837BD4680BD00BFF4
:1011F000E80200200200300404006008F40100202E
:1012000080B582B000AF7860FFF7C4FF0C4800F0F3
:101210007BFE4FF0FF310A4800F064FF084801F000
:1012200039F80246074B1B681B6891B2064A22F840
:101230001310034800F022FF322004F03FFDE3E7E3
:10124000F4010020E8020020E402002080B582B012
:1012500000AF78607B681B68044A934201D100F0BC
:10126000ABFA00BF0837BD4680BD00BF002C01406F
:1012700080B400AF72B600BFFEE7000080B582B058
:1012800000AF114B1B6E104A43F0010313660E4B67
:101290001B6E03F001037B607B680B4B9B6D0A4A5E
:1012A00043F080539365084B9B6D03F080533B6084
:1012B0003B6800220F216FF0010001F019FF00BF11
:1012C0000837BD4680BD00BF0010024080B5ACB0FD
:1012D00000AF786007F19C0300221A605A609A60A0
:1012E000DA601A6107F1140388220021184607F01A
:1012F000DEFE7B681B68274A934246D14FF4804349
:101300007B614FF08053C7F88C300223BB6101230F
:10131000FB6108233B6207237B620223BB6202233B
:10132000FB624FF080733B6307F11403184602F031
:1013300061FF0346002B01D0FFF79AFF164BDB6CD1
:10134000154A43F40053D364134BDB6C03F400538E
:101350003B613B69104BDB6C0F4A43F00403D364E1
:101360000D4BDB6C03F00403FB60FB680323C7F841
:101370009C300B23C7F8A0300023C7F8A43007F136
:101380009C031946054801F0DDFE00BFB037BD469D
:1013900080BD00BF0000045000100240000800485B
:1013A00080B5ACB000AF786007F19C0300221A60F2
:1013B0005A609A60DA601A6107F1140388220021EA
:1013C000184607F074FE7B681B68214A93423BD1A4
:1013D00002237B6100233B6507F11403184602F0EA
:1013E00009FF0346002B01D0FFF742FF194B9B6D0D
:1013F000184A43F400339365164B9B6D03F4003396
:101400003B613B69134BDB6C124A43F00103D3642D
:10141000104BDB6C03F00103FB60FB680C23C7F887
:101420009C300223C7F8A0300023C7F8A430032360
:10143000C7F8A8300723C7F8AC3007F19C0319465A
:101440004FF0904001F07EFE00BFB037BD4680BD3A
:10145000004400400010024080B58CB000AF7860BE
:10146000002387F82F302E4B1B6E2D4A43F4006368
:1014700013662B4B1B6E03F40063BB60BB6807F164
:101480000C0207F110031146184602F021FE02F08B
:1014900009FEB862BB6A234AA2FB03239B0C013BF3
:1014A0007B62214B214A1A601F4B40F2E732DA601F
:1014B0001D4A7B6A53601C4B00221A611A4B0022A2
:1014C0009A60194B00229A61174803F04FFB0346BC
:1014D00087F82F3097F82F30002B1BD1124803F0DC
:1014E000A7FB034687F82F3097F82F30002B11D138
:1014F000192001F019FE7B680F2B08D800227968AB
:10150000192001F0F5FD0A4A7B68136002E001230F
:1015100087F82F3097F82F3018463037BD4680BDFA
:101520000010024083DE1B43EC020020002C01402F
:101530000400002080B400AFFEE780B400AFFEE7F7
:1015400080B400AFFEE780B400AFFEE780B400AF28
:10155000FEE780B400AF00BFBD465DF8047B704776
:1015600080B500AF024803F0D3FB00BF80BD00BFD1
:10157000EC02002080B400AF01231846BD465DF8A0
:10158000047B704780B582B000AF7860396007F0A7
:1015900037FE034616221A604FF0FF33184608370D
:1015A000BD4680BD80B582B000AF78604FF0FF319E
:1015B0007868FFF7E7FFFEE780B586B000AFF86018
:1015C000B9607A6000237B610AE0AFF300800146D6
:1015D000BB685A1CBA60CAB21A707B6901337B615E
:1015E0007A697B689A42F0DB7B6818461837BD46FB
:1015F00080BD80B586B000AFF860B9607A60002326
:101600007B6109E0BB685A1CBA601B781846AFF3CF
:1016100000807B6901337B617A697B689A42F1DBE8
:101620007B6818461837BD4680BD80B483B000AFD4
:1016300078604FF0FF3318460C37BD465DF8047BE9
:10164000704780B483B000AF786039603B684FF476
:1016500000525A60002318460C37BD465DF8047BE3
:10166000704780B483B000AF7860012318460C3710
:10167000BD465DF8047B704780B485B000AFF8606C
:10168000B9607A60002318461437BD465DF8047BC4
:101690007047000080B586B000AF7860144A154BE3
:1016A000D31A7B617B693B61134B1B68002B02D112
:1016B000114B124A1A60104B1A687B6813443A693E
:1016C0009A4207D207F09CFD03460C221A604FF0A5
:1016D000FF3309E0084B1B68FB60074B1A687B6807
:1016E0001344054A1360FB6818461837BD4680BD91
:1016F000008001200004000038030020301E00207C
:1017000080B400AF064BD3F88830054A43F4700329
:10171000C2F8883000BFBD465DF8047B704700BF4B
:1017200000ED00E0DFF834D0FFF7EAFF0C480D4988
:101730000D4A002302E0D458C4500433C4188C422C
:10174000F9D30A4A0A4C002301E013600432A24292
:10175000FBD307F05BFDFFF7A5FBFEE70080012050
:1017600000000020D80100205CB40008D80100204F
:101770002C1E0020FEE7000080B582B000AF0023E1
:10178000FB710C4B1B680B4A43F4807313600320FE
:1017900001F0A3FC0F20FFF75FFE0346002B02D0F1
:1017A0000123FB7101E0FFF769FDFB79184608375B
:1017B000BD4680BD0020024080B400AF064B1B78C0
:1017C0001A46064B1B681344044A136000BFBD460B
:1017D0005DF8047B704700BF080000203C03002038
:1017E00080B400AF034B1B681846BD465DF8047B10
:1017F000704700BF3C03002080B483B000AF786026
:1018000039607B689B6823F47C123B681A437B68D1
:101810009A6000BF0C37BD465DF8047B704780B40A
:1018200083B000AF786039607B689B6823F0E0721A
:101830003B681A437B689A6000BF0C37BD465DF871
:10184000047B704780B483B000AF78607B689B688E
:1018500003F0E07318460C37BD465DF8047B704713
:1018600080B487B000AFF860B9607A603B60FB6815
:1018700060331A46BB689B0013447B617B691A681E
:10188000084B13407A6802F0F8413A680A43134360
:1018900043F000427B691A6000BF1C37BD465DF80B
:1018A000047B704700F0FF0380B485B000AF786020
:1018B00039607B6860331A463B689B001344FB60C9
:1018C000FB681B6803F0F84318461437BD465DF803
:1018D000047B704780B487B000AFF860B9607A606D
:1018E000FB6860331A46BB689B0013447B617B69CD
:1018F0001B6823F000427B681A437B691A6000BFB3
:101900001C37BD465DF8047B704780B483B000AFE0
:1019100078607B68DB6803F44063002B01D101230E
:1019200000E0002318460C37BD465DF8047B704785
:1019300080B487B000AFF860B9607A60FB6830337C
:101940001A46BB681B0A9B0003F00C0313447B611F
:101950007B691A68BB6803F01F031F2101FA03F3B8
:10196000DB431A407B689B0E03F01F01BB6803F04A
:101970001F0301FA03F31A437B691A6000BF1C3787
:10198000BD465DF8047B704780B487B000AFF86057
:10199000B9607A60FB6814331A46BB685B0E9B0023
:1019A00003F0040313447B617B691A68BB681B0D59
:1019B00003F01F03072101FA03F3DB431A40BB685E
:1019C0001B0D03F01F03796801FA03F31A437B69C7
:1019D0001A6000BF1C37BD465DF8047B70470000ED
:1019E00080B485B000AFF860B9607A60FB68D3F866
:1019F000B020BB68C3F31203DB431A407B6803F0DB
:101A000018030849D940BB680B40C3F312031A43BB
:101A1000FB68C3F8B02000BF1437BD465DF8047BF7
:101A2000704700BFFFFF070080B483B000AF78604D
:101A30007B689B6803F01F0318460C37BD465DF8B2
:101A4000047B704780B483B000AF78607B689B688C
:101A500003F4604318460C37BD465DF8047B7047BD
:101A600080B483B000AF78607B689B6823F020432C
:101A700023F03F037A68936000BF0C37BD465DF8E2
:101A8000047B704780B483B000AF78607B689B684C
:101A900003F00053B3F1005F01D1012300E0002304
:101AA00018460C37BD465DF8047B704780B483B0A0
:101AB00000AF78607B689B6823F0104323F03F03FE
:101AC00043F080527B689A6000BF0C37BD465DF8DA
:101AD000047B704780B483B000AF78607B689B68FC
:101AE00003F08053B3F1805F01D1012300E00023B4
:101AF00018460C37BD465DF8047B704780B483B050
:101B000000AF78607B689B6823F0004323F03F03BD
:101B100043F001027B689A6000BF0C37BD465DF858
:101B2000047B704780B483B000AF78607B689B68AB
:101B300023F0004323F03F0343F002027B689A60E6
:101B400000BF0C37BD465DF8047B704780B483B09E
:101B500000AF78607B689B6803F00103012B01D123
:101B6000012300E0002318460C37BD465DF8047BD6
:101B7000704780B483B000AF78607B689B6803F0E7
:101B80000203022B01D1012300E0002318460C3789
:101B9000BD465DF8047B704780B483B000AF7860C9
:101BA0007B689B6823F0004323F03F0343F004026B
:101BB0007B689A6000BF0C37BD465DF8047B7047B8
:101BC00080B483B000AF78607B689B6823F00043EB
:101BD00023F03F0343F010027B689A6000BF0C378C
:101BE000BD465DF8047B704780B483B000AF786079
:101BF0007B689B6803F00403042B01D1012300E000
:101C0000002318460C37BD465DF8047B704780B44E
:101C100083B000AF78607B689B6823F0004323F0BB
:101C20003F0343F020027B689A6000BF0C37BD463B
:101C30005DF8047B704780B483B000AF78607B6848
:101C40009B6803F00803082B01D1012300E0002367
:101C500018460C37BD465DF8047B704790B589B0D7
:101C600000AF78600023FB770023BB607B68002B0C
:101C700001D1012336E17B681B69002B7B685B6D1A
:101C8000002B09D17868FFF721FB7B6800229A6559
:101C90007B68002283F850207B681B681846FFF79A
:101CA000F1FE0346002B04D07B681B681846FFF743
:101CB000D7FE7B681B681846FFF70CFF0346002B16
:101CC00015D17B681B681846FFF7F0FE874B1B6831
:101CD0009B09874AA2FB03239B0901335B00BB607E
:101CE00002E0BB68013BBB60BB68002BF9D17B689D
:101CF0001B681846FFF7EEFE0346002B0DD17B68EC
:101D00005B6D43F010027B685A657B689B6D43F006
:101D100001027B689A650123FB777B681B68184684
:101D2000FFF762FF78617B685B6D03F01003002BA7
:101D300040F0CF807B69002B40F0CB807B685B6DEF
:101D400023F4817343F002027B685A657B681B6849
:101D50001846FFF7FBFE0346002B15D16548FFF739
:101D6000F5FE04466448FFF7F1FE03461C43634852
:101D7000FFF7ECFE03462343002B05D17B685B682D
:101D800019465F48FFF738FD7B685B7E5A037B6826
:101D90005B6B1A437B68DB681A437B689B681A435A
:101DA0007B6893F820301B041343BB617B6893F876
:101DB0002030012B06D17B685B6A013B5B04BA696A
:101DC0001343BB617B689B6A002B09D07B689B6ACD
:101DD00003F470727B68DB6A1343BA691343BB6117
:101DE0007B681B68DA68474B13407A681268B969E8
:101DF0000B43D3607B681B681846FFF7F5FE38611C
:101E00007B681B681846FFF716FFF8603B69002BDC
:101E10003DD1FB68002B3AD17B681B7E9A037B681F
:101E200093F830305B001343BB617B681B68DB6851
:101E300023F4804323F002037A681268B9690B43E4
:101E4000D3607B6893F83830012B18D17B681B680E
:101E50001B6923F4FF6323F004037A68D16B7A686B
:101E6000126C11437A68526C11437A68926C0A437F
:101E70001A437B681B6842F001021A6107E07B6825
:101E80001B681A697B681B6822F001021A617B6873
:101E90001B69012B0CD17B681B681B6B23F00F01A6
:101EA0007B68DB695A1E7B681B680A431A6307E07C
:101EB0007B681B681A6B7B681B6822F00F021A6331
:101EC0007B685B6D23F0030343F001027B685A6576
:101ED00007E07B685B6D43F010027B685A65012365
:101EE000FB77FB7F18462437BD4690BD00000020DD
:101EF000632D3E0500000450000104500002045010
:101F00000003045007C0F0FF80B586B000AF7860D2
:101F10005748FFF789FD38617B681B681846FFF753
:101F200063FE0346002B40F09C807B6893F85030A2
:101F3000012B01D1022397E07B68012283F8502016
:101F4000786800F061FE0346FB75FB7D002B40F0D6
:101F500083807B685B6D23F4706323F0010343F49B
:101F600080727B685A657B681B68424A934202D044
:101F70007B681B6800E0404B7A681268934202D08D
:101F80003B69002B05D17B685B6D23F480127B6875
:101F90005A657B685B6D03F48053B3F5805F06D1AF
:101FA0007B689B6D23F006027B689A6502E07B6884
:101FB00000229A657B681B681C221A607B680022DD
:101FC00083F850207B681B682A4A934202D07B68C2
:101FD0001B6800E0284B7A681268934208D03B697E
:101FE000002B05D03B69052B02D03B69092B14D18E
:101FF0007B681B68DB6803F00073002B07D07B68ED
:102000005B6D23F4405343F480527B685A657B68D0
:102010001B681846FFF7C0FD25E07B685B6D43F445
:1020200080127B685A657B681B68124A934202D013
:102030007B681B6800E0104BFB60FB68DB6803F00B
:102040000073002B0FD07B685B6D23F4405343F487
:1020500080527B685A6506E07B68002283F8502036
:1020600001E00223FB75FB7D18461837BD4680BD95
:1020700000030450000104500000045080B584B0F7
:1020800000AF78607B6893F85030012B01D10223B8
:1020900023E07B68012283F850200321786800F058
:1020A000F7FC0346FB73FB7B002B11D1786800F033
:1020B00031FE0346FB73FB7B002B09D17B685B6D14
:1020C00023F4885323F0010343F001027B685A652F
:1020D0007B68002283F85020FB7B18461037BD46F2
:1020E00080BD000080B588B000AF78603960664878
:1020F000FFF79AFC78617B685B69082B02D10823A3
:10210000FB612AE07B69002B05D07B69052B02D09F
:102110007B69092B11D17B681B68DB6803F0010325
:10212000002B07D07B685B6D43F020027B685A650B
:102130000123A4E00423FB610FE05348FFF782FC76
:102140000346002B07D07B685B6D43F020027B6861
:102150005A65012393E00423FB61FFF741FB3861DB
:1021600021E03B68B3F1FF3F1DD0FFF739FB02468A
:102170003B69D31A3A689A4202D33B68002B12D1CA
:102180007B681B681A68FB691340002B0BD17B68C6
:102190005B6D43F004027B685A657B68002283F81C
:1021A000502003236BE07B681B681A68FB691340AF
:1021B000002BD6D07B685B6D43F400727B685A6558
:1021C0007B681B681846FFF7A0FB0346002B1CD05A
:1021D0007B685B7E002B18D17B681B681B6803F053
:1021E0000803082B11D17B685B6D23F480727B6838
:1021F0005A657B685B6D03F48053002B05D17B68C7
:102200005B6D43F001027B685A657B681B681F4A5F
:10221000934202D07B681B6800E01D4B7A6812680D
:10222000934208D07B69002B05D07B69052B02D037
:102230007B69092B04D17B681B68DB68BB610CE000
:102240007B681B68114A934202D07B681B6800E0E0
:102250000F4BFB60FB68DB68BB61FB69082B04D19B
:102260007B681B6808221A6008E0BB6903F480439E
:10227000002B03D17B681B680C221A6000231846D0
:102280002037BD4680BD00BF00030450000104504C
:102290000000045080B483B000AF78607B681B6896
:1022A0001B6C18460C37BD465DF8047B7047000078
:1022B00080B5B6B000AF78603960002387F8D730BA
:1022C0000023FB607B6893F85030012B01D102237F
:1022D000C7E37B68012283F850207B681B6818469F
:1022E000FFF782FC0346002B40F0A8833B685B6845
:1022F000052B24D83B685B68023B032B1BD801A24B
:1023000052F823F0152300081D2300082523000898
:102310002D2300083B680C225A6010E03B68122213
:102320005A600CE03B6818225A6008E03B684FF4A2
:1023300080725A6003E03B6806225A6000BF7B68E7
:1023400018683B6859683B681B681A46FFF7F0FA43
:102350007B681B681846FFF747FCC7F8D0007B680E
:102360001B681846FFF767FCC7F8CC00D7F8D030D9
:10237000002B40F0A681D7F8CC30002B40F0A18193
:102380007B6818683B6819683B689B681A46FFF7CA
:10239000FBFA3B685A697B681B68DB68DB0803F063
:1023A00003035B0002FA03F3C7F8C8303B681B69FC
:1023B000042B0AD07B6818683B6819693B681A6867
:1023C000D7F8C830FFF74CFA7BE17B681B68002127
:1023D0001846FFF769FA0346C3F31203002B0AD12C
:1023E0007B681B6800211846FFF75EFA03469B0EC8
:1023F00003F01F021EE07B681B6800211846FFF7F0
:1024000053FA0346C7F8BC30D7F8BC3093FAA3F3AD
:10241000C7F8B830D7F8B830C7F8C030D7F8C030F0
:10242000002B01D1202304E0D7F8C030B3FA83F3A6
:10243000DBB21A463B681B68C3F31203002B05D1BD
:102440003B681B689B0E03F01F0318E03B681B688A
:10245000C7F8B030D7F8B03093FAA3F3C7F8AC3070
:10246000D7F8AC30C7F8B430D7F8B430002B01D16E
:10247000202304E0D7F8B430B3FA83F3DBB29A42F6
:1024800006D17B681B68002200211846FFF722FA5C
:102490007B681B6801211846FFF706FA0346C3F361
:1024A0001203002B0AD17B681B6801211846FFF735
:1024B000FBF903469B0E03F01F021EE07B681B68BE
:1024C00001211846FFF7F0F90346C7F8A430D7F802
:1024D000A43093FAA3F3C7F8A030D7F8A030C7F818
:1024E000A830D7F8A830002B01D1202304E0D7F87A
:1024F000A830B3FA83F3DBB21A463B681B68C3F318
:102500001203002B05D13B681B689B0E03F01F03D1
:1025100018E03B681B68C7F89830D7F8983093FAF2
:10252000A3F3C7F89430D7F89430C7F89C30D7F8A5
:102530009C30002B01D1202304E0D7F89C30B3FA63
:1025400083F3DBB29A4206D17B681B68002201212B
:102550001846FFF7BFF97B681B6802211846FFF792
:10256000A3F90346C3F31203002B0AD17B681B684F
:1025700002211846FFF798F903469B0E03F01F024D
:102580001EE07B681B6802211846FFF78DF90346A1
:10259000C7F88C30D7F88C3093FAA3F3C7F888309B
:1025A000D7F88830C7F89030D7F89030002B01D199
:1025B000202304E0D7F89030B3FA83F3DBB21A4655
:1025C0003B681B68C3F31203002B05D13B681B68F3
:1025D0009B0E03F01F0316E03B681B68C7F88030B2
:1025E000D7F8803093FAA3F3FB67FB6FC7F884300A
:1025F000D7F88430002B01D1202304E0D7F88430B1
:10260000B3FA83F3DBB29A4206D17B681B680022DF
:1026100002211846FFF75EF97B681B680321184604
:10262000FFF742F90346C3F31203002B0AD17B687C
:102630001B6803211846FFF737F903469B0E03F08A
:102640001F0217E07B681B6803211846FFF72CF96F
:1026500003467B677B6F93FAA3F33B673B6FBB67D4
:10266000BB6F002B01D1202303E0BB6FB3FA83F3D0
:10267000DBB21A463B681B68C3F31203002B05D17B
:102680003B681B689B0E03F01F0311E03B681B684F
:10269000BB66BB6E93FAA3F37B667B6EFB66FB6E39
:1026A000002B01D1202303E0FB6EB3FA83F3DBB2EE
:1026B0009A4206D17B681B68002203211846FFF767
:1026C00009F97B681B681846FFF740FA0346002BA0
:1026D00040F040817B6818683B6819683B68DB689C
:1026E0001A46FFF77DF93B68DB688F4A934240F05A
:1026F00031817B6818683B681B68C3F31203002BA9
:102700000BD13B681B689B0E013303F01F03092BA1
:1027100094BF01230023DBB219E03B681B68FB6513
:10272000FB6D93FAA3F3BB65BB6D3B663B6E002B61
:1027300001D1202303E03B6EB3FA83F3DBB2013314
:1027400003F01F03092B94BF01230023DBB2002BEE
:1027500079D03B681B68C3F31203002B07D13B6899
:102760001B689B0E01339B0603F0F84215E03B68A3
:102770001B683B653B6D93FAA3F3FB64FB6C7B65C5
:102780007B6D002B01D1202303E07B6DB3FA83F333
:10279000DBB201339B0603F0F8423B681B68C3F3CE
:1027A0001203002B09D13B681B689B0E013303F019
:1027B0001F03012101FA03F317E03B681B687B64E8
:1027C0007B6C93FAA3F33B643B6CBB64BB6C002B48
:1027D00001D1202303E0BB6CB3FA83F3DBB20133F6
:1027E00003F01F03012101FA03F342EA03013B68EE
:1027F0001B68C3F31203002B0AD13B681B689B0EB6
:10280000013303F01F0213465B0013441B0518E05D
:102810003B681B68BB63BB6B93FAA3F37B637B6B67
:10282000FB63FB6B002B01D1202303E0FB6BB3FAAE
:1028300083F3DBB2013303F01F0213465B00134442
:102840001B050B4381E03B681B68C3F31203002B9D
:1028500007D13B681B689B0E01339B0603F0F842CF
:1028600015E03B681B68FB62FB6A93FAA3F3BB624B
:10287000BB6A3B633B6B002B01D1202303E03B6B26
:10288000B3FA83F3DBB201339B0603F0F8423B68F3
:102890001B68C3F31203002B09D13B681B689B0E16
:1028A000013303F01F03012101FA03F317E03B6832
:1028B0001B683B623B6A93FAA3F3FB61FB697B6293
:1028C0007B6A002B01D1202303E07B6AB3FA83F3F8
:1028D000DBB2013303F01F03012101FA03F342EAE3
:1028E00003013B681B68C3F31203002B0DD13B6847
:1028F0001B689B0E013303F01F0213465B00134459
:102900001E3B1B0543F000731EE03B681B687B61A8
:102910007B6993FAA3F33B613B69BB61BB69002B05
:1029200004D1202306E000BF00007F40BB69B3FA5A
:1029300083F3DBB2013303F01F0213465B00134441
:102940001E3B1B0543F000730B433A68926819461F
:10295000FFF71AF83B681A68444B1340002B7AD0F3
:102960004348FEF76FFFC7F8C4003B681B68414A45
:1029700093422CD1D7F8C43003F40003002B26D1A6
:102980007B681B683C4A934204D07B681B683B4AC7
:1029900093425DD1D7F8C43043F40003194634485C
:1029A000FEF73DFF364B1B689B09364AA2FB03230B
:1029B0009B095A1C13465B0013449B00FB6002E01A
:1029C000FB68013BFB60FB68002BF9D140E03B68F2
:1029D0001B682D4A934218D1D7F8C43003F0807396
:1029E000002B12D17B681B68234A934204D07B687A
:1029F0001B68224A93422DD1D7F8C43043F080732C
:102A000019461B48FEF70BFF24E03B681B681F4A72
:102A1000934220D1D7F8C43003F48003002B1AD19D
:102A20007B681B68144A934215D1D7F8C43043F42D
:102A3000800319460E48FEF7F2FE0CE07B685B6DE2
:102A400043F020027B685A65012387F8D73002E003
:102A500000BF00E000BF7B68002283F8502097F899
:102A6000D7301846D837BD4680BD00BF000008806B
:102A700000030450000052C700000450000204503C
:102A800000000020632D3E05000084CB0100008083
:102A900080B588B000AF786039600023FB613B6887
:102AA000BB617B681B681846FFF79EF838617B683E
:102AB0001B681846FFF7BFF8F8603B69002B03D18D
:102AC000FB68002B00F098807B681B68DB6803F0D4
:102AD0000073002B2AD07B685B7E012B26D17B689C
:102AE0001B7E012B22D10123BB6114E0FB69454A07
:102AF00093420DD97B685B6D43F010027B685A6589
:102B00007B689B6D43F001027B689A65012374E04A
:102B1000FB690133FB617B681B681B6803F04003A2
:102B2000402BE3D17B681B6840221A60BB69022BF3
:102B300014D07B681B681846FFF756F80346002B35
:102B40000CD07B681B681846FFF713F80346002B70
:102B500004D17B681B681846FFF732F8BB69012B6C
:102B600014D07B681B681846FFF765F80346002BF6
:102B70000CD07B681B681846FEF7FBFF0346002B52
:102B800004D17B681B681846FFF741F8BB69022B2C
:102B900005D0BB69032B05D10C237B6105E008231D
:102BA0007B6102E004237B6100BFFEF719FEB86081
:102BB0001BE0FEF715FE0246BB68D31A052B14D99D
:102BC0007B681B689A687B691340002B0DD07B687B
:102BD0005B6D43F010027B685A657B689B6D43F028
:102BE00001027B689A65012307E07B681B689A688D
:102BF0007B691340002BDCD1002318462037BD46EB
:102C000080BD00BFFFFF3FA380B584B000AF7860F8
:102C10000023BB607B681B681846FEF797FF0346DE
:102C2000002B69D17B681B689A68364B1340002BD8
:102C30000DD07B685B6D43F010027B685A657B6842
:102C40009B6D43F001027B689A65012355E07B6828
:102C50001B681846FEF752FF2B48FEF7F3FD0346AC
:102C600003F40003002B13D0284B1B689B09284A50
:102C7000A2FB03239B095A1C13465B0013449B00D1
:102C8000BB6002E0BB68013BBB60BB68002BF9D1B5
:102C9000FEF7A6FDF86028E07B681B681846FEF783
:102CA00055FF0346002B04D17B681B681846FEF7CE
:102CB00025FFFEF795FD0246FB68D31A022B14D9B7
:102CC0007B681B681B6803F00103012B0DD07B6838
:102CD0005B6D43F010027B685A657B689B6D43F027
:102CE00001027B689A65012307E07B681B681B680B
:102CF00003F00103012BCFD1002318461037BD4646
:102D000080BD00BF3F000080000304500000002091
:102D1000632D3E0580B584B000AF78607B681B688A
:102D20001846FEF726FFF8607B681B681846FEF71A
:102D30000DFF0346002B47D0FB68002B44D17B6876
:102D40001B689B6803F00D03012B0CD17B681B688B
:102D50001846FEF7E7FE7B681B6803221A60FEF741
:102D60003FFDB86029E07B685B6D43F010027B6833
:102D70005A657B689B6D43F001027B689A6501236D
:102D800023E0FEF72DFD0246BB68D31A022B14D9AF
:102D90007B681B689B6803F00103002B0DD07B68E8
:102DA0005B6D43F010027B685A657B689B6D43F056
:102DB00001027B689A65012307E07B681B689B68BA
:102DC00003F00103002BDCD1002318461037BD4669
:102DD00080BD80B483B000AF78607B689B6803F0EF
:102DE0000103012B01D1012300E0002318460C3719
:102DF000BD465DF8047B704780B483B000AF786057
:102E00007B689B6803F00403042B01D1012300E0DD
:102E1000002318460C37BD465DF8047B7047000060
:102E200090B59FB000AF78603960002387F87730A5
:102E30007B6893F85030012B01D1022393E07B682B
:102E4000012283F850200023FB6500233B667B684A
:102E50001B68474A934202D1464BBB6001E0002306
:102E6000BB60BB68002B0BD17B685B6D43F020021D
:102E70007B685A657B68002283F85020012372E04A
:102E8000BB681846FFF7B8FF38677B681B681846B1
:102E9000FFF7B2FF0346002B54D13B6F002B51D1FB
:102EA000354BFB663B681B68002B2CD0FB6E9B6888
:102EB00023F460423B6859687B6893F830305B03C9
:102EC0000B431A43FB6E9A602948FFF782FF0446C2
:102ED0002848FFF77EFF03461C432848FFF779FF89
:102EE00003462343002B37D1FB6E9B6823F47163A9
:102EF00023F00F033A6811683A6892680A431A434C
:102F0000FB6E9A6028E0FB6E9B6823F46042FB6EC8
:102F10009A601748FFF75DFF04461648FFF759FF10
:102F200003461C431548FFF754FF03462343002B79
:102F300012D1FB6E9B6823F4716323F00F03FA6ECA
:102F4000936009E07B685B6D43F020027B685A6503
:102F5000012387F8773000E000BF7B68002283F808
:102F6000502097F8773018467C37BD4690BD00BF9B
:102F700000000450000104500003045000020450FB
:102F800080B485B000AF78607B6803F00703FB6016
:102F90000C4BDB68BB60BA684FF6FF031340BB60A5
:102FA000FB681A02BB68134343F0BF6343F400336A
:102FB000BB60044ABB68D36000BF1437BD465DF8F0
:102FC000047B704700ED00E080B400AF044BDB6889
:102FD0001B0A03F007031846BD465DF8047B7047E3
:102FE00000ED00E080B483B000AF0346FB7197F9B9
:102FF0000730002B0BDBFB7903F01F02074997F921
:1030000007305B09012000FA02F241F8232000BFDB
:103010000C37BD465DF8047B704700BF00E100E05F
:1030200080B483B000AF03463960FB7197F9073075
:10303000002B0ADB3B68DAB20C4997F90730120122
:10304000D2B20B4483F800230AE03B68DAB20849A5
:10305000FB7903F00F03043B1201D2B20B441A7642
:1030600000BF0C37BD465DF8047B704700E100E00F
:1030700000ED00E080B489B000AFF860B9607A601C
:10308000FB6803F00703FB61FB69C3F10703042B33
:1030900028BF0423BB61FB690433062B02D9FB69FB
:1030A000033B00E000237B614FF0FF32BB6902FA73
:1030B00003F3DA43BB681A407B699A404FF0FF3153
:1030C0007B6901FA03F3D9437B680B40134318462D
:1030D0002437BD465DF8047B704780B582B000AFF1
:1030E00078607868FFF74CFF00BF0837BD4680BDA9
:1030F00080B586B000AF0346B9607A60FB730023E9
:103100007B61FFF761FF78617A68B9687869FFF7DA
:10311000B1FF024697F90F3011461846FFF780FFBE
:1031200000BF1837BD4680BD80B582B000AF0346F2
:10313000FB7197F907301846FFF754FF00BF0837B7
:10314000BD4680BD80B487B000AF78603960002391
:103150007B617FE13B681A6801217B6901FA03F317
:103160001340FB60FB68002B00F071813B685B68DB
:1031700003F00303012B05D03B685B6803F00303F6
:10318000022B30D17B689B683B617B695B0003222B
:1031900002FA03F3DB433A6913403B613B68DA68A8
:1031A0007B695B0002FA03F33A6913433B617B6876
:1031B0003A699A607B685B683B6101227B6902FA2D
:1031C00003F3DB433A6913403B613B685B681B09CF
:1031D00003F001027B6902FA03F33A6913433B618E
:1031E0007B683A695A603B685B6803F00303032B12
:1031F00018D17B68DB6A3B6101227B6902FA03F329
:10320000DB433A6913403B613B685B68DB0803F0D2
:1032100001027B6902FA03F33A6913433B617B685D
:103220003A69DA623B685B6803F00303032B17D04B
:103230007B68DB683B617B695B00032202FA03F376
:10324000DB433A6913403B613B689A687B695B00EA
:1032500002FA03F33A6913433B617B683A69DA6027
:103260003B685B6803F00303022B23D17B69DA0818
:103270007B68083253F822303B617B6903F0070317
:103280009B000F2202FA03F3DB433A6913403B61D0
:103290003B681A697B6903F007039B0002FA03F39A
:1032A0003A6913433B617B69DA087B680832396904
:1032B00043F822107B681B683B617B695B0003223B
:1032C00002FA03F3DB433A6913403B613B685B68F6
:1032D00003F003027B695B0002FA03F33A691343CC
:1032E0003B617B683A691A603B685B6803F4403372
:1032F000002B00F0AC805F4B1B6E5E4A43F0010375
:1033000013665C4B1B6E03F00103BB60BB685A4A3B
:103310007B699B08023352F823303B617B6903F0E1
:1033200003039B000F2202FA03F3DB433A691340C5
:103330003B617B68B3F1904F25D07B684F4A934245
:103340001FD07B684E4A934219D07B684D4A934206
:1033500013D07B684C4A93420DD07B684B4A934212
:1033600007D07B684A4A934201D106230CE0072329
:103370000AE0052308E0042306E0032304E0022317
:1033800002E0012300E000237A6902F003029200C8
:1033900093403A6913433B6137497B699B08023389
:1033A0003A6941F823203B4B9B683B61FB68DB4358
:1033B0003A6913403B613B685B6803F48013002B60
:1033C00003D03A69FB6813433B61324A3B6993601F
:1033D000304BDB683B61FB68DB433A6913403B6180
:1033E0003B685B6803F40013002B03D03A69FB6869
:1033F00013433B61274A3B69D360264B5B683B61C3
:10340000FB68DB433A6913403B613B685B6803F44C
:103410000033002B03D03A69FB6813433B611D4A1C
:103420003B6953601B4B1B683B61FB68DB433A699C
:1034300013403B613B685B6803F48033002B03D08F
:103440003A69FB6813433B61124A3B6913607B692D
:1034500001337B613B681A687B6922FA03F3002B16
:103460007FF478AE00BF00BF1C37BD465DF8047B1B
:10347000704700BF001002400000014000040048F7
:1034800000080048000C00480010004800140048E4
:10349000001800480004014080B483B000AF786099
:1034A0000B467B8013467B707B78002B03D07A8899
:1034B0007B689A6102E07A887B689A6200BF0C3769
:1034C000BD465DF8047B704780B400AF044B1B68B9
:1034D00003F4C0631846BD465DF8047B704700BF27
:1034E0000070004080B485B000AF78607B68B3F5B1
:1034F000007F30D1234B1B6803F4C063B3F5007F1A
:1035000038D0204B1B6823F4C0631E4A43F4007379
:1035100013601D4B1B68322202FB03F31B4AA2FB04
:1035200003239B0C0133FB6002E0FB68013BFB6063
:10353000144B5B6903F48063B3F5806F02D1FB68C1
:10354000002BF2D10F4B5B6903F48063B3F5806FFE
:1035500010D103230FE00B4B1B6803F4C063B3F5DA
:10356000806F07D0074B1B6823F4C063054A43F400
:1035700080631360002318461437BD465DF8047B52
:10358000704700BF007000400000002083DE1B4336
:1035900080B588B000AF78607B68002B01D1012333
:1035A000CAE3974B9B6803F00C03BB61944BDB6849
:1035B00003F003037B617B681B6803F01003002B9F
:1035C00000F0E480BB69002B07D0BB690C2B40F0F6
:1035D0008B807B69012B40F08780894B1B6803F04F
:1035E0000203002B05D07B689B69002B01D10123CE
:1035F000A2E37B681A6A824B1B6803F00803002B66
:1036000004D07F4B1B6803F0F00305E07C4BD3F83C
:1036100094301B0903F0F003934223D27B681B6AAA
:10362000184600F087FD0346002B01D0012383E3F9
:10363000734B1B68724A43F008031360704B1B689E
:1036400023F0F0027B681B6A6D4913430B606C4BDF
:103650005B6823F47F427B68DB691B026849134384
:103660004B6025E0664B1B68654A43F00803136016
:10367000634B1B6823F0F0027B681B6A60491343AD
:103680000B605F4B5B6823F47F427B68DB691B0246
:103690005B4913434B60BB69002B09D17B681B6AF4
:1036A000184600F047FD0346002B01D0012343E3F9
:1036B00000F04AFC0246524B9B681B0903F00F03C3
:1036C0005049CB5C03F01F0322FA03F34E4A136008
:1036D0004E4B1B681846FDF7BFFE0346FB73FB7B92
:1036E000002B52D0FB7B27E37B689B69002B32D0F9
:1036F000434B1B68424A43F001031360FEF770F826
:10370000386108E0FEF76CF802463B69D31A022BD9
:1037100001D9032310E33A4B1B6803F00203002B8B
:10372000F0D0374B1B68364A43F008031360344B24
:103730001B6823F0F0027B681B6A314913430B605E
:103740002F4B5B6823F47F427B68DB691B022C49AB
:1037500013434B601AE02A4B1B68294A23F00103EC
:103760001360FEF73DF8386108E0FEF739F80246CD
:103770003B69D31A022B01D90323DDE2204B1B68DE
:1037800003F00203002BF0D100E000BF7B681B6850
:1037900003F00103002B74D0BB69082B05D0BB6973
:1037A0000C2B0ED17B69032B0BD1154B1B6803F43B
:1037B0000033002B64D07B685B68002B60D1012351
:1037C000BAE27B685B68B3F5803F06D10C4B1B689F
:1037D0000B4A43F48033136026E07B685B68B3F5E3
:1037E000A02F15D1064B1B68054A43F480231360B4
:1037F000034B1B68024A43F48033136014E000BF9C
:103800000010024090B000080000002004000020DA
:10381000A04B1B689F4A23F4803313609D4B1B68A9
:103820009C4A23F4802313607B685B68002B13D0D1
:10383000FDF7D6FF386108E0FDF7D2FF02463B698D
:10384000D31A642B01D9032376E2924B1B6803F44D
:103850000033002BF0D014E0FDF7C2FF386108E020
:10386000FDF7BEFF02463B69D31A642B01D903233F
:1038700062E2884B1B6803F40033002BF0D100E0B8
:1038800000BF7B681B6803F00203002B60D0BB699C
:10389000042B05D0BB690C2B19D17B69022B16D1E7
:1038A0007C4B1B6803F48063002B05D07B68DB68CE
:1038B000002B01D101233FE2764B5B6823F0F852E5
:1038C0007B681B691B06734913434B6040E07B68B0
:1038D000DB68002B23D06F4B1B686E4A43F4807368
:1038E0001360FDF77DFF386108E0FDF779FF0246C0
:1038F0003B69D31A022B01D903231DE2654B1B68D8
:1039000003F48063002BF0D0624B5B6823F0F85225
:103910007B681B691B065F4913434B6018E05D4BD6
:103920001B685C4A23F480731360FDF759FF38610C
:1039300008E0FDF755FF02463B69D31A022B01D977
:103940000323F9E1534B1B6803F48063002BF0D190
:103950007B681B6803F00803002B3CD07B685B6925
:10396000002B1CD04B4BD3F894304A4A43F0010350
:10397000C2F89430FDF734FF386108E0FDF730FFFE
:1039800002463B69D31A022B01D90323D4E1414BF0
:10399000D3F8943003F00203002BEFD01BE03D4B33
:1039A000D3F894303B4A23F00103C2F89430FDF77A
:1039B00017FF386108E0FDF713FF02463B69D31A91
:1039C000022B01D90323B7E1324BD3F8943003F033
:1039D0000203002BEFD17B681B6803F00403002B6C
:1039E00000F0A6800023FB772A4B9B6D03F08053E9
:1039F000002B0DD1274B9B6D264A43F080539365D6
:103A0000244B9B6D03F08053BB60BB680123FB77A5
:103A1000214B1B6803F48073002B18D11E4B1B68CD
:103A20001D4A43F480731360FDF7DAFE386108E045
:103A3000FDF7D6FE02463B69D31A022B01D90323B8
:103A40007AE1154B1B6803F48073002BF0D07B6880
:103A50009B68012B08D10F4BD3F890300D4A43F0EF
:103A60000103C2F8903029E07B689B68052B15D1D3
:103A7000084BD3F89030074A43F00403C2F8903063
:103A8000044BD3F89030034A43F00103C2F890305E
:103A900014E000BF00100240007000409C4BD3F8BF
:103AA00090309B4A23F00103C2F89030984BD3F832
:103AB0009030974A23F00403C2F890307B689B68EB
:103AC000002B16D0FDF78CFE38610AE0FDF788FE6A
:103AD00002463B69D31A41F28832934201D903234B
:103AE0002AE18B4BD3F8903003F00203002BEDD08A
:103AF00015E0FDF775FE38610AE0FDF771FE02463C
:103B00003B69D31A41F28832934201D9032313E16E
:103B10007F4BD3F8903003F00203002BEDD1FB7FF5
:103B2000012B05D17A4B9B6D794A23F08053936525
:103B30007B689B6A002B00F0FE807B689B6A022BEF
:103B400040F0D080724BDB687B617B6903F003023D
:103B50007B68DB6A9A4230D17B6903F070027B6834
:103B60001B6B013B1B019A4227D17B6903F4FE4288
:103B70007B685B6B1B029A421FD17B6903F40033A5
:103B80007A68926B072A14BF01220022D2B29342B4
:103B900013D17B6903F4C0027B68DB6B5B08013BDC
:103BA0005B059A4209D17B6903F0C0627B681B6C9C
:103BB0005B08013B5B069A426ED0BB690C2B69D057
:103BC000534B1B6803F08063002B05D1504B1B68DF
:103BD00003F08053002B01D00123ADE04C4B1B6858
:103BE0004B4A23F080731360FDF7FAFD386108E05B
:103BF000FDF7F6FD02463B69D31A022B01D90323D8
:103C00009AE0434B1B6803F00073002BF0D1404B4C
:103C1000DA68404B13407A68D16A7A68126B013ACD
:103C2000120111437A68526B120211437A68D26B07
:103C30005208013A520511437A68126C5208013A4F
:103C4000520611437A68926B120952040A433049B2
:103C50001343CB602E4B1B682D4A43F080731360D7
:103C60002B4BDB682A4A43F08073D360FDF7B8FD25
:103C7000386108E0FDF7B4FD02463B69D31A022B18
:103C800001D9032358E0224B1B6803F00073002B7B
:103C9000F0D050E001234FE01D4B1B6803F0007390
:103CA000002B48D11A4B1B68194A43F080731360EC
:103CB000174BDB68164A43F08073D360FDF790FD25
:103CC000386108E0FDF78CFD02463B69D31A022BF0
:103CD00001D9032330E00E4B1B6803F00073002B67
:103CE000F0D028E0BB690C2B23D0094B1B68084A95
:103CF00023F080731360FDF773FD38610CE0FDF76E
:103D00006FFD02463B69D31A022B05D9032313E04A
:103D1000001002408C809DF9094B1B6803F0007372
:103D2000002BECD1064BDA680549064B1340CB60FB
:103D300001E0012300E0002318462037BD4680BD86
:103D400000100240FCFFEEFE80B584B000AF78604A
:103D500039607B68002B01D10123E7E0754B1B68BC
:103D600003F007033A689A4210D9724B1B6823F09C
:103D7000070270493B6813430B606E4B1B6803F0EE
:103D800007033A689A4201D00123CFE07B681B68A1
:103D900003F00203002B10D07B689A68664B9B6887
:103DA00003F0F0039A4208D9634B9B6823F0F002BA
:103DB0007B689B68604913438B607B681B6803F0DA
:103DC0000103002B4CD07B685B68032B07D15A4B57
:103DD0001B6803F00073002B21D10123A6E07B6850
:103DE0005B68022B07D1544B1B6803F40033002B94
:103DF00015D101239AE07B685B68002B07D14E4BFD
:103E00001B6803F00203002B09D101238EE04A4B0B
:103E10001B6803F48063002B01D1012386E0464B2D
:103E20009B6823F003027B685B68434913438B6004
:103E3000FDF7D6FCF8600AE0FDF7D2FC0246FB680D
:103E4000D31A41F28832934201D903236EE03A4BF0
:103E50009B6803F00C027B685B689B009A42EBD185
:103E60007B681B6803F00203002B10D07B689A6804
:103E7000314B9B6803F0F0039A4208D22E4B9B68AB
:103E800023F0F0027B689B682B4913438B60294B1E
:103E90001B6803F007033A689A4210D2254B1B684F
:103EA00023F0070223493B6813430B60214B1B6837
:103EB00003F007033A689A4201D0012336E07B6899
:103EC0001B6803F00403002B08D01B4B9B6823F4F2
:103ED000E0627B68DB68184913438B607B681B6872
:103EE00003F00803002B09D0134B9B6823F46052A6
:103EF0007B681B69DB00104913438B6000F024F8DA
:103F000002460D4B9B681B0903F00F030B49CB5C6A
:103F100003F01F0322FA03F3094A1360094B1B68DD
:103F20001846FDF799FA0346FB72FB7A18461037DC
:103F3000BD4680BD002002400010024090B0000845
:103F4000000000200400002080B489B000AF0023EE
:103F5000FB610023BB613E4B9B6803F00C033B619C
:103F60003B4BDB6803F00303FB603B69002B05D090
:103F70003B690C2B21D1FB68012B1ED1344B1B68F4
:103F800003F00803002B07D1314BD3F894301B0A00
:103F900003F00F03FB6105E02D4B1B681B0903F0C9
:103FA0000F03FB612B4AFB6952F82330FB613B692D
:103FB000002B0DD1FB69BB610AE03B69042B02D1E8
:103FC000254BBB6104E03B69082B01D1234BBB614E
:103FD0003B690C2B34D11E4BDB6803F00303BB6041
:103FE000BB68022B03D0BB68032B03D005E01A4B40
:103FF0007B6105E0194B7B6102E0FB697B6100BFDF
:10400000134BDB681B0903F0070301337B60104B84
:10401000DB681B0A03F07F037A6903FB02F27B680B
:10402000B2FBF3F37B610A4BDB685B0E03F0030327
:1040300001335B003B607A693B68B2FBF3F3BB6121
:10404000BB6918462437BD465DF8047B704700BF46
:1040500000100240A8B000080024F40000127A000A
:1040600080B400AF034B1B681846BD465DF8047B67
:10407000704700BF0000002080B500AFFFF7F0FFE1
:104080000246064B9B681B0A03F007030449CB5CFE
:1040900003F01F0322FA03F3184680BD001002400C
:1040A000A0B0000880B500AFFFF7DAFF0246064B6C
:1040B0009B68DB0A03F007030449CB5C03F01F0392
:1040C00022FA03F3184680BD00100240A0B0000899
:1040D00080B483B000AF786039607B680F221A60CB
:1040E000124B9B6803F003027B685A600F4B9B687E
:1040F00003F0F0027B689A600C4B9B6803F4E0626B
:104100007B68DA60094B9B68DB0803F4E0627B683C
:104110001A61074B1B6803F007023B681A6000BF77
:104120000C37BD465DF8047B704700BF00100240AD
:104130000020024080B586B000AF786000233B616C
:104140002A4B9B6D03F08053002B03D0FFF7BCF983
:10415000786114E0254B9B6D244A43F080539365AE
:10416000224B9B6D03F08053FB60FB68FFF7ACF9BB
:1041700078611E4B9B6D1D4A23F0805393657B69CC
:10418000B3F5007F0BD17B68802B19D97B68A02BFE
:1041900002D902233B6113E001233B6110E07B68FD
:1041A000802B02D903233B610AE07B68802B02D17C
:1041B00002233B6104E07B68702B01D101233B614A
:1041C0000B4B1B6823F0070209493B6913430B6043
:1041D000074B1B6803F007033A699A4201D0012399
:1041E00000E0002318461837BD4680BD001002408D
:1041F0000020024080B586B000AF78600023FB74D9
:104200000023BB747B681B6803F40063002B41D060
:104210007B685B6EB3F5400F2AD0B3F5400F24D80E
:10422000B3F5000F08D0B3F5000F1ED8002B0AD04D
:10423000B3F5800F10D018E0864BDB68854A43F455
:104240008033D36015E07B6804330021184600F00A
:10425000BBFA0346FB740CE07B6820330021184650
:1042600000F0A6FB0346FB7403E00123FB7400E0AF
:1042700000BFFB7C002B0BD1764BD3F8883023F4A6
:1042800040027B685B6E73491343C1F8883001E0DC
:10429000FB7CBB747B681B6803F48053002B41D00C
:1042A0007B689B6EB3F1407F2AD0B3F1407F24D866
:1042B000B3F1007F08D0B3F1007F1ED8002B0AD0E5
:1042C000B3F1807F10D018E0624BDB68614A43F4A1
:1042D0008033D36015E07B6804330021184600F07A
:1042E00073FA0346FB740CE07B6820330021184608
:1042F00000F05EFB0346FB7403E00123FB7400E067
:1043000000BFFB7C002B0BD1524BD3F8883023F03D
:1043100040727B689B6E4F491343C1F8883001E0BF
:10432000FB7CBB747B681B6803F40033002B00F03C
:10433000A08000237B74474B9B6D03F08053002BC0
:1043400001D1012300E00023002B0DD0414B9B6DD8
:10435000404A43F0805393653E4B9B6D03F080537E
:10436000BB60BB6801237B743B4B1B683A4A43F438
:1043700080731360FDF734FAF86009E0FDF730FA56
:104380000246FB68D31A022B02D90323FB7405E013
:10439000314B1B6803F48073002BEFD0FB7C002BA8
:1043A0005CD12C4BD3F8903003F440737B617B6974
:1043B000002B1FD07B68D3F884307A699A4219D0D9
:1043C000244BD3F8903023F440737B61214BD3F816
:1043D0009030204A43F48033C2F890301D4BD3F81C
:1043E00090301C4A23F48033C2F89030194A7B691C
:1043F000C2F890307B6903F00103002B16D0FDF763
:10440000EFF9F8600BE0FDF7EBF90246FB68D31A11
:1044100041F28832934202D90323FB7406E00D4B2C
:10442000D3F8903003F00203002BECD0FB7C002B80
:104430000CD1084BD3F8903023F440727B68D3F84A
:10444000843004491343C1F8903009E0FB7CBB740D
:1044500006E000BF0010024000700040FB7CBB740F
:104460007B7C012B05D19E4B9B6D9D4A23F0805395
:1044700093657B681B6803F00103002B0AD0984BFF
:10448000D3F8883023F003027B689B6B9449134375
:10449000C1F888307B681B6803F00203002B0AD048
:1044A0008F4BD3F8883023F00C027B68DB6B8C4990
:1044B0001343C1F888307B681B6803F00403002BAA
:1044C0000AD0874BD3F8883023F030027B681B6C0E
:1044D00083491343C1F888307B681B6803F00803E5
:1044E000002B0AD07E4BD3F8883023F0C0027B68C3
:1044F0005B6C7B491343C1F888307B681B6803F011
:104500001003002B0AD0764BD3F8883023F4407286
:104510007B689B6C72491343C1F888307B681B68C9
:1045200003F02003002B0AD06D4BD3F8883023F41E
:1045300040627B68DB6C6A491343C1F888307B6852
:104540001B6803F40073002B0AD0654BD3F8883046
:1045500023F440227B68DB6D61491343C1F8883046
:104560007B681B6803F48063002B0AD05C4BD3F894
:10457000883023F440127B681B6E59491343C1F8FD
:1045800088307B681B6803F04003002B0AD0544B33
:10459000D3F8883023F440527B681B6D5049134395
:1045A000C1F888307B681B6803F08003002B0AD0B9
:1045B0004B4BD3F8883023F440427B685B6D48490D
:1045C0001343C1F888307B681B6803F48073002BA9
:1045D0000AD0434BD3F8883023F440327B689B6D7C
:1045E0003F491343C1F888307B681B6803F40053CC
:1045F000002B28D03A4BD3F8883023F040627B68F8
:10460000DB6E37491343C1F888307B68DB6EB3F14A
:10461000006F06D1324BDB68314A43F48013D3601C
:1046200011E07B68DB6EB3F1806F0CD17B680433E3
:104630000121184600F0C8F80346FB74FB7C002BF0
:1046400001D0FB7CBB747B681B6803F40023002B48
:1046500028D0234BD3F8883023F040627B681B6F4F
:104660001F491343C1F888307B681B6FB3F1006F9B
:1046700006D11B4BDB681A4A43F48013D36011E068
:104680007B681B6FB3F1806F0CD17B680433012111
:10469000184600F099F80346FB74FB7C002B01D010
:1046A000FB7CBB747B681B6803F48023002B2BD03E
:1046B0000B4BD3F8883023F040627B685B6F08496E
:1046C0001343C1F888307B685B6FB3F1006F09D189
:1046D000034BDB68024A43F48013D36014E000BF4D
:1046E000001002407B685B6FB3F1806F0CD17B6878
:1046F00004330121184600F067F80346FB74FB7C85
:10470000002B01D0FB7CBB747B681B6803F48043E7
:10471000002B2FD02B4BD3F8883023F040527B68EE
:104720009B6F28491343C1F888307B689B6FB3F1B6
:10473000805F0DD17B6804330221184600F044F8F5
:104740000346FB74FB7C002B14D0FB7CBB7411E094
:104750007B689B6FB3F1005F0CD17B682033022133
:10476000184600F025F90346FB74FB7C002B01D0B2
:10477000FB7CBB747B681B6803F40043002B0AD0EE
:10478000104BD3F8883023F080427B68DB6F0D49F3
:104790001343C1F888307B681B6803F48033002B17
:1047A0000BD0084BD3F8883023F000427B68D3F855
:1047B000803004491343C1F88830BB7C1846183751
:1047C000BD4680BD0010024080B584B000AF786067
:1047D00039600023FB73754BDB6803F00303002B88
:1047E00018D0724BDB6803F003027B681B689A42A7
:1047F0000DD17B681B68002B09D06C4BDB681B0953
:1048000003F007035A1C7B685B689A4247D0012378
:10481000FB7344E07B681B68032B18D0032B25D85F
:10482000012B02D0022B09D020E0604B1B6803F063
:104830000203002B1DD10123FB731AE05B4B1B68A5
:1048400003F48063002B16D10123FB7313E0574B55
:104850001B6803F40033002B0FD1544B1B6803F487
:104860008023002B09D10123FB7306E00123FB7396
:1048700004E000BF02E000BF00E000BFFB7B002BB4
:104880000DD14A4BDB6823F073027B6819687B68A3
:104890005B68013B1B010B4344491343CB60FB7B2B
:1048A000002B7DD1414B1B68404A23F0806313608D
:1048B000FCF796FFB86009E0FCF792FF0246BB6880
:1048C000D31A022B02D90323FB7305E0374B1B6875
:1048D00003F00063002BEFD1FB7B002B60D13B6822
:1048E000002B11D1314B1B6923F41F3323F4407388
:1048F0007A68926811027A68D268120952040A43EF
:104900002A4913430B6127E03B68012B12D1274B47
:104910001B6923F4C00323F4FE437A6892681102F2
:104920007A6812695208013A52050A431F49134333
:104930000B6111E01D4B1B6923F0C06323F4FE43A0
:104940007A68926811027A6852695208013A5206EE
:104950000A43164913430B61144B1B68134A43F077
:1049600080631360FCF73CFFB86009E0FCF738FF98
:104970000246BB68D31A022B02D90323FB7305E05E
:104980000A4B1B6803F00063002BEFD0FB7B002B6E
:1049900006D1064B1A697B689B69044913430B6176
:1049A000FB7B18461037BD4680BD00BF001002409B
:1049B00080B584B000AF786039600023FB736A4B28
:1049C000DB6803F00303002B18D0674BDB6803F0B0
:1049D00003027B681B689A420DD17B681B68002B21
:1049E00009D0614BDB681B0903F007035A1C7B6885
:1049F0005B689A4247D00123FB7344E07B681B68E5
:104A0000032B18D0032B25D8012B02D0022B09D061
:104A100020E0554B1B6803F00203002B1DD101233E
:104A2000FB731AE0504B1B6803F48063002B16D114
:104A30000123FB7313E04C4B1B6803F40033002B82
:104A40000FD1494B1B6803F48023002B09D10123AC
:104A5000FB7306E00123FB7304E000BF02E000BF2C
:104A600000E000BFFB7B002B0DD13F4BDB6823F048
:104A700073027B6819687B685B68013B1B010B4311
:104A800039491343CB60FB7B002B67D1364B1B6846
:104A9000354A23F080531360FCF7A2FEB86009E0AA
:104AA000FCF79EFE0246BB68D31A022B02D90323F1
:104AB000FB7305E02C4B1B6803F00053002BEFD178
:104AC000FB7B002B4AD13B68002B11D1264B5B6945
:104AD00023F41F3323F440737A68926811027A68D2
:104AE000D268120952040A431F4913434B6111E073
:104AF0001D4B5B6923F0C06323F4FE437A68926820
:104B000011027A6812695208013A52060A4316499C
:104B100013434B61144B1B68134A43F080531360DB
:104B2000FCF75EFEB86009E0FCF75AFE0246BB687F
:104B3000D31A022B02D90323FB7305E00A4B1B682F
:104B400003F00053002BEFD0FB7B002B06D1064B6C
:104B50005A697B685B69044913434B61FB7B1846C8
:104B60001037BD4680BD00BF0010024080B582B046
:104B700000AF78607B68002B01D1012349E07B689E
:104B800093F83D30DBB2002B06D17B68002283F81E
:104B90003C20786800F041F87B68022283F83D20D1
:104BA0007B681A687B6804331946104600F0F8F9F0
:104BB0007B68012283F848207B68012283F83E202D
:104BC0007B68012283F83F207B68012283F8402024
:104BD0007B68012283F841207B68012283F8422010
:104BE0007B68012283F843207B68012283F84420FC
:104BF0007B68012283F845207B68012283F84620E8
:104C00007B68012283F847207B68012283F83D20DE
:104C1000002318460837BD4680BD80B483B000AF7E
:104C2000786000BF0C37BD465DF8047B704700001C
:104C300080B485B000AF78607B6893F83D30DBB21C
:104C4000012B01D001234FE07B68022283F83D2035
:104C50007B681B68DA687B681B6842F00102DA60D7
:104C60007B681B68234A93421DD07B681B68B3F1A5
:104C7000804F18D07B681B681F4A934213D07B6813
:104C80001B681E4A93420ED07B681B681C4A9342E5
:104C900009D07B681B681B4A934204D07B681B6861
:104CA000194A934215D17B681B689A68174B1340C9
:104CB000FB60FB68062B15D0FB68B3F5803F11D075
:104CC0007B681B681A687B681B6842F001021A60E7
:104CD00008E07B681B681A687B681B6842F0010269
:104CE0001A6000E000BF002318461437BD465DF887
:104CF000047B7047002C0140000400400008004085
:104D0000000C004000340140004001400700010059
:104D100080B582B000AF78607B681B681B6903F0C8
:104D20000203022B22D17B681B68DB6803F00203BD
:104D3000022B1BD17B681B686FF002021A617B6833
:104D400001221A777B681B689B6903F00303002B21
:104D500003D0786800F005F905E0786800F0F7F80E
:104D6000786800F008F97B6800221A777B681B6876
:104D70001B6903F00403042B22D17B681B68DB68EA
:104D800003F00403042B1BD17B681B686FF0040243
:104D90001A617B6802221A777B681B689B6903F49F
:104DA0004073002B03D0786800F0DBF805E07868EA
:104DB00000F0CDF8786800F0DEF87B6800221A7702
:104DC0007B681B681B6903F00803082B22D17B68F2
:104DD0001B68DB6803F00803082B1BD17B681B688A
:104DE0006FF008021A617B6804221A777B681B68DF
:104DF000DB6903F00303002B03D0786800F0B1F8FF
:104E000005E0786800F0A3F8786800F0B4F87B68F3
:104E100000221A777B681B681B6903F01003102BB4
:104E200022D17B681B68DB6803F01003102B1BD1B9
:104E30007B681B686FF010021A617B6808221A7782
:104E40007B681B68DB6903F44073002B03D0786830
:104E500000F087F805E0786800F079F8786800F0ED
:104E60008AF87B6800221A777B681B681B6903F04D
:104E70000103012B0ED17B681B68DB6803F0010383
:104E8000012B07D17B681B686FF001021A617868FB
:104E9000FCF7DCF97B681B681B6903F08003802B3F
:104EA0000ED17B681B68DB6803F08003802B07D181
:104EB0007B681B686FF080021A61786800F014F953
:104EC0007B681B681B6903F48073B3F5807F0ED188
:104ED0007B681B68DB6803F08003802B07D17B684D
:104EE0001B686FF480721A61786800F007F97B68BC
:104EF0001B681B6903F04003402B0ED17B681B68C5
:104F0000DB6803F04003402B07D17B681B686FF020
:104F100040021A61786800F038F87B681B681B69EA
:104F200003F02003202B0ED17B681B68DB6803F0A5
:104F30002003202B07D17B681B686FF020021A61C9
:104F4000786800F0C7F800BF0837BD4680BD80B460
:104F500083B000AF786000BF0C37BD465DF8047BBE
:104F6000704780B483B000AF786000BF0C37BD4697
:104F70005DF8047B704780B483B000AF786000BFF9
:104F80000C37BD465DF8047B704780B483B000AF3A
:104F9000786000BF0C37BD465DF8047B70470000A9
:104FA00080B485B000AF786039607B681B68FB60B7
:104FB0007B68404A934213D07B68B3F1804F0FD097
:104FC0007B683D4A93420BD07B683C4A934207D0B2
:104FD0007B683B4A934203D07B683A4A934208D1AC
:104FE000FB6823F07003FB603B685B68FA6813435F
:104FF000FB607B682F4A93421FD07B68B3F1804FE0
:105000001BD07B682C4A934217D07B682B4A934273
:1050100013D07B682A4A93420FD07B68294A934277
:105020000BD07B68284A934207D07B68274A93427B
:1050300003D07B68264A934208D1FB6823F440736F
:10504000FB603B68DB68FA681343FB60FB6823F096
:1050500080023B685B691343FB607B68FA681A60F7
:105060003B689A687B68DA623B681A687B689A6278
:105070007B68104A93420FD07B68124A93420BD050
:105080007B68114A934207D07B68104A934203D051
:105090007B680F4A934203D13B681A697B681A63A5
:1050A0007B6801225A6100BF1437BD465DF8047B5E
:1050B000704700BF002C0140000400400008004081
:1050C000000C004000340140004001400044014019
:1050D0000048014080B483B000AF786000BF0C3757
:1050E000BD465DF8047B704780B483B000AF786044
:1050F00000BF0C37BD465DF8047B704780B483B0B9
:1051000000AF786000BF0C37BD465DF8047B704788
:1051100080B582B000AF78607B68002B01D101239D
:1051200040E07B689B6F002B06D17B68002283F8F0
:1051300074207868FCF734F97B6824229A677B68CE
:105140001B681A687B681B6822F001021A60786885
:1051500000F02CF80346012B01D1012322E07B68EB
:105160005B6A002B02D0786800F0D8FA7B681B6875
:105170005A687B681B6822F490425A607B681B68FF
:105180009A687B681B6822F02A029A607B681B6819
:105190001A687B681B6842F001021A60786800F0A8
:1051A0005FFB034618460837BD4680BD2DE9B04F6A
:1051B0008AB000AFF860002387F82230FB689A6855
:1051C000FB681B691A43FB685B691A43FB68DB6970
:1051D00013437B62FB681B681A68A44B1340FA6890
:1051E0001268796A0B431360FB681B685B6823F4E1
:1051F0004051FB68DA68FB681B680A435A60FB6829
:105200009B697B62FB681B68994A934204D0FB68E8
:105210001B6A7A6A13437B62FB681B689B6823F4F2
:105220003061FB681B687A6A0A439A60FB681B68F6
:10523000904A934226D1904BD3F8883003F0030371
:10524000032B1BD801A252F823F000BF5D520008C7
:105250006D5200086552000875520008012387F856
:10526000233016E1022387F8233012E1042387F864
:1052700023300EE1082387F823300AE1102387F852
:10528000233006E1FB681B687C4A934238D17A4B95
:10529000D3F8883003F00C030C2B2DD801A252F860
:1052A00023F000BFD9520008F9520008F952000853
:1052B000F9520008E9520008F9520008F9520008B2
:1052C000F9520008E1520008F9520008F9520008AA
:1052D000F9520008F1520008002387F82330D8E083
:1052E000022387F82330D4E0042387F82330D0E06A
:1052F000082387F82330CCE0102387F82330C8E058
:10530000FB681B685E4A934225D15B4BD3F888301B
:1053100003F03003302B16D0302B18D8202B0AD0B6
:10532000202B14D8002B02D0102B08D00FE0002324
:1053300087F82330ADE0022387F82330A9E0042367
:1053400087F82330A5E0082387F82330A1E0102355
:1053500087F823309DE0FB681B684A4A934225D1B9
:10536000454BD3F8883003F0C003C02B16D0C02BB8
:1053700018D8802B0AD0802B14D8002B02D0402BB9
:1053800008D00FE0002387F8233082E0022387F85B
:1053900023307EE0042387F823307AE0082387F85F
:1053A000233076E0102387F8233072E0FB681B6817
:1053B000354A93422AD1304BD3F8883003F44073F6
:1053C000B3F5407F1AD0B3F5407F1BD8B3F5007F0B
:1053D0000CD0B3F5007F15D8002B03D0B3F5807F38
:1053E00008D00FE0002387F8233052E0022387F82B
:1053F00023304EE0042387F823304AE0082387F85F
:10540000233046E0102387F8233042E0FB681B6816
:10541000174A93423AD1184BD3F8883003F44063CB
:10542000B3F5406F1AD0B3F5406F1BD8B3F5006FDA
:105430000CD0B3F5006F15D8002B03D0B3F5806FF7
:1054400008D00FE0002387F8233022E0022387F8FA
:1054500023301EE0042387F823301AE0082387F85E
:10546000233016E0102387F8233012E0F369FFEFB2
:10547000008000400038014000100240004400401D
:1054800000480040004C004000500040102387F8C6
:105490002330FB681B689F4A93427AD197F82330E8
:1054A000082B24D801A252F823F000BFD1540008E1
:1054B000EF540008D9540008EF540008DF540008E6
:1054C000EF540008EF540008EF540008E7540008B8
:1054D000FEF7D2FDF86110E08F4BFB610DE0FEF7A7
:1054E00033FDF86109E04FF40043FB6105E0002360
:1054F000FB61012387F8223000BFFB69002B00F01D
:10550000FB80FB685A6813465B001344FA699A42B1
:1055100005D3FB685B681B03FA699A4203D9012330
:1055200087F82230E8E0FB6900221C4615464FF060
:1055300000024FF000032B0243EA14632202F968D1
:105540004968490800208846814612EB080A43EB67
:10555000090BFB685B6800223B607A60D7E9002397
:1055600050465946FBF720FB02460B461346BB61EB
:10557000BB69B3F5407F08D3BB69B3F5801F04D284
:10558000FB681B68BA69DA60B6E0012387F822304D
:10559000B2E0FB68DB69B3F5004F5ED197F82330CA
:1055A000082B28D801A252F823F000BFD1550008DB
:1055B000D9550008E1550008F7550008E7550008DF
:1055C000F7550008F7550008F7550008EF55000893
:1055D000FEF752FDF86114E0FEF764FDF86110E09B
:1055E0004D4BFB610DE0FEF7AFFCF86109E04FF4B5
:1055F0000043FB6105E00023FB61012387F82230B3
:1056000000BFFB69002B77D0FB695A00FB685B6821
:105610005B081A44FB685B68B2FBF3F3BB61BB69D0
:105620000F2B16D9BB69B3F5803F12D2BB699BB271
:1056300023F00F03FB82BB695B089BB203F00703F7
:105640009AB2FB8A1343FB82FB681B68FA8ADA6012
:1056500052E0012387F822304EE097F82330082BE0
:1056600027D801A252F823F08D560008955600085D
:105670009D560008B3560008A3560008B35600080C
:10568000B3560008B3560008AB560008FEF7F4FC0A
:10569000F86114E0FEF706FDF86110E01E4BFB61B7
:1056A0000DE0FEF751FCF86109E04FF40043FB61A7
:1056B00005E00023FB61012387F8223000BFFB696E
:1056C000002B19D0FB685B685A08FB691A44FB6819
:1056D0005B68B2FBF3F3BB61BB690F2B09D9BB69F4
:1056E000B3F5803F05D2BB699AB2FB681B68DA60EC
:1056F00002E0012387F82230FB6800225A66FB682B
:1057000000229A6697F8223018462837BD46BDE831
:10571000B08F00BF008000400024F40080B483B04C
:1057200000AF78607B685B6A03F00103002B0AD04E
:105730007B681B685B6823F400317B689A6A7B682E
:105740001B680A435A607B685B6A03F00203002B04
:105750000AD07B681B685B6823F480317B68DA6A57
:105760007B681B680A435A607B685B6A03F004032A
:10577000002B0AD07B681B685B6823F480217B6860
:105780001A6B7B681B680A435A607B685B6A03F08C
:105790000803002B0AD07B681B685B6823F4004178
:1057A0007B685A6B7B681B680A435A607B685B6A3C
:1057B00003F01003002B0AD07B681B689B6823F45E
:1057C00080517B689A6B7B681B680A439A607B6890
:1057D0005B6A03F02003002B0AD07B681B689B6880
:1057E00023F400517B68DA6B7B681B680A439A607C
:1057F0007B685B6A03F04003002B1AD07B681B6850
:105800005B6823F480117B681A6C7B681B680A4311
:105810005A607B681B6CB3F5801F0AD17B681B68DC
:105820005B6823F4C0017B685A6C7B681B680A4381
:105830005A607B685B6A03F08003002B0AD07B68A8
:105840001B685B6823F400217B689A6C7B681B688B
:105850000A435A6000BF0C37BD465DF8047B7047B1
:1058600080B586B002AF78607B680022C3F88020E4
:10587000FBF7B6FFF8607B681B681B6803F0080342
:10588000082B0ED16FF07E430093FB6800224FF48B
:105890000011786800F02DF80346002B01D0032397
:1058A00023E07B681B681B6803F00403042B0ED104
:1058B0006FF07E430093FB6800224FF4800178680C
:1058C00000F017F80346002B01D003230DE07B689E
:1058D00020229A677B682022DA677B6800221A669A
:1058E0007B68002283F87420002318461037BD46D9
:1058F00080BD80B59CB000AFF860B9603B601346D6
:10590000FB71A5E0BB6FB3F1FF3F00F0A180FBF797
:1059100067FF02463B68D31ABA6F9A4202D3BB6F45
:10592000002B3ED1FB681B683B653B6D53E8003F95
:10593000FB64FB6C23F4D0737B66FB681B681A4620
:105940007B6EFB65BA65B96DFA6D41E800237B6536
:105950007B6D002BE6D1FB681B680833FB63FB6B98
:1059600053E8003FBB63BB6B23F001033B66FB685E
:105970001B6808333A6EBA647B64796CBA6C41E890
:1059800000233B643B6C002BE5D1FB6820229A6727
:10599000FB682022DA67FB68002283F87420032367
:1059A00067E0FB681B681B6803F00403002B4FD003
:1059B000FB681B68DB6903F40063B3F5006F47D134
:1059C000FB681B684FF400621A62FB681B68BB62CD
:1059D000BB6A53E8003F7B627B6A23F4D073FB66AB
:1059E000FB681B681A46FB6E7B633A63396B7A6B04
:1059F00041E80023FB62FB6A002BE6D1FB681B68D1
:105A000008337B617B6953E8003F3B613B6923F0CE
:105A10000103BB66FB681B680833BA6E3A62FB6120
:105A2000F9693A6A41E80023BB61BB69002BE5D103
:105A3000FB6820229A67FB682022DA67FB68202235
:105A4000C3F88020FB68002283F87420032310E051
:105A5000FB681B68DA69BB681340BA689A420CBFDE
:105A600001230023DBB21A46FB799A423FF44AAF86
:105A7000002318467037BD4680BD000080B483B057
:105A800000AF03463960FB7197F90730002B0ADB42
:105A90003B68DAB20C4997F907301201D2B20B44D5
:105AA00083F800230AE03B68DAB20849FB7903F087
:105AB0000F03043B1201D2B20B441A7600BF0C371D
:105AC000BD465DF8047B704700E100E000ED00E0BA
:105AD00080B500AF054B1B6801F028FD0346012B84
