:020000040800F2
:1000000000800120C10B00085D0B0008630B000895
:10001000690B00086F0B0008750B0008000000005A
:10002000000000000000000000000000B16F0008A8
:100030007B0B00080000000001720008314C000832
:10004000110C0008110C0008110C0008110C00081C
:10005000110C0008110C0008110C0008110C00080C
:10006000110C0008110C0008110C0008110C0008FC
:10007000110C0008110C0008110C0008110C0008EC
:10008000110C0008110C0008110C0008110C0008DC
:10009000110C0008110C0008110C0008110C0008CC
:1000A000110C0008890B0008110C0008110C000845
:1000B000110C0008110C0008110C0008110C0008AC
:1000C000110C0008110C0008110C0008110C00089C
:1000D000110C0008110C0008110C0008110C00088C
:1000E000110C0008110C0008110C0008110C00087C
:1000F000110C0008110C0008110C0008110C00086C
:10010000110C0008110C0008110C0008110C00085B
:10011000110C0008110C0008110C0008110C00084B
:10012000110C0008110C0008110C0008110C00083B
:10013000110C0008110C0008110C0008110C00082B
:10014000110C0008110C0008110C0008110C00081B
:10015000110C0008110C0008110C0008110C00080B
:10016000110C0008110C0008110C0008110C0008FB
:10017000110C0008110C0008110C00080000000010
:08018000110C0008110C00082D
:1001900010B5054C237833B9044B13B10448AFF3C1
:1001A00000800123237010BD7400002000000000B7
:1001B0005879000808B5034B1BB103490348AFF356
:1001C000008008BD00000000780000205879000879
:1001D00053B94AB9002908BF00281CBF4FF0FF31AE
:1001E0004FF0FF3000F074B9ADF1080C6DE904CEAA
:1001F00000F006F8DDF804E0DDE9022304B0704702
:100200002DE9F047089D04468E46002B4DD18A42C9
:10021000944669D9B2FA82F252B101FA02F3C2F1FC
:10022000200120FA01F10CFA02FC41EA030E94408D
:100230004FEA1C48210CBEFBF8F61FFA8CF708FBAE
:1002400016E341EA034306FB07F199420AD91CEB86
:10025000030306F1FF3080F01F81994240F21C81B8
:10026000023E63445B1AA4B2B3FBF8F008FB103300
:1002700044EA034400FB07F7A7420AD91CEB040435
:1002800000F1FF3380F00A81A74240F20781644405
:10029000023840EA0640E41B00261DB1D44000238A
:1002A000C5E900433146BDE8F0878B4209D9002DEE
:1002B00000F0EF800026C5E9000130463146BDE878
:1002C000F087B3FA83F6002E4AD18B4202D38242E2
:1002D00000F2F980841A61EB030301209E46002D91
:1002E000E0D0C5E9004EDDE702B9FFDEB2FA82F2E6
:1002F000002A40F09280A1EB0C014FEA1C471FFA44
:100300008CFE0126200CB1FBF7F307FB131140EA2A
:1003100001410EFB03F0884208D91CEB010103F1F7
:10032000FF3802D2884200F2CB804346091AA4B2B9
:10033000B1FBF7F007FB101144EA01440EFB00FE8D
:10034000A64508D91CEB040400F1FF3102D2A645F2
:1003500000F2BB800846A4EB0E0440EA03409CE791
:10036000C6F12007B34022FA07FC4CEA030C20FA3E
:1003700007F401FA06F31C43F9404FEA1C4900FA5E
:1003800006F3B1FBF9F8200C1FFA8CFE09FB1811DB
:1003900040EA014108FB0EF0884202FA06F20BD94E
:1003A0001CEB010108F1FF3A80F08880884240F29E
:1003B0008580A8F102086144091AA4B2B1FBF9F0E2
:1003C00009FB101144EA014100FB0EFE8E4508D9DD
:1003D0001CEB010100F1FF346CD28E456AD9023862
:1003E000614440EA0840A0FB0294A1EB0E01A14247
:1003F000C846A64656D353D05DB1B3EB080261EBB5
:100400000E0101FA07F722FA06F3F1401F43C5E98E
:10041000007100263146BDE8F087C2F12003D840C4
:100420000CFA02FC21FA03F3914001434FEA1C4706
:100430001FFA8CFEB3FBF7F007FB10360B0C43EAF8
:10044000064300FB0EF69E4204FA02F408D91CEBA8
:10045000030300F1FF382FD29E422DD902386344A6
:100460009B1B89B2B3FBF7F607FB163341EA034146
:1004700006FB0EF38B4208D91CEB010106F1FF3895
:1004800016D28B4214D9023E6144C91A46EA00468C
:1004900038E72E46284605E70646E3E61846F8E61E
:1004A0004B45A9D2B9EB020864EB0C0E0138A3E767
:1004B0004646EAE7204694E74046D1E7D0467BE748
:1004C000023B614432E7304609E76444023842E7C0
:1004D000704700BF80B500AF00F09CFB00F032F821
:1004E00000F03AF900F008F900F07EF80E4800F04C
:1004F0000BFF4FF0FF310C4800F0C0FF04F0B2FBDF
:100500000A4A00210A4804F0F7FB0346094A13602F
:10051000094A0021094804F0EFFB0346084A13602A
:1005200004F0C4FBFEE700BF90000020A0790008A3
:100530002508000878010020C47900084D0800084B
:100540007C01002080B596B000AF07F1140344226F
:100550000021184607F036F93B4600221A605A601F
:100560009A60DA601A614FF4007002F06BF803468B
:10057000002B01D000F090F902237B614FF48073CF
:100580003B6210237B620223FB6302233B64012353
:100590007B640A23BB640723FB6402233B650223BD
:1005A0007B6507F11403184602F0A2F80346002BFE
:1005B00001D000F071F90F233B6003237B6000231F
:1005C000BB600023FB6000233B613B4604211846CF
:1005D00002F06AFC0346002B01D000F05DF900BF79
:1005E0005837BD4680BD000080B58AB000AF07F126
:1005F0001C0300221A605A609A603B1D00221A6098
:100600005A609A60DA601A615A61374B374A1A6049
:10061000354B00225A60344B00229A60324B002244
:10062000DA60314B01221A612F4B08225A612E4B9E
:1006300000221A762C4B01225A762B4B0222DA61C9
:10064000294B002283F82020274B00229A62264B58
:100650000022DA62244B002283F83020224B4FF430
:1006600080525A63204B002283F838201E4800F045
:10067000F5FC0346002B01D000F00EF90023FB61CE
:1006800007F11C031946184801F07AFC0346002BB9
:1006900001D000F001F9164B7B600623BB600023FC
:1006A000FB607F233B6104237B610023BB613B1D17
:1006B00019460D4800F0C8FF0346002B01D000F09A
:1006C000EBF80C4B7B600C23BB603B1D19460648C6
:1006D00000F0BAFF0346002B01D000F0DDF800BFA8
:1006E0002837BD4680BD00BF9000002000000450A8
:1006F000020030040400600880B500AF144B154AB6
:100700001A60134B4FF4E1325A60114B00229A6089
:100710000F4B0022DA600E4B00221A610C4B0C22A8
:100720005A610B4B00229A61094B0022DA61084B97
:1007300000221A62064B00225A62054803F098FD17
:100740000346002B01D000F0A7F800BF80BD00BF1A
:10075000F40000200044004080B58AB000AF07F1EB
:10076000140300221A605A609A60DA601A612B4BF7
:10077000DB6C2A4A43F00403D364284BDB6C03F0A0
:1007800004033B613B69254BDB6C244A43F0800347
:10079000D364224BDB6C03F08003FB60FB681F4BD0
:1007A000DB6C1E4A43F00103D3641C4BDB6C03F08B
:1007B0000103BB60BB68194BDB6C184A43F00203B2
:1007C000D364164BDB6C03F002037B607B68002272
:1007D00020214FF0904001F00FFF4FF400537B6158
:1007E0004FF40413BB610023FB6107F114031946A6
:1007F0000B4801F057FD20237B610123BB610023DF
:10080000FB6100233B6207F1140319464FF090404F
:1008100001F048FD00BF2837BD4680BD00100240F2
:100820000008004880B582B000AF7860054800F04D
:10083000FDFE03469AB2044B1A80322004F0EEFA11
:10084000F4E700BF900000208001002080B582B056
:1008500000AF7860054800F0E9FE03469AB2044B09
:100860005A80322004F0DAFAF4E700BF900000204A
:100870008001002080B582B000AF78607B681B6883
:10088000044A934201D100F0E5F900BF0837BD46A4
:1008900080BD00BF002C014080B400AF72B600BF25
:1008A000FEE7000080B582B000AF114B1B6E104A0E
:1008B00043F0010313660E4B1B6E03F001037B60D4
:1008C0007B680B4B9B6D0A4A43F080539365084B42
:1008D0009B6D03F080533B603B6800220F216FF05B
:1008E000010001F0B5FC00BF0837BD4680BD00BF68
:1008F0000010024080B5ACB000AF786007F19C03F7
:1009000000221A605A609A60DA601A6107F11403D3
:1009100088220021184606F055FF7B681B68274A8D
:10092000934246D14FF480437B614FF08053C7F828
:100930008C300223BB610123FB6108233B62072348
:100940007B620223BB620223FB624FF080733B6336
:1009500007F11403184602F0FDFC0346002B01D0FA
:10096000FFF79AFF164BDB6C154A43F40053D36430
:10097000134BDB6C03F400533B613B69104BDB6CA6
:100980000F4A43F00403D3640D4BDB6C03F0040304
:10099000FB60FB680323C7F89C300B23C7F8A0302B
:1009A0000023C7F8A43007F19C031946054801F05D
:1009B00079FC00BFB037BD4680BD00BF00000450C9
:1009C000001002400008004880B5ACB000AF78606D
:1009D00007F19C0300221A605A609A60DA601A617B
:1009E00007F1140388220021184606F0EBFE7B680D
:1009F0001B68214A93423BD102237B6100233B6564
:100A000007F11403184602F0A5FC0346002B01D0A1
:100A1000FFF742FF194B9B6D184A43F4003393656F
:100A2000164B9B6D03F400333B613B69134BDB6C4E
:100A3000124A43F00103D364104BDB6C03F0010353
:100A4000FB60FB680C23C7F89C300223C7F8A0307A
:100A50000023C7F8A4300323C7F8A8300723C7F83A
:100A6000AC3007F19C0319464FF0904001F01AFC9E
:100A700000BFB037BD4680BD0044004000100240BA
:100A800080B58CB000AF7860002387F82F302E4BF4
:100A90001B6E2D4A43F4006313662B4B1B6E03F44D
:100AA0000063BB60BB6807F10C0207F1100311463D
:100AB000184602F0BDFB02F0A5FBB862BB6A234AF0
:100AC000A2FB03239B0C013B7B62214B214A1A6052
:100AD0001F4B40F2E732DA601D4A7B6A53601C4BC1
:100AE00000221A611A4B00229A60194B00229A6167
:100AF000174803F0EBF8034687F82F3097F82F30AC
:100B0000002B1BD1124803F043F9034687F82F301E
:100B100097F82F30002B11D1192001F0B5FB7B681D
:100B20000F2B08D800227968192001F091FB0A4A9E
:100B30007B68136002E0012387F82F3097F82F308D
:100B400018463037BD4680BD0010024083DE1B438F
:100B500084010020002C01400400002080B400AF7C
:100B6000FEE780B400AFFEE780B400AFFEE780B4DC
:100B700000AFFEE780B400AFFEE780B400AF00BF77
:100B8000BD465DF8047B704780B500AF024803F0B6
:100B90006FF900BF80BD00BF8401002080B400AFAA
:100BA000064BD3F88830054A43F47003C2F8883006
:100BB00000BFBD465DF8047B704700BF00ED00E05C
:100BC000DFF834D0FFF7EAFF0C480D490D4A002347
:100BD00002E0D458C4500433C4188C42F9D30A4AF2
:100BE0000A4C002301E013600432A242FBD306F05A
:100BF000B5FDFFF76FFCFEE700800120000000203C
:100C000074000020A07A000874000020A41B0020BB
:100C1000FEE7000080B582B000AF0023FB710C4BF3
:100C20001B680B4A43F480731360032001F005FB3B
:100C30000F20FFF725FF0346002B02D00123FB7195
:100C400001E0FFF72FFEFB7918460837BD4680BD4F
:100C50000020024080B400AF064B1B781A46064BBA
:100C60001B681344044A136000BFBD465DF8047B53
:100C7000704700BF08000020D001002080B400AF02
:100C8000034B1B681846BD465DF8047B704700BFE8
:100C9000D001002080B483B000AF786039607B68F9
:100CA0009B6823F47C123B681A437B689A6000BF00
:100CB0000C37BD465DF8047B704780B483B000AF4D
:100CC000786039607B689B6823F0E0723B681A4368
:100CD0007B689A6000BF0C37BD465DF8047B7047A7
:100CE00080B483B000AF78607B689B6803F0E073EA
:100CF00018460C37BD465DF8047B704780B487B05A
:100D000000AFF860B9607A603B60FB6860331A46F8
:100D1000BB689B0013447B617B691A68084B1340D6
:100D20007A6802F0F8413A680A43134343F00042FC
:100D30007B691A6000BF1C37BD465DF8047B7047B5
:100D400000F0FF0380B485B000AF786039607B6845
:100D500060331A463B689B001344FB60FB681B68CA
:100D600003F0F84318461437BD465DF8047B70471E
:100D700080B487B000AFF860B9607A60FB68603318
:100D80001A46BB689B0013447B617B691B6823F098
:100D900000427B681A437B691A6000BF1C37BD465E
:100DA0005DF8047B704780B483B000AF78607B68E7
:100DB000DB6803F44063002B01D1012300E0002332
:100DC00018460C37BD465DF8047B704780B487B089
:100DD00000AFF860B9607A60FB6830331A46BB68D0
:100DE0001B0A9B0003F00C0313447B617B691A68A8
:100DF000BB6803F01F031F2101FA03F3DB431A4012
:100E00007B689B0E03F01F01BB6803F01F0301FA10
:100E100003F31A437B691A6000BF1C37BD465DF8B7
:100E2000047B704780B487B000AFF860B9607A6027
:100E3000FB6814331A46BB685B0E9B0003F0040387
:100E400013447B617B691A68BB681B0D03F01F03A9
:100E5000072101FA03F3DB431A40BB681B0D03F0C3
:100E60001F03796801FA03F31A437B691A6000BF14
:100E70001C37BD465DF8047B7047000080B485B028
:100E800000AFF860B9607A60FB68D3F8B020BB6847
:100E9000C3F31203DB431A407B6803F018030849CD
:100EA000D940BB680B40C3F312031A43FB68C3F875
:100EB000B02000BF1437BD465DF8047B704700BF0B
:100EC000FFFF070080B483B000AF78607B689B6849
:100ED00003F01F0318460C37BD465DF8047B7047CE
:100EE00080B483B000AF78607B689B6803F4604394
:100EF00018460C37BD465DF8047B704780B483B05C
:100F000000AF78607B689B6823F0204323F03F03A9
:100F10007A68936000BF0C37BD465DF8047B70476C
:100F200080B483B000AF78607B689B6803F00053A7
:100F3000B3F1005F01D1012300E0002318460C3714
:100F4000BD465DF8047B704780B483B000AF786025
:100F50007B689B6823F0104323F03F0343F08052EB
:100F60007B689A6000BF0C37BD465DF8047B704714
:100F700080B483B000AF78607B689B6803F08053D7
:100F8000B3F1805F01D1012300E0002318460C3744
:100F9000BD465DF8047B704780B483B000AF7860D5
:100FA0007B689B6823F0004323F03F0343F001027A
:100FB0007B689A6000BF0C37BD465DF8047B7047C4
:100FC00080B483B000AF78607B689B6803F0010356
:100FD000012B01D1012300E0002318460C37BD4648
:100FE0005DF8047B704780B483B000AF78607B68A5
:100FF0009B6823F0004323F03F0343F004027B6827
:101000009A6000BF0C37BD465DF8047B704780B422
:1010100083B000AF78607B689B6803F00403042B07
:1010200001D1012300E0002318460C37BD465DF8CE
:10103000047B704780B483B000AF78607B689B68A6
:1010400003F00803082B01D1012300E00023184618
:101050000C37BD465DF8047B7047000090B589B041
:1010600000AF78600023FB770023BB607B68002B18
:1010700001D1012336E17B681B69002B7B685B6D26
:10108000002B09D17868FFF735FC7B6800229A6550
:101090007B68002283F850207B681B681846FFF7A6
:1010A0003FFF0346002B04D07B681B681846FFF700
:1010B00025FF7B681B681846FFF75AFF0346002B85
:1010C00015D17B681B681846FFF73EFF874B1B68EE
:1010D0009B09874AA2FB03239B0901335B00BB608A
:1010E00002E0BB68013BBB60BB68002BF9D17B68A9
:1010F0001B681846FFF73CFF0346002B0DD17B68A9
:101100005B6D43F010027B685A657B689B6D43F012
:1011100001027B689A650123FB777B681B68184690
:10112000FFF775FF78617B685B6D03F01003002BA0
:1011300040F0CF807B69002B40F0CB807B685B6DFB
:1011400023F4817343F002027B685A657B681B6855
:101150001846FFF735FF0346002B15D16548FFF70A
:101160002FFF04466448FFF72BFF03461C436348E8
:10117000FFF726FF03462343002B05D17B685B68FE
:1011800019465F48FFF786FD7B685B7E5A037B68E4
:101190005B6B1A437B68DB681A437B689B681A4366
:1011A0007B6893F820301B041343BB617B6893F882
:1011B0002030012B06D17B685B6A013B5B04BA6976
:1011C0001343BB617B689B6A002B09D07B689B6AD9
:1011D00003F470727B68DB6A1343BA691343BB6123
:1011E0007B681B68DA68474B13407A681268B969F4
:1011F0000B43D3607B681B681846FFF708FF386114
:101200007B681B681846FFF715FFF8603B69002BE9
:101210003DD1FB68002B3AD17B681B7E9A037B682B
:1012200093F830305B001343BB617B681B68DB685D
:1012300023F4804323F002037A681268B9690B43F0
:10124000D3607B6893F83830012B18D17B681B681A
:101250001B6923F4FF6323F004037A68D16B7A6877
:10126000126C11437A68526C11437A68926C0A438B
:101270001A437B681B6842F001021A6107E07B6831
:101280001B681A697B681B6822F001021A617B687F
:101290001B69012B0CD17B681B681B6B23F00F01B2
:1012A0007B68DB695A1E7B681B680A431A6307E088
:1012B0007B681B681A6B7B681B6822F00F021A633D
:1012C0007B685B6D23F0030343F001027B685A6582
:1012D00007E07B685B6D43F010027B685A65012371
:1012E000FB77FB7F18462437BD4690BD00000020E9
:1012F000632D3E050000045000010450000204501C
:101300000003045007C0F0FF80B586B000AF7860DE
:101310005748FFF7D7FD38617B681B681846FFF711
:1013200076FE0346002B40F09C807B6893F850309B
:10133000012B01D1022397E07B68012283F8502022
:10134000786800F071FD0346FB75FB7D002B40F0D3
:1013500083807B685B6D23F4706323F0010343F4A7
:1013600080727B685A657B681B68424A934202D050
:101370007B681B6800E0404B7A681268934202D099
:101380003B69002B05D17B685B6D23F480127B6881
:101390005A657B685B6D03F48053B3F5805F06D1BB
:1013A0007B689B6D23F006027B689A6502E07B6890
:1013B00000229A657B681B681C221A607B680022E9
:1013C00083F850207B681B682A4A934202D07B68CE
:1013D0001B6800E0284B7A681268934208D03B698A
:1013E000002B05D03B69052B02D03B69092B14D19A
:1013F0007B681B68DB6803F00073002B07D07B68F9
:101400005B6D23F4405343F480527B685A657B68DC
:101410001B681846FFF7E7FD25E07B685B6D43F42A
:1014200080127B685A657B681B68124A934202D01F
:101430007B681B6800E0104BFB60FB68DB6803F017
:101440000073002B0FD07B685B6D23F4405343F493
:1014500080527B685A6506E07B68002283F8502042
:1014600001E00223FB75FB7D18461837BD4680BDA1
:1014700000030450000104500000045080B588B0FF
:1014800000AF786039606648FFF71CFD78617B68C3
:101490005B69082B02D10823FB612AE07B69002BE2
:1014A00005D07B69052B02D07B69092B11D17B68A4
:1014B0001B68DB6803F00103002B07D07B685B6DC2
:1014C00043F020027B685A650123A4E00423FB61FA
:1014D0000FE05348FFF704FD0346002B07D07B685D
:1014E0005B6D43F020027B685A65012393E004237F
:1014F000FB61FFF7C3FB386121E03B68B3F1FF3FBD
:101500001DD0FFF7BBFB02463B69D31A3A689A42EB
:1015100002D33B68002B12D17B681B681A68FB69F9
:101520001340002B0BD17B685B6D43F004027B689A
:101530005A657B68002283F8502003236BE07B68A8
:101540001B681A68FB691340002BD6D07B685B6D63
:1015500043F400727B685A657B681B681846FFF786
:1015600022FC0346002B1CD07B685B7E002B18D12D
:101570007B681B681B6803F00803082B11D17B688C
:101580005B6D23F480727B685A657B685B6D03F446
:101590008053002B05D17B685B6D43F001027B68B3
:1015A0005A657B681B681F4A934202D07B681B68A0
:1015B00000E01D4B7A681268934208D07B69002BCB
:1015C00005D07B69052B02D07B69092B04D17B6890
:1015D0001B68DB68BB610CE07B681B68114A9342A7
:1015E00002D07B681B6800E00F4BFB60FB68DB6888
:1015F000BB61FB69082B04D17B681B6808221A6059
:1016000008E0BB6903F48043002B03D17B681B68AF
:101610000C221A60002318462037BD4680BD00BF4B
:1016200000030450000104500000045080B483B053
:1016300000AF78607B681B681B6C18460C37BD4692
:101640005DF8047B7047000080B5B6B000AF7860ED
:101650003960002387F8D7300023FB607B6893F85C
:101660005030012B01D10223C7E37B68012283F8AC
:1016700050207B681B681846FFF7C9FC0346002B07
:1016800040F0A8833B685B68052B24D83B685B6807
:10169000023B032B1BD801A252F823F0AD16000821
:1016A000B5160008BD160008C51600083B680C22D8
:1016B0005A6011E03B6812225A600DE03B68182224
:1016C0005A6009E03B684FF480725A6004E03B685E
:1016D00006225A6000E000BF7B6818683B685968C2
:1016E0003B681B681A46FFF771FB7B681B6818464E
:1016F000FFF78DFCC7F8D0007B681B681846FFF722
:1017000099FCC7F8CC00D7F8D030002B40F0A68168
:10171000D7F8CC30002B40F0A1817B6818683B687B
:1017200019683B689B681A46FFF77CFB3B685A695F
:101730007B681B68DB68DB0803F003035B0002FACD
:1017400003F3C7F8C8303B681B69042B0AD07B68D9
:1017500018683B6819693B681A68D7F8C830FFF702
:10176000CDFA7BE17B681B6800211846FFF7EAFA97
:101770000346C3F31203002B0AD17B681B680021C8
:101780001846FFF7DFFA03469B0E03F01F021EE028
:101790007B681B6800211846FFF7D4FA0346C7F898
:1017A000BC30D7F8BC3093FAA3F3C7F8B830D7F8F9
:1017B000B830C7F8C030D7F8C030002B01D1202393
:1017C00004E0D7F8C030B3FA83F3DBB21A463B68C3
:1017D0001B68C3F31203002B05D13B681B689B0EEB
:1017E00003F01F0318E03B681B68C7F8B030D7F858
:1017F000B03093FAA3F3C7F8AC30D7F8AC30C7F8E1
:10180000B430D7F8B430002B01D1202304E0D7F84E
:10181000B430B3FA83F3DBB29A4206D17B681B681B
:10182000002200211846FFF7A3FA7B681B680121FC
:101830001846FFF787FA0346C3F31203002B0AD1B9
:101840007B681B6801211846FFF77CFA03469B0E54
:1018500003F01F021EE07B681B6801211846FFF79A
:1018600071FA0346C7F8A430D7F8A43093FAA3F36B
:10187000C7F8A030D7F8A030C7F8A830D7F8A830FC
:10188000002B01D1202304E0D7F8A830B3FA83F36A
:10189000DBB21A463B681B68C3F31203002B05D169
:1018A0003B681B689B0E03F01F0318E03B681B6836
:1018B000C7F89830D7F8983093FAA3F3C7F8943064
:1018C000D7F89430C7F89C30D7F89C30002B01D162
:1018D000202304E0D7F89C30B3FA83F3DBB29A42BA
:1018E00006D17B681B68002201211846FFF740FAE9
:1018F0007B681B6802211846FFF724FA0346C3F3EE
:101900001203002B0AD17B681B6802211846FFF7DF
:1019100019FA03469B0E03F01F021EE07B681B684A
:1019200002211846FFF70EFA0346C7F88C30D7F8A5
:101930008C3093FAA3F3C7F88830D7F88830C7F80B
:101940009030D7F89030002B01D1202304E0D7F855
:101950009030B3FA83F3DBB21A463B681B68C3F3DB
:101960001203002B05D13B681B689B0E03F01F037D
:1019700016E03B681B68C7F88030D7F8803093FAD0
:10198000A3F3FB67FB6FC7F88430D7F88430002BD4
:1019900001D1202304E0D7F88430B3FA83F3DBB21B
:1019A0009A4206D17B681B68002202211846FFF785
:1019B000DFF97B681B6803211846FFF7C3F903466C
:1019C000C3F31203002B0AD17B681B68032118465E
:1019D000FFF7B8F903469B0E03F01F0217E07B6880
:1019E0001B6803211846FFF7ADF903467B677B6F41
:1019F00093FAA3F33B673B6FBB67BB6F002B01D12F
:101A0000202303E0BB6FB3FA83F3DBB21A463B68D3
:101A10001B68C3F31203002B05D13B681B689B0EA8
:101A200003F01F0311E03B681B68BB66BB6E93FAB3
:101A3000A3F37B667B6EFB66FB6E002B01D120233C
:101A400003E0FB6EB3FA83F3DBB29A4206D17B6804
:101A50001B68002203211846FFF78AF97B681B6880
:101A60001846FFF7ADFA0346002B40F03F817B6834
:101A700018683B6819683B68DB681A46FFF7FEF98F
:101A80003B68DB688E4A934240F030817B6818687F
:101A90003B681B68C3F31203002B0BD13B681B6828
:101AA0009B0E013303F01F03092B94BF0123002376
:101AB000DBB219E03B681B68FB65FB6D93FAA3F38F
:101AC000BB65BB6D3B663B6E002B01D1202303E061
:101AD0003B6EB3FA83F3DBB2013303F01F03092B30
:101AE00094BF01230023DBB2002B79D03B681B6835
:101AF000C3F31203002B07D13B681B689B0E013315
:101B00009B0603F0F84215E03B681B683B653B6DA4
:101B100093FAA3F3FB64FB6C7B657B6D002B01D117
:101B2000202303E07B6DB3FA83F3DBB201339B0622
:101B300003F0F8423B681B68C3F31203002B09D182
:101B40003B681B689B0E013303F01F03012101FA60
:101B500003F317E03B681B687B647B6C93FAA3F389
:101B60003B643B6CBB64BB6C002B01D1202303E0C6
:101B7000BB6CB3FA83F3DBB2013303F01F03012123
:101B800001FA03F342EA03013B681B68C3F3120343
:101B9000002B0AD13B681B689B0E013303F01F0228
:101BA00013465B0013441B0518E03B681B68BB63CE
:101BB000BB6B93FAA3F37B637B6BFB63FB6B002B29
:101BC00001D1202303E0FB6BB3FA83F3DBB20133D3
:101BD00003F01F0213465B0013441B050B4380E018
:101BE0003B681B68C3F31203002B07D13B681B68DB
:101BF0009B0E01339B0603F0F84215E03B681B681F
:101C0000FB62FB6A93FAA3F3BB62BB6A3B633B6B69
:101C1000002B01D1202303E03B6BB3FA83F3DBB24B
:101C200001339B0603F0F8423B681B68C3F31203C1
:101C3000002B09D13B681B689B0E013303F01F0387
:101C4000012101FA03F317E03B681B683B623B6A22
:101C500093FAA3F3FB61FB697B627B6A002B01D1E2
:101C6000202303E07B6AB3FA83F3DBB2013303F092
:101C70001F03012101FA03F342EA03013B681B68D9
:101C8000C3F31203002B0DD13B681B689B0E01337D
:101C900003F01F0213465B0013441E3B1B0543F079
:101CA00000731DE03B681B687B617B6993FAA3F3BB
:101CB0003B613B69BB61BB69002B03D1202305E07D
:101CC00000007F40BB69B3FA83F3DBB2013303F05A
:101CD0001F0213465B0013441E3B1B0543F00073B9
:101CE0000B433A6892681946FFF79CF83B681A68FC
:101CF000444B1340002B7AD04348FEF7F1FFC7F85E
:101D0000C4003B681B68414A93422CD1D7F8C430C9
:101D100003F40003002B26D17B681B683C4A9342E6
:101D200004D07B681B683B4A93425DD1D7F8C4302E
:101D300043F4000319463448FEF7BFFF364B1B68D7
:101D40009B09364AA2FB03239B095A1C13465B00DE
:101D500013449B00FB6002E0FB68013BFB60FB68F7
:101D6000002BF9D140E03B681B682D4A934218D103
:101D7000D7F8C43003F08073002B12D17B681B6846
:101D8000234A934204D07B681B68224A93422DD198
:101D9000D7F8C43043F0807319461B48FEF78DFF17
:101DA00024E03B681B681F4A934220D1D7F8C43017
:101DB00003F48003002B1AD17B681B68144A9342FA
:101DC00015D1D7F8C43043F4800319460E48FEF706
:101DD00074FF0CE07B685B6D43F020027B685A6502
:101DE000012387F8D73002E000BF00E000BF7B6826
:101DF000002283F8502097F8D7301846D837BD46D0
:101E000080BD00BF0000088000030450000052C7DE
:101E1000000004500002045000000020632D3E0525
:101E2000000084CB0100008080B584B000AF7860F2
:101E30000023BB607B681B681846FFF7C1F80346A8
:101E4000002B69D17B681B689A68364B1340002BC6
:101E50000DD07B685B6D43F010027B685A657B6830
:101E60009B6D43F001027B689A65012355E07B6816
:101E70001B681846FFF790F82B48FEF731FF034622
:101E800003F40003002B13D0284B1B689B09284A3E
:101E9000A2FB03239B095A1C13465B0013449B00BF
:101EA000BB6002E0BB68013BBB60BB68002BF9D1A3
:101EB000FEF7E4FEF86028E07B681B681846FFF731
:101EC0007FF80346002B04D17B681B681846FFF798
:101ED00063F8FEF7D3FE0246FB68D31A022B14D92F
:101EE0007B681B681B6803F00103012B0DD07B6826
:101EF0005B6D43F010027B685A657B689B6D43F015
:101F000001027B689A65012307E07B681B681B68F8
:101F100003F00103012BCFD1002318461037BD4633
:101F200080BD00BF3F00008000030450000000207F
:101F3000632D3E0580B483B000AF78607B689B68FA
:101F400003F00103012B01D1012300E00023184617
:101F50000C37BD465DF8047B704780B483B000AF9A
:101F600078607B689B6803F00403042B01D1012394
:101F700000E0002318460C37BD465DF8047B70472F
:101F800090B59FB000AF78603960002387F8773054
:101F90007B6893F85030012B01D1022393E07B68DA
:101FA000012283F850200023FB6500233B667B68F9
:101FB0001B68474A934202D1464BBB6001E00023B5
:101FC000BB60BB68002B0BD17B685B6D43F02002CC
:101FD0007B685A657B68002283F85020012372E0F9
:101FE000BB681846FFF7B9FF38677B681B6818465F
:101FF000FFF7B3FF0346002B54D13B6F002B51D1A9
:10200000354BFB663B681B68002B2CD0FB6E9B6836
:1020100023F460423B6859687B6893F830305B0377
:102020000B431A43FB6E9A602948FFF783FF04466F
:102030002848FFF77FFF03461C432848FFF77AFF35
:1020400003462343002B37D1FB6E9B6823F4716357
:1020500023F00F033A6811683A6892680A431A43FA
:10206000FB6E9A6028E0FB6E9B6823F46042FB6E77
:102070009A601748FFF75EFF04461648FFF75AFFBD
:1020800003461C431548FFF755FF03462343002B27
:1020900012D1FB6E9B6823F4716323F00F03FA6E79
:1020A000936009E07B685B6D43F020027B685A65B2
:1020B000012387F8773000E000BF7B68002283F8B7
:1020C000502097F8773018467C37BD4690BD00BF4A
:1020D00000000450000104500003045000020450AA
:1020E00080B485B000AF78607B6803F00703FB60C5
:1020F0000C4BDB68BB60BA684FF6FF031340BB6054
:10210000FB681A02BB68134343F0BF6343F4003318
:10211000BB60044ABB68D36000BF1437BD465DF89E
:10212000047B704700ED00E080B400AF044BDB6837
:102130001B0A03F007031846BD465DF8047B704791
:1021400000ED00E080B483B000AF0346FB7197F967
:102150000730002B0BDBFB7903F01F02074997F9CF
:1021600007305B09012000FA02F241F8232000BF8A
:102170000C37BD465DF8047B704700BF00E100E00E
:1021800080B483B000AF03463960FB7197F9073024
:10219000002B0ADB3B68DAB20C4997F907301201D1
:1021A000D2B20B4483F800230AE03B68DAB2084954
:1021B000FB7903F00F03043B1201D2B20B441A76F1
:1021C00000BF0C37BD465DF8047B704700E100E0BE
:1021D00000ED00E080B489B000AFF860B9607A60CB
:1021E000FB6803F00703FB61FB69C3F10703042BE2
:1021F00028BF0423BB61FB690433062B02D9FB69AA
:10220000033B00E000237B614FF0FF32BB6902FA21
:1022100003F3DA43BB681A407B699A404FF0FF3101
:102220007B6901FA03F3D9437B680B4013431846DB
:102230002437BD465DF8047B704780B582B000AF9F
:1022400078607868FFF74CFF00BF0837BD4680BD57
:1022500080B586B000AF0346B9607A60FB73002397
:102260007B61FFF761FF78617A68B9687869FFF789
:10227000B1FF024697F90F3011461846FFF780FF6D
:1022800000BF1837BD4680BD80B582B000AF0346A1
:10229000FB7197F907301846FFF754FF00BF083766
:1022A000BD4680BD80B487B000AF78603960002340
:1022B0007B617FE13B681A6801217B6901FA03F3C6
:1022C0001340FB60FB68002B00F071813B685B688A
:1022D00003F00303012B05D03B685B6803F00303A5
:1022E000022B30D17B689B683B617B695B000322DA
:1022F00002FA03F3DB433A6913403B613B68DA6857
:102300007B695B0002FA03F33A6913433B617B6824
:102310003A699A607B685B683B6101227B6902FADB
:1023200003F3DB433A6913403B613B685B681B097D
:1023300003F001027B6902FA03F33A6913433B613C
:102340007B683A695A603B685B6803F00303032BC0
:1023500018D17B68DB6A3B6101227B6902FA03F3D7
:10236000DB433A6913403B613B685B68DB0803F081
:1023700001027B6902FA03F33A6913433B617B680C
:102380003A69DA623B685B6803F00303032B17D0FA
:102390007B68DB683B617B695B00032202FA03F325
:1023A000DB433A6913403B613B689A687B695B0099
:1023B00002FA03F33A6913433B617B683A69DA60D6
:1023C0003B685B6803F00303022B23D17B69DA08C7
:1023D0007B68083253F822303B617B6903F00703C6
:1023E0009B000F2202FA03F3DB433A6913403B617F
:1023F0003B681A697B6903F007039B0002FA03F349
:102400003A6913433B617B69DA087B6808323969B2
:1024100043F822107B681B683B617B695B000322E9
:1024200002FA03F3DB433A6913403B613B685B68A4
:1024300003F003027B695B0002FA03F33A6913437A
:102440003B617B683A691A603B685B6803F4403320
:10245000002B00F0AC805F4B1B6E5E4A43F0010323
:1024600013665C4B1B6E03F00103BB60BB685A4AEA
:102470007B699B08023352F823303B617B6903F090
:1024800003039B000F2202FA03F3DB433A69134074
:102490003B617B68B3F1904F25D07B684F4A9342F4
:1024A0001FD07B684E4A934219D07B684D4A9342B5
:1024B00013D07B684C4A93420DD07B684B4A9342C1
:1024C00007D07B684A4A934201D106230CE00723D8
:1024D0000AE0052308E0042306E0032304E00223C6
:1024E00002E0012300E000237A6902F00302920077
:1024F00093403A6913433B6137497B699B08023338
:102500003A6941F823203B4B9B683B61FB68DB4306
:102510003A6913403B613B685B6803F48013002B0E
:1025200003D03A69FB6813433B61324A3B699360CD
:10253000304BDB683B61FB68DB433A6913403B612E
:102540003B685B6803F40013002B03D03A69FB6817
:1025500013433B61274A3B69D360264B5B683B6171
:10256000FB68DB433A6913403B613B685B6803F4FB
:102570000033002B03D03A69FB6813433B611D4ACB
:102580003B6953601B4B1B683B61FB68DB433A694B
:1025900013403B613B685B6803F48033002B03D03E
:1025A0003A69FB6813433B61124A3B6913607B69DC
:1025B00001337B613B681A687B6922FA03F3002BC5
:1025C0007FF478AE00BF00BF1C37BD465DF8047BCA
:1025D000704700BF001002400000014000040048A6
:1025E00000080048000C0048001000480014004893
:1025F000001800480004014080B483B000AF786048
:102600000B467B8013467B707B78002B03D07A8847
:102610007B689A6102E07A887B689A6200BF0C3717
:10262000BD465DF8047B704780B400AF044B1B6867
:1026300003F4C0631846BD465DF8047B704700BFD5
:102640000070004080B485B000AF78607B68B3F55F
:10265000007F30D1234B1B6803F4C063B3F5007FC8
:1026600038D0204B1B6823F4C0631E4A43F4007328
:1026700013601D4B1B68322202FB03F31B4AA2FBB3
:1026800003239B0C0133FB6002E0FB68013BFB6012
:10269000144B5B6903F48063B3F5806F02D1FB6870
:1026A000002BF2D10F4B5B6903F48063B3F5806FAD
:1026B00010D103230FE00B4B1B6803F4C063B3F589
:1026C000806F07D0074B1B6823F4C063054A43F4AF
:1026D00080631360002318461437BD465DF8047B01
:1026E000704700BF007000400000002083DE1B43E5
:1026F00080B588B000AF78607B68002B01D10123E2
:10270000CAE3974B9B6803F00C03BB61944BDB68F7
:1027100003F003037B617B681B6803F01003002B4D
:1027200000F0E480BB69002B07D0BB690C2B40F0A4
:102730008B807B69012B40F08780894B1B6803F0FD
:102740000203002B05D07B689B69002B01D101237C
:10275000A2E37B681A6A824B1B6803F00803002B14
:1027600004D07F4B1B6803F0F00305E07C4BD3F8EB
:1027700094301B0903F0F003934223D27B681B6A59
:10278000184600F087FD0346002B01D0012383E3A8
:10279000734B1B68724A43F008031360704B1B684D
:1027A00023F0F0027B681B6A6D4913430B606C4B8E
:1027B0005B6823F47F427B68DB691B026849134333
:1027C0004B6025E0664B1B68654A43F008031360C5
:1027D000634B1B6823F0F0027B681B6A604913435C
:1027E0000B605F4B5B6823F47F427B68DB691B02F5
:1027F0005B4913434B60BB69002B09D17B681B6AA3
:10280000184600F047FD0346002B01D0012343E3A7
:1028100000F04AFC0246524B9B681B0903F00F0371
:102820005049CB5C03F01F0322FA03F34E4A1360B6
:102830004E4B1B681846FEF723F90346FB73FB7BE0
:10284000002B52D0FB7B27E37B689B69002B32D0A7
:10285000434B1B68424A43F001031360FEF70EFA34
:10286000386108E0FEF70AFA02463B69D31A022BE8
:1028700001D9032310E33A4B1B6803F00203002B3A
:10288000F0D0374B1B68364A43F008031360344BD3
:102890001B6823F0F0027B681B6A314913430B600D
:1028A0002F4B5B6823F47F427B68DB691B022C495A
:1028B00013434B601AE02A4B1B68294A23F001039B
:1028C0001360FEF7DBF9386108E0FEF7D7F902463E
:1028D0003B69D31A022B01D90323DDE2204B1B688D
:1028E00003F00203002BF0D100E000BF7B681B68FF
:1028F00003F00103002B74D0BB69082B05D0BB6922
:102900000C2B0ED17B69032B0BD1154B1B6803F4E9
:102910000033002B64D07B685B68002B60D10123FF
:10292000BAE27B685B68B3F5803F06D10C4B1B684D
:102930000B4A43F48033136026E07B685B68B3F591
:10294000A02F15D1064B1B68054A43F48023136062
:10295000034B1B68024A43F48033136014E000BF4A
:1029600000100240E8790008000000200400002068
:10297000A04B1B689F4A23F4803313609D4B1B6858
:102980009C4A23F4802313607B685B68002B13D080
:10299000FEF774F9386108E0FEF770F902463B690A
:1029A000D31A642B01D9032376E2924B1B6803F4FC
:1029B0000033002BF0D014E0FEF760F9386108E036
:1029C000FEF75CF902463B69D31A642B01D9032355
:1029D00062E2884B1B6803F40033002BF0D100E067
:1029E00000BF7B681B6803F00203002B60D0BB694B
:1029F000042B05D0BB690C2B19D17B69022B16D196
:102A00007C4B1B6803F48063002B05D07B68DB687C
:102A1000002B01D101233FE2764B5B6823F0F85293
:102A20007B681B691B06734913434B6040E07B685E
:102A3000DB68002B23D06F4B1B686E4A43F4807316
:102A40001360FEF71BF9386108E0FEF717F902463C
:102A50003B69D31A022B01D903231DE2654B1B6886
:102A600003F48063002BF0D0624B5B6823F0F852D4
:102A70007B681B691B065F4913434B6018E05D4B85
:102A80001B685C4A23F480731360FEF7F7F8386123
:102A900008E0FEF7F3F802463B69D31A022B01D98E
:102AA0000323F9E1534B1B6803F48063002BF0D13F
:102AB0007B681B6803F00803002B3CD07B685B69D4
:102AC000002B1CD04B4BD3F894304A4A43F00103FF
:102AD000C2F89430FEF7D2F8386108E0FEF7CEF87D
:102AE00002463B69D31A022B01D90323D4E1414B9F
:102AF000D3F8943003F00203002BEFD01BE03D4BE2
:102B0000D3F894303B4A23F00103C2F89430FEF727
:102B1000B5F8386108E0FEF7B1F802463B69D31A10
:102B2000022B01D90323B7E1324BD3F8943003F0E1
:102B30000203002BEFD17B681B6803F00403002B1A
:102B400000F0A6800023FB772A4B9B6D03F0805397
:102B5000002B0DD1274B9B6D264A43F08053936584
:102B6000244B9B6D03F08053BB60BB680123FB7754
:102B7000214B1B6803F48073002B18D11E4B1B687C
:102B80001D4A43F480731360FEF778F8386108E05B
:102B9000FEF774F802463B69D31A022B01D90323CE
:102BA0007AE1154B1B6803F48073002BF0D07B682F
:102BB0009B68012B08D10F4BD3F890300D4A43F09E
:102BC0000103C2F8903029E07B689B68052B15D182
:102BD000084BD3F89030074A43F00403C2F8903012
:102BE000044BD3F89030034A43F00103C2F890300D
:102BF00014E000BF00100240007000409C4BD3F86E
:102C000090309B4A23F00103C2F89030984BD3F8E0
:102C10009030974A23F00403C2F890307B689B6899
:102C2000002B16D0FEF72AF838610AE0FEF726F8E6
:102C300002463B69D31A41F28832934201D90323F9
:102C40002AE18B4BD3F8903003F00203002BEDD038
:102C500015E0FEF713F838610AE0FEF70FF80246B8
:102C60003B69D31A41F28832934201D9032313E11D
:102C70007F4BD3F8903003F00203002BEDD1FB7FA4
:102C8000012B05D17A4B9B6D794A23F080539365D4
:102C90007B689B6A002B00F0FE807B689B6A022B9E
:102CA00040F0D080724BDB687B617B6903F00302EC
:102CB0007B68DB6A9A4230D17B6903F070027B68E3
:102CC0001B6B013B1B019A4227D17B6903F4FE4237
:102CD0007B685B6B1B029A421FD17B6903F4003354
:102CE0007A68926B072A14BF01220022D2B2934263
:102CF00013D17B6903F4C0027B68DB6B5B08013B8B
:102D00005B059A4209D17B6903F0C0627B681B6C4A
:102D10005B08013B5B069A426ED0BB690C2B69D005
:102D2000534B1B6803F08063002B05D1504B1B688D
:102D300003F08053002B01D00123ADE04C4B1B6806
:102D40004B4A23F080731360FDF798FF386108E069
:102D5000FDF794FF02463B69D31A022B01D90323E6
:102D60009AE0434B1B6803F00073002BF0D1404BFB
:102D7000DA68404B13407A68D16A7A68126B013A7C
:102D8000120111437A68526B120211437A68D26BB6
:102D90005208013A520511437A68126C5208013AFE
:102DA000520611437A68926B120952040A43304961
:102DB0001343CB602E4B1B682D4A43F08073136086
:102DC0002B4BDB682A4A43F08073D360FDF756FF34
:102DD000386108E0FDF752FF02463B69D31A022B27
:102DE00001D9032358E0224B1B6803F00073002B2A
:102DF000F0D050E001234FE01D4B1B6803F000733F
:102E0000002B48D11A4B1B68194A43F0807313609A
:102E1000174BDB68164A43F08073D360FDF72EFF33
:102E2000386108E0FDF72AFF02463B69D31A022BFE
:102E300001D9032330E00E4B1B6803F00073002B15
:102E4000F0D028E0BB690C2B23D0094B1B68084A43
:102E500023F080731360FDF711FF38610CE0FDF77C
:102E60000DFF02463B69D31A022B05D9032313E059
:102E7000001002408C809DF9094B1B6803F0007321
:102E8000002BECD1064BDA680549064B1340CB60AA
:102E900001E0012300E0002318462037BD4680BD35
:102EA00000100240FCFFEEFE80B584B000AF7860F9
:102EB00039607B68002B01D10123E7E0754B1B686B
:102EC00003F007033A689A4210D9724B1B6823F04B
:102ED000070270493B6813430B606E4B1B6803F09D
:102EE00007033A689A4201D00123CFE07B681B6850
:102EF00003F00203002B10D07B689A68664B9B6836
:102F000003F0F0039A4208D9634B9B6823F0F00268
:102F10007B689B68604913438B607B681B6803F088
:102F20000103002B4CD07B685B68032B07D15A4B05
:102F30001B6803F00073002B21D10123A6E07B68FE
:102F40005B68022B07D1544B1B6803F40033002B42
:102F500015D101239AE07B685B68002B07D14E4BAB
:102F60001B6803F00203002B09D101238EE04A4BBA
:102F70001B6803F48063002B01D1012386E0464BDC
:102F80009B6823F003027B685B68434913438B60B3
:102F9000FDF774FEF8600AE0FDF770FE0246FB687C
:102FA000D31A41F28832934201D903236EE03A4B9F
:102FB0009B6803F00C027B685B689B009A42EBD134
:102FC0007B681B6803F00203002B10D07B689A68B3
:102FD000314B9B6803F0F0039A4208D22E4B9B685A
:102FE00023F0F0027B689B682B4913438B60294BCD
:102FF0001B6803F007033A689A4210D2254B1B68FE
:1030000023F0070223493B6813430B60214B1B68E5
:1030100003F007033A689A4201D0012336E07B6847
:103020001B6803F00403002B08D01B4B9B6823F4A0
:10303000E0627B68DB68184913438B607B681B6820
:1030400003F00803002B09D0134B9B6823F4605254
:103050007B681B69DB00104913438B6000F024F888
:1030600002460D4B9B681B0903F00F030B49CB5C19
:1030700003F01F0322FA03F3094A1360094B1B688C
:103080001846FDF7FDFC0346FB72FB7A1846103725
:10309000BD4680BD0020024000100240E8790008D3
:1030A000000000200400002080B489B000AF00239D
:1030B000FB610023BB613E4B9B6803F00C033B614B
:1030C0003B4BDB6803F00303FB603B69002B05D03F
:1030D0003B690C2B21D1FB68012B1ED1344B1B68A3
:1030E00003F00803002B07D1314BD3F894301B0AAF
:1030F00003F00F03FB6105E02D4B1B681B0903F078
:103100000F03FB612B4AFB6952F82330FB613B69DB
:10311000002B0DD1FB69BB610AE03B69042B02D196
:10312000254BBB6104E03B69082B01D1234BBB61FC
:103130003B690C2B34D11E4BDB6803F00303BB60EF
:10314000BB68022B03D0BB68032B03D005E01A4BEE
:103150007B6105E0194B7B6102E0FB697B6100BF8D
:10316000134BDB681B0903F0070301337B60104B33
:10317000DB681B0A03F07F037A6903FB02F27B68BA
:10318000B2FBF3F37B610A4BDB685B0E03F00303D6
:1031900001335B003B607A693B68B2FBF3F3BB61D0
:1031A000BB6918462437BD465DF8047B704700BFF5
:1031B00000100240007A00080024F40000127A0097
:1031C00080B400AF034B1B681846BD465DF8047B16
:1031D000704700BF0000002080B500AFFFF7F0FF90
:1031E0000246064B9B681B0A03F007030449CB5CAD
:1031F00003F01F0322FA03F3184680BD00100240BB
:10320000F879000880B500AFFFF7DAFF0246064BF9
:103210009B68DB0A03F007030449CB5C03F01F0340
:1032200022FA03F3184680BD00100240F879000826
:1032300080B483B000AF786039607B680F221A6079
:10324000124B9B6803F003027B685A600F4B9B682C
:1032500003F0F0027B689A600C4B9B6803F4E06219
:103260007B68DA60094B9B68DB0803F4E0627B68EB
:103270001A61074B1B6803F007023B681A6000BF26
:103280000C37BD465DF8047B704700BF001002405C
:103290000020024080B586B000AF786000233B611B
:1032A0002A4B9B6D03F08053002B03D0FFF7BCF932
:1032B000786114E0254B9B6D244A43F0805393655D
:1032C000224B9B6D03F08053FB60FB68FFF7ACF96A
:1032D00078611E4B9B6D1D4A23F0805393657B697B
:1032E000B3F5007F0BD17B68802B19D97B68A02BAD
:1032F00002D902233B6113E001233B6110E07B68AC
:10330000802B02D903233B610AE07B68802B02D12A
:1033100002233B6104E07B68702B01D101233B61F8
:103320000B4B1B6823F0070209493B6913430B60F1
:10333000074B1B6803F007033A699A4201D0012347
:1033400000E0002318461837BD4680BD001002403B
:103350000020024080B586B000AF78600023FB7487
:103360000023BB747B681B6803F40063002B41D00F
:103370007B685B6EB3F5400F2AD0B3F5400F24D8BD
:10338000B3F5000F08D0B3F5000F1ED8002B0AD0FC
:10339000B3F5800F10D018E0864BDB68854A43F404
:1033A0008033D36015E07B6804330021184600F0B9
:1033B000BBFA0346FB740CE07B68203300211846FF
:1033C00000F0A6FB0346FB7403E00123FB7400E05E
:1033D00000BFFB7C002B0BD1764BD3F8883023F455
:1033E00040027B685B6E73491343C1F8883001E08B
:1033F000FB7CBB747B681B6803F48053002B41D0BB
:103400007B689B6EB3F1407F2AD0B3F1407F24D814
:10341000B3F1007F08D0B3F1007F1ED8002B0AD093
:10342000B3F1807F10D018E0624BDB68614A43F44F
:103430008033D36015E07B6804330021184600F028
:1034400073FA0346FB740CE07B68203300211846B6
:1034500000F05EFB0346FB7403E00123FB7400E015
:1034600000BFFB7C002B0BD1524BD3F8883023F0EC
:1034700040727B689B6E4F491343C1F8883001E06E
:10348000FB7CBB747B681B6803F40033002B00F0EB
:10349000A08000237B74474B9B6D03F08053002B6F
:1034A00001D1012300E00023002B0DD0414B9B6D87
:1034B000404A43F0805393653E4B9B6D03F080532D
:1034C000BB60BB6801237B743B4B1B683A4A43F4E7
:1034D00080731360FDF7D2FBF86009E0FDF7CEFBC7
:1034E0000246FB68D31A022B02D90323FB7405E0C2
:1034F000314B1B6803F48073002BEFD0FB7C002B57
:103500005CD12C4BD3F8903003F440737B617B6922
:10351000002B1FD07B68D3F884307A699A4219D087
:10352000244BD3F8903023F440737B61214BD3F8C4
:103530009030204A43F48033C2F890301D4BD3F8CA
:1035400090301C4A23F48033C2F89030194A7B69CA
:10355000C2F890307B6903F00103002B16D0FDF711
:103560008DFBF8600BE0FDF789FB0246FB68D31A80
:1035700041F28832934202D90323FB7406E00D4BDB
:10358000D3F8903003F00203002BECD0FB7C002B2F
:103590000CD1084BD3F8903023F440727B68D3F8F9
:1035A000843004491343C1F8903009E0FB7CBB74BC
:1035B00006E000BF0010024000700040FB7CBB74BE
:1035C0007B7C012B05D19E4B9B6D9D4A23F0805344
:1035D00093657B681B6803F00103002B0AD0984BAE
:1035E000D3F8883023F003027B689B6B9449134324
:1035F000C1F888307B681B6803F00203002B0AD0F7
:103600008F4BD3F8883023F00C027B68DB6B8C493E
:103610001343C1F888307B681B6803F00403002B58
:103620000AD0874BD3F8883023F030027B681B6CBC
:1036300083491343C1F888307B681B6803F0080393
:10364000002B0AD07E4BD3F8883023F0C0027B6871
:103650005B6C7B491343C1F888307B681B6803F0BF
:103660001003002B0AD0764BD3F8883023F4407235
:103670007B689B6C72491343C1F888307B681B6878
:1036800003F02003002B0AD06D4BD3F8883023F4CD
:1036900040627B68DB6C6A491343C1F888307B6801
:1036A0001B6803F40073002B0AD0654BD3F88830F5
:1036B00023F440227B68DB6D61491343C1F88830F5
:1036C0007B681B6803F48063002B0AD05C4BD3F843
:1036D000883023F440127B681B6E59491343C1F8AC
:1036E00088307B681B6803F04003002B0AD0544BE2
:1036F000D3F8883023F440527B681B6D5049134344
:10370000C1F888307B681B6803F08003002B0AD067
:103710004B4BD3F8883023F440427B685B6D4849BB
:103720001343C1F888307B681B6803F48073002B57
:103730000AD0434BD3F8883023F440327B689B6D2A
:103740003F491343C1F888307B681B6803F400537A
:10375000002B28D03A4BD3F8883023F040627B68A6
:10376000DB6E37491343C1F888307B68DB6EB3F1F9
:10377000006F06D1324BDB68314A43F48013D360CB
:1037800011E07B68DB6EB3F1806F0CD17B68043392
:103790000121184600F0C8F80346FB74FB7C002B9F
:1037A00001D0FB7CBB747B681B6803F40023002BF7
:1037B00028D0234BD3F8883023F040627B681B6FFE
:1037C0001F491343C1F888307B681B6FB3F1006F4A
:1037D00006D11B4BDB681A4A43F48013D36011E017
:1037E0007B681B6FB3F1806F0CD17B6804330121C0
:1037F000184600F099F80346FB74FB7C002B01D0BF
:10380000FB7CBB747B681B6803F48023002B2BD0EC
:103810000B4BD3F8883023F040627B685B6F08491C
:103820001343C1F888307B685B6FB3F1006F09D137
:10383000034BDB68024A43F48013D36014E000BFFB
:10384000001002407B685B6FB3F1806F0CD17B6826
:1038500004330121184600F067F80346FB74FB7C33
:10386000002B01D0FB7CBB747B681B6803F4804396
:10387000002B2FD02B4BD3F8883023F040527B689D
:103880009B6F28491343C1F888307B689B6FB3F165
:10389000805F0DD17B6804330221184600F044F8A4
:1038A0000346FB74FB7C002B14D0FB7CBB7411E043
:1038B0007B689B6FB3F1005F0CD17B6820330221E2
:1038C000184600F025F90346FB74FB7C002B01D061
:1038D000FB7CBB747B681B6803F40043002B0AD09D
:1038E000104BD3F8883023F080427B68DB6F0D49A2
:1038F0001343C1F888307B681B6803F48033002BC6
:103900000BD0084BD3F8883023F000427B68D3F803
:10391000803004491343C1F88830BB7C18461837FF
:10392000BD4680BD0010024080B584B000AF786015
:1039300039600023FB73754BDB6803F00303002B36
:1039400018D0724BDB6803F003027B681B689A4255
:103950000DD17B681B68002B09D06C4BDB681B0901
:1039600003F007035A1C7B685B689A4247D0012327
:10397000FB7344E07B681B68032B18D0032B25D80E
:10398000012B02D0022B09D020E0604B1B6803F012
:103990000203002B1DD10123FB731AE05B4B1B6854
:1039A00003F48063002B16D10123FB7313E0574B04
:1039B0001B6803F40033002B0FD1544B1B6803F436
:1039C0008023002B09D10123FB7306E00123FB7345
:1039D00004E000BF02E000BF00E000BFFB7B002B63
:1039E0000DD14A4BDB6823F073027B6819687B6852
:1039F0005B68013B1B010B4344491343CB60FB7BDA
:103A0000002B7DD1414B1B68404A23F0806313603B
:103A1000FDF734F9B86009E0FDF730F90246BB68FC
:103A2000D31A022B02D90323FB7305E0374B1B6823
:103A300003F00063002BEFD1FB7B002B60D13B68D0
:103A4000002B11D1314B1B6923F41F3323F4407336
:103A50007A68926811027A68D268120952040A439D
:103A60002A4913430B6127E03B68012B12D1274BF6
:103A70001B6923F4C00323F4FE437A6892681102A1
:103A80007A6812695208013A52050A431F491343E2
:103A90000B6111E01D4B1B6923F0C06323F4FE434F
:103AA0007A68926811027A6852695208013A52069D
:103AB0000A43164913430B61144B1B68134A43F026
:103AC00080631360FDF7DAF8B86009E0FDF7D6F817
:103AD0000246BB68D31A022B02D90323FB7305E00D
:103AE0000A4B1B6803F00063002BEFD0FB7B002B1D
:103AF00006D1064B1A697B689B69044913430B6125
:103B0000FB7B18461037BD4680BD00BF0010024049
:103B100080B584B000AF786039600023FB736A4BD6
:103B2000DB6803F00303002B18D0674BDB6803F05E
:103B300003027B681B689A420DD17B681B68002BCF
:103B400009D0614BDB681B0903F007035A1C7B6833
:103B50005B689A4247D00123FB7344E07B681B6893
:103B6000032B18D0032B25D8012B02D0022B09D010
:103B700020E0554B1B6803F00203002B1DD10123ED
:103B8000FB731AE0504B1B6803F48063002B16D1C3
:103B90000123FB7313E04C4B1B6803F40033002B31
:103BA0000FD1494B1B6803F48023002B09D101235B
:103BB000FB7306E00123FB7304E000BF02E000BFDB
:103BC00000E000BFFB7B002B0DD13F4BDB6823F0F7
:103BD00073027B6819687B685B68013B1B010B43C0
:103BE00039491343CB60FB7B002B67D1364B1B68F5
:103BF000354A23F080531360FDF740F8B86009E0C0
:103C0000FDF73CF80246BB68D31A022B02D9032306
:103C1000FB7305E02C4B1B6803F00053002BEFD126
:103C2000FB7B002B4AD13B68002B11D1264B5B69F3
:103C300023F41F3323F440737A68926811027A6880
:103C4000D268120952040A431F4913434B6111E021
:103C50001D4B5B6923F0C06323F4FE437A689268CE
:103C600011027A6812695208013A52060A4316494B
:103C700013434B61144B1B68134A43F0805313608A
:103C8000FCF7FCFFB86009E0FCF7F8FF0246BB68F0
:103C9000D31A022B02D90323FB7305E00A4B1B68DE
:103CA00003F00053002BEFD0FB7B002B06D1064B1B
:103CB0005A697B685B69044913434B61FB7B184677
:103CC0001037BD4680BD00BF0010024080B582B0F5
:103CD00000AF78607B68002B01D1012349E07B684D
:103CE00093F83D30DBB2002B06D17B68002283F8CD
:103CF0003C20786800F041F87B68022283F83D2080
:103D00007B681A687B6804331946104600F0F8F99E
:103D10007B68012283F848207B68012283F83E20DB
:103D20007B68012283F83F207B68012283F84020D2
:103D30007B68012283F841207B68012283F84220BE
:103D40007B68012283F843207B68012283F84420AA
:103D50007B68012283F845207B68012283F8462096
:103D60007B68012283F847207B68012283F83D208D
:103D7000002318460837BD4680BD80B483B000AF2D
:103D8000786000BF0C37BD465DF8047B70470000CB
:103D900080B485B000AF78607B6893F83D30DBB2CB
:103DA000012B01D001234FE07B68022283F83D20E4
:103DB0007B681B68DA687B681B6842F00102DA6086
:103DC0007B681B68234A93421DD07B681B68B3F154
:103DD000804F18D07B681B681F4A934213D07B68C2
:103DE0001B681E4A93420ED07B681B681C4A934294
:103DF00009D07B681B681B4A934204D07B681B6810
:103E0000194A934215D17B681B689A68174B134077
:103E1000FB60FB68062B15D0FB68B3F5803F11D023
:103E20007B681B681A687B681B6842F001021A6095
:103E300008E07B681B681A687B681B6842F0010217
:103E40001A6000E000BF002318461437BD465DF835
:103E5000047B7047002C0140000400400008004033
:103E6000000C004000340140004001400700010008
:103E700080B582B000AF78607B681B681B6903F077
:103E80000203022B22D17B681B68DB6803F002036C
:103E9000022B1BD17B681B686FF002021A617B68E2
:103EA00001221A777B681B689B6903F00303002BD0
:103EB00003D0786800F005F905E0786800F0F7F8BD
:103EC000786800F008F97B6800221A777B681B6825
:103ED0001B6903F00403042B22D17B681B68DB6899
:103EE00003F00403042B1BD17B681B686FF00402F2
:103EF0001A617B6802221A777B681B689B6903F44E
:103F00004073002B03D0786800F0DBF805E0786898
:103F100000F0CDF8786800F0DEF87B6800221A77B0
:103F20007B681B681B6903F00803082B22D17B68A0
:103F30001B68DB6803F00803082B1BD17B681B6838
:103F40006FF008021A617B6804221A777B681B688D
:103F5000DB6903F00303002B03D0786800F0B1F8AD
:103F600005E0786800F0A3F8786800F0B4F87B68A2
:103F700000221A777B681B681B6903F01003102B63
:103F800022D17B681B68DB6803F01003102B1BD168
:103F90007B681B686FF010021A617B6808221A7731
:103FA0007B681B68DB6903F44073002B03D07868DF
:103FB00000F087F805E0786800F079F8786800F09C
:103FC0008AF87B6800221A777B681B681B6903F0FC
:103FD0000103012B0ED17B681B68DB6803F0010332
:103FE000012B07D17B681B686FF001021A617868AA
:103FF000FCF740FC7B681B681B6903F08003802B87
:104000000ED17B681B68DB6803F08003802B07D12F
:104010007B681B686FF080021A61786800F014F901
:104020007B681B681B6903F48073B3F5807F0ED136
:104030007B681B68DB6803F08003802B07D17B68FB
:104040001B686FF480721A61786800F007F97B686A
:104050001B681B6903F04003402B0ED17B681B6873
:10406000DB6803F04003402B07D17B681B686FF0CF
:1040700040021A61786800F038F87B681B681B6999
:1040800003F02003202B0ED17B681B68DB6803F054
:104090002003202B07D17B681B686FF020021A6178
:1040A000786800F0C7F800BF0837BD4680BD80B40F
:1040B00083B000AF786000BF0C37BD465DF8047B6D
:1040C000704780B483B000AF786000BF0C37BD4646
:1040D0005DF8047B704780B483B000AF786000BFA8
:1040E0000C37BD465DF8047B704780B483B000AFE9
:1040F000786000BF0C37BD465DF8047B7047000058
:1041000080B485B000AF786039607B681B68FB6065
:104110007B68404A934213D07B68B3F1804F0FD045
:104120007B683D4A93420BD07B683C4A934207D060
:104130007B683B4A934203D07B683A4A934208D15A
:10414000FB6823F07003FB603B685B68FA6813430D
:10415000FB607B682F4A93421FD07B68B3F1804F8E
:104160001BD07B682C4A934217D07B682B4A934222
:1041700013D07B682A4A93420FD07B68294A934226
:104180000BD07B68284A934207D07B68274A93422A
:1041900003D07B68264A934208D1FB6823F440731E
:1041A000FB603B68DB68FA681343FB60FB6823F045
:1041B00080023B685B691343FB607B68FA681A60A6
:1041C0003B689A687B68DA623B681A687B689A6227
:1041D0007B68104A93420FD07B68124A93420BD0FF
:1041E0007B68114A934207D07B68104A934203D000
:1041F0007B680F4A934203D13B681A697B681A6354
:104200007B6801225A6100BF1437BD465DF8047B0C
:10421000704700BF002C014000040040000800402F
:10422000000C0040003401400040014000440140C7
:104230000048014080B483B000AF786000BF0C3705
:10424000BD465DF8047B704780B483B000AF7860F2
:1042500000BF0C37BD465DF8047B704780B483B067
:1042600000AF786000BF0C37BD465DF8047B704737
:1042700080B582B000AF78607B68002B01D101234C
:1042800040E07B689B6F002B06D17B68002283F89F
:1042900074207868FCF798FB7B6824229A677B6817
:1042A0001B681A687B681B6822F001021A60786834
:1042B00000F02CF80346012B01D1012322E07B689A
:1042C0005B6A002B02D0786800F0D8FA7B681B6824
:1042D0005A687B681B6822F490425A607B681B68AE
:1042E0009A687B681B6822F02A029A607B681B68C8
:1042F0001A687B681B6842F001021A60786800F057
:104300005FFB034618460837BD4680BD2DE9B04F18
:104310008AB000AFF860002387F82230FB689A6803
:10432000FB681B691A43FB685B691A43FB68DB691E
:1043300013437B62FB681B681A68A44B1340FA683E
:104340001268796A0B431360FB681B685B6823F48F
:104350004051FB68DA68FB681B680A435A60FB68D7
:104360009B697B62FB681B68994A934204D0FB6897
:104370001B6A7A6A13437B62FB681B689B6823F4A1
:104380003061FB681B687A6A0A439A60FB681B68A5
:10439000904A934226D1904BD3F8883003F0030320
:1043A000032B1BD801A252F823F000BFBD43000825
:1043B000CD430008C5430008D5430008012387F812
:1043C000233016E1022387F8233012E1042387F813
:1043D00023300EE1082387F823300AE1102387F801
:1043E000233006E1FB681B687C4A934238D17A4B44
:1043F000D3F8883003F00C030C2B2DD801A252F80F
:1044000023F000BF3944000859440008594400080B
:104410005944000849440008594400085944000818
:104420005944000841440008594400085944000810
:104430005944000851440008002387F82330D8E08D
:10444000022387F82330D4E0042387F82330D0E018
:10445000082387F82330CCE0102387F82330C8E006
:10446000FB681B685E4A934225D15B4BD3F88830CA
:1044700003F03003302B16D0302B18D8202B0AD065
:10448000202B14D8002B02D0102B08D00FE00023D3
:1044900087F82330ADE0022387F82330A9E0042316
:1044A00087F82330A5E0082387F82330A1E0102304
:1044B00087F823309DE0FB681B684A4A934225D168
:1044C000454BD3F8883003F0C003C02B16D0C02B67
:1044D00018D8802B0AD0802B14D8002B02D0402B68
:1044E00008D00FE0002387F8233082E0022387F80A
:1044F00023307EE0042387F823307AE0082387F80E
:10450000233076E0102387F8233072E0FB681B68C5
:10451000354A93422AD1304BD3F8883003F44073A4
:10452000B3F5407F1AD0B3F5407F1BD8B3F5007FB9
:104530000CD0B3F5007F15D8002B03D0B3F5807FE6
:1045400008D00FE0002387F8233052E0022387F8D9
:1045500023304EE0042387F823304AE0082387F80D
:10456000233046E0102387F8233042E0FB681B68C5
:10457000174A93423AD1184BD3F8883003F440637A
:10458000B3F5406F1AD0B3F5406F1BD8B3F5006F89
:104590000CD0B3F5006F15D8002B03D0B3F5806FA6
:1045A00008D00FE0002387F8233022E0022387F8A9
:1045B00023301EE0042387F823301AE0082387F80D
:1045C000233016E0102387F8233012E0F369FFEF61
:1045D00000800040003801400010024000440040CC
:1045E00000480040004C004000500040102387F875
:1045F0002330FB681B689F4A93427AD197F8233097
:10460000082B24D801A252F823F000BF314600083D
:104610004F460008394600084F4600083F4600084C
:104620004F4600084F4600084F460008474600081E
:10463000FEF7D2FDF86110E08F4BFB610DE0FEF755
:1046400033FDF86109E04FF40043FB6105E000230E
:10465000FB61012387F8223000BFFB69002B00F0CB
:10466000FB80FB685A6813465B001344FA699A4260
:1046700005D3FB685B681B03FA699A4203D90123DF
:1046800087F82230E8E0FB6900221C4615464FF00F
:1046900000024FF000032B0243EA14632202F96880
:1046A0004968490800208846814612EB080A43EB16
:1046B000090BFB685B6800223B607A60D7E9002346
:1046C00050465946FBF784FD02460B461346BB6134
:1046D000BB69B3F5407F08D3BB69B3F5801F04D233
:1046E000FB681B68BA69DA60B6E0012387F82230FC
:1046F000B2E0FB68DB69B3F5004F5ED197F8233079
:10470000082B28D801A252F823F000BF3147000837
:104710003947000841470008574700084747000845
:104720005747000857470008574700084F470008F9
:10473000FEF752FDF86114E0FEF764FDF86110E049
:104740004D4BFB610DE0FEF7AFFCF86109E04FF463
:104750000043FB6105E00023FB61012387F8223061
:1047600000BFFB69002B77D0FB695A00FB685B68D0
:104770005B081A44FB685B68B2FBF3F3BB61BB697F
:104780000F2B16D9BB69B3F5803F12D2BB699BB220
:1047900023F00F03FB82BB695B089BB203F00703A6
:1047A0009AB2FB8A1343FB82FB681B68FA8ADA60C1
:1047B00052E0012387F822304EE097F82330082B8F
:1047C00027D801A252F823F0ED470008F54700086A
:1047D000FD47000813480008034800081348000874
:1047E00013480008134800080B480008FEF7F4FCC3
:1047F000F86114E0FEF706FDF86110E01E4BFB6166
:104800000DE0FEF751FCF86109E04FF40043FB6155
:1048100005E00023FB61012387F8223000BFFB691C
:10482000002B19D0FB685B685A08FB691A44FB68C7
:104830005B68B2FBF3F3BB61BB690F2B09D9BB69A2
:10484000B3F5803F05D2BB699AB2FB681B68DA609A
:1048500002E0012387F82230FB6800225A66FB68D9
:1048600000229A6697F8223018462837BD46BDE8E0
:10487000B08F00BF008000400024F40080B483B0FB
:1048800000AF78607B685B6A03F00103002B0AD0FD
:104890007B681B685B6823F400317B689A6A7B68DD
:1048A0001B680A435A607B685B6A03F00203002BB3
:1048B0000AD07B681B685B6823F480317B68DA6A06
:1048C0007B681B680A435A607B685B6A03F00403D9
:1048D000002B0AD07B681B685B6823F480217B680F
:1048E0001A6B7B681B680A435A607B685B6A03F03B
:1048F0000803002B0AD07B681B685B6823F4004127
:104900007B685A6B7B681B680A435A607B685B6AEA
:1049100003F01003002B0AD07B681B689B6823F40C
:1049200080517B689A6B7B681B680A439A607B683E
:104930005B6A03F02003002B0AD07B681B689B682E
:1049400023F400517B68DA6B7B681B680A439A602A
:104950007B685B6A03F04003002B1AD07B681B68FE
:104960005B6823F480117B681A6C7B681B680A43C0
:104970005A607B681B6CB3F5801F0AD17B681B688B
:104980005B6823F4C0017B685A6C7B681B680A4330
:104990005A607B685B6A03F08003002B0AD07B6857
:1049A0001B685B6823F400217B689A6C7B681B683A
:1049B0000A435A6000BF0C37BD465DF8047B704760
:1049C00080B586B002AF78607B680022C3F8802093
:1049D000FCF754F9F8607B681B681B6803F0080358
:1049E000082B0ED16FF07E430093FB6800224FF43A
:1049F0000011786800F02DF80346002B01D0032346
:104A000023E07B681B681B6803F00403042B0ED1B2
:104A10006FF07E430093FB6800224FF480017868BA
:104A200000F017F80346002B01D003230DE07B684C
:104A300020229A677B682022DA677B6800221A6648
:104A40007B68002283F87420002318461037BD4687
:104A500080BD80B59CB000AFF860B9603B60134684
:104A6000FB71A5E0BB6FB3F1FF3F00F0A180FCF745
:104A700005F902463B68D31ABA6F9A4202D3BB6F5C
:104A8000002B3ED1FB681B683B653B6D53E8003F44
:104A9000FB64FB6C23F4D0737B66FB681B681A46CF
:104AA0007B6EFB65BA65B96DFA6D41E800237B65E5
:104AB0007B6D002BE6D1FB681B680833FB63FB6B47
:104AC00053E8003FBB63BB6B23F001033B66FB680D
:104AD0001B6808333A6EBA647B64796CBA6C41E83F
:104AE00000233B643B6C002BE5D1FB6820229A67D6
:104AF000FB682022DA67FB68002283F87420032316
:104B000067E0FB681B681B6803F00403002B4FD0B1
:104B1000FB681B68DB6903F40063B3F5006F47D1E2
:104B2000FB681B684FF400621A62FB681B68BB627B
:104B3000BB6A53E8003F7B627B6A23F4D073FB6659
:104B4000FB681B681A46FB6E7B633A63396B7A6BB2
:104B500041E80023FB62FB6A002BE6D1FB681B687F
:104B600008337B617B6953E8003F3B613B6923F07D
:104B70000103BB66FB681B680833BA6E3A62FB61CF
:104B8000F9693A6A41E80023BB61BB69002BE5D1B2
:104B9000FB6820229A67FB682022DA67FB682022E4
:104BA000C3F88020FB68002283F87420032310E000
:104BB000FB681B68DA69BB681340BA689A420CBF8D
:104BC00001230023DBB21A46FB799A423FF44AAF35
:104BD000002318467037BD4680BD000080B483B006
:104BE00000AF03463960FB7197F90730002B0ADBF1
:104BF0003B68DAB20C4997F907301201D2B20B4484
:104C000083F800230AE03B68DAB20849FB7903F035
:104C10000F03043B1201D2B20B441A7600BF0C37CB
:104C2000BD465DF8047B704700E100E000ED00E068
:104C300080B500AF054B1B6801F028FD0346012B32
:104C400001D002F011FB00BF80BD00BF10E000E00A
:104C500080B500AF00216FF00400FFF7BFFF00BF79
:104C600080BD000080B483B000AFEFF305833B60EC
:104C70003B68002B03D06FF005037B600CE00A4B10
:104C80001B68002B05D1084B01221A6000237B60B2
:104C900002E04FF0FF337B607B6818460C37BD465F
:104CA0005DF8047B704700BFD401002080B582B05E
:104CB00000AFEFF305833B603B68002B03D06FF040
:104CC00005037B6010E00B4B1B68012B09D1FFF73C
:104CD000BFFF084B02221A6001F07CF800237B60C2
:104CE00002E04FF0FF337B607B6818460837BD4613
:104CF00080BD00BFD401002080B58EB004AFF86045
:104D0000B9607A6000233B61EFF305837B617B69C7
:104D1000002B7ED1FB68002B7BD080233B621823C5
:104D2000FB6100237B624FF0FF33BB617B68002B8C
:104D300045D07B681B68002B02D07B681B687B62B8
:104D40007B689B69002B02D07B689B69FB61FB69D8
:104D5000002B08D0FB69382B05D87B685B6803F013
:104D60000103002B01D0002354E07B685B69002B1A
:104D700003D07B685B699B083B627B689B68002B68
:104D80000ED07B68DB68BB2B0AD97B681B69002BC4
:104D900006D07B685B69002B02D00123BB6110E069
:104DA0007B689B68002B0CD17B68DB68002B08D1EB
:104DB0007B681B69002B04D10023BB6101E0002349
:104DC000BB61BB69012B10D17B681B697A68926853
:104DD00002920193FB690093BB683A6A796AF868AA
:104DE00000F00CFE03463B6113E0BB69002B10D1C1
:104DF0003B6A9AB207F110030193FB690093BB6809
:104E0000796AF86800F057FE0346012B01D00023B1
:104E10003B613B6918462837BD4680BD80B584B0EC
:104E200000AF7860EFF30583BB60BB68002B03D055
:104E30006FF00503FB6007E00023FB607B68002B3D
:104E400002D0786800F092FFFB6818461037BD4624
:104E500080BD000080B485B000AFF860B9607A60B2
:104E6000FB68074A1A60BB68064A1A607B688022A2
:104E70001A6000BF1437BD465DF8047B704700BF61
:104E8000D80100209402002080B485B000AFF86003
:104E9000B9607A60FB68074A1A60BB68064A1A6004
:104EA0007B684FF480721A6000BF1437BD465DF80E
:104EB000047B7047940400205005002080B483B028
:104EC00000AF78607B6803F108027B685A607B68FA
:104ED0004FF0FF329A607B6803F108027B68DA606A
:104EE0007B6803F108027B681A617B6800221A6004
:104EF00000BF0C37BD465DF8047B704780B483B0BB
:104F000000AF78607B6800221A6100BF0C37BD4695
:104F10005DF8047B704780B485B000AF786039607D
:104F20007B685B68FB603B68FA685A60FB689A685C
:104F30003B689A60FB689B683A685A60FB683A680D
:104F40009A603B687A681A617B681B685A1C7B68A8
:104F50001A6000BF1437BD465DF8047B704780B40B
:104F600085B000AF786039603B681B68BB60BB6888
:104F7000B3F1FF3F03D17B681B69FB600CE07B68EA
:104F80000833FB6002E0FB685B68FB60FB685B6802
:104F90001B68BA689A42F6D2FB685A683B685A6046
:104FA0003B685B683A689A603B68FA689A60FB689D
:104FB0003A685A603B687A681A617B681B685A1CB9
:104FC0007B681A6000BF1437BD465DF8047B7047EC
:104FD00080B485B000AF78607B681B69FB607B683C
:104FE0005B687A6892689A607B689B687A685268A6
:104FF0005A60FB685B687A689A4203D17B689A685A
:10500000FB685A607B6800221A61FB681B685A1EA5
:10501000FB681A60FB681B6818461437BD465DF8CC
:10502000047B704780B584B000AF786039607B68DE
:10503000FB60FB68002B0AD14FF0500383F311880B
:10504000BFF36F8FBFF34F8FBB6000BFFEE702F06F
:1050500079F8FB681A68FB68DB6BF968096C01FB7F
:1050600003F31A44FB689A60FB6800229A63FB68AA
:105070001A68FB685A60FB681A68FB68DB6B013BC7
:10508000F968096C01FB03F31A44FB68DA60FB68FA
:10509000FF2283F84420FB68FF2283F845203B6809
:1050A000002B14D1FB681B69002B1AD0FB6810334E
:1050B000184601F029F90346002B12D00C4B4FF093
:1050C00080521A60BFF34F8FBFF36F8F09E0FB6808
:1050D00010331846FFF7F2FEFB6824331846FFF73B
:1050E000EDFE02F05FF8012318461037BD4680BD83
:1050F00004ED00E080B58EB002AFF860B9607A6070
:105100003B60FB68002B0AD14FF0500383F31188FA
:10511000BFF36F8FBFF34F8FBB6200BFFEE73B68EB
:10512000002B0AD14FF0500383F31188BFF36F8F28
:10513000BFF34F8F7B6200BFFEE77B68002B02D07E
:10514000BB68002B01D0012300E00023002B0AD113
:105150004FF0500383F31188BFF36F8FBFF34F8F6E
:105160003B6200BFFEE77B68002B02D1BB68002BCF
:1051700001D1012300E00023002B0AD14FF050039E
:1051800083F31188BFF36F8FBFF34F8FFB6100BFB5
:10519000FEE750237B617B69502B0AD04FF0500310
:1051A00083F31188BFF36F8FBFF34F8FBB6100BFD5
:1051B000FEE77B693B68FB62FB6A002B0DD0FB6A54
:1051C000012283F8462097F83820FB6A00931346A3
:1051D0007A68B968F86800F005F8FB6A1846303755
:1051E000BD4680BD80B584B000AFF860B9607A601C
:1051F000FB70BB68002B03D1BB69BA691A6002E07F
:10520000BB697A681A60BB69FA68DA63BB69BA6815
:105210001A640121B869FFF705FFBB69FA7883F8C2
:105220004C2000BF1037BD4680BD000080B58EB059
:1052300000AFF860B9607A603B6000237B63FB6875
:105240003B633B6B002B0AD14FF0500383F3118873
:10525000BFF36F8FBFF34F8FBB6200BFFEE7BB682A
:10526000002B03D13B6B1B6C002B01D1012300E011
:105270000023002B0AD14FF0500383F31188BFF3B2
:105280006F8FBFF34F8F7B6200BFFEE73B68022B3F
:1052900003D13B6BDB6B012B01D1012300E0002329
:1052A000002B0AD14FF0500383F31188BFF36F8FA7
:1052B000BFF34F8F3B6200BFFEE701F0E7F9034603
:1052C000002B02D17B68002B01D1012300E00023D9
:1052D000002B0AD14FF0500383F31188BFF36F8F77
:1052E000BFF34F8FFB6100BFFEE701F02BFF3B6B6D
:1052F0009A6B3B6BDB6B9A4202D33B68022B29D142
:105300003A68B968386B00F00BFAF8623B6B5B6A7D
:10531000002B10D03B6B2433184600F0F5FF0346FA
:10532000002B13D03F4B4FF080521A60BFF34F8FCA
:10533000BFF36F8F0AE0FB6A002B07D0394B4FF0A9
:1053400080521A60BFF34F8FBFF36F8F01F02AFFB7
:10535000012363E07B68002B03D101F023FF0023CE
:105360005CE07B6B002B06D107F11403184601F0BB
:105370002FF801237B6301F015FF00F09BFD01F086
:10538000E1FE3B6B93F844305BB2B3F1FF3F03D1D6
:105390003B6B002283F844203B6B93F845305BB2B3
:1053A000B3F1FF3F03D13B6B002283F8452001F0AE
:1053B000F9FE3A1D07F114031146184601F01EF8D4
:1053C0000346002B24D1386B00F0A2FA0346002BD1
:1053D00018D03B6B10337A681146184600F044FF32
:1053E000386B00F02DFA00F073FD0346002B7FF4BC
:1053F0007CAF0C4B4FF080521A60BFF34F8FBFF35E
:105400006F8F72E7386B00F01BFA00F061FD6CE7FC
:10541000386B00F015FA00F05BFD002318463837B2
:10542000BD4680BD04ED00E080B590B000AFF860EF
:10543000B9607A603B60FB68BB63BB6B002B0AD131
:105440004FF0500383F31188BFF36F8FBFF34F8F7B
:10545000BB6200BFFEE7BB68002B03D1BB6B1B6CBC
:10546000002B01D1012300E00023002B0AD14FF0D3
:10547000500383F31188BFF36F8FBFF34F8F7B62AD
:1054800000BFFEE73B68022B03D1BB6BDB6B012B3C
:1054900001D1012300E00023002B0AD14FF050037B
:1054A00083F31188BFF36F8FBFF34F8F3B6200BF51
:1054B000FEE701F029FFEFF311824FF0500383F371
:1054C0001188BFF36F8FBFF34F8FFA61BB61FB6928
:1054D0007B63BB6B9A6BBB6BDB6B9A4202D33B6803
:1054E000022B2FD1BB6B93F8453087F83330BB6B61
:1054F0009B6BFB623A68B968B86B00F011F997F9D9
:105500003330B3F1FF3F12D1BB6B5B6A002B16D077
:10551000BB6B2433184600F0F7FE0346002B0ED079
:105520007B68002B0BD07B6801221A6007E097F89C
:1055300033300133DBB25AB2BB6B83F84520012311
:10554000FB6301E00023FB637B6B7B617B6983F37F
:10555000118800BFFB6B18464037BD4680BD000078
:1055600080B58CB000AFF860B9607A600023FB6250
:10557000FB68BB62BB6A002B0AD14FF0500383F378
:105580001188BFF36F8FBFF34F8F3B6200BFFEE701
:10559000BB68002B03D1BB6A1B6C002B01D101231C
:1055A00000E00023002B0AD14FF0500383F3118851
:1055B000BFF36F8FBFF34F8FFB6100BFFEE701F0BA
:1055C00065F80346002B02D17B68002B01D1012333
:1055D00000E00023002B0AD14FF0500383F3118821
:1055E000BFF36F8FBFF34F8FBB6100BFFEE701F0CA
:1055F000A9FDBB6A9B6B7B627B6A002B1FD0B968DD
:10560000B86A00F0F7F87B6A5A1EBB6A9A63BB6AF5
:105610001B69002B0FD0BB6A1033184600F074FED4
:105620000346002B07D03D4B4FF080521A60BFF36A
:105630004F8FBFF36F8F01F0B5FD012369E07B68E9
:10564000002B03D101F0AEFD002362E0FB6A002BCA
:1056500006D107F11003184600F0BAFE0123FB62E1
:1056600001F0A0FD00F026FC01F06CFDBB6A93F890
:1056700044305BB2B3F1FF3F03D1BB6A002283F831
:105680004420BB6A93F845305BB2B3F1FF3F03D1CE
:10569000BB6A002283F8452001F084FD3A1D07F122
:1056A00010031146184600F0A9FE0346002B23D133
:1056B000B86A00F017F90346002B17D0BB6A2433F1
:1056C0007A681146184600F0CFFDB86A00F0B8F8C5
:1056D00000F0FEFB0346002B89D1104B4FF08052A7
:1056E0001A60BFF34F8FBFF36F8F80E7B86A00F087
:1056F000A7F800F0EDFB7AE7B86A00F0A1F800F037
:10570000E7FBB86A00F0EEF80346002B3FF46FAFFA
:10571000002318463037BD4680BD00BF04ED00E0D1
:1057200080B586B000AFF860B9607A6000237B6115
:10573000FB689B6B3B61FB681B6C002B0DD1FB680E
:105740001B68002B4DD1FB689B68184600F0BCFF1E
:105750007861FB6800229A6043E07B68002B19D1D6
:10576000FB685868FB681B6C1A46B96802F01CF8A5
:10577000FB685A68FB681B6C1A44FB685A60FB683C
:105780005A68FB689B689A422BD3FB681A68FB68CF
:105790005A6026E0FB68D868FB681B6C1A46B9683B
:1057A00002F002F8FB68DA68FB681B6C5B421A4483
:1057B000FB68DA60FB68DA68FB681B689A4207D20C
:1057C000FB689A68FB681B6C5B421A44FB68DA60F2
:1057D0007B68022B05D13B69002B02D03B69013B62
:1057E0003B613B695A1CFB689A637B691846183712
:1057F000BD4680BD80B582B000AF786039607B68FF
:105800001B6C002B18D07B68DA687B681B6C1A4411
:105810007B68DA607B68DA687B689B689A4203D3AE
:105820007B681A687B68DA607B68D9687B681B6C68
:105830001A46386801F0B8FF00BF0837BD4680BD82
:1058400080B584B000AF786001F07CFC7B6893F891
:105850004530FB7311E07B685B6A002B12D07B68DC
:105860002433184600F050FD0346002B01D000F011
:1058700027FEFB7B013BDBB2FB7397F90F30002B5C
:10588000E9DC00E000BF7B68FF2283F8452001F0DF
:1058900089FC01F057FC7B6893F84430BB7311E03E
:1058A0007B681B69002B12D07B681033184600F010
:1058B0002BFD0346002B01D000F002FEBB7B013B19
:1058C000DBB2BB7397F90E30002BE9DC00E000BFC0
:1058D0007B68FF2283F8442001F064FC00BF10378E
:1058E000BD4680BD80B584B000AF786001F02AFC71
:1058F0007B689B6B002B02D10123FB6001E000233E
:10590000FB6001F04FFCFB6818461037BD4680BDB8
:1059100080B584B000AF786001F014FC7B689A6BAE
:105920007B68DB6B9A4202D10123FB6001E000231C
:10593000FB6001F037FCFB6818461037BD4680BDA0
:1059400080B485B000AF786039600023FB6014E05C
:105950000F4AFB6852F83330002B0BD10C49FB681F
:105960003A6841F833200A4AFB68DB0013447A683E
:105970005A6006E0FB680133FB60FB68072BE7D940
:1059800000BF00BF1437BD465DF8047B704700BF01
:105990005009002080B586B000AFF860B9607A6029
:1059A000FB687B6101F0CEFB7B6993F844305BB20E
:1059B000B3F1FF3F03D17B69002283F844207B6968
:1059C00093F845305BB2B3F1FF3F03D17B6900220E
:1059D00083F8452001F0E6FB7B699B6B002B06D129
:1059E0007B6924337A68B968184600F061FC7869ED
:1059F000FFF726FF00BF1837BD4680BD80B58EB0CB
:105A000004AFF860B9607A603B607B6B002B0AD111
:105A10004FF0500383F31188BFF36F8FBFF34F8FA5
:105A20003B6200BFFEE7BB6B002B0AD14FF0500377
:105A300083F31188BFF36F8FBFF34F8FFB6100BFFC
:105A4000FEE7BC233B613B69BC2B0AD04FF05003FF
:105A500083F31188BFF36F8FBFF34F8FBB6100BF1C
:105A6000FEE73B69BB6B002B1ED07B6B002B1BD072
:105A7000BB6B7B627B6A7A6B1A637B6A022283F858
:105A8000B920002303937B6A029307F11403019367
:105A90003B6B00933B687A68B968F86800F050F88F
:105AA000786A00F0F3F801E000237B617B69184617
:105AB0002837BD4680BD80B58CB004AFF860B960B2
:105AC0003B601346FB80FB889B00184601F05CFCA2
:105AD00078617B69002B0ED0BC2001F055FCF86189
