:020000040800F2
:1000000000800120852000083D1E00084B1E0008CE
:10001000511E0008571E00085D1E00080000000069
:10002000000000000000000000000000631E000847
:10003000711E0008000000007F1E0008091E000855
:10004000D5200008D5200008D5200008D5200008BC
:10005000D5200008D5200008D5200008D5200008AC
:10006000D5200008D5200008D5200008D52000089C
:10007000D5200008D5200008D5200008D52000088C
:10008000D5200008D5200008D5200008D52000087C
:10009000D5200008D5200008D5200008D52000086C
:1000A000D5200008D5200008D5200008D52000085C
:1000B000D5200008D5200008D5200008D52000084C
:1000C000D5200008D5200008D5200008D52000083C
:1000D000D5200008D5200008D5200008D52000082C
:1000E000D5200008D5200008D5200008D52000081C
:1000F000D5200008D5200008D5200008D52000080C
:10010000D5200008D5200008D5200008D5200008FB
:10011000D5200008D5200008D5200008D5200008EB
:10012000D5200008D5200008D5200008D5200008DB
:10013000D5200008D5200008D5200008D5200008CB
:10014000D5200008D5200008D5200008D5200008BB
:10015000D5200008D5200008D5200008D5200008AB
:10016000D5200008D5200008D5200008D52000089B
:10017000D5200008D5200008D52000080000000088
:08018000D5200008D52000087D
:1001900010B5054C237833B9044B13B10448AFF3C1
:1001A00000800123237010BDFC010020000000002E
:1001B000C897000808B5034B1BB103490348AFF3C8
:1001C000008008BD0000000000020020C897000861
:1001D000034613F8012B002AFBD1181A0138704787
:1001E00001F0FF01102A2BDB10F0070F08D010F8E8
:1001F000013B013A8B422DD010F0070F42B3F6D1EC
:10020000F0B441EA012141EA014122F007047FF004
:1002100000070023F0E80256083C85EA010586EA5B
:10022000010685FA47F5A3FA87F586FA47F6A5FA97
:1002300087F68EB9EED1F0BC01F0FF0102F00702A3
:1002400032B110F8013B013A83EA010313B1F8D14E
:100250000020704701387047002D06BF354603382F
:10026000073815F0010F07D1013015F4807F02BF68
:10027000013015F4C03F0130F0BC0138704700BFB9
:1002800081F0004102E000BF83F0004330B54FEA47
:1002900041044FEA430594EA050F08BF90EA020FB4
:1002A0001FBF54EA000C55EA020C7FEA645C7FEA47
:1002B000655C00F0E2804FEA5454D4EB5555B8BF6A
:1002C0006D420CDD2C4480EA020281EA030382EADB
:1002D000000083EA010180EA020281EA0303362D6D
:1002E00088BF30BD11F0004F4FEA01314FF4801C40
:1002F0004CEA113102D0404261EB410113F0004F52
:100300004FEA03334CEA133302D0524263EB430308
:1003100094EA050F00F0A780A4F10104D5F1200EA6
:100320000DDB02FA0EFC22FA05F2801841F1000101
:1003300003FA0EF2801843FA05F359410EE0A5F1D5
:1003400020050EF1200E012A03FA0EFC28BF4CF006
:10035000020C43FA05F3C01851EBE37101F00045BC
:1003600007D54FF0000EDCF1000C7EEB00006EEBC9
:100370000101B1F5801F1BD3B1F5001F0CD3490853
:100380005FEA30004FEA3C0C04F101044FEA4452AA
:1003900012F5800F80F09A80BCF1004F08BF5FEA31
:1003A000500C50F1000041EB045141EA050130BD11
:1003B0005FEA4C0C404141EB0101013C28BFB1F523
:1003C000801FE9D291F0000F04BF01460020B1FA6E
:1003D00081F308BF2033A3F10B03B3F120020CDA41
:1003E0000C3208DD02F1140CC2F10C0201FA0CF01F
:1003F00021FA02F10CE002F11402D8BFC2F1200C84
:1004000001FA02F120FA0CFCDCBF41EA0C01904039
:10041000E41AA2BF01EB0451294330BD6FEA040482
:100420001F3C1CDA0C340EDC04F11404C4F120026D
:1004300020FA04F001FA02F340EA030021FA04F37F
:1004400045EA030130BDC4F10C04C4F1200220FAD6
:1004500002F001FA04F340EA0300294630BD21FA14
:1004600004F0294630BD94F0000F83F4801306BFDA
:1004700081F480110134013D4EE77FEA645C18BFCE
:100480007FEA655C29D094EA050F08BF90EA020F65
:1004900005D054EA000C04BF1946104630BD91EA5D
:1004A000030F1EBF0021002030BD5FEA545C05D160
:1004B0004000494128BF41F0004130BD14F580049F
:1004C0003CBF01F5801130BD01F0004545F0FE4113
:1004D00041F470014FF0000030BD7FEA645C1ABF48
:1004E000194610467FEA655C1CBF0B46024650EA7F
:1004F000013406BF52EA033591EA030F41F40021AB
:1005000030BD00BF90F0000F04BF0021704730B530
:100510004FF4806404F132044FF000054FF0000105
:1005200050E700BF90F0000F04BF0021704730B5C6
:100530004FF4806404F1320410F0004548BF40429B
:100540004FF000013EE700BF42004FEAE2014FEAF0
:1005500031014FEA02701FBF12F07F4393F07F4FCB
:1005600081F06051704732F07F4208BF704793F0CE
:100570007F4F04BF41F40021704730B54FF46074E1
:1005800001F0004521F000411CE700BF50EA0102E4
:1005900008BF704730B54FF000050AE050EA01028D
:1005A00008BF704730B511F0004502D5404261EBFD
:1005B00041014FF4806404F132045FEA915C3FF43E
:1005C000D8AE4FF003025FEADC0C18BF03325FEADB
:1005D000DC0C18BF033202EBDC02C2F1200300FA8C
:1005E00003FC20FA02F001FA03FE40EA0E0021FAB1
:1005F00002F11444BDE600BF70B54FF0FF0C4CF49F
:10060000E06C1CEA11541DBF1CEA135594EA0C0F50
:1006100095EA0C0F00F0DEF82C4481EA030621EA8B
:100620004C5123EA4C5350EA013518BF52EA0335C6
:1006300041F4801143F4801338D0A0FB02CE4FF078
:100640000005E1FB02E506F00042E0FB03E54FF0A8
:100650000006E1FB03569CF0000F18BF4EF0010EA0
:10066000A4F1FF04B6F5007F64F5407404D25FEA9C
:100670004E0E6D4146EB060642EAC62141EA55514F
:100680004FEAC52040EA5E504FEACE2EB4F1FD0C91
:1006900088BFBCF5E06F1ED8BEF1004F08BF5FEA0F
:1006A000500E50F1000041EB045170BD06F00046C1
:1006B00046EA010140EA020081EA0301B4EB5C046E
:1006C000C2BFD4EB0C0541EA045170BD41F4801166
:1006D0004FF0000E013C00F3AB8014F1360FDEBF8B
:1006E000002001F0004170BDC4F10004203C35DA67
:1006F0000C341BDC04F11404C4F1200500FA05F3EA
:1007000020FA04F001FA05F240EA020001F000428A
:1007100021F0004110EBD37021FA04F642EB060100
:100720005EEA430E08BF20EAD37070BDC4F10C042A
:10073000C4F1200500FA04F320FA05F001FA04F2EE
:1007400040EA020001F0004110EBD37041F10001DA
:100750005EEA430E08BF20EAD37070BDC4F12005E5
:1007600000FA05F24EEA020E20FA04F301FA05F24D
:1007700043EA020321FA04F001F0004121FA04F2F5
:1007800020EA020000EBD3705EEA430E08BF20EAC5
:10079000D37070BD94F0000F0FD101F000464000FF
:1007A00041EB010111F4801F08BF013CF7D041EA81
:1007B000060195F0000F18BF704703F00046520085
:1007C00043EB030313F4801F08BF013DF7D043EA56
:1007D0000603704794EA0C0F0CEA135518BF95EA0C
:1007E0000C0F0CD050EA410618BF52EA4306D1D193
:1007F00081EA030101F000414FF0000070BD50EAB2
:10080000410606BF1046194652EA430619D094EA3B
:100810000C0F02D150EA013613D195EA0C0F05D125
:1008200052EA03361CBF104619460AD181EA030179
:1008300001F0004141F0FE4141F470014FF0000031
:1008400070BD41F0FE4141F4780170BD70B54FF0CC
:10085000FF0C4CF4E06C1CEA11541DBF1CEA13554C
:1008600094EA0C0F95EA0C0F00F0A7F8A4EB05042E
:1008700081EA030E52EA03354FEA013100F0888025
:100880004FEA03334FF0805545EA131343EA1263EE
:100890004FEA022245EA111545EA10654FEA0026A3
:1008A0000EF000419D4208BF964244F1FD0404F55C
:1008B000407402D25B084FEA3202B61A65EB0305B8
:1008C0005B084FEA32024FF480104FF4002CB6EB75
:1008D000020E75EB030E22BFB61A754640EA0C00F5
:1008E0005B084FEA3202B6EB020E75EB030E22BF35
:1008F000B61A754640EA5C005B084FEA3202B6EB76
:10090000020E75EB030E22BFB61A754640EA9C0034
:100910005B084FEA3202B6EB020E75EB030E22BF04
:10092000B61A754640EADC0055EA060E18D04FEAC2
:10093000051545EA16754FEA06164FEAC30343EA62
:1009400052734FEAC2025FEA1C1CC0D111F4801F2F
:100950000BD141EA00014FF000004FF0004CB6E728
:1009600011F4801F04BF01430020B4F1FD0C88BFC7
:10097000BCF5E06F3FF6AFAEB5EB030C04BFB6EBD2
:10098000020C5FEA500C50F1000041EB045170BDC5
:100990000EF0004E4EEA113114EB5C04C2BFD4EBF2
:1009A0000C0541EA045170BD41F480114FF0000E76
:1009B000013C90E645EA060E8DE60CEA135594EAF2
:1009C0000C0F08BF95EA0C0F3FF43BAF94EA0C0FF5
:1009D0000AD150EA01347FF434AF95EA0C0F7FF46A
:1009E00025AF104619462CE795EA0C0F06D152EABE
:1009F00003353FF4FDAE1046194622E750EA4106A2
:100A000018BF52EA43067FF4C5AE50EA41047FF4B2
:100A10000DAF52EA43057FF4EBAE12E74FF0FF3C17
:100A200006E000BF4FF0010C02E000BF4FF0010CE8
:100A30004DF804CD4FEA410C7FEA6C5C4FEA430C61
:100A400018BF7FEA6C5C1BD001B050EA410C0CBFB0
:100A500052EA430C91EA030F02BF90EA020F002012
:100A6000704710F1000F91EA030F58BF994208BF79
:100A700090422CBFD8176FEAE37040F00100704736
:100A80004FEA410C7FEA6C5C02D150EA013C07D18D
:100A90004FEA430C7FEA6C5CD6D152EA033CD3D0D8
:100AA0005DF8040B704700BF8446104662468C46D2
:100AB0001946634600E000BF01B5FFF7B7FF002805
:100AC00048BF10F1000F01BD4DF808EDFFF7F4FF2E
:100AD0000CBF012000205DF808FB00BF4DF808EDB9
:100AE000FFF7EAFF34BF012000205DF808FB00BFDC
:100AF0004DF808EDFFF7E0FF94BF012000205DF8FE
:100B000008FB00BF4DF808EDFFF7CEFF94BF0120B2
:100B100000205DF808FB00BF4DF808EDFFF7C4FFAB
:100B200034BF012000205DF808FB00BF4FEA410CF4
:100B30007FEA6C5C02D150EA013C0AD14FEA430CD7
:100B40007FEA6C5C02D152EA033C02D14FF0000014
:100B500070474FF0010070474FEA410212F5001252
:100B600015D211D56FF47873B3EB625212D94FEAF4
:100B7000C12343F0004343EA505311F0004F23FADE
:100B800002F018BF404270474FF00000704750EA33
:100B9000013005D111F0004008BF6FF000407047F0
:100BA0004FF00000704700BF53B94AB9002908BF91
:100BB00000281CBF4FF0FF314FF0FF3000F074B938
:100BC000ADF1080C6DE904CE00F006F8DDF804E0A4
:100BD000DDE9022304B070472DE9F047089D044683
:100BE0008E46002B4DD18A42944669D9B2FA82F2E0
:100BF00052B101FA02F3C2F1200120FA01F10CFA1C
:100C000002FC41EA030E94404FEA1C48210CBEFB53
:100C1000F8F61FFA8CF708FB16E341EA034306FBDC
:100C200007F199420AD91CEB030306F1FF3080F06B
:100C30001F81994240F21C81023E63445B1AA4B2B8
:100C4000B3FBF8F008FB103344EA034400FB07F75A
:100C5000A7420AD91CEB040400F1FF3380F00A819B
:100C6000A74240F207816444023840EA0640E41B90
:100C700000261DB1D4400023C5E900433146BDE83C
:100C8000F0878B4209D9002D00F0EF800026C5E9DE
:100C9000000130463146BDE8F087B3FA83F6002EF6
:100CA0004AD18B4202D3824200F2F980841A61EB6E
:100CB000030301209E46002DE0D0C5E9004EDDE78C
:100CC00002B9FFDEB2FA82F2002A40F09280A1EB74
:100CD0000C014FEA1C471FFA8CFE0126200CB1FBC9
:100CE000F7F307FB131140EA01410EFB03F08842C2
:100CF00008D91CEB010103F1FF3802D2884200F24F
:100D0000CB804346091AA4B2B1FBF7F007FB1011E0
:100D100044EA01440EFB00FEA64508D91CEB04047E
:100D200000F1FF3102D2A64500F2BB800846A4EBD9
:100D30000E0440EA03409CE7C6F12007B34022FAC4
:100D400007FC4CEA030C20FA07F401FA06F31C43F3
:100D5000F9404FEA1C4900FA06F3B1FBF9F8200C00
:100D60001FFA8CFE09FB181140EA014108FB0EF046
:100D7000884202FA06F20BD91CEB010108F1FF3A96
:100D800080F08880884240F28580A8F102086144A2
:100D9000091AA4B2B1FBF9F009FB101144EA0141B0
:100DA00000FB0EFE8E4508D91CEB010100F1FF345B
:100DB0006CD28E456AD90238614440EA0840A0FBF3
:100DC0000294A1EB0E01A142C846A64656D353D0C9
:100DD0005DB1B3EB080261EB0E0101FA07F722FAED
:100DE00006F3F1401F43C5E9007100263146BDE816
:100DF000F087C2F12003D8400CFA02FC21FA03F379
:100E0000914001434FEA1C471FFA8CFEB3FBF7F0F9
:100E100007FB10360B0C43EA064300FB0EF69E421E
:100E200004FA02F408D91CEB030300F1FF382FD2B7
:100E30009E422DD9023863449B1B89B2B3FBF7F65F
:100E400007FB163341EA034106FB0EF38B4208D938
:100E50001CEB010106F1FF3816D28B4214D9023E79
:100E60006144C91A46EA004638E72E46284605E797
:100E70000646E3E61846F8E64B45A9D2B9EB020868
:100E800064EB0C0E0138A3E74646EAE7204694E7F8
:100E90004046D1E7D0467BE7023B614432E730462B
:100EA00009E76444023842E7704700BF80B500AFED
:100EB00001F012F900F034F900F0AAFA00F078FA23
:100EC00000F080F900F0F6F900F034FA05F0A2FC29
:100ED00000F00CFB0021082000F072FC0122814987
:100EE000814800F003FD00F0C5FB1421002000F054
:100EF00067FC01227B497D4800F0F8FC2A21002094
:100F000000F05EFC01227749794800F0EFFC00F028
:100F1000B1FB784801F0BAFC4FF0FF31754801F0A1
:100F20006FFD744801F044FE03469AB2724B1A807A
:100F30001421462000F044FC6F4B1B886F4AA2FB33
:100F400003239B099BB2DBB23033DBB2012265493C
:100F5000184600F04BFC684B1B88684AA2FB031242
:100F600092094FF47A7101FB02F29B1A9BB2644A18
:100F7000A2FB03235B099BB2DBB23033DBB201225D
:100F80005849184600F032FC5B4B1B885C4AA2FBB8
:100F900003125209642101FB02F29B1A9BB2594AC7
:100FA000A2FB0323DB089BB2DBB23033DBB20122AE
:100FB0004C49184600F01AFC4F4B1A88514BA3FBC2
:100FC0000213D9080B469B000B445B00D31A9BB25B
:100FD000DBB23033DBB201224249184600F006FC96
:100FE000454B1B881A4640F24D1302FB03F3002BBE
:100FF00001DA03F6FF731B1307EE903AF8EEE77A77
:10100000414BC3ED007A2A21462000F0D9FB3E4B2C
:10101000D3ED007AFDEEE77A17EE901A384B83FB9A
:1010200001235A11CB17D31ADBB23033DBB20122C2
:101030002C49184600F0DAFB01222A49334800F017
:1010400055FC314BD3ED007AFDEEE77A17EE902A8E
:101050002B4B83FB02135911D317CB1A642101FBCD
:1010600003F3D31A2A4A82FB03129210DB17D31A16
:10107000DBB23033DBB201221A49184600F0B6FB6E
:10108000214BD3ED007AFDEEE77A17EE901A204B54
:1010900083FB01239A10CB17D21A13469B001344EB
:1010A0005B00CA1AD3B23033DBB201220D491846B5
:1010B00000F09CFB00F0DEFA0F4B1B881A46154926
:1010C000154806F009F91448FFF782F803469AB26A
:1010D0004FF0FF331049114804F09FFE642001F0E7
:1010E00077F81EE700000020E0970008EC97000862
:1010F000F89700081802002008000020D34D621065
:101100001F85EB51CDCCCCCCB8030020049800084F
:101110006766666608980008BC0300203403002058
:1011200080B596B000AF07F11403442200211846A1
:1011300005F060FC3B4600221A605A609A60DA6053
:101140001A614FF4007003F065FA0346002B01D0DA
:1011500000F0C4F902237B614FF480733B621023DB
:101160007B620223FB6302233B6401237B640A232B
:10117000BB640723FB6402233B6502237B6507F105
:101180001403184603F09CFA0346002B01D000F02C
:10119000A5F90F233B6003237B600023BB60002382
:1011A000FB6000233B613B460421184603F064FECC
:1011B0000346002B01D000F091F900BF5837BD461F
:1011C00080BD000080B58AB000AF07F11C0300228B
:1011D0001A605A609A603B1D00221A605A609A6039
:1011E000DA601A615A61304B304A1A602E4B002285
:1011F0005A602D4B00229A602B4B0022DA602A4B5A
:1012000000221A61284B08225A61274B00221A76C5
:10121000254B01225A76244B0122DA61224B00220F
:1012200083F82020204B00229A621F4B0022DA62B2
:101230001D4B002283F830201B4B4FF480525A6321
:10124000194B002283F83820174801F0C9F90346EA
:10125000002B01D000F042F90023FB6107F11C03D1
:101260001946114802F04EF90346002B01D000F058
:1012700035F90F4B7B600623BB600023FB607F23A7
:101280003B6104237B610023BB613B1D194606487B
:1012900001F09CFC0346002B01D000F01FF900BFB9
:1012A0002837BD4680BD00BF180200200000045052
:1012B0000200300480B500AF1B4B1C4A1A601A4B69
:1012C0001B4A5A60184B00229A60174B0122DA60C1
:1012D000154B00221A61144B00225A61124B002256
:1012E0009A61114B0022DA610F4B00221A620E48FC
:1012F00002F060FC0346002B01D000F0EFF8002163
:10130000094803F0E1F80346002B01D000F0E6F8AD
:101310000021054803F023F90346002B01D000F01B
:10132000DDF800BF80BD00BF7C02002000540040FB
:101330009129700080B500AF1B4B1C4A1A601A4BF4
:101340004FF482725A60184B00229A60164B4FF489
:10135000E062DA60144B00221A61134B00225A61DA
:10136000114B4FF400729A610F4B2022DA610E4B41
:1013700000221A620C4B00225A620B4B00229A6226
:10138000094B0722DA62084B00221A63064B082237
:101390005A63054804F050FC0346002B01D000F0CE
:1013A0009DF800BF80BD00BFD00200200038004083
:1013B00080B500AF144B154A1A60134B4FF4E1325D
:1013C0005A60114B00229A600F4B0022DA600E4BDC
:1013D00000221A610C4B0C225A610B4B00229A61BD
:1013E000094B0022DA61084B00221A62064B0022E8
:1013F0005A62054804F0C3FC0346002B01D000F0FC
:101400006DF800BF80BD00BF3403002000440040E1
:1014100080B58AB000AF07F1140300221A605A6049
:101420009A60DA601A612B4BDB6C2A4A43F00403A2
:10143000D364284BDB6C03F004033B613B69254B11
:10144000DB6C244A43F08003D364224BDB6C03F053
:101450008003FB60FB681F4BDB6C1E4A43F00103FB
:10146000D3641C4BDB6C03F00103BB60BB68194BFE
:10147000DB6C184A43F00203D364164BDB6C03F0B9
:1014800002037B607B68002220214FF0904002F035
:1014900079FB4FF400537B614FF40413BB610023CD
:1014A000FB6107F1140319460B4802F0C1F9202330
:1014B0007B610123BB610023FB6100233B6207F1D9
:1014C000140319464FF0904002F0B2F900BF2837DC
:1014D000BD4680BD001002400008004880B400AF47
:1014E00000BFBD465DF8047B7047000080B582B048
:1014F00000AF00F021FA44F62063012278215B4816
:1015000002F0DCFC0346002B01D00023A9E040F6EA
:10151000C4137B6002E07B68013B7B607B68002B2F
:10152000F9D1AE220021782000F082FA2022002199
:10153000782000F07DFA10220021782000F078FA5F
:10154000B0220021782000F073FAC8220021782010
:1015500000F06EFA00220021782000F069FA1022D3
:101560000021782000F064FA40220021782000F069
:101570005FFA81220021782000F05AFAFF22002130
:10158000782000F055FAA1220021782000F050FACE
:10159000A6220021782000F04BFAA8220021782012
:1015A00000F046FA3F220021782000F041FAA42200
:1015B0000021782000F03CFAD3220021782000F0AE
:1015C00037FA00220021782000F032FAD5220021DB
:1015D000782000F02DFAF0220021782000F028FA7F
:1015E000D9220021782000F023FA2222002178203D
:1015F00000F01EFADA220021782000F019FA1222F7
:101600000021782000F014FADB220021782000F07D
:101610000FFA20220021782000F00AFA8D22002102
:10162000782000F005FA14220021782000F000FA5A
:10163000AF220021782000F0FBF92E220021782033
:1016400000F0F6F9002000F043F800F013F8084B22
:1016500000221A80064B00225A80054B01225A7143
:10166000012318460837BD4680BD00BF7C0200201C
:10167000C407002080B582B000AF0023FB711DE0DD
:10168000FB79503BDBB21A460021782000F0D0F9FC
:1016900000220021782000F0CBF9102200217820D0
:1016A00000F0C6F9FB79DB01084A1A448023402187
:1016B000782000F057F9FB790133FB71FB79072B98
:1016C000DED900BF00BF0837BD4680BDC40300207F
:1016D00080B582B000AF0346FB71FB79002B01D1CE
:1016E000002300E0FF234FF480621946034805F011
:1016F00081F900BF0837BD4680BD00BFC40300208C
:1017000080B483B000AF0346FB800B46BB8013461A
:10171000FB70FB887F2B48D8BB883F2B45D8264BD6
:101720001B79002B06D0FB78002B0CBF0123002374
:10173000DBB2FB70FB78012B1AD1FA88BB88DB087F
:1017400098B20346DB0113441C4AD35C5AB2BB88EF
:1017500003F00703012101FA03F35BB2134359B20B
:10176000FA880346DB011344C9B2144AD1541DE080
:10177000FA88BB88DB0898B20346DB0113440F4AA2
:10178000D35C5AB2BB8803F00703012101FA03F3CB
:101790005BB2DB435BB2134059B2FA880346DB010C
:1017A0001344C9B2054AD15400E000BF0C37BD460E
:1017B0005DF8047B704700BFC4070020C40300200D
:1017C00080B483B000AF03460A46FB801346BB805B
:1017D000054AFB881380044ABB88538000BF0C373E
:1017E000BD465DF8047B7047C407002080B586B015
:1017F00000AF03463960FB711346BB713A4B1B883F
:101800001A463B681B7813447F2B07DC364B5B88FA
:101810001A463B685B7813443F2B01DD00235EE0F2
:1018200000237B614BE03B685A68FB79203B3968B9
:10183000497801FB03F319467B690B445B001344B1
:101840001B88FB6000233B6130E0FA683B6902FAC9
:1018500003F303F40043002B10D0234B1A883B6999
:101860009BB2134498B2204B5A887B699BB21344B5
:101870009BB2BA791946FFF743FF14E01A4B1A8856
:101880003B699BB2134498B2174B5A887B699BB251
:10189000134499B2BB79002B0CBF01230023DBB2A8
:1018A0001A46FFF72DFF3B6901333B613B681B780C
:1018B0001A463B699342C8D37B6901337B613B681D
:1018C0005B781A467B699342ADD3074B1A883B6815
:1018D0001B789BB213449AB2034B1A80FB791846CB
:1018E0001837BD4680BD00BFC407002080B584B056
:1018F00000AFF860B9601346FB7112E0FB681B781B
:10190000FA79B9681846FFF771FF03461A46FB6873
:101910001B789A4202D0FB681B7808E0FB68013311
:10192000FB60FB681B78002BE8D1FB681B7818462E
:101930001037BD4680BD000080B483B000AF084BB7
:101940007B6002E07B68013B7B607B68002BF9D108
:1019500000BF00BF0C37BD465DF8047B704700BF79
:1019600090D0030090B5C7B002AF0446084607F513
:101970008871A1F588710A60194607F58873A3F28A
:10198000091322461A7007F58873A3F5857302467A
:101990001A7007F58873A3F586730A461A8007F54F
:1019A0008873A3F5827307F58872A2F585721278A1
:1019B0001A70002387F80F3115E097F80F3107F5FB
:1019C0008872A2F5887212681A4497F80F310133B1
:1019D000117807F58872A2F58272D15497F80F3109
:1019E000013387F80F3197F80F319BB207F58872F2
:1019F000A2F5867212889A42DFD807F58873A3F29F
:101A000009131B7899B207F58873A3F586731B88B1
:101A100001339BB207F10C020A200090034802F048
:101A200059F900BF07F58A77BD4690BD7C020020BA
:101A300080B586B002AF0346FB710B46BB711346FF
:101A40007B71BB793B737B797B73FB7999B207F12F
:101A50000C020A2300930223034802F03BF900BF63
:101A60001037BD4680BD00BF7C02002080B483B02B
:101A700000AF0F4B1B6E0E4A43F0010313660C4B75
:101A80001B6E03F001037B607B68094B9B6D084A6A
:101A900043F080539365064B9B6D03F080533B608E
:101AA0003B6800BF0C37BD465DF8047B704700BF44
:101AB0000010024080B5ACB000AF786007F19C0325
:101AC00000221A605A609A60DA601A6107F1140302
:101AD00088220021184604F08DFF7B681B68274A86
:101AE000934246D14FF480437B614FF08053C7F857
:101AF0008C300223BB610123FB6108233B62072377
:101B00007B620223BB620223FB624FF080733B6364
:101B100007F11403184603F0D3FB0346002B01D052
:101B2000FFF7DCFC164BDB6C154A43F40053D3641F
:101B3000134BDB6C03F400533B613B69104BDB6CD4
:101B40000F4A43F00403D3640D4BDB6C03F0040332
:101B5000FB60FB680123C7F89C300B23C7F8A0305B
:101B60000023C7F8A43007F19C031946054801F08B
:101B70005FFE00BFB037BD4680BD00BF000004500F
:101B8000001002400008004880B5ACB000AF78609B
:101B900007F19C0300221A605A609A60DA601A61A9
:101BA00007F1140388220021184604F023FF7B6804
:101BB0001B68214A93423AD140237B6100237B6614
:101BC00007F11403184603F07BFB0346002B01D0FA
:101BD000FFF784FC194BDB6C184A43F00203D36413
:101BE000164BDB6C03F002033B613B69C023C7F873
:101BF0009C301223C7F8A0300123C7F8A430032378
:101C0000C7F8A8300423C7F8AC3007F19C03194685
:101C10000B4801F00DFE094B9B6D084A43F400137D
:101C20009365064B9B6D03F40013FB60FB6800BFDC
:101C3000B037BD4680BD00BF0054004000100240D8
:101C40000004004880B58AB000AF786007F1140343
:101C500000221A605A609A60DA601A617B681B6819
:101C6000254A934244D1254B9B6D244A43F480433B
:101C70009365224B9B6D03F480433B613B691F4B93
:101C8000DB6C1E4A43F00403D3641C4BDB6C03F093
:101C90000403FB60FB68194BDB6C184A43F002033A
:101CA000D364164BDB6C03F00203BB60BB680C23F0
:101CB0007B610223BB610023FB6103233B6205239D
:101CC0007B6207F1140319460D4801F0B1FD4FF492
:101CD00080637B610223BB610023FB6103233B62C2
:101CE00005237B6207F114031946064801F0A0FDA5
:101CF00000BF2837BD4680BD0038004000100240BC
:101D0000000800480004004880B5ACB000AF78601F
:101D100007F19C0300221A605A609A60DA601A6127
:101D200007F1140388220021184604F063FE7B6843
:101D30001B68214A93423BD102237B6100233B6510
:101D400007F11403184603F0BBFA0346002B01D039
:101D5000FFF7C4FB194B9B6D184A43F4003393659E
:101D6000164B9B6D03F400333B613B69134BDB6CFB
:101D7000124A43F00103D364104BDB6C03F0010300
:101D8000FB60FB680C23C7F89C300223C7F8A03027
:101D90000023C7F8A4300323C7F8A8300723C7F8E7
:101DA000AC3007F19C0319464FF0904001F040FD24
:101DB00000BFB037BD4680BD004400400010024067
:101DC00080B400AF0E4B1B78DBB2002B06D00C4B5F
:101DD0001B78DBB2013BDAB2094B1A70094B1B7856
:101DE000DBB2002B06D0074B1B78DBB2013BDAB22B
:101DF000044B1A7000BFBD465DF8047B704700BFFE
:101E0000CB070020CC07002080B500AF0A4B1B7821
:101E1000DBB20133DAB2084B1A70074B1B78DBB226
:101E2000092B04D9044B00221A70FFF7C9FF00F0F8
:101E3000AFF900BF80BD00BFCA07002080B400AF6B
:101E400000BFBD465DF8047B704780B400AFFEE77D
:101E500080B400AFFEE780B400AFFEE780B400AF0F
:101E6000FEE780B400AF00BFBD465DF8047B70475D
:101E700080B400AF00BFBD465DF8047B704780B4FE
:101E800000AF00BFBD465DF8047B704780B400AF73
:101E900001231846BD465DF8047B704780B582B0CB
:101EA00000AF7860396004F07BFD034616221A60AB
:101EB0004FF0FF3318460837BD4680BD80B582B06D
:101EC00000AF78604FF0FF317868FFF7E7FFFEE77B
:101ED00080B586B000AFF860B9607A6000237B619E
:101EE0000AE0AFF300800146BB685A1CBA60CAB270
:101EF0001A707B6901337B617A697B689A42F0DBF7
:101F00007B6818461837BD4680BD80B586B000AFE7
:101F1000F860B9607A6000237B6109E0BB685A1CF5
:101F2000BA601B781846AFF300807B6901337B6190
:101F30007A697B689A42F1DB7B6818461837BD46A0
:101F400080BD80B483B000AF78604FF0FF33184697
:101F50000C37BD465DF8047B704780B483B000AF9A
:101F6000786039603B684FF400525A60002318468D
:101F70000C37BD465DF8047B704780B483B000AF7A
:101F80007860012318460C37BD465DF8047B704726
:101F900080B485B000AFF860B9607A60002318465D
:101FA0001437BD465DF8047B7047000080B586B0ED
:101FB00000AF7860144A154BD31A7B617B693B6193
:101FC000134B1B68002B02D1114B124A1A60104BA5
:101FD0001A687B6813443A699A4207D204F0E0FC1D
:101FE00003460C221A604FF0FF3309E0084B1B68D0
:101FF000FB60074B1A687B681344054A1360FB6853
:1020000018461837BD4680BD00800120000400003E
:10201000D00700200008002080B400AF174BD3F891
:102020008830164A43F47003C2F88830144B1B689A
:10203000134A43F001031360114B00229A60104BC6
:102040001B680F4A23F0A85323F4102313600C4B92
:102050004FF48052DA600A4B1B68094A23F480234C
:102060001360074B00229A61044B4FF000629A60A4
:1020700000BFBD465DF8047B704700BF00ED00E087
:1020800000100240DFF834D0FFF7C6FF002103E064
:102090000B4B5B58435004310A480B4B42189A4291
:1020A000F6D30A4A02E0002342F8043B084B9A4266
:1020B000F9D304F07BFCFEF7F9FEFEE70080012077
:1020C0009CA9000800000020FC010020FC01002069
:1020D000FC070020FEE7000080B582B000AF0023BF
:1020E000FB710C4B1B680B4A43F480731360032095
:1020F00001F06AFB002000F00FF80346002B02D02D
:102100000123FB7101E0FFF7B1FCFB7918460837AA
:10211000BD4680BD0020024080B584B000AF78602D
:102120000023FB73174B1B78002B23D0164B1A6828
:10213000144B1B7819464FF47A73B3FBF1F3B2FBDF
:10214000F3F3184601F067FB0346002B0FD17B68C1
:102150000F2B09D8002279684FF0FF3001F03FFBC8
:102160000A4A7B68136007E00123FB7304E0012344
:10217000FB7301E00123FB73FB7B18461037BD4660
:1021800080BD00BF140000200C00002010000020C3
:1021900080B400AF064B1B781A46064B1B681344ED
:1021A000044A136000BFBD465DF8047B704700BF62
:1021B00014000020D407002080B400AF034B1B683C
:1021C0001846BD465DF8047B704700BFD407002069
:1021D00080B584B000AF7860FFF7EEFFB8607B6831
:1021E000FB60FB68B3F1FF3F05D00A4B1B781A4632
:1021F000FB681344FB6000BFFFF7DEFF0246BB68CD
:10220000D31AFA689A42F7D800BF00BF1037BD460C
:1022100080BD00BF1400002080B483B000AF7860A0
:1022200039607B689B6823F47C123B681A437B68A7
:102230009A6000BF0C37BD465DF8047B704780B4E0
:1022400083B000AF786039607B689B6823F0E072F0
:102250003B681A437B689A6000BF0C37BD465DF847
:10226000047B704780B483B000AF78607B689B6864
:1022700003F0E07318460C37BD465DF8047B7047E9
:1022800080B487B000AFF860B9607A603B60FB68EB
:1022900060331A46BB689B0013447B617B691A68F4
:1022A000084B13407A6802F0F8413A680A43134336
:1022B00043F000427B691A6000BF1C37BD465DF8E1
:1022C000047B704700F0FF0380B485B000AF7860F6
:1022D00039607B6860331A463B689B001344FB609F
:1022E000FB681B6803F0F84318461437BD465DF8D9
:1022F000047B704780B487B000AFF860B9607A6043
:10230000FB6860331A46BB689B0013447B617B69A2
:102310001B6823F000427B681A437B691A6000BF88
:102320001C37BD465DF8047B704780B483B000AFB6
:1023300078607B68DB6803F44063002B01D10123E4
:1023400000E0002318460C37BD465DF8047B70475B
:1023500080B487B000AFF860B9607A60FB68303352
:102360001A46BB681B0A9B0003F00C0313447B61F5
:102370007B691A68BB6803F01F031F2101FA03F38E
:10238000DB431A407B689B0E03F01F01BB6803F020
:102390001F0301FA03F31A437B691A6000BF1C375D
:1023A000BD465DF8047B704780B487B000AFF8602D
:1023B000B9607A60FB6814331A46BB685B0E9B00F9
:1023C00003F0040313447B617B691A68BB681B0D2F
:1023D00003F01F03072101FA03F3DB431A40BB6834
:1023E0001B0D03F01F03796801FA03F31A437B699D
:1023F0001A6000BF1C37BD465DF8047B70470000C3
:1024000080B485B000AFF860B9607A60FB68D3F83B
:10241000B020BB68C3F31203DB431A407B6803F0B0
:1024200018030849D940BB680B40C3F312031A4391
:10243000FB68C3F8B02000BF1437BD465DF8047BCD
:10244000704700BFFFFF070080B483B000AF786023
:102450007B689B6803F01F0318460C37BD465DF888
:10246000047B704780B483B000AF78607B689B6862
:1024700003F4604318460C37BD465DF8047B704793
:1024800080B483B000AF78607B689B6823F0204302
:1024900023F03F037A68936000BF0C37BD465DF8B8
:1024A000047B704780B483B000AF78607B689B6822
:1024B00003F00053B3F1005F01D1012300E00023DA
:1024C00018460C37BD465DF8047B704780B483B076
:1024D00000AF78607B689B6823F0104323F03F03D4
:1024E00043F080527B689A6000BF0C37BD465DF8B0
:1024F000047B704780B483B000AF78607B689B68D2
:1025000003F08053B3F1805F01D1012300E0002389
:1025100018460C37BD465DF8047B704780B483B025
:1025200000AF78607B689B6823F0004323F03F0393
:1025300043F001027B689A6000BF0C37BD465DF82E
:10254000047B704780B483B000AF78607B689B6881
:1025500003F00103012B01D1012300E00023184601
:102560000C37BD465DF8047B704780B483B000AF84
:1025700078607B689B6823F0004323F03F0343F0BF
:1025800004027B689A6000BF0C37BD465DF8047B8F
:10259000704780B483B000AF78607B689B6803F0BD
:1025A0000403042B01D1012300E0002318460C375B
:1025B000BD465DF8047B704780B483B000AF78609F
:1025C0007B689B6803F00803082B01D1012300E01E
:1025D000002318460C37BD465DF8047B70470000A9
:1025E00090B589B000AF78600023FB770023BB6013
:1025F0007B68002B01D1012336E17B681B69002B2E
:102600007B685B6D002B09D17868FFF753FA7B6814
:1026100000229A657B68002283F850207B681B6843
:102620001846FFF73FFF0346002B04D07B681B686A
:102630001846FFF725FF7B681B681846FFF75AFF0F
:102640000346002B15D17B681B681846FFF73EFF39
:10265000874B1B689B09874AA2FB03239B09013315
:102660005B00BB6002E0BB68013BBB60BB68002B4A
:10267000F9D17B681B681846FFF73CFF0346002B27
:102680000DD17B685B6D43F010027B685A657B68F7
:102690009B6D43F001027B689A650123FB777B68A1
:1026A0001B681846FFF775FF78617B685B6D03F068
:1026B0001003002B40F0CF807B69002B40F0CB80D3
:1026C0007B685B6D23F4817343F002027B685A657B
:1026D0007B681B681846FFF735FF0346002B15D1B2
:1026E0006548FFF72FFF04466448FFF72BFF0346BA
:1026F0001C436348FFF726FF03462343002B05D105
:102700007B685B6819465F48FFF786FD7B685B7EE8
:102710005A037B685B6B1A437B68DB681A437B68F0
:102720009B681A437B6893F820301B041343BB61FA
:102730007B6893F82030012B06D17B685B6A013BF4
:102740005B04BA691343BB617B689B6A002B09D0A9
:102750007B689B6A03F470727B68DB6A1343BA6917
:102760001343BB617B681B68DA68474B13407A6888
:102770001268B9690B43D3607B681B681846FFF782
:1027800008FF38617B681B681846FFF715FFF86083
:102790003B69002B3DD1FB68002B3AD17B681B7E47
:1027A0009A037B6893F830305B001343BB617B680E
:1027B0001B68DB6823F4804323F002037A68126805
:1027C000B9690B43D3607B6893F83830012B18D17B
:1027D0007B681B681B6923F4FF6323F004037A689A
:1027E000D16B7A68126C11437A68526C11437A6823
:1027F000926C0A431A437B681B6842F001021A611B
:1028000007E07B681B681A697B681B6822F001027D
:102810001A617B681B69012B0CD17B681B681B6BE1
:1028200023F00F017B68DB695A1E7B681B680A4333
:102830001A6307E07B681B681A6B7B681B6822F0D1
:102840000F021A637B685B6D23F0030343F0010200
:102850007B685A6507E07B685B6D43F010027B681C
:102860005A650123FB77FB7F18462437BD4690BD90
:102870000C000020632D3E050000045000010450B0
:10288000000204500003045007C0F0FF80B586B07A
:1028900000AF78605748FFF7D7FD38617B681B6849
:1028A0001846FFF776FE0346002B40F09C807B68BD
:1028B00093F85030012B01D1022397E07B6801226D
:1028C00083F85020786800F071FD0346FB75FB7DAE
:1028D000002B40F083807B685B6D23F4706323F0F2
:1028E000010343F480727B685A657B681B68424A27
:1028F000934202D07B681B6800E0404B7A68126804
:10290000934202D03B69002B05D17B685B6D23F4B9
:1029100080127B685A657B685B6D03F48053B3F566
:10292000805F06D17B689B6D23F006027B689A6509
:1029300002E07B6800229A657B681B681C221A6093
:102940007B68002283F850207B681B682A4A9342E8
:1029500002D07B681B6800E0284B7A6812689342BB
:1029600008D03B69002B05D03B69052B02D03B69A1
:10297000092B14D17B681B68DB6803F00073002B04
:1029800007D07B685B6D23F4405343F480527B682F
:102990005A657B681B681846FFF7E7FD25E07B68F2
:1029A0005B6D43F480127B685A657B681B68124A32
:1029B000934202D07B681B6800E0104BFB60FB6811
:1029C000DB6803F00073002B0FD07B685B6D23F492
:1029D000405343F480527B685A6506E07B680022CE
:1029E00083F8502001E00223FB75FB7D1846183761
:1029F000BD4680BD00030450000104500000045097
:102A000080B588B000AF786039606648FFF71CFD7C
:102A100078617B685B69082B02D10823FB612AE09F
:102A20007B69002B05D07B69052B02D07B69092BC4
:102A300011D17B681B68DB6803F00103002B07D012
:102A40007B685B6D43F020027B685A650123A4E03C
:102A50000423FB610FE05348FFF704FD0346002BFE
:102A600007D07B685B6D43F020027B685A650123C9
:102A700093E00423FB61FFF79FFB386121E03B6893
:102A8000B3F1FF3F1DD0FFF797FB02463B69D31A16
:102A90003A689A4202D33B68002B12D17B681B68CC
:102AA0001A68FB691340002B0BD17B685B6D43F008
:102AB00004027B685A657B68002283F85020032358
:102AC0006BE07B681B681A68FB691340002BD6D04B
:102AD0007B685B6D43F400727B685A657B681B689A
:102AE0001846FFF722FC0346002B1CD07B685B7E58
:102AF000002B18D17B681B681B6803F00803082BA8
:102B000011D17B685B6D23F480727B685A657B68AA
:102B10005B6D03F48053002B05D17B685B6D43F044
:102B200001027B685A657B681B681F4A934202D08A
:102B30007B681B6800E01D4B7A681268934208D0DE
:102B40007B69002B05D07B69052B02D07B69092BA3
:102B500004D17B681B68DB68BB610CE07B681B6889
:102B6000114A934202D07B681B6800E00F4BFB6068
:102B7000FB68DB68BB61FB69082B04D17B681B68C1
:102B800008221A6008E0BB6903F48043002B03D1DC
:102B90007B681B680C221A60002318462037BD464C
:102BA00080BD00BF00030450000104500000045029
:102BB00080B483B000AF78607B681B681B6C1846DC
:102BC0000C37BD465DF8047B7047000080B5B6B099
:102BD00000AF78603960002387F8D7300023FB60AE
:102BE0007B6893F85030012B01D10223C7E37B6847
:102BF000012283F850207B681B681846FFF7C9FC48
:102C00000346002B40F0A8833B685B68052B24D863
:102C10003B685B68023B032B1BD801A252F823F0F0
:102C2000312C0008392C0008412C0008492C0008E0
:102C30003B680C225A6011E03B6812225A600DE09A
:102C40003B6818225A6009E03B684FF480725A6072
:102C500004E03B6806225A6000E000BF7B68186809
:102C60003B6859683B681B681A46FFF771FB7B6835
:102C70001B681846FFF78DFCC7F8D0007B681B68FF
:102C80001846FFF799FCC7F8CC00D7F8D030002BD6
:102C900040F0A681D7F8CC30002B40F0A1817B68B2
:102CA00018683B6819683B689B681A46FFF77CFB0D
:102CB0003B685A697B681B68DB68DB0803F0030329
:102CC0005B0002FA03F3C7F8C8303B681B69042BAA
:102CD0000AD07B6818683B6819693B681A68D7F89E
:102CE000C830FFF7CDFA7BE17B681B6800211846EE
:102CF000FFF7EAFA0346C3F31203002B0AD17B68FD
:102D00001B6800211846FFF7DFFA03469B0E03F00D
:102D10001F021EE07B681B6800211846FFF7D4FAEB
:102D20000346C7F8BC30D7F8BC3093FAA3F3C7F812
:102D3000B830D7F8B830C7F8C030D7F8C030002B5B
:102D400001D1202304E0D7F8C030B3FA83F3DBB21B
:102D50001A463B681B68C3F31203002B05D13B687E
:102D60001B689B0E03F01F0318E03B681B68C7F845
:102D7000B030D7F8B03093FAA3F3C7F8AC30D7F837
:102D8000AC30C7F8B430D7F8B430002B01D12023D1
:102D900004E0D7F8B430B3FA83F3DBB29A4206D139
:102DA0007B681B68002200211846FFF7A3FA7B68A6
:102DB0001B6801211846FFF787FA0346C3F3120385
:102DC000002B0AD17B681B6801211846FFF77CFAAB
:102DD00003469B0E03F01F021EE07B681B68012167
:102DE0001846FFF771FA0346C7F8A430D7F8A430A5
:102DF00093FAA3F3C7F8A030D7F8A030C7F8A830EB
:102E0000D7F8A830002B01D1202304E0D7F8A83050
:102E1000B3FA83F3DBB21A463B681B68C3F31203B1
:102E2000002B05D13B681B689B0E03F01F0318E0C5
:102E30003B681B68C7F89830D7F8983093FAA3F32B
:102E4000C7F89430D7F89430C7F89C30D7F89C3046
:102E5000002B01D1202304E0D7F89C30B3FA83F390
:102E6000DBB29A4206D17B681B680022012118461A
:102E7000FFF740FA7B681B6802211846FFF724FA27
:102E80000346C3F31203002B0AD17B681B6802219F
:102E90001846FFF719FA03469B0E03F01F021EE0C7
:102EA0007B681B6802211846FFF70EFA0346C7F835
:102EB0008C30D7F88C3093FAA3F3C7F88830D7F862
:102EC0008830C7F89030D7F89030002B01D12023FC
:102ED00004E0D7F89030B3FA83F3DBB21A463B68CC
:102EE0001B68C3F31203002B05D13B681B689B0EC4
:102EF00003F01F0316E03B681B68C7F88030D7F863
:102F0000803093FAA3F3FB67FB6FC7F88430D7F8E0
:102F10008430002B01D1202304E0D7F88430B3FAA9
:102F200083F3DBB29A4206D17B681B680022022140
:102F30001846FFF7DFF97B681B6803211846FFF787
:102F4000C3F90346C3F31203002B0AD17B681B6845
:102F500003211846FFF7B8F903469B0E03F01F0242
:102F600017E07B681B6803211846FFF7ADF903469D
:102F70007B677B6F93FAA3F33B673B6FBB67BB6FCA
:102F8000002B01D1202303E0BB6FB3FA83F3DBB244
:102F90001A463B681B68C3F31203002B05D13B683C
:102FA0001B689B0E03F01F0311E03B681B68BB66A8
:102FB000BB6E93FAA3F37B667B6EFB66FB6E002B06
:102FC00001D1202303E0FB6EB3FA83F3DBB29A4214
:102FD00006D17B681B68002203211846FFF78AF997
:102FE0007B681B681846FFF7ADFA0346002B40F0DC
:102FF0003F817B6818683B6819683B68DB681A4644
:10300000FFF7FEF93B68DB688E4A934240F030815F
:103010007B6818683B681B68C3F31203002B0BD155
:103020003B681B689B0E013303F01F03092B94BF01
:1030300001230023DBB219E03B681B68FB65FB6DD5
:1030400093FAA3F3BB65BB6D3B663B6E002B01D1CE
:10305000202303E03B6EB3FA83F3DBB2013303F0CA
:103060001F03092B94BF01230023DBB2002B79D06F
:103070003B681B68C3F31203002B07D13B681B6836
:103080009B0E01339B0603F0F84215E03B681B687A
:103090003B653B6D93FAA3F3FB64FB6C7B657B6D37
:1030A000002B01D1202303E07B6DB3FA83F3DBB265
:1030B00001339B0603F0F8423B681B68C3F312031D
:1030C000002B09D13B681B689B0E013303F01F03E3
:1030D000012101FA03F317E03B681B687B647B6CFA
:1030E00093FAA3F33B643B6CBB64BB6C002B01D134
:1030F000202303E0BB6CB3FA83F3DBB2013303F0AC
:103100001F03012101FA03F342EA03013B681B6834
:10311000C3F31203002B0AD13B681B689B0E0133DB
:1031200003F01F0213465B0013441B0518E03B68C5
:103130001B68BB63BB6B93FAA3F37B637B6BFB6383
:10314000FB6B002B01D1202303E0FB6BB3FA83F36D
:10315000DBB2013303F01F0213465B0013441B056F
:103160000B4380E03B681B68C3F31203002B07D1BD
:103170003B681B689B0E01339B0603F0F84215E089
:103180003B681B68FB62FB6A93FAA3F3BB62BB6AF2
:103190003B633B6B002B01D1202303E03B6BB3FA75
:1031A00083F3DBB201339B0603F0F8423B681B68F4
:1031B000C3F31203002B09D13B681B689B0E01333C
:1031C00003F01F03012101FA03F317E03B681B68BA
:1031D0003B623B6A93FAA3F3FB61FB697B627B6A08
:1031E000002B01D1202303E07B6AB3FA83F3DBB227
:1031F000013303F01F03012101FA03F342EA030143
:103200003B681B68C3F31203002B0DD13B681B689E
:103210009B0E013303F01F0213465B0013441E3B59
:103220001B0543F000731DE03B681B687B617B69F5
:1032300093FAA3F33B613B69BB61BB69002B03D1EC
:10324000202305E000007F40BB69B3FA83F3DBB2C3
:10325000013303F01F0213465B0013441E3B1B05A2
:1032600043F000730B433A6892681946FFF79CF8E5
:103270003B681A68444B1340002B7AD04348FEF752
:10328000F1FFC7F8C4003B681B68414A93422CD148
:10329000D7F8C43003F40003002B26D17B681B68E9
:1032A0003C4A934204D07B681B683B4A93425DD101
:1032B000D7F8C43043F4000319463448FEF7BFFF83
:1032C000364B1B689B09364AA2FB03239B095A1CF9
:1032D00013465B0013449B00FB6002E0FB68013B6C
:1032E000FB60FB68002BF9D140E03B681B682D4A6E
:1032F000934218D1D7F8C43003F08073002B12D159
:103300007B681B68234A934204D07B681B68224A6F
:1033100093422DD1D7F8C43043F0807319461B482F
:10332000FEF78DFF24E03B681B681F4A934220D1C3
:10333000D7F8C43003F48003002B1AD17B681B68D4
:10334000144A934215D1D7F8C43043F48003194688
:103350000E48FEF774FF0CE07B685B6D43F02002C3
:103360007B685A65012387F8D73002E000BF00E090
:1033700000BF7B68002283F8502097F8D7301846AA
:10338000D837BD4680BD00BF000008800003045050
:10339000000052C700000450000204500C0000203E
:1033A000632D3E05000084CB0100008080B584B011
:1033B00000AF78600023BB607B681B681846FFF78E
:1033C000C1F80346002B69D17B681B689A68364BAD
:1033D0001340002B0DD07B685B6D43F010027B68BF
:1033E0005A657B689B6D43F001027B689A650123F7
:1033F00055E07B681B681846FFF790F82B48FEF7EE
:1034000031FF034603F40003002B13D0284B1B6845
:103410009B09284AA2FB03239B095A1C13465B0005
:1034200013449B00BB6002E0BB68013BBB60BB6810
:10343000002BF9D1FEF7C0FEF86028E07B681B681E
:103440001846FFF77FF80346002B04D17B681B6802
:103450001846FFF763F8FEF7AFFE0246FB68D31A83
:10346000022B14D97B681B681B6803F00103012B36
:103470000DD07B685B6D43F010027B685A657B68FA
:103480009B6D43F001027B689A65012307E07B682E
:103490001B681B6803F00103012BCFD100231846E2
:1034A0001037BD4680BD00BF3F00008000030450C0
:1034B0000C000020632D3E0580B483B000AF78601F
:1034C0007B689B6803F00103012B01D1012300E01D
:1034D000002318460C37BD465DF8047B704780B466
:1034E00083B000AF78607B689B6803F00403042B13
:1034F00001D1012300E0002318460C37BD465DF8DA
:10350000047B704790B59FB000AF786039600023AE
:1035100087F877307B6893F85030012B01D1022374
:1035200093E07B68012283F850200023FB65002391
:103530003B667B681B68474A934202D1464BBB609F
:1035400001E00023BB60BB68002B0BD17B685B6D87
:1035500043F020027B685A657B68002283F8502084
:10356000012372E0BB681846FFF7B9FF38677B6834
:103570001B681846FFF7B3FF0346002B54D13B6F7F
:10358000002B51D1354BFB663B681B68002B2CD0C0
:10359000FB6E9B6823F460423B6859687B6893F834
:1035A00030305B030B431A43FB6E9A602948FFF7E8
:1035B00083FF04462848FFF77FFF03461C43284843
:1035C000FFF77AFF03462343002B37D1FB6E9B683E
:1035D00023F4716323F00F033A6811683A68926824
:1035E0000A431A43FB6E9A6028E0FB6E9B6823F443
:1035F0006042FB6E9A601748FFF75EFF044616486C
:10360000FFF75AFF03461C431548FFF755FF0346D3
:103610002343002B12D1FB6E9B6823F4716323F0CC
:103620000F03FA6E936009E07B685B6D43F0200244
:103630007B685A65012387F8773000E000BF7B681C
:10364000002283F8502097F8773018467C37BD4623
:1036500090BD00BF0000045000010450000304505E
:103660000002045080B485B000AF78607B6803F03E
:103670000703FB600C4BDB68BB60BA684FF6FF03C7
:103680001340BB60FB681A02BB68134343F0BF637F
:1036900043F40033BB60044ABB68D36000BF1437F7
:1036A000BD465DF8047B704700ED00E080B400AFDC
:1036B000044BDB681B0A03F007031846BD465DF8A0
:1036C000047B704700ED00E080B483B000AF034698
:1036D0003960FB7197F90730002B0ADB3B68DAB2DF
:1036E0000C4997F907301201D2B20B4483F800233A
:1036F0000AE03B68DAB20849FB7903F00F03043BA8
:103700001201D2B20B441A7600BF0C37BD465DF8E9
:10371000047B704700E100E000ED00E080B489B078
:1037200000AFF860B9607A60FB6803F00703FB61E3
:10373000FB69C3F10703042B28BF0423BB61FB69AA
:103740000433062B02D9FB69033B00E000237B61B5
:103750004FF0FF32BB6902FA03F3DA43BB681A4049
:103760007B699A404FF0FF317B6901FA03F3D9433B
:103770007B680B40134318462437BD465DF8047B35
:103780007047000080B582B000AF78607B68013B75
:10379000B3F1807F01D301230FE00A4A7B68013B2C
:1037A00053600F214FF0FF30FFF78EFF054B0022D3
:1037B0009A60044B07221A60002318460837BD465A
:1037C00080BD00BF10E000E080B582B000AF78603F
:1037D0007868FFF747FF00BF0837BD4680BD80B55A
:1037E00086B000AF0346B9607A60FB7300237B614B
:1037F000FFF75CFF78617A68B9687869FFF78EFF38
:10380000024697F90F3011461846FFF75DFF00BFDB
:103810001837BD4680BD80B582B000AF786078684B
:10382000FFF7B0FF034618460837BD4680BD0000CD
:1038300080B487B000AF7860396000237B617FE19E
:103840003B681A6801217B6901FA03F31340FB60AE
:10385000FB68002B00F071813B685B6803F0030399
:10386000012B05D03B685B6803F00303022B30D1CA
:103870007B689B683B617B695B00032202FA03F370
:10388000DB433A6913403B613B68DA687B695B0064
:1038900002FA03F33A6913433B617B683A699A6021
:1038A0007B685B683B6101227B6902FA03F3DB43BF
:1038B0003A6913403B613B685B681B0903F00102F6
:1038C0007B6902FA03F33A6913433B617B683A6907
:1038D0005A603B685B6803F00303032B18D17B68D5
:1038E000DB6A3B6101227B6902FA03F3DB433A693D
:1038F00013403B613B685B68DB0803F001027B69B6
:1039000002FA03F33A6913433B617B683A69DA626E
:103910003B685B6803F00303032B17D07B68DB680D
:103920003B617B695B00032202FA03F3DB433A69E4
:1039300013403B613B689A687B695B0002FA03F3C2
:103940003A6913433B617B683A69DA603B685B68BC
:1039500003F00303022B23D17B69DA087B6808326A
:1039600053F822303B617B6903F007039B000F2271
:1039700002FA03F3DB433A6913403B613B681A697F
:103980007B6903F007039B0002FA03F33A691343D0
:103990003B617B69DA087B680832396943F8221099
:1039A0007B681B683B617B695B00032202FA03F3BF
:1039B000DB433A6913403B613B685B6803F00302F9
:1039C0007B695B0002FA03F33A6913433B617B684E
:1039D0003A691A603B685B6803F44033002B00F0DF
:1039E000AC805F4B1B6E5E4A43F0010313665C4B79
:1039F0001B6E03F00103BB60BB685A4A7B699B08DE
:103A0000023352F823303B617B6903F003039B00D0
:103A10000F2202FA03F3DB433A6913403B617B68F0
:103A2000B3F1904F25D07B684F4A93421FD07B68FB
:103A30004E4A934219D07B684D4A934213D07B681B
:103A40004C4A93420DD07B684B4A934207D07B6827
:103A50004A4A934201D106230CE007230AE00523DA
:103A600008E0042306E0032304E0022302E001232C
:103A700000E000237A6902F00302920093403A6961
:103A800013433B6137497B699B0802333A6941F82C
:103A900023203B4B9B683B61FB68DB433A69134047
:103AA0003B613B685B6803F48013002B03D03A69E9
:103AB000FB6813433B61324A3B699360304BDB68E0
:103AC0003B61FB68DB433A6913403B613B685B68E1
:103AD00003F40013002B03D03A69FB6813433B61E6
:103AE000274A3B69D360264B5B683B61FB68DB433D
:103AF0003A6913403B613B685B6803F40033002B79
:103B000003D03A69FB6813433B611D4A3B6953602C
:103B10001B4B1B683B61FB68DB433A6913403B610D
:103B20003B685B6803F48033002B03D03A69FB6881
:103B300013433B61124A3B6913607B6901337B612C
:103B40003B681A687B6922FA03F3002B7FF478AE96
:103B500000BF00BF1C37BD465DF8047B704700BF47
:103B60000010024000000140000400480008004826
:103B7000000C0048001000480014004800180048DD
:103B80000004014080B483B000AF78600B467B80B6
:103B900013467B707B78002B03D07A887B689A6110
:103BA00002E07A887B689A6200BF0C37BD465DF8F8
:103BB000047B704780B582B000AF78607B68002BD3
:103BC00001D1012381E07B6893F84130DBB2002B07
:103BD00006D17B68002283F840207868FDF7D4FF87
:103BE0007B68242283F841207B681B681A687B6805
:103BF0001B6822F001021A607B685A687B681B68A8
:103C000022F070621A617B681B689A687B681B6887
:103C100022F400429A607B68DB68012B07D17B6845
:103C20009A687B681B6842F400429A6006E07B68F1
:103C30009A687B681B6842F404429A607B68DB6880
:103C4000022B04D17B681B684FF400625A607B68CA
:103C50001B685B687A68126843F0007343F40043A2
:103C600053607B681B68DA687B681B6822F400423B
:103C7000DA607B681A697B685B6942EA03017B68EA
:103C80009B691A027B681B680A43DA607B68D96902
:103C90007B681A6A7B681B680A431A607B681B682A
:103CA0001A687B681B6842F001021A607B68002278
:103CB0005A647B68202283F841207B6800221A63C3
:103CC0007B68002283F84220002318460837BD464F
:103CD00080BD000080B588B002AFF8607A601A46F7
:103CE0000B467B8113463B81FB6893F84130DBB286
:103CF000202B40F0DA80FB6893F84030012B01D193
:103D00000223D3E0FB68012283F84020FEF754FA37
:103D100078617B690093192301224FF40041F86810
:103D200000F0F7F90346002B01D00123BEE0FB6849
:103D3000212283F84120FB68102283F84220FB688F
:103D400000225A64FB687A685A62FB683A895A858D
:103D5000FB6800225A63FB685B8D9BB2FF2B0ED978
:103D6000FB68FF221A85FB681B8DDAB27989514BFB
:103D700000934FF08073F86800F074FB6CE0FB6810
:103D80005B8D9AB2FB681A85FB681B8DDAB2798964
:103D9000484B00934FF00073F86800F063FB5BE062
:103DA0007A69396AF86800F0F4F90346002B01D00B
:103DB00001237BE0FB685B6A1A78FB681B689A62E8
:103DC000FB685B6A5A1CFB685A62FB685B8D9BB29E
:103DD000013B9AB2FB685A85FB681B8D013B9AB286
:103DE000FB681A85FB685B8D9BB2002B34D0FB68A7
:103DF0001B8D002B30D17B6900933B6A0022802110
:103E0000F86800F086F90346002B01D001234DE04D
:103E1000FB685B8D9BB2FF2B0ED9FB68FF221A85D6
:103E2000FB681B8DDAB27989002300934FF0807311
:103E3000F86800F017FB0FE0FB685B8D9AB2FB6837
:103E40001A85FB681B8DDAB27989002300934FF045
:103E50000073F86800F006FBFB685B8D9BB2002BDB
:103E60009ED17A69396AF86800F0D3F90346002BCD
:103E700001D001231AE0FB681B682022DA61FB688D
:103E80001B685968FB681A680B4B0B405360FB6852
:103E9000202283F84120FB68002283F84220FB683F
:103EA000002283F84020002300E002231846183740
:103EB000BD4680BD0020008000E800FE80B58AB0CD
:103EC00002AFF8607A603B600B467B8100237B6128
:103ED000FB6893F84130DBB2202B40F0F180FB68A7
:103EE0001B689B6903F40043B3F5004F01D1022323
:103EF000E7E0FB6893F84030012B01D10223E0E0BA
:103F0000FB68012283F84020FB68242283F84120CB
:103F1000FB6800225A64FB68DB68012B07D17B89B0
:103F2000C3F3090343F0007343F4005304E07B89B7
:103F3000C3F3090343F42053FA6812685360FEF791
:103F40003BF9B861FB681B689B6903F02003202BD9
:103F50000CBF01230023DBB2FB77FB681B689B6966
:103F600003F01003102B0CBF01230023DBB2BB773F
:103F700034E03B68B3F1FF3F1AD0FEF71DF902466B
:103F8000BB69D31A3A689A4202D33B68002B0FD11F
:103F9000FB68202283F84120FB685B6C43F0200221
:103FA000FB685A64FB68002283F84020012388E004
:103FB000FB681B689B6903F02003202B0CBF0123C7
:103FC0000023DBB2FB77FB681B689B6903F01003DF
:103FD000102B0CBF01230023DBB2BB77FB7F002B30
:103FE00002D1BB7F002BC4D0FB681B689B6903F028
:103FF0001003102B1AD0BB6900933B6800222021CC
:10400000F86800F086F80346002B01D0012358E041
:10401000FB681B682022DA61FB68202283F84120BC
:10402000FB68002283F8402000234AE0BB6900932C
:104030003B6800222021F86800F06BF80346002B53
:1040400001D001233DE0FB681B681022DA61FB68A8
:104050001B682022DA617B697A689A4218D1FB6872
:104060001B685A68FB681B6842F480425A60BB694F
:1040700000933B6800222021F86800F04AF80346CC
:10408000002B01D001231CE0FB681B682022DA61B1
:104090007B6901337B617B697A689A423FF63BAF6B
:1040A000FB68202283F84120FB685B6C43F0200210
:1040B000FB685A64FB68002283F84020012300E07B
:1040C000022318462037BD4680BD80B483B000AFC0
:1040D00078607B681B689B6903F00203022B03D1A5
:1040E0007B681B6800229A627B681B689B6903F0EF
:1040F0000103012B07D07B681B689A697B681B68EA
:1041000042F001029A6100BF0C37BD465DF8047BA6
:10411000704780B584B000AFF860B9603B6013466B
:10412000FB7122E03B68B3F1FF3F1ED0FEF744F87D
:104130000246BB69D31A3A689A4202D33B68002B05
:1041400013D1FB685B6C43F02002FB685A64FB6888
:10415000202283F84120FB68002283F84220FB687C
:10416000002283F8402001230FE0FB681B689A6956
:10417000BB681340BA689A420CBF01230023DBB22C
:104180001A46FB799A42CDD0002318461037BD4617
:1041900080BD80B584B000AFF860B9607A602CE073
:1041A0007A68B968F86800F071F80346002B01D00E
:1041B00001232AE0BB68B3F1FF3F1ED0FDF7FCFFEF
:1041C00002467B68D31ABA689A4202D3BB68002BB6
:1041D00013D1FB685B6C43F02002FB685A64FB68F8
:1041E000202283F84120FB68002283F84220FB68EC
:1041F000002283F84020012307E0FB681B689B69CD
:1042000003F00203022BCBD1002318461037BD4622
:1042100080BD80B584B000AFF860B9607A6028E0F6
:104220007A68B968F86800F031F80346002B01D0CD
:10423000012326E0FDF7C0FF02467B68D31ABA6867
:104240009A4202D3BB68002B13D1FB685B6C43F02E
:104250002002FB685A64FB68202283F84120FB6837
:10426000002283F84220FB68002283F840200123CB
:1042700007E0FB681B689B6903F02003202BCFD16C
:10428000002318461037BD4680BD000080B58AB0B7
:1042900000AFF860B9607A60002387F82730FB68C8
:1042A0001B689B69BB6100233B627B68FB61BB6948
:1042B00003F01003002B75D0FB681B681022DA6135
:1042C00056E0BB68B3F1FF3F52D0FDF775FF0246E1
:1042D000FB69D31ABA689A4202D3BB68002B47D154
:1042E000FB681B685B6803F480437B61FB6893F8A1
:1042F0004230FB74FB681B689B6903F40043B3F511
:10430000004F2ED17B69B3F5804F2AD0FB7C202B48
:1043100027D0FB681B685A68FB681B6842F4804220
:104320005A60FDF749FFF8611BE0FDF745FF0246C3
:10433000FB69D31A192B14D9FB685B6C43F020027C
:10434000FB685A64FB68202283F84120FB68002246
:1043500083F84220FB68002283F84020012387F87D
:104360002730FB681B689B6903F02003202BDCD1FE
:10437000FB681B689B6903F02003202B03D097F890
:104380002730002B9DD097F82730002B03D1FB68F6
:104390001B682022DA613B6A43F004033B6201237D
:1043A00087F82730FB681B689B69BB61BB6903F416
:1043B0008073002B0BD03B6A43F001033B62FB6828
:1043C0001B684FF48072DA61012387F82730BB69DC
:1043D00003F48063002B0BD03B6A43F008033B627D
:1043E000FB681B684FF48062DA61012387F827308D
:1043F000BB6903F40073002B0BD03B6A43F002034C
:104400003B62FB681B684FF40072DA61012387F896
:10441000273097F82730002B1CD0F868FFF755FE9F
:10442000FB681B685968FB681A680D4B0B405360AA
:10443000FB685A6C3B6A1A43FB685A64FB6820228B
:1044400083F84120FB68002283F84220FB680022A9
:1044500083F8402097F8273018462837BD4680BD9E
:1044600000E800FE80B487B000AFF8607B600B46C8
:104470007B8113467B727B89C3F309027B7A1B0421
:1044800003F47F031A437B681A433B6A134323F008
:1044900000437B61FB681B685A683B6A5B0D03F451
:1044A0008061084B0B43DB4302EA0301FB681B6896
:1044B0007A690A435A6000BF1C37BD465DF8047B29
:1044C000704700BFFF63FF0380B483B000AF786024
:1044D00039607B6893F84130DBB2202B38D17B68A0
:1044E00093F84030012B01D1022332E07B68012296
:1044F00083F840207B68242283F841207B681B6876
:104500001A687B681B6822F001021A607B681B68CE
:104510001A687B681B6822F480521A607B681B68EB
:1045200019687B681B683A680A431A607B681B68D5
:104530001A687B681B6842F001021A607B682022BF
:1045400083F841207B68002283F84020002300E0AC
:10455000022318460C37BD465DF8047B704780B4D3
:1045600085B000AF786039607B6893F84130DBB28A
:10457000202B39D17B6893F84030012B01D10223E5
:1045800033E07B68012283F840207B68242283F893
:1045900041207B681B681A687B681B6822F0010257
:1045A0001A607B681B681B68FB60FB6823F4706300
:1045B000FB603B681B02FA681343FB607B681B6867
:1045C000FA681A607B681B681A687B681B6842F08F
:1045D00001021A607B68202283F841207B68002258
:1045E00083F84020002300E0022318461437BD461C
:1045F0005DF8047B7047000080B400AF044B1B687B
:1046000003F4C0631846BD465DF8047B704700BFE5
:104610000070004080B485B000AF78607B68B3F56F
:10462000007F30D1234B1B6803F4C063B3F5007FD8
:1046300038D0204B1B6823F4C0631E4A43F4007338
:1046400013601D4B1B68322202FB03F31B4AA2FBC3
:1046500003239B0C0133FB6002E0FB68013BFB6022
:10466000144B5B6903F48063B3F5806F02D1FB6880
:10467000002BF2D10F4B5B6903F48063B3F5806FBD
:1046800010D103230FE00B4B1B6803F4C063B3F599
:10469000806F07D0074B1B6823F4C063054A43F4BF
:1046A00080631360002318461437BD465DF8047B11
:1046B000704700BF007000400C00002083DE1B43E9
:1046C00080B588B000AF78607B68002B01D10123F2
:1046D000CAE3974B9B6803F00C03BB61944BDB6808
:1046E00003F003037B617B681B6803F01003002B5E
:1046F00000F0E480BB69002B07D0BB690C2B40F0B5
:104700008B807B69012B40F08780894B1B6803F00D
:104710000203002B05D07B689B69002B01D101238C
:10472000A2E37B681A6A824B1B6803F00803002B24
:1047300004D07F4B1B6803F0F00305E07C4BD3F8FB
:1047400094301B0903F0F003934223D27B681B6A69
:10475000184600F055FD0346002B01D0012383E3EA
:10476000734B1B68724A43F008031360704B1B685D
:1047700023F0F0027B681B6A6D4913430B606C4B9E
:104780005B6823F47F427B68DB691B026849134343
:104790004B6025E0664B1B68654A43F008031360D5
:1047A000634B1B6823F0F0027B681B6A604913436C
:1047B0000B605F4B5B6823F47F427B68DB691B0205
:1047C0005B4913434B60BB69002B09D17B681B6AB3
:1047D000184600F015FD0346002B01D0012343E3EA
:1047E00000F04AFC0246524B9B681B0903F00F0382
:1047F0005049CB5C03F01F0322FA03F34E4A1360C7
:104800004E4B1B681846FDF787FC0346FB73FB7B8A
:10481000002B52D0FB7B27E37B689B69002B32D0B7
:10482000434B1B68424A43F001031360FDF7C4FC8D
:10483000386108E0FDF7C0FC02463B69D31A022B41
:1048400001D9032310E33A4B1B6803F00203002B4A
:10485000F0D0374B1B68364A43F008031360344BE3
:104860001B6823F0F0027B681B6A314913430B601D
:104870002F4B5B6823F47F427B68DB691B022C496A
:1048800013434B601AE02A4B1B68294A23F00103AB
:104890001360FDF791FC386108E0FDF78DFC0246DE
:1048A0003B69D31A022B01D90323DDE2204B1B689D
:1048B00003F00203002BF0D100E000BF7B681B680F
:1048C00003F00103002B74D0BB69082B05D0BB6932
:1048D0000C2B0ED17B69032B0BD1154B1B6803F4FA
:1048E0000033002B64D07B685B68002B60D1012310
:1048F000BAE27B685B68B3F5803F06D10C4B1B685E
:104900000B4A43F48033136026E07B685B68B3F5A1
:10491000A02F15D1064B1B68054A43F48023136072
:10492000034B1B68024A43F48033136014E000BF5A
:10493000001002406CA500080C00002010000020B0
:10494000A04B1B689F4A23F4803313609D4B1B6868
:104950009C4A23F4802313607B685B68002B13D090
:10496000FDF72AFC386108E0FDF726FC02463B69AA
:10497000D31A642B01D9032376E2924B1B6803F40C
:104980000033002BF0D014E0FDF716FC386108E08E
:10499000FDF712FC02463B69D31A642B01D90323AD
:1049A00062E2884B1B6803F40033002BF0D100E077
:1049B00000BF7B681B6803F00203002B60D0BB695B
:1049C000042B05D0BB690C2B19D17B69022B16D1A6
:1049D0007C4B1B6803F48063002B05D07B68DB688D
:1049E000002B01D101233FE2764B5B6823F0F852A4
:1049F0007B681B691B06734913434B6040E07B686F
:104A0000DB68002B23D06F4B1B686E4A43F4807326
:104A10001360FDF7D1FB386108E0FDF7CDFB0246DE
:104A20003B69D31A022B01D903231DE2654B1B6896
:104A300003F48063002BF0D0624B5B6823F0F852E4
:104A40007B681B691B065F4913434B6018E05D4B95
:104A50001B685C4A23F480731360FDF7ADFB38617B
:104A600008E0FDF7A9FB02463B69D31A022B01D9E6
:104A70000323F9E1534B1B6803F48063002BF0D14F
:104A80007B681B6803F00803002B3CD07B685B69E4
:104A9000002B1CD04B4BD3F894304A4A43F001030F
:104AA000C2F89430FDF788FB386108E0FDF784FB1D
:104AB00002463B69D31A022B01D90323D4E1414BAF
:104AC000D3F8943003F00203002BEFD01BE03D4BF2
:104AD000D3F894303B4A23F00103C2F89430FDF739
:104AE0006BFB386108E0FDF767FB02463B69D31AB0
:104AF000022B01D90323B7E1324BD3F8943003F0F2
:104B00000203002BEFD17B681B6803F00403002B2A
:104B100000F0A6800023FB772A4B9B6D03F08053A7
:104B2000002B0DD1274B9B6D264A43F08053936594
:104B3000244B9B6D03F08053BB60BB680123FB7764
:104B4000214B1B6803F48073002B18D11E4B1B688C
:104B50001D4A43F480731360FDF72EFB386108E0B3
:104B6000FDF72AFB02463B69D31A022B01D9032326
:104B70007AE1154B1B6803F48073002BF0D07B683F
:104B80009B68012B08D10F4BD3F890300D4A43F0AE
:104B90000103C2F8903029E07B689B68052B15D192
:104BA000084BD3F89030074A43F00403C2F8903022
:104BB000044BD3F89030034A43F00103C2F890301D
:104BC00014E000BF00100240007000409C4BD3F87E
:104BD00090309B4A23F00103C2F89030984BD3F8F1
:104BE0009030974A23F00403C2F890307B689B68AA
:104BF000002B16D0FDF7E0FA38610AE0FDF7DCFA89
:104C000002463B69D31A41F28832934201D9032309
:104C10002AE18B4BD3F8903003F00203002BEDD048
:104C200015E0FDF7C9FA38610AE0FDF7C5FA02465A
:104C30003B69D31A41F28832934201D9032313E12D
:104C40007F4BD3F8903003F00203002BEDD1FB7FB4
:104C5000012B05D17A4B9B6D794A23F080539365E4
:104C60007B689B6A002B00F0FE807B689B6A022BAE
:104C700040F0D080724BDB687B617B6903F00302FC
:104C80007B68DB6A9A4230D17B6903F070027B68F3
:104C90001B6B013B1B019A4227D17B6903F4FE4247
:104CA0007B685B6B1B029A421FD17B6903F4003364
:104CB0007A68926B072A14BF01220022D2B2934273
:104CC00013D17B6903F4C0027B68DB6B5B08013B9B
:104CD0005B059A4209D17B6903F0C0627B681B6C5B
:104CE0005B08013B5B069A426ED0BB690C2B69D016
:104CF000534B1B6803F08063002B05D1504B1B689E
:104D000003F08053002B01D00123ADE04C4B1B6816
:104D10004B4A23F080731360FDF74EFA386108E0C8
:104D2000FDF74AFA02463B69D31A022B01D9032345
:104D30009AE0434B1B6803F00073002BF0D1404B0B
:104D4000DA68404B13407A68D16A7A68126B013A8C
:104D5000120111437A68526B120211437A68D26BC6
:104D60005208013A520511437A68126C5208013A0E
:104D7000520611437A68926B120952040A43304971
:104D80001343CB602E4B1B682D4A43F08073136096
:104D90002B4BDB682A4A43F08073D360FDF70CFA93
:104DA000386108E0FDF708FA02463B69D31A022B86
:104DB00001D9032358E0224B1B6803F00073002B3A
:104DC000F0D050E001234FE01D4B1B6803F000734F
:104DD000002B48D11A4B1B68194A43F080731360AB
:104DE000174BDB68164A43F08073D360FDF7E4F994
:104DF000386108E0FDF7E0F902463B69D31A022B5F
:104E000001D9032330E00E4B1B6803F00073002B25
:104E1000F0D028E0BB690C2B23D0094B1B68084A53
:104E200023F080731360FDF7C7F938610CE0FDF7DC
:104E3000C3F902463B69D31A022B05D9032313E0B9
:104E4000001002408C809DF9094B1B6803F0007331
:104E5000002BECD1064BDA680549064B1340CB60BA
:104E600001E0012300E0002318462037BD4680BD45
:104E700000100240FCFFEEFE80B584B000AF786009
:104E800039607B68002B01D10123E7E0754B1B687B
:104E900003F007033A689A4210D9724B1B6823F05B
:104EA000070270493B6813430B606E4B1B6803F0AD
:104EB00007033A689A4201D00123CFE07B681B6860
:104EC00003F00203002B10D07B689A68664B9B6846
:104ED00003F0F0039A4208D9634B9B6823F0F00279
:104EE0007B689B68604913438B607B681B6803F099
:104EF0000103002B4CD07B685B68032B07D15A4B16
:104F00001B6803F00073002B21D10123A6E07B680E
:104F10005B68022B07D1544B1B6803F40033002B52
:104F200015D101239AE07B685B68002B07D14E4BBB
:104F30001B6803F00203002B09D101238EE04A4BCA
:104F40001B6803F48063002B01D1012386E0464BEC
:104F50009B6823F003027B685B68434913438B60C3
:104F6000FDF72AF9F8600AE0FDF726F90246FB682A
:104F7000D31A41F28832934201D903236EE03A4BAF
:104F80009B6803F00C027B685B689B009A42EBD144
:104F90007B681B6803F00203002B10D07B689A68C3
:104FA000314B9B6803F0F0039A4208D22E4B9B686A
:104FB00023F0F0027B689B682B4913438B60294BDD
:104FC0001B6803F007033A689A4210D2254B1B680E
:104FD00023F0070223493B6813430B60214B1B68F6
:104FE00003F007033A689A4201D0012336E07B6858
:104FF0001B6803F00403002B08D01B4B9B6823F4B1
:10500000E0627B68DB68184913438B607B681B6830
:1050100003F00803002B09D0134B9B6823F4605264
:105020007B681B69DB00104913438B6000F024F898
:1050300002460D4B9B681B0903F00F030B49CB5C29
:1050400003F01F0322FA03F3094A1360094B1B689C
:105050001846FDF761F80346FB72FB7A18461037D5
:10506000BD4680BD00200240001002406CA5000833
:105070000C0000201000002080B489B000AF002395
:10508000FB610023BB613E4B9B6803F00C033B615B
:105090003B4BDB6803F00303FB603B69002B05D04F
:1050A0003B690C2B21D1FB68012B1ED1344B1B68B3
:1050B00003F00803002B07D1314BD3F894301B0ABF
:1050C00003F00F03FB6105E02D4B1B681B0903F088
:1050D0000F03FB612B4AFB6952F82330FB613B69EC
:1050E000002B0DD1FB69BB610AE03B69042B02D1A7
:1050F000254BBB6104E03B69082B01D1234BBB610D
:105100003B690C2B34D11E4BDB6803F00303BB60FF
:10511000BB68022B03D0BB68032B03D005E01A4BFE
:105120007B6105E0194B7B6102E0FB697B6100BF9D
:10513000134BDB681B0903F0070301337B60104B43
:10514000DB681B0A03F07F037A6903FB02F27B68CA
:10515000B2FBF3F37B610A4BDB685B0E03F00303E6
:1051600001335B003B607A693B68B2FBF3F3BB61E0
:10517000BB6918462437BD465DF8047B704700BF05
:105180000010024084A500080024F40000127A00F8
:1051900080B400AF034B1B681846BD465DF8047B26
:1051A000704700BF0C00002080B500AFFFF7F0FF94
:1051B0000246064B9B681B0A03F007030449CB5CBD
:1051C00003F01F0322FA03F3184680BD00100240CB
:1051D0007CA5000880B500AFFFF7DAFF0246064B5A
:1051E0009B68DB0A03F007030449CB5C03F01F0351
:1051F00022FA03F3184680BD001002407CA5000887
:1052000080B586B000AF786000233B612A4B9B6D70
:1052100003F08053002B03D0FFF7EEF9786114E020
:10522000254B9B6D244A43F080539365224B9B6D25
:1052300003F08053FB60FB68FFF7DEF978611E4BDB
:105240009B6D1D4A23F0805393657B69B3F5007F06
:105250000BD17B68802B19D97B68A02B02D9022344
:105260003B6113E001233B6110E07B68802B02D996
:1052700003233B610AE07B68802B02D102233B6160
:1052800004E07B68702B01D101233B610B4B1B6851
:1052900023F0070209493B6913430B60074B1B6866
:1052A00003F007033A699A4201D0012300E000238A
:1052B00018461837BD4680BD00100240002002404D
:1052C00080B586B000AF78600023FB740023BB7408
:1052D0007B681B6803F40063002B41D07B685B6E26
:1052E000B3F5400F2AD0B3F5400F24D8B3F5000F23
:1052F00008D0B3F5000F1ED8002B0AD0B3F5800FED
:1053000010D018E0864BDB68854A43F48033D360C5
:1053100015E07B6804330021184600F0BBFA034611
:10532000FB740CE07B6820330021184600F0A6FBDC
:105330000346FB7403E00123FB7400E000BFFB7C29
:10534000002B0BD1764BD3F8883023F440027B68D6
:105350005B6E73491343C1F8883001E0FB7CBB747A
:105360007B681B6803F48053002B41D07B689B6EE5
:10537000B3F1407F2AD0B3F1407F24D8B3F1007F4E
:1053800008D0B3F1007F1ED8002B0AD0B3F1807F84
:1053900010D018E0624BDB68614A43F48033D3607D
:1053A00015E07B6804330021184600F073FA0346C9
:1053B000FB740CE07B6820330021184600F05EFB94
:1053C0000346FB7403E00123FB7400E000BFFB7C99
:1053D000002B0BD1524BD3F8883023F040727B68FE
:1053E0009B6E4F491343C1F8883001E0FB7CBB74CE
:1053F0007B681B6803F40033002B00F0A0800023BF
:105400007B74474B9B6D03F08053002B01D101232C
:1054100000E00023002B0DD0414B9B6D404A43F030
:10542000805393653E4B9B6D03F08053BB60BB681C
:1054300001237B743B4B1B683A4A43F4807313602F
:10544000FCF7BAFEF86009E0FCF7B6FE0246FB681E
:10545000D31A022B02D90323FB7405E0314B1B68DE
:1054600003F48073002BEFD0FB7C002B5CD12C4B22
:10547000D3F8903003F440737B617B69002B1FD01D
:105480007B68D3F884307A699A4219D0244BD3F8D8
:10549000903023F440737B61214BD3F89030204A45
:1054A00043F48033C2F890301D4BD3F890301C4A3F
:1054B00023F48033C2F89030194A7B69C2F89030E7
:1054C0007B6903F00103002B16D0FCF775FEF86032
:1054D0000BE0FCF771FE0246FB68D31A41F28832FA
:1054E000934202D90323FB7406E00D4BD3F89030AE
:1054F00003F00203002BECD0FB7C002B0CD1084BFB
:10550000D3F8903023F440727B68D3F88430044998
:105510001343C1F8903009E0FB7CBB7406E000BF88
:105520000010024000700040FB7CBB747B7C012BB0
:1055300005D19E4B9B6D9D4A23F0805393657B68FC
:105540001B6803F00103002B0AD0984BD3F8883076
:1055500023F003027B689B6B94491343C1F88830A6
:105560007B681B6803F00203002B0AD08F4BD3F833
:10557000883023F00C027B68DB6B8C491343C1F845
:1055800088307B681B6803F00403002B0AD0874B2C
:10559000D3F8883023F030027B681B6C83491343B7
:1055A000C1F888307B681B6803F00803002B0AD021
:1055B0007E4BD3F8883023F0C0027B685B6C7B495C
:1055C0001343C1F888307B681B6803F01003002B7D
:1055D0000AD0764BD3F8883023F440727B689B6CFA
:1055E00072491343C1F888307B681B6803F02003BD
:1055F000002B0AD06D4BD3F8883023F440627B68CF
:10560000DB6C6A491343C1F888307B681B6803F47C
:105610000073002B0AD0654BD3F8883023F4402266
:105620007B68DB6D61491343C1F888307B681B6878
:1056300003F48063002B0AD05C4BD3F8883023F44A
:1056400040127B681B6E59491343C1F888307B6850
:105650001B6803F04003002B0AD0544BD3F888306A
:1056600023F440527B681B6D50491343C1F88830C6
:105670007B681B6803F08003002B0AD04B4BD3F8E8
:10568000883023F440427B685B6D48491343C1F87E
:1056900088307B681B6803F48073002B0AD0434B6F
:1056A000D3F8883023F440327B689B6D3F49134325
:1056B000C1F888307B681B6803F40053002B28D0A6
:1056C0003A4BD3F8883023F040627B68DB6E374971
:1056D0001343C1F888307B68DB6EB3F1006F06D1ED
:1056E000324BDB68314A43F48013D36011E07B68AE
:1056F000DB6EB3F1806F0CD17B6804330121184657
:1057000000F0C8F80346FB74FB7C002B01D0FB7C47
:10571000BB747B681B6803F40023002B28D0234B49
:10572000D3F8883023F040627B681B6F1F49134316
:10573000C1F888307B681B6FB3F1006F06D11B4B3B
:10574000DB681A4A43F48013D36011E07B681B6F57
:10575000B3F1806F0CD17B6804330121184600F04F
:1057600099F80346FB74FB7C002B01D0FB7CBB74D7
:105770007B681B6803F48023002B2BD00B4BD3F8E2
:10578000883023F040627B685B6F08491343C1F89F
:1057900088307B685B6FB3F1006F09D1034BDB6826
:1057A000024A43F48013D36014E000BF00100240AB
:1057B0007B685B6FB3F1806F0CD17B680433012190
:1057C000184600F067F80346FB74FB7C002B01D001
:1057D000FB7CBB747B681B6803F48043002B2FD0D9
:1057E0002B4BD3F8883023F040527B689B6F2849BD
:1057F0001343C1F888307B689B6FB3F1805F0DD194
:105800007B6804330221184600F044F80346FB7419
:10581000FB7C002B14D0FB7CBB7411E07B689B6F7E
:10582000B3F1005F0CD17B6820330221184600F0F1
:1058300025F90346FB74FB7C002B01D0FB7CBB7479
:105840007B681B6803F40043002B0AD0104BD3F88D
:10585000883023F080427B68DB6F0D491343C1F829
:1058600088307B681B6803F48033002B0BD0084B17
:10587000D3F8883023F000427B68D3F880300449A5
:105880001343C1F88830BB7C18461837BD4680BD2D
:105890000010024080B584B000AF7860396000230A
:1058A000FB73754BDB6803F00303002B18D0724BBE
:1058B000DB6803F003027B681B689A420DD17B68AA
:1058C0001B68002B09D06C4BDB681B0903F0070336
:1058D0005A1C7B685B689A4247D00123FB7344E003
:1058E0007B681B68032B18D0032B25D8012B02D013
:1058F000022B09D020E0604B1B6803F00203002B51
:105900001DD10123FB731AE05B4B1B6803F480631A
:10591000002B16D10123FB7313E0574B1B6803F4D4
:105920000033002B0FD1544B1B6803F48023002B52
:1059300009D10123FB7306E00123FB7304E000BFE0
:1059400002E000BF00E000BFFB7B002B0DD14A4B03
:10595000DB6823F073027B6819687B685B68013B36
:105960001B010B4344491343CB60FB7B002B7DD1D0
:10597000414B1B68404A23F080631360FCF71CFC1A
:10598000B86009E0FCF718FC0246BB68D31A022B8A
:1059900002D90323FB7305E0374B1B6803F0006358
:1059A000002BEFD1FB7B002B60D13B68002B11D18A
:1059B000314B1B6923F41F3323F440737A689268D8
:1059C00011027A68D268120952040A432A49134321
:1059D0000B6127E03B68012B12D1274B1B6923F495
:1059E000C00323F4FE437A68926811027A68126950
:1059F0005208013A52050A431F4913430B6111E053
:105A00001D4B1B6923F0C06323F4FE437A68926840
:105A100011027A6852695208013A52060A4316493D
:105A200013430B61144B1B68134A43F080631360EC
:105A3000FCF7C2FBB86009E0FCF7BEFB0246BB689E
:105A4000D31A022B02D90323FB7305E00A4B1B6810
:105A500003F00063002BEFD0FB7B002B06D1064B3D
:105A60001A697B689B69044913430B61FB7B1846E9
:105A70001037BD4680BD00BF0010024080B584B025
:105A800000AF786039600023FB736A4BDB6803F07A
:105A90000303002B18D0674BDB6803F003027B681D
:105AA0001B689A420DD17B681B68002B09D0614BA3
:105AB000DB681B0903F007035A1C7B685B689A428A
:105AC00047D00123FB7344E07B681B68032B18D08D
:105AD000032B25D8012B02D0022B09D020E0554BF7
