:020000040800F2
:100000000080012061160008A9140008AF14000840
:10001000B5140008BB140008C1140008000000005B
:10002000000000000000000000000000F16900086E
:10003000C714000800000000416C00088542000859
:10004000B1160008B1160008B1160008B116000874
:10005000B1160008B1160008B1160008B116000864
:10006000B1160008B1160008B1160008B116000854
:10007000B1160008B1160008B1160008B116000844
:10008000B1160008B1160008B1160008B116000834
:10009000B1160008B1160008B1160008B116000824
:1000A000B1160008B1160008B1160008B116000814
:1000B000B1160008B1160008B1160008B116000804
:1000C000B1160008B1160008B1160008B1160008F4
:1000D000B1160008B1160008B1160008B1160008E4
:1000E000B1160008B1160008B1160008B1160008D4
:1000F000B1160008B1160008B1160008B1160008C4
:10010000B1160008B1160008B1160008B1160008B3
:10011000B1160008B1160008D5140008B116000881
:10012000B1160008B1160008B1160008B116000893
:10013000B1160008B1160008B1160008B116000883
:10014000B1160008B1160008B1160008B116000873
:10015000B1160008B1160008B1160008B116000863
:10016000B1160008B1160008B1160008B116000853
:10017000B1160008B1160008B11600080000000012
:08018000B1160008B1160008D9
:1001900010B5054C237833B9044B13B10448AFF3C1
:1001A00000800123237010BDE40100200000000046
:1001B0001C9E000808B5034B1BB103490348AFF36D
:1001C000008008BD00000000E80100201C9E00081F
:1001D000034613F8012B002AFBD1181A0138704787
:1001E00001F0FF01102A2BDB10F0070F08D010F8E8
:1001F000013B013A8B422DD010F0070F42B3F6D1EC
:10020000F0B441EA012141EA014122F007047FF004
:1002100000070023F0E80256083C85EA010586EA5B
:10022000010685FA47F5A3FA87F586FA47F6A5FA97
:1002300087F68EB9EED1F0BC01F0FF0102F00702A3
:1002400032B110F8013B013A83EA010313B1F8D14E
:100250000020704701387047002D06BF354603382F
:10026000073815F0010F07D1013015F4807F02BF68
:10027000013015F4C03F0130F0BC0138704700BFB9
:1002800081F0004102E000BF83F0004330B54FEA47
:1002900041044FEA430594EA050F08BF90EA020FB4
:1002A0001FBF54EA000C55EA020C7FEA645C7FEA47
:1002B000655C00F0E2804FEA5454D4EB5555B8BF6A
:1002C0006D420CDD2C4480EA020281EA030382EADB
:1002D000000083EA010180EA020281EA0303362D6D
:1002E00088BF30BD11F0004F4FEA01314FF4801C40
:1002F0004CEA113102D0404261EB410113F0004F52
:100300004FEA03334CEA133302D0524263EB430308
:1003100094EA050F00F0A780A4F10104D5F1200EA6
:100320000DDB02FA0EFC22FA05F2801841F1000101
:1003300003FA0EF2801843FA05F359410EE0A5F1D5
:1003400020050EF1200E012A03FA0EFC28BF4CF006
:10035000020C43FA05F3C01851EBE37101F00045BC
:1003600007D54FF0000EDCF1000C7EEB00006EEBC9
:100370000101B1F5801F1BD3B1F5001F0CD3490853
:100380005FEA30004FEA3C0C04F101044FEA4452AA
:1003900012F5800F80F09A80BCF1004F08BF5FEA31
:1003A000500C50F1000041EB045141EA050130BD11
:1003B0005FEA4C0C404141EB0101013C28BFB1F523
:1003C000801FE9D291F0000F04BF01460020B1FA6E
:1003D00081F308BF2033A3F10B03B3F120020CDA41
:1003E0000C3208DD02F1140CC2F10C0201FA0CF01F
:1003F00021FA02F10CE002F11402D8BFC2F1200C84
:1004000001FA02F120FA0CFCDCBF41EA0C01904039
:10041000E41AA2BF01EB0451294330BD6FEA040482
:100420001F3C1CDA0C340EDC04F11404C4F120026D
:1004300020FA04F001FA02F340EA030021FA04F37F
:1004400045EA030130BDC4F10C04C4F1200220FAD6
:1004500002F001FA04F340EA0300294630BD21FA14
:1004600004F0294630BD94F0000F83F4801306BFDA
:1004700081F480110134013D4EE77FEA645C18BFCE
:100480007FEA655C29D094EA050F08BF90EA020F65
:1004900005D054EA000C04BF1946104630BD91EA5D
:1004A000030F1EBF0021002030BD5FEA545C05D160
:1004B0004000494128BF41F0004130BD14F580049F
:1004C0003CBF01F5801130BD01F0004545F0FE4113
:1004D00041F470014FF0000030BD7FEA645C1ABF48
:1004E000194610467FEA655C1CBF0B46024650EA7F
:1004F000013406BF52EA033591EA030F41F40021AB
:1005000030BD00BF90F0000F04BF0021704730B530
:100510004FF4806404F132044FF000054FF0000105
:1005200050E700BF90F0000F04BF0021704730B5C6
:100530004FF4806404F1320410F0004548BF40429B
:100540004FF000013EE700BF42004FEAE2014FEAF0
:1005500031014FEA02701FBF12F07F4393F07F4FCB
:1005600081F06051704732F07F4208BF704793F0CE
:100570007F4F04BF41F40021704730B54FF46074E1
:1005800001F0004521F000411CE700BF50EA0102E4
:1005900008BF704730B54FF000050AE050EA01028D
:1005A00008BF704730B511F0004502D5404261EBFD
:1005B00041014FF4806404F132045FEA915C3FF43E
:1005C000D8AE4FF003025FEADC0C18BF03325FEADB
:1005D000DC0C18BF033202EBDC02C2F1200300FA8C
:1005E00003FC20FA02F001FA03FE40EA0E0021FAB1
:1005F00002F11444BDE600BF70B54FF0FF0C4CF49F
:10060000E06C1CEA11541DBF1CEA135594EA0C0F50
:1006100095EA0C0F00F0DEF82C4481EA030621EA8B
:100620004C5123EA4C5350EA013518BF52EA0335C6
:1006300041F4801143F4801338D0A0FB02CE4FF078
:100640000005E1FB02E506F00042E0FB03E54FF0A8
:100650000006E1FB03569CF0000F18BF4EF0010EA0
:10066000A4F1FF04B6F5007F64F5407404D25FEA9C
:100670004E0E6D4146EB060642EAC62141EA55514F
:100680004FEAC52040EA5E504FEACE2EB4F1FD0C91
:1006900088BFBCF5E06F1ED8BEF1004F08BF5FEA0F
:1006A000500E50F1000041EB045170BD06F00046C1
:1006B00046EA010140EA020081EA0301B4EB5C046E
:1006C000C2BFD4EB0C0541EA045170BD41F4801166
:1006D0004FF0000E013C00F3AB8014F1360FDEBF8B
:1006E000002001F0004170BDC4F10004203C35DA67
:1006F0000C341BDC04F11404C4F1200500FA05F3EA
:1007000020FA04F001FA05F240EA020001F000428A
:1007100021F0004110EBD37021FA04F642EB060100
:100720005EEA430E08BF20EAD37070BDC4F10C042A
:10073000C4F1200500FA04F320FA05F001FA04F2EE
:1007400040EA020001F0004110EBD37041F10001DA
:100750005EEA430E08BF20EAD37070BDC4F12005E5
:1007600000FA05F24EEA020E20FA04F301FA05F24D
:1007700043EA020321FA04F001F0004121FA04F2F5
:1007800020EA020000EBD3705EEA430E08BF20EAC5
:10079000D37070BD94F0000F0FD101F000464000FF
:1007A00041EB010111F4801F08BF013CF7D041EA81
:1007B000060195F0000F18BF704703F00046520085
:1007C00043EB030313F4801F08BF013DF7D043EA56
:1007D0000603704794EA0C0F0CEA135518BF95EA0C
:1007E0000C0F0CD050EA410618BF52EA4306D1D193
:1007F00081EA030101F000414FF0000070BD50EAB2
:10080000410606BF1046194652EA430619D094EA3B
:100810000C0F02D150EA013613D195EA0C0F05D125
:1008200052EA03361CBF104619460AD181EA030179
:1008300001F0004141F0FE4141F470014FF0000031
:1008400070BD41F0FE4141F4780170BD70B54FF0CC
:10085000FF0C4CF4E06C1CEA11541DBF1CEA13554C
:1008600094EA0C0F95EA0C0F00F0A7F8A4EB05042E
:1008700081EA030E52EA03354FEA013100F0888025
:100880004FEA03334FF0805545EA131343EA1263EE
:100890004FEA022245EA111545EA10654FEA0026A3
:1008A0000EF000419D4208BF964244F1FD0404F55C
:1008B000407402D25B084FEA3202B61A65EB0305B8
:1008C0005B084FEA32024FF480104FF4002CB6EB75
:1008D000020E75EB030E22BFB61A754640EA0C00F5
:1008E0005B084FEA3202B6EB020E75EB030E22BF35
:1008F000B61A754640EA5C005B084FEA3202B6EB76
:10090000020E75EB030E22BFB61A754640EA9C0034
:100910005B084FEA3202B6EB020E75EB030E22BF04
:10092000B61A754640EADC0055EA060E18D04FEAC2
:10093000051545EA16754FEA06164FEAC30343EA62
:1009400052734FEAC2025FEA1C1CC0D111F4801F2F
:100950000BD141EA00014FF000004FF0004CB6E728
:1009600011F4801F04BF01430020B4F1FD0C88BFC7
:10097000BCF5E06F3FF6AFAEB5EB030C04BFB6EBD2
:10098000020C5FEA500C50F1000041EB045170BDC5
:100990000EF0004E4EEA113114EB5C04C2BFD4EBF2
:1009A0000C0541EA045170BD41F480114FF0000E76
:1009B000013C90E645EA060E8DE60CEA135594EAF2
:1009C0000C0F08BF95EA0C0F3FF43BAF94EA0C0FF5
:1009D0000AD150EA01347FF434AF95EA0C0F7FF46A
:1009E00025AF104619462CE795EA0C0F06D152EABE
:1009F00003353FF4FDAE1046194622E750EA4106A2
:100A000018BF52EA43067FF4C5AE50EA41047FF4B2
:100A10000DAF52EA43057FF4EBAE12E74FF0FF3C17
:100A200006E000BF4FF0010C02E000BF4FF0010CE8
:100A30004DF804CD4FEA410C7FEA6C5C4FEA430C61
:100A400018BF7FEA6C5C1BD001B050EA410C0CBFB0
:100A500052EA430C91EA030F02BF90EA020F002012
:100A6000704710F1000F91EA030F58BF994208BF79
:100A700090422CBFD8176FEAE37040F00100704736
:100A80004FEA410C7FEA6C5C02D150EA013C07D18D
:100A90004FEA430C7FEA6C5CD6D152EA033CD3D0D8
:100AA0005DF8040B704700BF8446104662468C46D2
:100AB0001946634600E000BF01B5FFF7B7FF002805
:100AC00048BF10F1000F01BD4DF808EDFFF7F4FF2E
:100AD0000CBF012000205DF808FB00BF4DF808EDB9
:100AE000FFF7EAFF34BF012000205DF808FB00BFDC
:100AF0004DF808EDFFF7E0FF94BF012000205DF8FE
:100B000008FB00BF4DF808EDFFF7CEFF94BF0120B2
:100B100000205DF808FB00BF4DF808EDFFF7C4FFAB
:100B200034BF012000205DF808FB00BF4FEA410CF4
:100B30007FEA6C5C02D150EA013C0AD14FEA430CD7
:100B40007FEA6C5C02D152EA033C02D14FF0000014
:100B500070474FF0010070474FEA410212F5001252
:100B600015D211D56FF47873B3EB625212D94FEAF4
:100B7000C12343F0004343EA505311F0004F23FADE
:100B800002F018BF404270474FF00000704750EA33
:100B9000013005D111F0004008BF6FF000407047F0
:100BA0004FF00000704700BF53B94AB9002908BF91
:100BB00000281CBF4FF0FF314FF0FF3000F074B938
:100BC000ADF1080C6DE904CE00F006F8DDF804E0A4
:100BD000DDE9022304B070472DE9F047089D044683
:100BE0008E46002B4DD18A42944669D9B2FA82F2E0
:100BF00052B101FA02F3C2F1200120FA01F10CFA1C
:100C000002FC41EA030E94404FEA1C48210CBEFB53
:100C1000F8F61FFA8CF708FB16E341EA034306FBDC
:100C200007F199420AD91CEB030306F1FF3080F06B
:100C30001F81994240F21C81023E63445B1AA4B2B8
:100C4000B3FBF8F008FB103344EA034400FB07F75A
:100C5000A7420AD91CEB040400F1FF3380F00A819B
:100C6000A74240F207816444023840EA0640E41B90
:100C700000261DB1D4400023C5E900433146BDE83C
:100C8000F0878B4209D9002D00F0EF800026C5E9DE
:100C9000000130463146BDE8F087B3FA83F6002EF6
:100CA0004AD18B4202D3824200F2F980841A61EB6E
:100CB000030301209E46002DE0D0C5E9004EDDE78C
:100CC00002B9FFDEB2FA82F2002A40F09280A1EB74
:100CD0000C014FEA1C471FFA8CFE0126200CB1FBC9
:100CE000F7F307FB131140EA01410EFB03F08842C2
:100CF00008D91CEB010103F1FF3802D2884200F24F
:100D0000CB804346091AA4B2B1FBF7F007FB1011E0
:100D100044EA01440EFB00FEA64508D91CEB04047E
:100D200000F1FF3102D2A64500F2BB800846A4EBD9
:100D30000E0440EA03409CE7C6F12007B34022FAC4
:100D400007FC4CEA030C20FA07F401FA06F31C43F3
:100D5000F9404FEA1C4900FA06F3B1FBF9F8200C00
:100D60001FFA8CFE09FB181140EA014108FB0EF046
:100D7000884202FA06F20BD91CEB010108F1FF3A96
:100D800080F08880884240F28580A8F102086144A2
:100D9000091AA4B2B1FBF9F009FB101144EA0141B0
:100DA00000FB0EFE8E4508D91CEB010100F1FF345B
:100DB0006CD28E456AD90238614440EA0840A0FBF3
:100DC0000294A1EB0E01A142C846A64656D353D0C9
:100DD0005DB1B3EB080261EB0E0101FA07F722FAED
:100DE00006F3F1401F43C5E9007100263146BDE816
:100DF000F087C2F12003D8400CFA02FC21FA03F379
:100E0000914001434FEA1C471FFA8CFEB3FBF7F0F9
:100E100007FB10360B0C43EA064300FB0EF69E421E
:100E200004FA02F408D91CEB030300F1FF382FD2B7
:100E30009E422DD9023863449B1B89B2B3FBF7F65F
:100E400007FB163341EA034106FB0EF38B4208D938
:100E50001CEB010106F1FF3816D28B4214D9023E79
:100E60006144C91A46EA004638E72E46284605E797
:100E70000646E3E61846F8E64B45A9D2B9EB020868
:100E800064EB0C0E0138A3E74646EAE7204694E7F8
:100E90004046D1E7D0467BE7023B614432E730462B
:100EA00009E76444023842E7704700BF80B483B06A
:100EB00000AF78604FF06043D3F8803E03F0010349
:100EC000002B13D04FF06043D3F8003E03F0010332
:100ED000002B0BD000E000BF4FF060431B68002BDD
:100EE000F9D04FF060437A68D2B21A707B68184626
:100EF0000C37BD465DF8047B704780B586B000AF07
:100F0000F860B9607A6000237B6100237B6109E0AF
:100F1000BB685A1CBA601B781846FFF7C7FF7B698D
:100F200001337B617A697B689A42F1DB7B68184602
:100F30001837BD4680BD000080B500AF00F0BAFB99
:100F400000F044F800F0C4F800F092F803F0B4F9AF
:100F5000114A0221032003F08BFA03460F4A136063
:100F60000F4A1049104803F0F1F903460F4A136085
:100F70000F4A1049104803F0E9F903460F4A13607D
:100F80000F4A00210F4803F0E1F903460E4A1360AF
:100F900003F0B6F9FEE700BF789F0008900200203A
:100FA0000C9F0008000000209D1100088402002012
:100FB000309F000802000020D111000888020020A4
:100FC000549F0008051200088C02002080B596B0DE
:100FD00000AF07F1140344220021184606F00FFA6F
:100FE0003B4600221A605A609A60DA601A614FF438
:100FF000007000F051FE0346002B01D000F050F9C4
:1010000002237B614FF480733B6210237B620223D7
:10101000FB6302233B6401237B640A23BB64072335
:10102000FB6402233B6502237B6507F1140318462A
:1010300000F088FE0346002B01D000F031F90F23A9
:101040003B6003237B600023BB600023FB60002325
:101050003B613B460421184601F050FA0346002B41
:1010600001D000F01DF900BF5837BD4680BD00001B
:1010700080B500AF144B154A1A60134B4FF4E132A0
:101080005A60114B00229A600F4B0022DA600E4B1F
:1010900000221A610C4B0C225A610B4B00229A6100
:1010A000094B0022DA61084B00221A62064B00222B
:1010B0005A62054802F006FC0346002B01D000F0FE
:1010C000EFF800BF80BD00BF0002002000440040D8
:1010D00080B58AB000AF07F1140300221A605A608D
:1010E0009A60DA601A612B4BDB6C2A4A43F00403E6
:1010F000D364284BDB6C03F004033B613B69254B55
:10110000DB6C244A43F08003D364224BDB6C03F096
:101110008003FB60FB681F4BDB6C1E4A43F001033E
:10112000D3641C4BDB6C03F00103BB60BB68194B41
:10113000DB6C184A43F00203D364164BDB6C03F0FC
:1011400002037B607B68002220214FF0904000F07A
:101150007DFD4FF400537B614FF40413BB6100230A
:10116000FB6107F1140319460B4800F0C5FB20236F
:101170007B610123BB610023FB6100233B6207F11C
:10118000140319464FF0904000F0B6FB00BF28371B
:10119000BD4680BD001002400008004880B584B004
:1011A00000AF78606423FB60074B1868FB6800227F
:1011B000796803F0D1F9B860BB68002BF4D003481C
:1011C00006F0AAFEF0E700BF90020020609E000833
:1011D00080B584B000AF78606423FB60074B18686B
:1011E000FB680022796803F0B7F9B860BB68002B90
:1011F000F4D0034806F090FEF0E700BF9002002014
:10120000609E000880B584B000AF7860154B1B6805
:10121000184603F05FFA0346032B02D0124806F08B
:101220007BFE104B186807F108010023002203F031
:10123000F3F9F860FB68002B10D17B7A002B06D104
:101240003B7A1A4609490A4806F0E0FDDEE73B7A98
:101250001A460849064806F0D9FDD7E7064806F0C1
:101260005BFED3E790020020809E0008A09E00084D
:10127000B49E0008BC9E0008D09E000880B582B0D5
:1012800000AF78607B681B68044A934201D100F08C
:1012900031FA00BF0837BD4680BD00BF00100040D6
:1012A00080B400AF72B600BFFEE7000080B582B028
:1012B00000AF114B1B6E104A43F0010313660E4B37
:1012C0001B6E03F001037B607B680B4B9B6D0A4A2E
:1012D00043F080539365084B9B6D03F080533B6054
:1012E0003B6800220F216FF0010000F0DBFA00BF25
:1012F0000837BD4680BD00BF0010024080B5ACB0CD
:1013000000AF786007F19C0300221A605A609A606F
:10131000DA601A6107F1140388220021184606F0EA
:101320006EF87B681B68214A93423BD102237B61A4
:1013300000233B6507F11403184601F035FB034613
:10134000002B01D0FFF7ACFF194B9B6D184A43F4FB
:1013500000339365164B9B6D03F400333B613B698F
:10136000134BDB6C124A43F00103D364104BDB6C6C
:1013700003F00103FB60FB680C23C7F89C300223D9
:10138000C7F8A0300023C7F8A4300323C7F8A8305B
:101390000723C7F8AC3007F19C0319464FF0904083
:1013A00000F0AAFA00BFB037BD4680BD004400403F
:1013B0000010024080B58EB000AF7860002387F83F
:1013C0003330344B9B6D334A43F010039365314BFC
:1013D0009B6D03F01003FB60FB6807F1100207F13F
:1013E00014031146184601F04DFA3B6AFB62FB6A92
:1013F000002B03D101F01AFA786304E001F016FA29
:1014000003465B007B637B6B234AA2FB03239B0C9D
:10141000013BBB62214B224A1A60204B40F2E7326B
:10142000DA601E4ABB6A53601C4B00221A611B4BD8
:1014300000229A60194B00229A61184801F070FF4F
:10144000034687F8333097F83330002B1BD113480D
:1014500001F0C8FF034687F8333097F83330002B8C
:1014600011D1362000F03AFA7B680F2B08D8002201
:101470007968362000F016FA0A4A7B68136002E0A9
:10148000012387F8333097F8333018463837BD4694
:1014900080BD00BF0010024083DE1B439402002089
:1014A000001000400800002080B400AFFEE780B4C8
:1014B00000AFFEE780B400AFFEE780B400AFFEE708
:1014C00080B400AFFEE780B400AF00BFBD465DF85A
:1014D000047B704780B500AF024801F0F3FF00BF06
:1014E00080BD00BF9402002080B400AF01231846E5
:1014F000BD465DF8047B704780B582B000AF786070
:10150000396005F04BFE034616221A604FF0FF3398
:1015100018460837BD4680BD80B582B000AF786000
:101520004FF0FF317868FFF7E7FFFEE780B586B040
:1015300000AFF860B9607A6000237B610AE0AFF326
:1015400000800146BB685A1CBA60CAB21A707B6937
:1015500001337B617A697B689A42F0DB7B681846CD
:101560001837BD4680BD80B483B000AF78604FF0BF
:10157000FF3318460C37BD465DF8047B704780B4D6
:1015800083B000AF786039603B684FF400525A6016
:10159000002318460C37BD465DF8047B704780B4C5
:1015A00083B000AF7860012318460C37BD465DF864
:1015B000047B704780B485B000AFF860B9607A6092
:1015C000002318461437BD465DF8047B70470000C1
:1015D00080B586B000AF7860144A154BD31A7B6192
:1015E0007B693B61134B1B68002B02D1114B124AE4
:1015F0001A60104B1A687B6813443A699A4207D202
:1016000005F0CCFD03460C221A604FF0FF3309E0D1
:10161000084B1B68FB60074B1A687B681344054A3C
:101620001360FB6818461837BD4680BD0080012056
:1016300000040000E00200209024002080B400AFED
:10164000064BD3F88830054A43F47003C2F888305B
:1016500000BFBD465DF8047B704700BF00ED00E0B1
:10166000DFF834D0FFF7EAFF0C480D490D4A00239C
:1016700002E0D458C4500433C4188C42F9D30A4A47
:101680000A4C002301E013600432A242FBD305F0B0
:1016900081FEFFF751FCFEE70080012000000020E2
:1016A000E4010020C4A30008E401002090240020ED
:1016B000FEE7000080B582B000AF0023FB710C4B49
:1016C0001B680B4A43F480731360032000F0DFF8BB
:1016D0000F20FFF76FFE0346002B02D00123FB71A2
:1016E00001E0FFF7E3FDFB7918460837BD4680BDF2
:1016F0000020024080B400AF064B1B781A46064B10
:101700001B681344044A136000BFBD465DF8047BA8
:10171000704700BF0C000020E402002080B400AF3E
:10172000034B1B681846BD465DF8047B704700BF3D
:10173000E402002080B485B000AF78607B6803F0DD
:101740000703FB600C4BDB68BB60BA684FF6FF0316
:101750001340BB60FB681A02BB68134343F0BF63CE
:1017600043F40033BB60044ABB68D36000BF143746
:10177000BD465DF8047B704700ED00E080B400AF2B
:10178000044BDB681B0A03F007031846BD465DF8EF
:10179000047B704700ED00E080B483B000AF0346E7
:1017A000FB7197F90730002B0BDBFB7903F01F026D
:1017B000074997F907305B09012000FA02F241F866
:1017C000232000BF0C37BD465DF8047B704700BF87
:1017D00000E100E080B483B000AF03463960FB71E4
:1017E00097F90730002B0ADB3B68DAB20C4997F90E
:1017F00007301201D2B20B4483F800230AE03B68A1
:10180000DAB20849FB7903F00F03043B1201D2B2AC
:101810000B441A7600BF0C37BD465DF8047B704759
:1018200000E100E000ED00E080B489B000AFF860B6
:10183000B9607A60FB6803F00703FB61FB69C3F1E1
:101840000703042B28BF0423BB61FB690433062B69
:1018500002D9FB69033B00E000237B614FF0FF32BC
:10186000BB6902FA03F3DA43BB681A407B699A400A
:101870004FF0FF317B6901FA03F3D9437B680B40DA
:10188000134318462437BD465DF8047B704780B586
:1018900082B000AF78607868FFF74CFF00BF083770
:1018A000BD4680BD80B586B000AF0346B9607A60A2
:1018B000FB7300237B61FFF761FF78617A68B96889
:1018C0007869FFF7B1FF024697F90F3011461846C5
:1018D000FFF780FF00BF1837BD4680BD80B582B0DE
:1018E00000AF0346FB7197F907301846FFF754FF26
:1018F00000BF0837BD4680BD80B487B000AF7860B8
:10190000396000237B617FE13B681A6801217B69B4
:1019100001FA03F31340FB60FB68002B00F07181B8
:101920003B685B6803F00303012B05D03B685B68F1
:1019300003F00303022B30D17B689B683B617B691A
:101940005B00032202FA03F3DB433A6913403B6175
:101950003B68DA687B695B0002FA03F33A69134378
:101960003B617B683A699A607B685B683B610122F6
:101970007B6902FA03F3DB433A6913403B613B683E
:101980005B681B0903F001027B6902FA03F33A6901
:1019900013433B617B683A695A603B685B6803F0BC
:1019A0000303032B18D17B68DB6A3B6101227B694F
:1019B00002FA03F3DB433A6913403B613B685B681F
:1019C000DB0803F001027B6902FA03F33A6913436F
:1019D0003B617B683A69DA623B685B6803F003034A
:1019E000032B17D07B68DB683B617B695B000322BC
:1019F00002FA03F3DB433A6913403B613B689A68A0
:101A00007B695B0002FA03F33A6913433B617B682D
:101A10003A69DA603B685B6803F00303022B23D169
:101A20007B69DA087B68083253F822303B617B69B6
:101A300003F007039B000F2202FA03F3DB433A692A
:101A400013403B613B681A697B6903F007039B0005
:101A500002FA03F33A6913433B617B69DA087B6856
:101A60000832396943F822107B681B683B617B6947
:101A70005B00032202FA03F3DB433A6913403B6144
:101A80003B685B6803F003027B695B0002FA03F3C7
:101A90003A6913433B617B683A691A603B685B684B
:101AA00003F44033002B00F0AC805F4B1B6E5E4AAA
:101AB00043F0010313665C4B1B6E03F00103BB6034
:101AC000BB685A4A7B699B08023352F823303B615A
:101AD0007B6903F003039B000F2202FA03F3DB434D
:101AE0003A6913403B617B68B3F1904F25D07B6826
:101AF0004F4A93421FD07B684E4A934219D07B686D
:101B00004D4A934213D07B684C4A93420DD07B6878
:101B10004B4A934207D07B684A4A934201D106233D
:101B20000CE007230AE0052308E0042306E0032372
:101B300004E0022302E0012300E000237A6902F0BE
:101B40000302920093403A6913433B6137497B6932
:101B50009B0802333A6941F823203B4B9B683B6169
:101B6000FB68DB433A6913403B613B685B6803F405
:101B70008013002B03D03A69FB6813433B61324A60
:101B80003B699360304BDB683B61FB68DB433A6940
:101B900013403B613B685B6803F40013002B03D0E8
:101BA0003A69FB6813433B61274A3B69D360264B84
:101BB0005B683B61FB68DB433A6913403B613B6810
:101BC0005B6803F40033002B03D03A69FB681343CE
:101BD0003B611D4A3B6953601B4B1B683B61FB68C3
:101BE000DB433A6913403B613B685B6803F4803335
:101BF000002B03D03A69FB6813433B61124A3B69EF
:101C000013607B6901337B613B681A687B6922FA48
:101C100003F3002B7FF478AE00BF00BF1C37BD4636
:101C20005DF8047B704700BF0010024000000140D7
:101C30000004004800080048000C0048001000485C
:101C400000140048001800480004014080B483B02C
:101C500000AF78600B467B8013467B707B78002B4F
:101C600003D07A887B689A6102E07A887B689A62FE
:101C700000BF0C37BD465DF8047B704780B400AFF1
:101C8000044B1B6803F4C0631846BD465DF8047B33
:101C9000704700BF0070004080B485B000AF78602E
:101CA0007B68B3F5007F30D1234B1B6803F4C0631E
:101CB000B3F5007F38D0204B1B6823F4C0631E4A65
:101CC00043F4007313601D4B1B68322202FB03F3C5
:101CD0001B4AA2FB03239B0C0133FB6002E0FB6861
:101CE000013BFB60144B5B6903F48063B3F5806FC9
:101CF00002D1FB68002BF2D10F4B5B6903F48063C8
:101D0000B3F5806F10D103230FE00B4B1B6803F476
:101D1000C063B3F5806F07D0074B1B6823F4C06323
:101D2000054A43F480631360002318461437BD4608
:101D30005DF8047B704700BF007000400400002085
:101D400083DE1B4380B588B000AF78607B68002BD2
:101D500001D10123CAE3974B9B6803F00C03BB61DD
:101D6000944BDB6803F003037B617B681B6803F023
:101D70001003002B00F0E480BB69002B07D0BB6987
:101D80000C2B40F08B807B69012B40F08780894BC6
:101D90001B6803F00203002B05D07B689B69002BB6
:101DA00001D10123A2E37B681A6A824B1B6803F00E
:101DB0000803002B04D07F4B1B6803F0F00305E001
:101DC0007C4BD3F894301B0903F0F003934223D2E9
:101DD0007B681B6A184600F087FD0346002B01D084
:101DE000012383E3734B1B68724A43F008031360BB
:101DF000704B1B6823F0F0027B681B6A6D4913432C
:101E00000B606C4B5B6823F47F427B68DB691B02D1
:101E1000684913434B6025E0664B1B68654A43F0F5
:101E200008031360634B1B6823F0F0027B681B6A96
:101E3000604913430B605F4B5B6823F47F427B6810
:101E4000DB691B025B4913434B60BB69002B09D163
:101E50007B681B6A184600F047FD0346002B01D043
:101E6000012343E300F04AFC0246524B9B681B09E6
:101E700003F00F035049CB5C03F01F0322FA03F376
:101E80004E4A13604E4B1B681846FFF793FA034601
:101E9000FB73FB7B002B52D0FB7B27E37B689B69AA
:101EA000002B32D0434B1B68424A43F001031360BE
:101EB000FFF734FC386108E0FFF730FC02463B696D
:101EC000D31A022B01D9032310E33A4B1B6803F00A
:101ED0000203002BF0D0374B1B68364A43F008034F
:101EE0001360344B1B6823F0F0027B681B6A314996
:101EF00013430B602F4B5B6823F47F427B68DB69E5
:101F00001B022C4913434B601AE02A4B1B68294AD9
:101F100023F001031360FFF701FC386108E0FFF7CD
:101F2000FDFB02463B69D31A022B01D90323DDE2F4
:101F3000204B1B6803F00203002BF0D100E000BF30
:101F40007B681B6803F00103002B74D0BB69082B6E
:101F500005D0BB690C2B0ED17B69032B0BD1154B24
:101F60001B6803F40033002B64D07B685B68002B94
:101F700060D10123BAE27B685B68B3F5803F06D18C
:101F80000C4B1B680B4A43F48033136026E07B68DC
:101F90005B68B3F5A02F15D1064B1B68054A43F4C7
:101FA00080231360034B1B68024A43F480331360A1
:101FB00014E000BF00100240909F000804000020C1
:101FC00008000020A04B1B689F4A23F48033136055
:101FD0009D4B1B689C4A23F4802313607B685B68DD
:101FE000002B13D0FFF79AFB386108E0FFF796FB50
:101FF00002463B69D31A642B01D9032376E2924B44
:102000001B6803F40033002BF0D014E0FFF786FBCD
:10201000386108E0FFF782FB02463B69D31A642B64
:1020200001D9032362E2884B1B6803F40033002BC1
:10203000F0D100E000BF7B681B6803F00203002BB7
:1020400060D0BB69042B05D0BB690C2B19D17B690F
:10205000022B16D17C4B1B6803F48063002B05D048
:102060007B68DB68002B01D101233FE2764B5B6884
:1020700023F0F8527B681B691B06734913434B60BE
:1020800040E07B68DB68002B23D06F4B1B686E4AF7
:1020900043F480731360FFF741FB386108E0FFF7FA
:1020A0003DFB02463B69D31A022B01D903231DE2F3
:1020B000654B1B6803F48063002BF0D0624B5B68B8
:1020C00023F0F8527B681B691B065F4913434B6082
:1020D00018E05D4B1B685C4A23F480731360FFF7C4
:1020E0001DFB386108E0FFF719FB02463B69D31A74
:1020F000022B01D90323F9E1534B1B6803F48063DE
:10210000002BF0D17B681B6803F00803002B3CD048
:102110007B685B69002B1CD04B4BD3F894304A4A48
:1021200043F00103C2F89430FFF7F8FA386108E091
:10213000FFF7F4FA02463B69D31A022B01D90323B5
:10214000D4E1414BD3F8943003F00203002BEFD0DD
:102150001BE03D4BD3F894303B4A23F00103C2F817
:102160009430FFF7DBFA386108E0FFF7D7FA024650
:102170003B69D31A022B01D90323B7E1324BD3F8C1
:10218000943003F00203002BEFD17B681B6803F04F
:102190000403002B00F0A6800023FB772A4B9B6DE5
:1021A00003F08053002B0DD1274B9B6D264A43F043
:1021B00080539365244B9B6D03F08053BB60BB68D9
:1021C0000123FB77214B1B6803F48073002B18D18C
:1021D0001E4B1B681D4A43F480731360FFF79EFA81
:1021E000386108E0FFF79AFA02463B69D31A022BDE
:1021F00001D903237AE1154B1B6803F48073002B8C
:10220000F0D07B689B68012B08D10F4BD3F890303E
:102210000D4A43F00103C2F8903029E07B689B68C7
:10222000052B15D1084BD3F89030074A43F004032F
:10223000C2F89030044BD3F89030034A43F00103C6
:10224000C2F8903014E000BF00100240007000405F
:102250009C4BD3F890309B4A23F00103C2F8903096
:10226000984BD3F89030974A23F00403C2F890308B
:102270007B689B68002B16D0FFF750FA38610AE0A4
:10228000FFF74CFA02463B69D31A41F28832934277
:1022900001D903232AE18B4BD3F8903003F00203DA
:1022A000002BEDD015E0FFF739FA38610AE0FFF7AF
:1022B00035FA02463B69D31A41F28832934201D97A
:1022C000032313E17F4BD3F8903003F00203002B7C
:1022D000EDD1FB7F012B05D17A4B9B6D794A23F021
:1022E000805393657B689B6A002B00F0FE807B68BF
:1022F0009B6A022B40F0D080724BDB687B617B696C
:1023000003F003027B68DB6A9A4230D17B6903F0F9
:1023100070027B681B6B013B1B019A4227D17B69D2
:1023200003F4FE427B685B6B1B029A421FD17B6900
:1023300003F400337A68926B072A14BF012200224B
:10234000D2B2934213D17B6903F4C0027B68DB6B8A
:102350005B08013B5B059A4209D17B6903F0C062CF
:102360007B681B6C5B08013B5B069A426ED0BB69C5
:102370000C2B69D0534B1B6803F08063002B05D1F5
:10238000504B1B6803F08053002B01D00123ADE0BC
:102390004C4B1B684B4A23F080731360FFF7BEF968
:1023A000386108E0FFF7BAF902463B69D31A022BFD
:1023B00001D903239AE0434B1B6803F00073002B01
:1023C000F0D1404BDA68404B13407A68D16A7A68A2
:1023D000126B013A120111437A68526B12021143D7
:1023E0007A68D26B5208013A520511437A68126C2E
:1023F0005208013A520611437A68926B120952044C
:102400000A4330491343CB602E4B1B682D4A43F0DF
:10241000807313602B4BDB682A4A43F08073D360D0
:10242000FFF77CF9386108E0FFF778F902463B696D
:10243000D31A022B01D9032358E0224B1B6803F067
:102440000073002BF0D050E001234FE01D4B1B68C0
:1024500003F00073002B48D11A4B1B68194A43F054
:1024600080731360174BDB68164A43F08073D360A8
:10247000FFF754F9386108E0FFF750F902463B696D
:10248000D31A022B01D9032330E00E4B1B6803F053
:102490000073002BF0D028E0BB690C2B23D0094B34
:1024A0001B68084A23F080731360FFF737F938611F
:1024B0000CE0FFF733F902463B69D31A022B05D92A
:1024C000032313E0001002408C809DF9094B1B6828
:1024D00003F00073002BECD1064BDA680549064B7C
:1024E0001340CB6001E0012300E0002318462037B1
:1024F000BD4680BD00100240FCFFEEFE80B584B0FA
:1025000000AF786039607B68002B01D10123E7E0E0
:10251000754B1B6803F007033A689A4210D9724B57
:102520001B6823F0070270493B6813430B606E4B36
:102530001B6803F007033A689A4201D00123CFE0F9
:102540007B681B6803F00203002B10D07B689A683D
:10255000664B9B6803F0F0039A4208D9634B9B6873
:1025600023F0F0027B689B68604913438B607B68B3
:102570001B6803F00103002B4CD07B685B68032BC6
:1025800007D15A4B1B6803F00073002B21D10123A4
:10259000A6E07B685B68022B07D1544B1B6803F4F1
:1025A0000033002B15D101239AE07B685B68002B78
:1025B00007D14E4B1B6803F00203002B09D1012306
:1025C0008EE04A4B1B6803F48063002B01D101238A
:1025D00086E0464B9B6823F003027B685B684349B7
:1025E00013438B60FFF79AF8F8600AE0FFF796F85C
:1025F0000246FB68D31A41F28832934201D9032381
:102600006EE03A4B9B6803F00C027B685B689B00B2
:102610009A42EBD17B681B6803F00203002B10D0B9
:102620007B689A68314B9B6803F0F0039A4208D2AA
:102630002E4B9B6823F0F0027B689B682B49134369
:102640008B60294B1B6803F007033A689A4210D24B
:10265000254B1B6823F0070223493B6813430B609B
:10266000214B1B6803F007033A689A4201D001230B
:1026700036E07B681B6803F00403002B08D01B4B7B
:102680009B6823F4E0627B68DB68184913438B6026
:102690007B681B6803F00803002B09D0134B9B6871
:1026A00023F460527B681B69DB00104913438B6085
:1026B00000F024F802460D4B9B681B0903F00F0342
:1026C0000B49CB5C03F01F0322FA03F3094A1360A2
:1026D000094B1B681846FEF76DFE0346FB72FB7A3A
:1026E00018461037BD4680BD002002400010024051
:1026F000909F0008040000200800002080B489B0EA
:1027000000AF0023FB610023BB613E4B9B6803F0DD
:102710000C033B613B4BDB6803F00303FB603B694D
:10272000002B05D03B690C2B21D1FB68012B1ED15E
:10273000344B1B6803F00803002B07D1314BD3F84F
:1027400094301B0A03F00F03FB6105E02D4B1B685F
:102750001B0903F00F03FB612B4AFB6952F823307E
:10276000FB613B69002B0DD1FB69BB610AE03B6952
:10277000042B02D1254BBB6104E03B69082B01D13E
:10278000234BBB613B690C2B34D11E4BDB6803F040
:102790000303BB60BB68022B03D0BB68032B03D0D1
:1027A00005E01A4B7B6105E0194B7B6102E0FB6998
:1027B0007B6100BF134BDB681B0903F00703013388
:1027C0007B60104BDB681B0A03F07F037A6903FB15
:1027D00002F27B68B2FBF3F37B610A4BDB685B0EB2
:1027E00003F0030301335B003B607A693B68B2FB93
:1027F000F3F3BB61BB6918462437BD465DF8047B23
:10280000704700BF00100240A89F00080024F40099
:1028100000127A0080B400AF034B1B681846BD4617
:102820005DF8047B704700BF0400002080B500AF56
:10283000FFF7F0FF0246064B9B681B0A03F00703F5
:102840000449CB5C03F01F0322FA03F3184680BD52
:1028500000100240A09F000880B500AFFFF7DAFF2C
:102860000246064B9B68DB0A03F007030449CB5C76
:1028700003F01F0322FA03F3184680BD0010024044
:10288000A09F000880B483B000AF786039607B6897
:102890000F221A60124B9B6803F003027B685A6098
:1028A0000F4B9B6803F0F0027B689A600C4B9B68AF
:1028B00003F4E0627B68DA60094B9B68DB0803F491
:1028C000E0627B681A61074B1B6803F007023B68F4
:1028D0001A6000BF0C37BD465DF8047B704700BF2F
:1028E000001002400020024080B586B000AF786042
:1028F00000233B612A4B9B6D03F08053002B03D0D8
:10290000FFF7BCF9786114E0254B9B6D244A43F036
:1029100080539365224B9B6D03F08053FB60FB68F3
:10292000FFF7ACF978611E4B9B6D1D4A23F0805375
:1029300093657B69B3F5007F0BD17B68802B19D938
:102940007B68A02B02D902233B6113E001233B618A
:1029500010E07B68802B02D903233B610AE07B688F
:10296000802B02D102233B6104E07B68702B01D1F4
:1029700001233B610B4B1B6823F0070209493B69AC
:1029800013430B60074B1B6803F007033A699A4235
:1029900001D0012300E0002318461837BD4680BD52
:1029A000001002400020024080B586B000AF786081
:1029B0000023FB740023BB747B681B6803F4006373
:1029C000002B41D07B685B6EB3F5400F2AD0B3F586
:1029D000400F24D8B3F5000F08D0B3F5000F1ED870
:1029E000002B0AD0B3F5800F10D018E0864BDB68BF
:1029F000854A43F48033D36015E07B6804330021BB
:102A0000184600F0BBFA0346FB740CE07B682033E9
:102A10000021184600F0A6FB0346FB7403E00123E7
:102A2000FB7400E000BFFB7C002B0BD1764BD3F88E
:102A3000883023F440027B685B6E73491343C1F80E
:102A4000883001E0FB7CBB747B681B6803F4805317
:102A5000002B41D07B689B6EB3F1407F2AD0B3F14D
:102A6000407F24D8B3F1007F08D0B3F1007F1ED897
:102A7000002B0AD0B3F1807F10D018E0624BDB68E6
:102A8000614A43F48033D36015E07B68043300214E
:102A9000184600F073FA0346FB740CE07B682033A1
:102AA0000021184600F05EFB0346FB7403E001239F
:102AB000FB7400E000BFFB7C002B0BD1524BD3F822
:102AC000883023F040727B689B6E4F491343C1F8F6
:102AD000883001E0FB7CBB747B681B6803F4003327
:102AE000002B00F0A08000237B74474B9B6D03F00C
:102AF0008053002B01D1012300E00023002B0DD0D7
:102B0000414B9B6D404A43F0805393653E4B9B6D18
:102B100003F08053BB60BB6801237B743B4B1B6895
:102B20003A4A43F480731360FEF7F8FDF86009E059
:102B3000FEF7F4FD0246FB68D31A022B02D90323E9
:102B4000FB7405E0314B1B6803F48073002BEFD05E
:102B5000FB7C002B5CD12C4BD3F8903003F44073FA
:102B60007B617B69002B1FD07B68D3F884307A6946
:102B70009A4219D0244BD3F8903023F440737B61F0
:102B8000214BD3F89030204A43F48033C2F8903080
:102B90001D4BD3F890301C4A23F48033C2F8903098
:102BA000194A7B69C2F890307B6903F00103002B5E
:102BB00016D0FEF7B3FDF8600BE0FEF7AFFD02465E
:102BC000FB68D31A41F28832934202D90323FB7483
:102BD00006E00D4BD3F8903003F00203002BECD04D
:102BE000FB7C002B0CD1084BD3F8903023F44072BF
:102BF0007B68D3F8843004491343C1F8903009E06E
:102C0000FB7CBB7406E000BF001002400070004077
:102C1000FB7CBB747B7C012B05D19E4B9B6D9D4A3D
:102C200023F0805393657B681B6803F00103002B3E
:102C30000AD0984BD3F8883023F003027B689B6B53
:102C400094491343C1F888307B681B6803F0020382
:102C5000002B0AD08F4BD3F8883023F00C027B680E
:102C6000DB6B8C491343C1F888307B681B6803F029
:102C70000403002B0AD0874BD3F8883023F03002AE
:102C80007B681B6C83491343C1F888307B681B68E1
:102C900003F00803002B0AD07E4BD3F8883023F0D2
:102CA000C0027B685B6C7B491343C1F888307B684A
:102CB0001B6803F01003002B0AD0764BD3F8883042
:102CC00023F440727B689B6C72491343C1F88830CF
:102CD0007B681B6803F02003002B0AD06D4BD3F8F0
:102CE000883023F440627B68DB6C6A491343C1F887
:102CF00088307B681B6803F40073002B0AD0654B97
:102D0000D3F8883023F440227B68DB6D614913439C
:102D1000C1F888307B681B6803F48063002B0AD0FD
:102D20005C4BD3F8883023F440127B681B6E594902
:102D30001343C1F888307B681B6803F04003002B05
:102D40000AD0544BD3F8883023F440527B681B6D73
:102D500050491343C1F888307B681B6803F0800337
:102D6000002B0AD04B4BD3F8883023F440427B68C9
:102D70005B6D48491343C1F888307B681B6803F4D6
:102D80008073002B0AD0434BD3F8883023F44032B1
:102D90007B689B6D3F491343C1F888307B681B6893
:102DA00003F40053002B28D03A4BD3F8883023F09B
:102DB00040627B68DB6E37491343C1F888307B681B
:102DC000DB6EB3F1006F06D1324BDB68314A43F45E
:102DD0008013D36011E07B68DB6EB3F1806F0CD1A0
:102DE0007B6804330121184600F0C8F80346FB74E1
:102DF000FB7C002B01D0FB7CBB747B681B6803F45D
:102E00000023002B28D0234BD3F8883023F04062D6
:102E10007B681B6F1F491343C1F888307B681B6FA9
:102E2000B3F1006F06D11B4BDB681A4A43F48013E1
:102E3000D36011E07B681B6FB3F1806F0CD17B68AE
:102E400004330121184600F099F80346FB74FB7C1B
:102E5000002B01D0FB7CBB747B681B6803F48023D0
:102E6000002B2BD00B4BD3F8883023F040627B68CB
:102E70005B6F08491343C1F888307B685B6FB3F11F
:102E8000006F09D1034BDB68024A43F48013D3601F
:102E900014E000BF001002407B685B6FB3F1806FED
:102EA0000CD17B6804330121184600F067F8034613
:102EB000FB74FB7C002B01D0FB7CBB747B681B6824
:102EC00003F48043002B2FD02B4BD3F8883023F012
:102ED00040527B689B6F28491343C1F888307B6858
:102EE0009B6FB3F1805F0DD17B68043302211846DC
:102EF00000F044F80346FB74FB7C002B14D0FB7CF1
:102F0000BB7411E07B689B6FB3F1005F0CD17B68F1
:102F100020330221184600F025F90346FB74FB7CA0
:102F2000002B01D0FB7CBB747B681B6803F400435F
:102F3000002B0AD0104BD3F8883023F080427B68F6
:102F4000DB6F0D491343C1F888307B681B6803F4BD
:102F50008033002B0BD0084BD3F8883023F000428D
:102F60007B68D3F8803004491343C1F88830BB7CB8
:102F700018461837BD4680BD0010024080B584B0A9
:102F800000AF786039600023FB73754BDB6803F09A
:102F90000303002B18D0724BDB6803F003027B683D
:102FA0001B689A420DD17B681B68002B09D06C4BC3
:102FB000DB681B0903F007035A1C7B685B689A42B5
:102FC00047D00123FB7344E07B681B68032B18D0B8
:102FD000032B25D8012B02D0022B09D020E0604B17
:102FE0001B6803F00203002B1DD10123FB731AE0C1
:102FF0005B4B1B6803F48063002B16D10123FB732A
:1030000013E0574B1B6803F40033002B0FD1544BD4
:103010001B6803F48023002B09D10123FB7306E016
:103020000123FB7304E000BF02E000BF00E000BF2B
:10303000FB7B002B0DD14A4BDB6823F073027B68CE
:1030400019687B685B68013B1B010B4344491343D0
:10305000CB60FB7B002B7DD1414B1B68404A23F0AA
:1030600080631360FEF75AFBB86009E0FEF756FB79
:103070000246BB68D31A022B02D90323FB7305E077
:10308000374B1B6803F00063002BEFD1FB7B002B59
:1030900060D13B68002B11D1314B1B6923F41F33E6
:1030A00023F440737A68926811027A68D268120930
:1030B00052040A432A4913430B6127E03B68012B62
:1030C00012D1274B1B6923F4C00323F4FE437A6813
:1030D000926811027A6812695208013A52050A434D
:1030E0001F4913430B6111E01D4B1B6923F0C063A3
:1030F00023F4FE437A68926811027A685269520892
:10310000013A52060A43164913430B61144B1B68DC
:10311000134A43F080631360FEF700FBB86009E0D8
:10312000FEF7FCFA0246BB68D31A022B02D903232E
:10313000FB7305E00A4B1B6803F00063002BEFD024
:10314000FB7B002B06D1064B1A697B689B690449FF
:1031500013430B61FB7B18461037BD4680BD00BF93
:103160000010024080B584B000AF78603960002361
:10317000FB736A4BDB6803F00303002B18D0674B2B
:10318000DB6803F003027B681B689A420DD17B6801
:103190001B68002B09D0614BDB681B0903F0070398
:1031A0005A1C7B685B689A4247D00123FB7344E05A
:1031B0007B681B68032B18D0032B25D8012B02D06A
:1031C000022B09D020E0554B1B6803F00203002BB3
:1031D0001DD10123FB731AE0504B1B6803F480637D
:1031E000002B16D10123FB7313E04C4B1B6803F437
:1031F0000033002B0FD1494B1B6803F48023002BB5
:1032000009D10123FB7306E00123FB7304E000BF37
:1032100002E000BF00E000BFFB7B002B0DD13F4B65
:10322000DB6823F073027B6819687B685B68013B8D
:103230001B010B4339491343CB60FB7B002B67D148
:10324000364B1B68354A23F080531360FEF766FA4D
:10325000B86009E0FEF762FA0246BB68D31A022B97
:1032600002D90323FB7305E02C4B1B6803F00053CA
:10327000002BEFD1FB7B002B4AD13B68002B11D1F7
:10328000264B5B6923F41F3323F440737A689268FA
:1032900011027A68D268120952040A431F49134383
:1032A0004B6111E01D4B5B6923F0C06323F4FE43C7
:1032B0007A68926811027A6812695208013A5206D5
:1032C0000A43164913434B61144B1B68134A43F0DE
:1032D00080531360FEF722FAB86009E0FEF71EFA89
:1032E0000246BB68D31A022B02D90323FB7305E005
:1032F0000A4B1B6803F00053002BEFD0FB7B002B25
:1033000006D1064B5A697B685B69044913434B61DC
:10331000FB7B18461037BD4680BD00BF0010024041
:1033200080B582B000AF78607B68002B01D10123AB
:1033300049E07B6893F83D30DBB2002B06D17B6817
:10334000002283F83C20786800F041F87B68022274
:1033500083F83D207B681A687B6804331946104661
:1033600000F0F8F97B68012283F848207B6801228D
:1033700083F83E207B68012283F83F207B6801228E
:1033800083F840207B68012283F841207B6801227A
:1033900083F842207B68012283F843207B68012266
:1033A00083F844207B68012283F845207B68012252
:1033B00083F846207B68012283F847207B6801223E
:1033C00083F83D20002318460837BD4680BD80B4F1
:1033D00083B000AF786000BF0C37BD465DF8047B5A
:1033E0007047000080B485B000AF78607B6893F8C8
:1033F0003D30DBB2012B01D001234FE07B6802227C
:1034000083F83D207B681B68DA687B681B6842F0A4
:103410000102DA607B681B68234A93421DD07B68F7
:103420001B68B3F1804F18D07B681B681F4A93421A
:1034300013D07B681B681E4A93420ED07B681B68C2
:103440001C4A934209D07B681B681B4A934204D0F4
:103450007B681B68194A934215D17B681B689A6880
:10346000174B1340FB60FB68062B15D0FB68B3F5C8
:10347000803F11D07B681B681A687B681B6842F02C
:1034800001021A6008E07B681B681A687B681B6889
:1034900042F001021A6000E000BF00231846143712
:1034A000BD465DF8047B7047002C014000040040DD
:1034B00000080040000C0040003401400040014082
:1034C0000700010080B582B000AF78607B681B68A0
:1034D0001B6903F00203022B22D17B681B68DB68A7
:1034E00003F00203022B1BD17B681B686FF0020202
:1034F0001A617B6801221A777B681B689B6903F05D
:103500000303002B03D0786800F005F905E0786824
:1035100000F0F7F8786800F008F97B6800221A7765
:103520007B681B681B6903F00403042B22D17B68B2
:103530001B68DB6803F00403042B1BD17B681B684A
:103540006FF004021A617B6802221A777B681B689D
:103550009B6903F44073002B03D0786800F0DBF81C
:1035600005E0786800F0CDF8786800F0DEF87B6858
:1035700000221A777B681B681B6903F00803082B7D
:1035800022D17B681B68DB6803F00803082B1BD182
:103590007B681B686FF008021A617B6804221A7747
:1035A0007B681B68DB6903F00303002B03D078689A
:1035B00000F0B1F805E0786800F0A3F8786800F052
:1035C000B4F87B6800221A777B681B681B6903F0DC
:1035D0001003102B22D17B681B68DB6803F01003FB
:1035E000102B1BD17B681B686FF010021A617B687F
:1035F00008221A777B681B68DB6903F44073002B91
:1036000003D0786800F087F805E0786800F079F872
:10361000786800F08AF87B6800221A777B681B685C
:103620001B6903F00103012B0ED17B681B68DB686B
:1036300003F00103012B07D17B681B686FF00102C7
:103640001A617868FDF71AFE7B681B681B6903F036
:103650008003802B0ED17B681B68DB6803F080033E
:10366000802B07D17B681B686FF080021A61786835
:1036700000F014F97B681B681B6903F48073B3F5D1
:10368000807F0ED17B681B68DB6803F08003802B92
:1036900007D17B681B686FF480721A61786800F04C
:1036A00007F97B681B681B6903F04003402B0ED1B0
:1036B0007B681B68DB6803F04003402B07D17B6805
:1036C0001B686FF040021A61786800F038F87B6878
:1036D0001B681B6903F02003202B0ED17B681B683D
:1036E000DB6803F02003202B07D17B681B686FF099
:1036F00020021A61786800F0C7F800BF0837BD469D
:1037000080BD80B483B000AF786000BF0C37BD4689
:103710005DF8047B704780B483B000AF786000BF71
:103720000C37BD465DF8047B704780B483B000AFB2
:10373000786000BF0C37BD465DF8047B704780B4ED
:1037400083B000AF786000BF0C37BD465DF8047BE6
:103750007047000080B485B000AF786039607B6846
:103760001B68FB607B68404A934213D07B68B3F1CF
:10377000804F0FD07B683D4A93420BD07B683C4A18
:10378000934207D07B683B4A934203D07B683A4A16
:10379000934208D1FB6823F07003FB603B685B68D1
:1037A000FA681343FB607B682F4A93421FD07B6803
:1037B000B3F1804F1BD07B682C4A934217D07B68B3
:1037C0002B4A934213D07B682A4A93420FD07B68DE
:1037D000294A93420BD07B68284A934207D07B68E2
:1037E000274A934203D07B68264A934208D1FB685C
:1037F00023F44073FB603B68DB68FA681343FB60AB
:10380000FB6823F080023B685B691343FB607B68C5
:10381000FA681A603B689A687B68DA623B681A68E3
:103820007B689A627B68104A93420FD07B68124A89
:1038300093420BD07B68114A934207D07B68104AB1
:10384000934203D07B680F4A934203D13B681A69C5
:103850007B681A637B6801225A6100BF1437BD463A
:103860005DF8047B704700BF002C0140000400405D
:1038700000080040000C00400034014000400140BE
:10388000004401400048014080B483B000AF78603C
:1038900000BF0C37BD465DF8047B704780B483B031
:1038A00000AF786000BF0C37BD465DF8047B704701
:1038B00080B483B000AF786000BF0C37BD465DF8C0
:1038C000047B704780B582B000AF78607B68002BC6
:1038D00001D1012340E07B689B6F002B06D17B6800
:1038E000002283F874207868FDF708FD7B682422A5
:1038F0009A677B681B681A687B681B6822F0010264
:103900001A60786800F02CF80346012B01D10123DE
:1039100022E07B685B6A002B02D0786800F0D8FA5E
:103920007B681B685A687B681B6822F490425A6067
:103930007B681B689A687B681B6822F02A029A6081
:103940007B681B681A687B681B6842F001021A607A
:10395000786800F05FFB034618460837BD4680BD17
:103960002DE9B04F8AB000AFF860002387F822300D
:10397000FB689A68FB681B691A43FB685B691A431A
:10398000FB68DB6913437B62FB681B681A68A44B06
:103990001340FA681268796A0B431360FB681B686E
:1039A0005B6823F44051FB68DA68FB681B680A43D4
:1039B0005A60FB689B697B62FB681B68994A93426B
:1039C00004D0FB681B6A7A6A13437B62FB681B683E
:1039D0009B6823F43061FB681B687A6A0A439A602B
:1039E000FB681B68904A934226D1904BD3F88830ED
:1039F00003F00303032B1BD801A252F823F000BFEE
:103A0000113A0008213A0008193A0008293A00083A
:103A1000012387F8233016E1022387F8233012E1CF
:103A2000042387F823300EE1082387F823300AE1C6
:103A3000102387F8233006E1FB681B687C4A934219
:103A400038D17A4BD3F8883003F00C030C2B2DD8E7
:103A500001A252F823F000BF8D3A0008AD3A0008E9
:103A6000AD3A0008AD3A00089D3A0008AD3A0008AA
:103A7000AD3A0008AD3A0008953A0008AD3A0008A2
:103A8000AD3A0008AD3A0008A53A0008002387F8CF
:103A90002330D8E0022387F82330D4E0042387F8CA
:103AA0002330D0E0082387F82330CCE0102387F8B8
:103AB0002330C8E0FB681B685E4A934225D15B4B0C
:103AC000D3F8883003F03003302B16D0302B18D8C1
:103AD000202B0AD0202B14D8002B02D0102B08D07A
:103AE0000FE0002387F82330ADE0022387F823306E
:103AF000A9E0042387F82330A5E0082387F82330C2
:103B0000A1E0102387F823309DE0FB681B684A4A38
:103B1000934225D1454BD3F8883003F0C003C02B26
:103B200016D0C02B18D8802B0AD0802B14D8002B8D
:103B300002D0402B08D00FE0002387F8233082E02A
:103B4000022387F823307EE0042387F823307AE0CD
:103B5000082387F8233076E0102387F8233072E0BB
:103B6000FB681B68354A93422AD1304BD3F8883022
:103B700003F44073B3F5407F1AD0B3F5407F1BD8F0
:103B8000B3F5007F0CD0B3F5007F15D8002B03D020
:103B9000B3F5807F08D00FE0002387F8233052E090
:103BA000022387F823304EE0042387F823304AE0CD
:103BB000082387F8233046E0102387F8233042E0BB
:103BC000FB681B68174A93423AD1184BD3F88830E8
:103BD00003F44063B3F5406F1AD0B3F5406F1BD8C0
:103BE000B3F5006F0CD0B3F5006F15D8002B03D0E0
:103BF000B3F5806F08D00FE0002387F8233022E070
:103C0000022387F823301EE0042387F823301AE0CC
:103C1000082387F8233016E0102387F8233012E0BA
:103C2000F369FFEF008000400038014000100240BF
:103C30000044004000480040004C0040005000405C
:103C4000102387F82330FB681B689F4A93427AD180
:103C500097F82330082B24D801A252F823F000BF94
:103C6000853C0008A33C00088D3C0008A33C0008EC
:103C7000933C0008A33C0008A33C0008A33C0008B8
:103C80009B3C0008FEF7D2FDF86110E08F4BFB6112
:103C90000DE0FEF733FDF86109E04FF40043FB61EE
:103CA00005E00023FB61012387F8223000BFFB6998
:103CB000002B00F0FB80FB685A6813465B0013443E
:103CC000FA699A4205D3FB685B681B03FA699A425A
:103CD00003D9012387F82230E8E0FB6900221C4663
:103CE00015464FF000024FF000032B0243EA146325
:103CF0002202F9684968490800208846814612EB8B
:103D0000080A43EB090BFB685B6800223B607A60A2
:103D1000D7E9002350465946FCF746FF02460B46BA
:103D20001346BB61BB69B3F5407F08D3BB69B3F5EC
:103D3000801F04D2FB681B68BA69DA60B6E0012311
:103D400087F82230B2E0FB68DB69B3F5004F5ED143
:103D500097F82330082B28D801A252F823F000BF8F
:103D6000853D00088D3D0008953D0008AB3D0008ED
:103D70009B3D0008AB3D0008AB3D0008AB3D000893
:103D8000A33D0008FEF752FDF86114E0FEF764FD64
:103D9000F86110E04D4BFB610DE0FEF7AFFCF86100
:103DA00009E04FF40043FB6105E00023FB610123C0
:103DB00087F8223000BFFB69002B77D0FB695A00DF
:103DC000FB685B685B081A44FB685B68B2FBF3F353
:103DD000BB61BB690F2B16D9BB69B3F5803F12D20B
:103DE000BB699BB223F00F03FB82BB695B089BB2EC
:103DF00003F007039AB2FB8A1343FB82FB681B683C
:103E0000FA8ADA6052E0012387F822304EE097F810
:103E10002330082B27D801A252F823F0413E000896
:103E2000493E0008513E0008673E0008573E000822
:103E3000673E0008673E0008673E00085F3E0008D6
:103E4000FEF7F4FCF86114E0FEF706FDF86110E0FF
:103E50001E4BFB610DE0FEF751FCF86109E04FF4E9
:103E60000043FB6105E00023FB61012387F822305A
:103E700000BFFB69002B19D0FB685B685A08FB691F
:103E80001A44FB685B68B2FBF3F3BB61BB690F2BA1
:103E900009D9BB69B3F5803F05D2BB699AB2FB680B
:103EA0001B68DA6002E0012387F82230FB680022F9
:103EB0005A66FB6800229A6697F82230184628371F
:103EC000BD46BDE8B08F00BF008000400024F40074
:103ED00080B483B000AF78607B685B6A03F0010355
:103EE000002B0AD07B681B685B6823F400317B6879
:103EF0009A6A7B681B680A435A607B685B6A03F0B6
:103F00000203002B0AD07B681B685B6823F48031B6
:103F10007B68DA6A7B681B680A435A607B685B6A65
:103F200003F00403002B0AD07B681B685B6823F452
:103F300080217B681A6B7B681B680A435A607B6828
:103F40005B6A03F00803002B0AD07B681B685B6880
:103F500023F400417B685A6B7B681B680A435A60F4
:103F60007B685B6A03F01003002B0AD07B681B6838
:103F70009B6823F480517B689A6B7B681B680A43BB
:103F80009A607B685B6A03F02003002B0AD07B6891
:103F90001B689B6823F400517B68DA6B7B681B68A5
:103FA0000A439A607B685B6A03F04003002B1AD0D7
:103FB0007B681B685B6823F480117B681A6C7B68E4
:103FC0001B680A435A607B681B6CB3F5801F0AD1DB
:103FD0007B681B685B6823F4C0017B685A6C7B6854
:103FE0001B680A435A607B685B6A03F08003002BFE
:103FF0000AD07B681B685B6823F400217B689A6C9D
:104000007B681B680A435A6000BF0C37BD465DF8E9
:10401000047B704780B586B002AF78607B68002271
:10402000C3F88020FDF77AFBF8607B681B681B688B
:1040300003F00803082B0ED16FF07E430093FB685A
:1040400000224FF40011786800F02DF80346002B91
:1040500001D0032323E07B681B681B6803F0040383
:10406000042B0ED16FF07E430093FB6800224FF4C7
:104070008001786800F017F80346002B01D0032375
:104080000DE07B6820229A677B682022DA677B68D4
:1040900000221A667B68002283F8742000231846E9
:1040A0001037BD4680BD80B59CB000AFF860B960E8
:1040B0003B601346FB71A5E0BB6FB3F1FF3F00F01F
:1040C000A180FDF72BFB02463B68D31ABA6F9A42D8
:1040D00002D3BB6F002B3ED1FB681B683B653B6D79
:1040E00053E8003FFB64FB6C23F4D0737B66FB68F2
:1040F0001B681A467B6EFB65BA65B96DFA6D41E8BF
:1041000000237B657B6D002BE6D1FB681B680833C1
:10411000FB63FB6B53E8003FBB63BB6B23F0010306
:104120003B66FB681B6808333A6EBA647B64796C43
:10413000BA6C41E800233B643B6C002BE5D1FB6883
:1041400020229A67FB682022DA67FB68002283F846
:104150007420032367E0FB681B681B6803F00403FB
:10416000002B4FD0FB681B68DB6903F40063B3F5D9
:10417000006F47D1FB681B684FF400621A62FB684E
:104180001B68BB62BB6A53E8003F7B627B6A23F417
:10419000D073FB66FB681B681A46FB6E7B633A6351
:1041A000396B7A6B41E80023FB62FB6A002BE6D196
:1041B000FB681B6808337B617B6953E8003F3B6108
:1041C0003B6923F00103BB66FB681B680833BA6ECA
:1041D0003A62FB61F9693A6A41E80023BB61BB6955
:1041E000002BE5D1FB6820229A67FB682022DA6762
:1041F000FB682022C3F88020FB68002283F874202B
:10420000032310E0FB681B68DA69BB681340BA68D7
:104210009A420CBF01230023DBB21A46FB799A4273
:104220003FF44AAF002318467037BD4680BD0000FA
:1042300080B483B000AF03463960FB7197F9073053
:10424000002B0ADB3B68DAB20C4997F90730120100
:10425000D2B20B4483F800230AE03B68DAB2084983
:10426000FB7903F00F03043B1201D2B20B441A7620
:1042700000BF0C37BD465DF8047B704700E100E0ED
:1042800000ED00E080B500AF054B1B6801F020FF9A
:104290000346012B01D002F007FD00BF80BD00BF27
:1042A00010E000E080B500AF00216FF00400FFF7E0
:1042B000BFFF00BF80BD000080B483B000AFEFF34C
:1042C00005833B603B68002B03D06FF005037B60E8
:1042D0000CE00A4B1B68002B05D1084B01221A6029
:1042E00000237B6002E04FF0FF337B607B68184661
:1042F0000C37BD465DF8047B704700BFE802002024
:1043000080B582B000AFEFF305833B603B68002BC4
:1043100003D06FF005037B6010E00B4B1B68012B93
:1043200009D1FFF7BFFF084B02221A6001F074FAAF
:1043300000237B6002E04FF0FF337B607B68184610
:104340000837BD4680BD00BFE802002080B58EB0B2
:1043500004AFF860B9607A6000233B61EFF3058336
:104360007B617B69002B7ED1FB68002B7BD0802397
:104370003B621823FB6100237B624FF0FF33BB617C
:104380007B68002B45D07B681B68002B02D07B68C4
:104390001B687B627B689B69002B02D07B689B69F2
:1043A000FB61FB69002B08D0FB69382B05D87B68C3
:1043B0005B6803F00103002B01D0002354E07B680D
:1043C0005B69002B03D07B685B699B083B627B6861
:1043D0009B68002B0ED07B68DB68BB2B0AD97B68FF
:1043E0001B69002B06D07B685B69002B02D0012380
:1043F000BB6110E07B689B68002B0CD17B68DB689D
:10440000002B08D17B681B69002B04D10023BB6102
:1044100001E00023BB61BB69012B10D17B681B69E4
:104420007A68926802920193FB690093BB683A6ACA
:10443000796AF86801F038F803463B6113E0BB691C
:10444000002B10D13B6A9AB207F110030193FB696C
:104450000093BB68796AF86801F083F80346012B82
:1044600001D000233B613B6918462837BD4680BD1B
:1044700080B58AB002AFF860B9607A600023FB6152
:10448000EFF305833B613B69002B5FD1FB68002B99
:104490005CD0BB68002B59D04FF0FF33BB617B6809
:1044A000002B29D07B689B68002B12D07B68DB68CF
:1044B0004F2B0ED97B681B69002B0AD07B685A6989
:1044C000FB68B96801FB03F39A4202D30123BB6185
:1044D00014E07B689B68002B10D17B68DB68002BA5
:1044E0000CD17B681B69002B08D17B685B69002BB2
:1044F00004D10023BB6101E00023BB61BB69012B38
:104500000BD17B681A697B689B6800210091B968B0
:10451000F86800F04FFAF86108E0BB69002B05D19C
:104520000022B968F86800F0BDFAF861FB69002B59
:104530000CD07B68002B03D07B681B687B6101E09B
:1045400000237B617969F86900F050FFFB69184628
:104550002037BD4680BD000080B588B000AFF86050
:10456000B9603B601346FB71FB68BB610023FB61D4
:10457000EFF305837B617B69002B28D0BB69002B9F
:1045800005D0BB68002B02D03B68002B03D06FF036
:104590000303FB6138E000233B6107F110020023B5
:1045A000B968B86900F0DAFB0346012B03D06FF05D
:1045B0000203FB6128E03B69002B25D0154B4FF02F
:1045C00080521A60BFF34F8FBFF36F8F1CE0BB693F
:1045D000002B02D0BB68002B03D16FF00303FB61FB
:1045E00012E000233A68B968B86900F0B9FA0346E6
:1045F000012B09D03B68002B03D06FF00103FB6156
:1046000002E06FF00203FB61FB6918462037BD46EC
:1046100080BD00BF04ED00E080B588B000AFF86059
:10462000B9607A603B60FB68BB610023FB61EFF31C
:1046300005837B617B69002B28D0BB69002B05D0EB
:10464000BB68002B02D03B68002B03D06FF0030344
:10465000FB6137E000233B6107F110031A46B9689C
:10466000B86900F0F7FC0346012B03D06FF002039A
:10467000FB6127E03B69002B24D0154B4FF08052A3
:104680001A60BFF34F8FBFF36F8F1BE0BB69002B26
:1046900002D0BB68002B03D16FF00303FB6111E074
:1046A0003A68B968B86900F0F5FB0346012B09D0F8
:1046B0003B68002B03D06FF00103FB6102E06FF059
:1046C0000203FB61FB6918462037BD4680BD00BF71
:1046D00004ED00E080B586B000AF78607B683B6198
:1046E0003B69002B02D100237B610EE0EFF30583D1
:1046F000FB60FB68002B04D0386900F049FD78614D
:1047000003E0386900F026FD78617B6918461837A8
:10471000BD4680BD80B485B000AFF860B9607A60F6
:10472000FB68074A1A60BB68064A1A607B688022E9
:104730001A6000BF1437BD465DF8047B704700BFA8
:10474000EC020020A803002080B485B000AFF86020
:10475000B9607A60FB68074A1A60BB68064A1A604B
:104760007B684FF480721A6000BF1437BD465DF855
:10477000047B7047A80500206406002080B483B045
:1047800000AF78607B6803F108027B685A607B6841
:104790004FF0FF329A607B6803F108027B68DA60B1
:1047A0007B6803F108027B681A617B6800221A604B
:1047B00000BF0C37BD465DF8047B704780B483B002
:1047C00000AF78607B6800221A6100BF0C37BD46DD
:1047D0005DF8047B704780B485B000AF78603960C5
:1047E0007B685B68FB603B68FA685A60FB689A68A4
:1047F0003B689A60FB689B683A685A60FB683A6855
:104800009A603B687A681A617B681B685A1C7B68EF
:104810001A6000BF1437BD465DF8047B704780B452
:1048200085B000AF786039603B681B68BB60BB68CF
:10483000B3F1FF3F03D17B681B69FB600CE07B6831
:104840000833FB6002E0FB685B68FB60FB685B6849
:104850001B68BA689A42F6D2FB685A683B685A608D
:104860003B685B683A689A603B68FA689A60FB68E4
:104870003A685A603B687A681A617B681B685A1C00
:104880007B681A6000BF1437BD465DF8047B704733
:1048900080B485B000AF78607B681B69FB607B6883
:1048A0005B687A6892689A607B689B687A685268ED
:1048B0005A60FB685B687A689A4203D17B689A68A1
:1048C000FB685A607B6800221A61FB681B685A1EED
:1048D000FB681A60FB681B6818461437BD465DF814
:1048E000047B704780B584B000AF786039607B6826
:1048F000FB60FB68002B0AD14FF0500383F3118853
:10490000BFF36F8FBFF34F8FBB6000BFFEE702F0B6
:1049100039F9FB681A68FB68DB6BF968096C01FB05
:1049200003F31A44FB689A60FB6800229A63FB68F1
:104930001A68FB685A60FB681A68FB68DB6B013B0E
:10494000F968096C01FB03F31A44FB68DA60FB6841
:10495000FF2283F84420FB68FF2283F845203B6850
:10496000002B14D1FB681B69002B1AD0FB68103395
:10497000184601F0EBF90346002B12D00C4B4FF018
:1049800080521A60BFF34F8FBFF36F8F09E0FB684F
:1049900010331846FFF7F2FEFB6824331846FFF782
:1049A000EDFE02F01FF9012318461037BD4680BD09
:1049B00004ED00E080B58EB002AFF860B9607A60B7
:1049C0003B60FB68002B0AD14FF0500383F3118842
:1049D000BFF36F8FBFF34F8FBB6200BFFEE73B6833
:1049E000002B0AD14FF0500383F31188BFF36F8F70
:1049F000BFF34F8F7B6200BFFEE77B68002B02D0C6
:104A0000BB68002B01D0012300E00023002B0AD15A
:104A10004FF0500383F31188BFF36F8FBFF34F8FB5
:104A20003B6200BFFEE77B68002B02D1BB68002B16
:104A300001D1012300E00023002B0AD14FF05003E5
:104A400083F31188BFF36F8FBFF34F8FFB6100BFFC
:104A5000FEE750237B617B69502B0AD04FF0500357
:104A600083F31188BFF36F8FBFF34F8FBB6100BF1C
:104A7000FEE77B693B68FB62FB6A002B0DD0FB6A9B
:104A8000012283F8462097F83820FB6A00931346EA
:104A90007A68B968F86800F03FF8FB6A1846303762
:104AA000BD4680BD80B58AB002AFF860B9601346DC
:104AB000FB71FB68002B0AD14FF0500383F3118880
:104AC000BFF36F8FBFF34F8F3B6100BFFEE7FB6803
:104AD000BA6802FB03F3FB61FB695033184602F02E
:104AE00073F9B861BB69002B11D0BB697B617B692D
:104AF00050337B61BB69002283F84620FA79BB6999
:104B0000009313467A69B968F86800F005F8BB6944
:104B100018462037BD4680BD80B584B000AFF86030
:104B2000B9607A60FB70BB68002B03D1BB69BA69BE
:104B30001A6002E0BB697A681A60BB69FA68DA63D6
:104B4000BB69BA681A640121B869FFF7CBFEBB697B
:104B5000FA7883F84C2000BF1037BD4680BD0000B6
:104B600080B58EB000AFF860B9607A603B6000231A
:104B70007B63FB683B633B6B002B0AD14FF0500318
:104B800083F31188BFF36F8FBFF34F8FBB6200BFFA
:104B9000FEE7BB68002B03D13B6B1B6C002B01D1E4
:104BA000012300E00023002B0AD14FF0500383F3D0
:104BB0001188BFF36F8FBFF34F8F7B6200BFFEE79B
:104BC0003B68022B03D13B6BDB6B012B01D1012333
:104BD00000E00023002B0AD14FF0500383F311882B
:104BE000BFF36F8FBFF34F8F3B6200BFFEE701F053
:104BF0006FFA0346002B02D17B68002B01D1012301
:104C000000E00023002B0AD14FF0500383F31188FA
:104C1000BFF36F8FBFF34F8FFB6100BFFEE701F063
:104C2000B1FF3B6B9A6B3B6BDB6B9A4202D33B68E9
:104C3000022B29D13A68B968386B00F0C7FAF862DC
:104C40003B6B5B6A002B10D03B6B2433184601F0A2
:104C50007DF80346002B13D03F4B4FF080521A6073
:104C6000BFF34F8FBFF36F8F0AE0FB6A002B07D0B3
:104C7000394B4FF080521A60BFF34F8FBFF36F8FE5
:104C800001F0B0FF012363E07B68002B03D101F04A
:104C9000A9FF00235CE07B6B002B06D107F1140316
:104CA000184601F0B7F801237B6301F09BFF00F089
:104CB00023FE01F067FF3B6B93F844305BB2B3F126
:104CC000FF3F03D13B6B002283F844203B6B93F8FA
:104CD00045305BB2B3F1FF3F03D13B6B002283F859
:104CE000452001F07FFF3A1D07F1140311461846D5
:104CF00001F0A6F80346002B24D1386B00F05EFBD0
:104D00000346002B18D03B6B10337A6811461846C7
:104D100000F0CCFF386B00F0E9FA00F0FBFD034631
:104D2000002B7FF47CAF0C4B4FF080521A60BFF326
:104D30004F8FBFF36F8F72E7386B00F0D7FA00F038
:104D4000E9FD6CE7386B00F0D1FA00F0E3FD0023D9
:104D500018463837BD4680BD04ED00E080B590B000
:104D600000AFF860B9607A603B60FB68BB63BB6B07
:104D7000002B0AD14FF0500383F31188BFF36F8FDC
:104D8000BFF34F8FBB6200BFFEE7BB68002B03D1B0
:104D9000BB6B1B6C002B01D1012300E00023002B17
:104DA0000AD14FF0500383F31188BFF36F8FBFF325
:104DB0004F8F7B6200BFFEE73B68022B03D1BB6BCA
:104DC000DB6B012B01D1012300E00023002B0AD172
:104DD0004FF0500383F31188BFF36F8FBFF34F8FF2
:104DE0003B6200BFFEE701F0AFFFEFF311824FF02F
:104DF000500383F31188BFF36F8FBFF34F8FFA61B6
:104E0000BB61FB697B63BB6B9A6BBB6BDB6B9A42D1
:104E100002D33B68022B2FD1BB6B93F8453087F848
:104E20003330BB6B9B6BFB623A68B968B86B00F0C0
:104E3000CDF997F93330B3F1FF3F12D1BB6B5B6A09
:104E4000002B16D0BB6B2433184600F07FFF0346BF
:104E5000002B0ED07B68002B0BD07B6801221A60E0
:104E600007E097F833300133DBB25AB2BB6B83F8FB
:104E700045200123FB6301E00023FB637B6B7B6127
:104E80007B6983F3118800BFFB6B18464037BD4632
:104E900080BD000080B58CB000AFF860B9607A606A
:104EA0000023FB62FB68BB62BB6A002B0AD14FF098
:104EB000500383F31188BFF36F8FBFF34F8F3B62B3
:104EC00000BFFEE7BB68002B03D1BB6A1B6C002B45
:104ED00001D1012300E00023002B0AD14FF0500341
:104EE00083F31188BFF36F8FBFF34F8FFB6100BF58
:104EF000FEE701F0EDF80346002B02D17B68002BA2
:104F000001D1012300E00023002B0AD14FF0500310
:104F100083F31188BFF36F8FBFF34F8FBB6100BF67
:104F2000FEE701F02FFEBB6A9B6B7B627B6A002B66
:104F30001FD0B968B86A00F0B3F97B6A5A1EBB6A21
:104F40009A63BB6A1B69002B0FD0BB6A10331846EB
:104F500000F0FCFE0346002B07D03D4B4FF0805283
:104F60001A60BFF34F8FBFF36F8F01F03BFE012339
:104F700069E07B68002B03D101F034FE002362E07E
:104F8000FB6A002B06D107F11003184600F042FF20
:104F90000123FB6201F026FE00F0AEFC01F0F2FD01
:104FA000BB6A93F844305BB2B3F1FF3F03D1BB6AF5
:104FB000002283F84420BB6A93F845305BB2B3F11A
:104FC000FF3F03D1BB6A002283F8452001F00AFEAF
:104FD0003A1D07F110031146184600F031FF034651
:104FE000002B23D1B86A00F0D3F90346002B17D069
:104FF000BB6A24337A681146184600F057FEB86A37
:1050000000F074F900F086FC0346002B89D1104BA8
:105010004FF080521A60BFF34F8FBFF36F8F80E75E
:10502000B86A00F063F900F075FC7AE7B86A00F03E
:105030005DF900F06FFCB86A00F0AAF90346002B96
:105040003FF46FAF002318463037BD4680BD00BF28
:1050500004ED00E080B58EB000AFF860B9607A6012
:10506000FB683B633B6B002B0AD14FF0500383F38B
:105070001188BFF36F8FBFF34F8F3B6200BFFEE716
:10508000BB68002B03D13B6B1B6C002B01D10123B0
:1050900000E00023002B0AD14FF0500383F3118866
:1050A000BFF36F8FBFF34F8FFB6100BFFEE701F0CF
:1050B0004BFEEFF311824FF0500383F31188BFF3DF
:1050C0006F8FBFF34F8FBA617B61BB69FB623B6B34
:1050D0009B6BBB62BB6A002B2FD03B6B93F84430B9
:1050E00087F82730B968386B00F0DAF8BB6A5A1EC7
:1050F0003B6B9A6397F92730B3F1FF3F12D13B6BBB
:105100001B69002B16D03B6B1033184600F01EFEB7
:105110000346002B0ED07B68002B0BD07B6801224E
:105120001A6007E097F827300133DBB25AB23B6BC5
:1051300083F8442001237B6301E000237B63FB6A47
:105140003B613B6983F3118800BF7B6B184638379E
:10515000BD4680BD80B584B000AF78607B68002B11
:105160000AD14FF0500383F31188BFF36F8FBFF361
:105170004F8FBB6000BFFEE701F004FD7B689B6BB7
:10518000FB6001F02FFDFB6818461037BD4680BD5F
:1051900080B487B000AF78607B687B617B69002B4F
:1051A0000AD14FF0500383F31188BFF36F8FBFF321
:1051B0004F8FFB6000BFFEE77B699B6B3B613B69E8
:1051C00018461C37BD465DF8047B704780B586B035
:1051D00000AFF860B9607A6000237B61FB689B6B6D
:1051E0003B61FB681B6C002B0DD1FB681B68002B1F
:1051F0004DD1FB689B68184600F088FF7861FB681A
:1052000000229A6043E07B68002B19D1FB68586844
:10521000FB681B6C1A46B96802F0E3F8FB685A6831
:10522000FB681B6C1A44FB685A60FB685A68FB6891
:105230009B689A422BD3FB681A68FB685A6026E089
:10524000FB68D868FB681B6C1A46B96802F0C9F89D
:10525000FB68DA68FB681B6C5B421A44FB68DA6027
:10526000FB68DA68FB681B689A4207D2FB689A6899
:10527000FB681B6C5B421A44FB68DA607B68022B9C
:1052800005D13B69002B02D03B69013B3B613B6987
:105290005A1CFB689A637B6918461837BD4680BD67
:1052A00080B582B000AF786039607B681B6C002BE2
:1052B00018D07B68DA687B681B6C1A447B68DA60FC
:1052C0007B68DA687B689B689A4203D37B681A68BC
:1052D0007B68DA607B68D9687B681B6C1A46386823
:1052E00002F07FF800BF0837BD4680BD80B584B0AE
:1052F00000AF786001F046FC7B6893F84530FB73A3
:1053000011E07B685B6A002B12D07B68243318465F
:1053100000F01CFD0346002B01D000F0F3FDFB7BE9
:10532000013BDBB2FB7397F90F30002BE9DC00E0A7
:1053300000BF7B68FF2283F8452001F053FC01F099
:1053400021FC7B6893F84430BB7311E07B681B69D8
:10535000002B12D07B681033184600F0F7FC034690
:10536000002B01D000F0CEFDBB7B013BDBB2BB7359
:1053700097F90E30002BE9DC00E000BF7B68FF22CC
:1053800083F8442001F02EFC00BF1037BD4680BDDD
:1053900080B584B000AF786001F0F4FB7B689B6B54
:1053A000002B02D10123FB6001E00023FB6001F030
:1053B00019FCFB6818461037BD4680BD80B584B027
:1053C00000AF786001F0DEFB7B689A6B7B68DB6B7B
:1053D0009A4202D10123FB6001E00023FB6001F04F
:1053E00001FCFB6818461037BD4680BD80B485B00F
:1053F00000AF786039600023FB6014E00F4AFB685F
:1054000052F83330002B0BD10C49FB683A6841F855
:1054100033200A4AFB68DB0013447A685A6006E0CE
:10542000FB680133FB60FB68072BE7D900BF00BFB7
:105430001437BD465DF8047B704700BF640A002046
:1054400080B586B000AFF860B9607A60FB687B61B8
:1054500001F098FB7B6993F844305BB2B3F1FF3FF6
:1054600003D17B69002283F844207B6993F845309F
:105470005BB2B3F1FF3F03D17B69002283F8452083
:1054800001F0B0FB7B699B6B002B06D17B69243359
:105490007A68B968184600F02DFC7869FFF726FF96
:1054A00000BF1837BD4680BD80B58EB004AFF86030
:1054B000B9607A603B607B6B002B0AD14FF05003E0
:1054C00083F31188BFF36F8FBFF34F8F3B6200BF31
:1054D000FEE7BB6B002B0AD14FF0500383F311881A
:1054E000BFF36F8FBFF34F8FFB6100BFFEE7BC239D
:1054F0003B613B69BC2B0AD04FF0500383F311880A
:10550000BFF36F8FBFF34F8FBB6100BFFEE73B69F7
:10551000BB6B002B1ED07B6B002B1BD0BB6B7B624D
:105520007B6A7A6B1A637B6A022283F8B9200023B4
:1055300003937B6A029307F1140301933B6B00937F
:105540003B687A68B968F86800F050F8786A00F04B
:10555000F3F801E000237B617B6918462837BD46DC
:1055600080BD80B58CB004AFF860B9603B60134675
:10557000FB80FB889B00184601F026FC78617B6964
:10558000002B0ED0BC2001F01FFCF861FB69002B42
:1055900003D0FB697A691A6305E0786901F0E0FCE1
:1055A00001E00023FB61FB69002B17D0FB6900229F
:1055B00083F8B920FA8800230393FB690293FB6AFE
:1055C0000193BB6A00933B68B968F86800F00EF875
:1055D000F86900F0B1F80123BB6102E04FF0FF333E
:1055E000BB61BB6918462037BD4680BD80B588B019
:1055F00000AFF860B9607A603B603B6B186B7B680A
:105600009B001A46A52101F0FAFE3B6B1A6B7B68E2
:1056100003F18043013B9B001344BB61BB6923F052
:105620000703BB61BB6903F00703002B0AD04FF0EF
:10563000500383F31188BFF36F8FBFF34F8F7B61EC
:1056400000BFFEE7BB68002B1FD00023FB6112E008
:10565000BA68FB69134419783A6BFB691344343315
:105660000A461A70BA68FB6913441B78002B06D0EF
:10567000FB690133FB61FB690F2BE9D900E000BF37
:105680003B6B002283F8432003E03B6B002283F84E
:105690003420BB6A372B01D93723BB623B6BBA6A14
:1056A000DA623B6BBA6ADA643B6B00221A653B6BC9
:1056B00004331846FFF782F83B6B18331846FFF7A0
:1056C0007DF83B6B3A6B1A61BB6AC3F138023B6BE6
:1056D0009A613B6B3A6B5A623B6B0022C3F8B42071
:1056E0003B6B002283F8B8203B6B543360220021CF
:1056F000184601F084FE3B6B0C4A9A653B6B0C4AE2
:10570000DA653B6B0B4A1A663A68F968B86901F0CA
:105710000DF902463B6B1A60FB6A002B02D0FB6A54
:105720003A6B1A6000BF2037BD4680BDF89F000865
:1057300018A00008D89F000880B582B000AF78603C
:1057400001F020FA2D4B1B6801332C4A13602C4BBF
:105750001B68002B09D12A4A7B681360274B1B6802
:10576000012B10D100F0F2FB0DE0264B1B68002B43
:1057700009D1234B1B68DA6A7B68DB6A9A4202D83C
:105780001F4A7B681360204B1B6801331E4A13605D
:105790001D4B1A687B685A647B68DA6A1B4B1B686E
:1057A0009A4203D97B68DB6A184A13607B68DA6A1D
:1057B00013469B0013449B00154A1A447B6804332C
:1057C00019461046FFF707F801F00CFA0D4B1B685D
:1057D000002B0ED00A4B1B68DA6A7B68DB6A9A42A0
:1057E00007D20C4B4FF080521A60BFF34F8FBFF3BC
:1057F0006F8F00BF0837BD4680BD00BF780F002007
:10580000A40A0020840F0020940F0020800F0020A5
:10581000A80A002004ED00E080B58AB004AF0023A0
:10582000BB6000237B603A46391D07F10803184628
:10583000FEF770FF39687B68BA6802920193002313
:10584000009300230A4624492448FFF72DFE03460F
:10585000234A1360224B1B68002B02D001237B617B
:1058600001E000237B617B69012B02D100F010FD78
:1058700078617B69012B1BD14FF0500383F31188B2
:10588000BFF36F8FBFF34F8F3B6100BF154B1B689A
:105890005433154A1360154B4FF0FF321A60144B06
:1058A00001221A60134B00221A6001F0C9F80EE0C1
:1058B0007B69B3F1FF3F0AD14FF0500383F31188A6
:1058C000BFF36F8FBFF34F8FFB6000BFFEE700BFDA
:1058D0001837BD4680BD00BFF49E00081D5F00085C
:1058E0009C0F0020A40A002014000020980F002024
:1058F000840F00207C0F002080B400AF044B1B6895
:105900000133034A136000BFBD465DF8047B704756
:10591000A00F002080B584B000AF0023FB600023FF
:10592000BB60424B1B68002B0AD14FF0500383F33E
:105930001188BFF36F8FBFF34F8F3B6000BFFEE74F
:1059400001F020F9394B1B68013B384A1360374B93
:105950001B68002B62D1364B1B68002B5ED02FE0FA
:10596000344BDB68DB68FB60FB6818331846FEF7D6
:105970008FFFFB6804331846FEF78AFFFB68DA6A7C
:105980002D4B1B689A4203D9FB68DB6A2A4A1360D5
:10599000FB68DA6A13469B0013449B00274A1A44AB
:1059A000FB68043319461046FEF715FFFB68DA6AF8
:1059B000234B1B68DB6A9A4202D3224B01221A60F6
:1059C0001C4B1B68002BCBD1FB68002B01D000F0D7
:1059D0005FFB1D4B1B687B607B68002B10D000F0C9
:1059E00047F80346002B02D0164B01221A607B6851
:1059F000013B7B607B68002BF1D1134B00221A60C6
:105A0000104B1B68002B09D00123BB600F4B4FF0DC
:105A100080521A60BFF34F8FBFF36F8F01F0E2F82F
:105A2000BB6818461037BD4680BD00BFA00F0020E0
:105A3000780F0020380F0020800F0020A80A0020D7
:105A4000A40A00208C0F0020880F002004ED00E045
:105A500080B483B000AF054B1B687B607B68184641
:105A60000C37BD465DF8047B704700BF7C0F0020FB
:105A700080B586B000AF00237B614F4B1B68002BC5
:105A800040F08F804D4B1B6801333B614B4A3B69B3
:105A900013603B69002B20D1494B1B681B68002B0E
:105AA0000AD04FF0500383F31188BFF36F8FBFF319
:105AB0004F8F3B6000BFFEE7414B1B68FB60414BD3
:105AC0001B683F4A13603F4AFB6813603E4B1B68EC
:105AD00001333D4A136000F0DBFA3C4B1B683A6926
