:020000040800F2
:1000000000800120C11400088D1300089B13000814
:10001000A1130008A7130008AD130008000000009A
:10002000000000000000000000000000B313000802
:10003000C113000800000000CF130008DD13000802
:1000400011150008111500081115000811150008F8
:1000500011150008111500081115000811150008E8
:1000600011150008111500081115000811150008D8
:1000700011150008111500081115000811150008C8
:1000800011150008111500081115000811150008B8
:1000900011150008111500081115000811150008A8
:1000A0001115000811150008111500081115000898
:1000B0001115000811150008111500081115000888
:1000C0001115000811150008111500081115000878
:1000D0001115000811150008111500081115000868
:1000E0001115000811150008111500081115000858
:1000F0001115000811150008111500081115000848
:100100001115000811150008111500081115000837
:100110001115000811150008111500081115000827
:100120001115000811150008111500081115000817
:100130001115000811150008111500081115000807
:1001400011150008111500081115000811150008F7
:1001500011150008111500081115000811150008E7
:1001600011150008111500081115000811150008D7
:1001700011150008111500081115000800000000F5
:0801800011150008111500081B
:1001900010B5054C237833B9044B13B10448AFF3C1
:1001A00000800123237010BD7C00002000000000AF
:1001B000DC63000808B5034B1BB103490348AFF3E8
:1001C000008008BD0000000080000020DC63000803
:1001D000034613F8012B002AFBD1181A0138704787
:1001E00001F0FF01102A2BDB10F0070F08D010F8E8
:1001F000013B013A8B422DD010F0070F42B3F6D1EC
:10020000F0B441EA012141EA014122F007047FF004
:1002100000070023F0E80256083C85EA010586EA5B
:10022000010685FA47F5A3FA87F586FA47F6A5FA97
:1002300087F68EB9EED1F0BC01F0FF0102F00702A3
:1002400032B110F8013B013A83EA010313B1F8D14E
:100250000020704701387047002D06BF354603382F
:10026000073815F0010F07D1013015F4807F02BF68
:10027000013015F4C03F0130F0BC0138704700BFB9
:1002800053B94AB9002908BF00281CBF4FF0FF31FD
:100290004FF0FF3000F074B9ADF1080C6DE904CEF9
:1002A00000F006F8DDF804E0DDE9022304B0704751
:1002B0002DE9F047089D04468E46002B4DD18A4219
:1002C000944669D9B2FA82F252B101FA02F3C2F14C
:1002D000200120FA01F10CFA02FC41EA030E9440DD
:1002E0004FEA1C48210CBEFBF8F61FFA8CF708FBFE
:1002F00016E341EA034306FB07F199420AD91CEBD6
:10030000030306F1FF3080F01F81994240F21C8107
:10031000023E63445B1AA4B2B3FBF8F008FB10334F
:1003200044EA034400FB07F7A7420AD91CEB040484
:1003300000F1FF3380F00A81A74240F20781644454
:10034000023840EA0640E41B00261DB1D4400023D9
:10035000C5E900433146BDE8F0878B4209D9002D3D
:1003600000F0EF800026C5E9000130463146BDE8C7
:10037000F087B3FA83F6002E4AD18B4202D3824231
:1003800000F2F980841A61EB030301209E46002DE0
:10039000E0D0C5E9004EDDE702B9FFDEB2FA82F235
:1003A000002A40F09280A1EB0C014FEA1C471FFA93
:1003B0008CFE0126200CB1FBF7F307FB131140EA7A
:1003C00001410EFB03F0884208D91CEB010103F147
:1003D000FF3802D2884200F2CB804346091AA4B209
:1003E000B1FBF7F007FB101144EA01440EFB00FEDD
:1003F000A64508D91CEB040400F1FF3102D2A64542
:1004000000F2BB800846A4EB0E0440EA03409CE7E0
:10041000C6F12007B34022FA07FC4CEA030C20FA8D
:1004200007F401FA06F31C43F9404FEA1C4900FAAD
:1004300006F3B1FBF9F8200C1FFA8CFE09FB18112A
:1004400040EA014108FB0EF0884202FA06F20BD99D
:100450001CEB010108F1FF3A80F08880884240F2ED
:100460008580A8F102086144091AA4B2B1FBF9F031
:1004700009FB101144EA014100FB0EFE8E4508D92C
:100480001CEB010100F1FF346CD28E456AD90238B1
:10049000614440EA0840A0FB0294A1EB0E01A14296
:1004A000C846A64656D353D05DB1B3EB080261EB04
:1004B0000E0101FA07F722FA06F3F1401F43C5E9DE
:1004C000007100263146BDE8F087C2F12003D84014
:1004D0000CFA02FC21FA03F3914001434FEA1C4756
:1004E0001FFA8CFEB3FBF7F007FB10360B0C43EA48
:1004F000064300FB0EF69E4204FA02F408D91CEBF8
:10050000030300F1FF382FD29E422DD902386344F5
:100510009B1B89B2B3FBF7F607FB163341EA034195
:1005200006FB0EF38B4208D91CEB010106F1FF38E4
:1005300016D28B4214D9023E6144C91A46EA0046DB
:1005400038E72E46284605E70646E3E61846F8E66D
:100550004B45A9D2B9EB020864EB0C0E0138A3E7B6
:100560004646EAE7204694E74046D1E7D0467BE797
:10057000023B614432E7304609E76444023842E70F
:10058000704700BF80B500AF00F0C4FF00F04EF927
:1005900000F086FA00F054FA00F09AF900F010FA30
:1005A00000F0ECFA0021082000F052FC01229049F2
:1005B000904800F0E3FC00F0A5FB1421002000F0BF
:1005C00047FC01228A498C4800F0D8FC2A210020EF
:1005D00000F03EFC01228649884800F0CFFC00F084
:1005E00091FB874801F070FB4FF0FF31844801F028
:1005F00025FC834801F0FAFC03469AB2814B1A802D
:100600001421462000F024FC7E4B1B887E4AA2FB6E
:1006100003239B099BB2DBB23033DBB20122744966
:10062000184600F02BFC774B1B88774AA2FB03127D
:1006300092094FF47A7101FB02F29B1A9BB2734A42
:10064000A2FB03235B099BB2DBB23033DBB2012296
:100650006749184600F012FC6A4B1B886B4AA2FBE4
:1006600003125209642101FB02F29B1A9BB2684AF1
:10067000A2FB0323DB089BB2DBB23033DBB20122E7
:100680005B49184600F0FAFB5E4B1A88604BA3FBEF
:100690000213D9080B469B000B445B00D31A9BB294
:1006A000DBB23033DBB201225149184600F0E6FBE1
:1006B000544B1B881A4640F24D1302FB03F3002BE8
:1006C00001DA03F6FF731B1307EE903AF8EEE77AB0
:1006D000504BC3ED007A2A21462000F0B9FB4D4B68
:1006E000D3ED007AFDEEE77A17EE901A474B83FBC5
:1006F00001235A11CB17D31ADBB23033DBB20122FC
:100700003B49184600F0BAFB01223949424800F043
:1007100035FC404BD3ED007AFDEEE77A17EE902AD8
:100720003A4B83FB02135911D317CB1A642101FBF7
:1007300003F3D31A394A82FB03129210DB17D31A40
:10074000DBB23033DBB201222949184600F096FBB8
:10075000304BD3ED007AFDEEE77A17EE901A2F4B6F
:1007600083FB01239A10CB17D21A13469B00134424
:100770005B00CA1AD3B23033DBB201221C491846DF
:1007800000F07CFB00F0BEFA1E4B1B881A46244981
:10079000244805F0B5F92348FFF71AFD03469AB23D
:1007A0004FF0FF331F49204804F07CFC4FF47A706F
:1007B00000F02CFF174BD3ED007AFCEEE77A17EE32
:1007C000903A9BB21A461649164805F099F9154811
:1007D000FFF7FEFC03469AB24FF0FF33114912486F
:1007E00004F060FC4FF47A7000F010FF01E700BFE6
:1007F00000000020F4630008006400080C64000896
:100800009800002008000020D34D62101F85EB5196
:10081000CDCCCCCCCC01002018640008676666669D
:100820001C640008D00100204801002080B596B06B
:1008300000AF07F1140344220021184605F058F9CF
:100840003B4600221A605A609A60DA601A614FF4DF
:10085000007003F0D9F80346002B01D000F086F9B0
:1008600002237B614FF480733B6210237B6202237F
:10087000FB6302233B6401237B640A23BB640723DD
:10088000FB6402233B6502237B6507F114031846D2
:1008900003F010F90346002B01D000F067F90F2395
:1008A0003B6003237B600023BB600023FB600023CD
:1008B0003B613B460421184603F0E4FC0346002B51
:1008C00001D000F053F900BF5837BD4680BD00008D
:1008D00080B58AB000AF07F11C0300221A605A608D
:1008E0009A603B1D00221A605A609A60DA601A61B1
:1008F0005A61304B304A1A602E4B00225A602D4B01
:1009000000229A602B4B0022DA602A4B00221A61E7
:10091000284B08225A61274B00221A76254B0122C8
:100920005A76244B0122DA61224B002283F82020E0
:10093000204B00229A621F4B0022DA621D4B0022DC
:1009400083F830201B4B4FF480525A63194B00221E
:1009500083F83820174801F061F80346002B01D0D6
:1009600000F004F90023FB6107F11C03194611484C
:1009700001F0C2FF0346002B01D000F0F7F80F4B47
:100980007B600623BB600023FB607F233B61042365
:100990007B610023BB613B1D1946064801F034FB17
:1009A0000346002B01D000F0E1F800BF2837BD4618
:1009B00080BD00BF980000200000045002003004F9
:1009C00080B500AF1B4B1C4A1A601A4B1B4A5A6079
:1009D000184B00229A60174B0122DA60154B002257
:1009E0001A61144B00225A61124B00229A61114B7A
:1009F0000022DA610F4B00221A620E4802F0D4FA8C
:100A00000346002B01D000F0B1F80021094802F0A4
:100A100055FF0346002B01D000F0A8F8002105483F
:100A200002F097FF0346002B01D000F09FF800BFB3
:100A300080BD00BFFC0000200054004091297000E0
:100A400080B500AF144B154A1A60134B4FF4E132D6
:100A50005A60114B00229A600F4B0022DA600E4B55
:100A600000221A610C4B0C225A610B4B00229A6136
:100A7000094B0022DA61084B00221A62064B002261
:100A80005A62054804F0C0FA0346002B01D000F07A
:100A90006DF800BF80BD00BF480100200044004049
:100AA00080B58AB000AF07F1140300221A605A60C3
:100AB0009A60DA601A612B4BDB6C2A4A43F004031C
:100AC000D364284BDB6C03F004033B613B69254B8B
:100AD000DB6C244A43F08003D364224BDB6C03F0CD
:100AE0008003FB60FB681F4BDB6C1E4A43F0010375
:100AF000D3641C4BDB6C03F00103BB60BB68194B78
:100B0000DB6C184A43F00203D364164BDB6C03F032
:100B100002037B607B68002220214FF0904002F0AE
:100B20002BFA4FF400537B614FF40413BB61002395
:100B3000FB6107F1140319460B4802F073F82023F8
:100B40007B610123BB610023FB6100233B6207F152
:100B5000140319464FF0904002F064F800BF2837A4
:100B6000BD4680BD001002400008004880B400AFC0
:100B700000BFBD465DF8047B7047000080B582B0C1
:100B800000AF00F021FA44F62063012278215B488F
:100B900002F08EFB0346002B01D00023A9E040F6B3
:100BA000C4137B6002E07B68013B7B607B68002BA9
:100BB000F9D1AE220021782000F082FA2022002113
:100BC000782000F07DFA10220021782000F078FAD9
:100BD000B0220021782000F073FAC822002178208A
:100BE00000F06EFA00220021782000F069FA10224D
:100BF0000021782000F064FA40220021782000F0E3
:100C00005FFA81220021782000F05AFAFF220021A9
:100C1000782000F055FAA1220021782000F050FA47
:100C2000A6220021782000F04BFAA822002178208B
:100C300000F046FA3F220021782000F041FAA42279
:100C40000021782000F03CFAD3220021782000F027
:100C500037FA00220021782000F032FAD522002154
:100C6000782000F02DFAF0220021782000F028FAF8
:100C7000D9220021782000F023FA222200217820B6
:100C800000F01EFADA220021782000F019FA122270
:100C90000021782000F014FADB220021782000F0F7
:100CA0000FFA20220021782000F00AFA8D2200217C
:100CB000782000F005FA14220021782000F000FAD4
:100CC000AF220021782000F0FBF92E2200217820AD
:100CD00000F0F6F9002000F043F800F013F8084B9C
:100CE00000221A80064B00225A80054B01225A71BD
:100CF000012318460837BD4680BD00BFFC00002018
:100D0000D805002080B582B000AF0023FB711DE044
:100D1000FB79503BDBB21A460021782000F0D0F975
:100D200000220021782000F0CBF910220021782049
:100D300000F0C6F9FB79DB01084A1A448023402100
:100D4000782000F057F9FB790133FB71FB79072B11
:100D5000DED900BF00BF0837BD4680BDD8010020E6
:100D600080B582B000AF0346FB71FB79002B01D147
:100D7000002300E0FF234FF480621946034804F08B
:100D8000B7FE00BF0837BD4680BD00BFD8010020B8
:100D900080B483B000AF0346FB800B46BB80134694
:100DA000FB70FB887F2B48D8BB883F2B45D8264B50
:100DB0001B79002B06D0FB78002B0CBF01230023EE
:100DC000DBB2FB70FB78012B1AD1FA88BB88DB08F9
:100DD00098B20346DB0113441C4AD35C5AB2BB8869
:100DE00003F00703012101FA03F35BB2134359B285
:100DF000FA880346DB011344C9B2144AD1541DE0FA
:100E0000FA88BB88DB0898B20346DB0113440F4A1B
:100E1000D35C5AB2BB8803F00703012101FA03F344
:100E20005BB2DB435BB2134059B2FA880346DB0185
:100E30001344C9B2054AD15400E000BF0C37BD4687
:100E40005DF8047B704700BFD8050020D801002062
:100E500080B483B000AF03460A46FB801346BB80D4
:100E6000054AFB881380044ABB88538000BF0C37B7
:100E7000BD465DF8047B7047D805002080B586B07C
:100E800000AF03463960FB711346BB713A4B1B88B8
:100E90001A463B681B7813447F2B07DC364B5B8874
:100EA0001A463B685B7813443F2B01DD00235EE06C
:100EB00000237B614BE03B685A68FB79203B396833
:100EC000497801FB03F319467B690B445B0013442B
:100ED0001B88FB6000233B6130E0FA683B6902FA43
:100EE00003F303F40043002B10D0234B1A883B6913
:100EF0009BB2134498B2204B5A887B699BB213442F
:100F00009BB2BA791946FFF743FF14E01A4B1A88CF
:100F10003B699BB2134498B2174B5A887B699BB2CA
:100F2000134499B2BB79002B0CBF01230023DBB221
:100F30001A46FFF72DFF3B6901333B613B681B7885
:100F40001A463B699342C8D37B6901337B613B6896
:100F50005B781A467B699342ADD3074B1A883B688E
:100F60001B789BB213449AB2034B1A80FB79184644
:100F70001837BD4680BD00BFD805002080B584B0BD
:100F800000AFF860B9601346FB7112E0FB681B7894
:100F9000FA79B9681846FFF771FF03461A46FB68ED
:100FA0001B789A4202D0FB681B7808E0FB6801338B
:100FB000FB60FB681B78002BE8D1FB681B781846A8
:100FC0001037BD4680BD000080B483B000AF084B31
:100FD0007B6002E07B68013B7B607B68002BF9D182
:100FE00000BF00BF0C37BD465DF8047B704700BFF3
:100FF00090D0030090B5C7B002AF0446084607F58D
:101000008871A1F588710A60194607F58873A3F203
:10101000091322461A7007F58873A3F585730246F3
:101020001A7007F58873A3F586730A461A8007F5C8
:101030008873A3F5827307F58872A2F5857212781A
:101040001A70002387F80F3115E097F80F3107F574
:101050008872A2F5887212681A4497F80F3101332A
:10106000117807F58872A2F58272D15497F80F3182
:10107000013387F80F3197F80F319BB207F588726B
:10108000A2F5867212889A42DFD807F58873A3F218
:1010900009131B7899B207F58873A3F586731B882B
:1010A00001339BB207F10C020A200090034802F0C2
:1010B0000BF800BF07F58A77BD4690BDFC00002005
:1010C00080B586B002AF0346FB710B46BB71134679
:1010D0007B71BB793B737B797B73FB7999B207F1A9
:1010E0000C020A2300930223034801F0EDFF00BF26
:1010F0001037BD4680BD00BFFC00002080B483B027
:1011000000AF0F4B1B6E0E4A43F0010313660C4BEE
:101110001B6E03F001037B607B68094B9B6D084AE3
:1011200043F080539365064B9B6D03F080533B6007
:101130003B6800BF0C37BD465DF8047B704700BFBD
:101140000010024080B5ACB000AF786007F19C039E
:1011500000221A605A609A60DA601A6107F114037B
:1011600088220021184604F0C3FC7B681B68274ACC
:10117000934246D14FF480437B614FF08053C7F8D0
:101180008C300223BB610123FB6108233B620723F0
:101190007B620223BB620223FB624FF080733B63DE
:1011A00007F11403184603F073FA0346002B01D02D
:1011B000FFF7DCFC164BDB6C154A43F40053D36499
:1011C000134BDB6C03F400533B613B69104BDB6C4E
:1011D0000F4A43F00403D3640D4BDB6C03F00403AC
:1011E000FB60FB680123C7F89C300B23C7F8A030D5
:1011F0000023C7F8A43007F19C031946054801F005
:1012000011FD00BFB037BD4680BD00BF00000450D7
:10121000001002400008004880B5ACB000AF786014
:1012200007F19C0300221A605A609A60DA601A6122
:1012300007F1140388220021184604F059FC7B684A
:101240001B68214A93423AD140237B6100237B668D
:1012500007F11403184603F01BFA0346002B01D0D4
:10126000FFF784FC194BDB6C184A43F00203D3648C
:10127000164BDB6C03F002033B613B69C023C7F8EC
:101280009C301223C7F8A0300123C7F8A4300323F1
:10129000C7F8A8300423C7F8AC3007F19C031946FF
:1012A0000B4801F0BFFC094B9B6D084A43F4001347
:1012B0009365064B9B6D03F40013FB60FB6800BF56
:1012C000B037BD4680BD00BF005400400010024052
:1012D0000004004880B5ACB000AF786007F19C0313
:1012E00000221A605A609A60DA601A6107F11403EA
:1012F00088220021184604F0FBFB7B681B68214A0A
:1013000093423BD102237B6100233B6507F1140329
:10131000184603F0BDF90346002B01D0FFF726FC69
:10132000194B9B6D184A43F400339365164B9B6D24
:1013300003F400333B613B69134BDB6C124A43F00F
:101340000103D364104BDB6C03F00103FB60FB680B
:101350000C23C7F89C300223C7F8A0300023C7F83D
:10136000A4300323C7F8A8300723C7F8AC3007F12F
:101370009C0319464FF0904001F054FC00BFB03779
:10138000BD4680BD004400400010024080B400AF64
:1013900000BFBD465DF8047B704780B400AFFEE738
:1013A00080B400AFFEE780B400AFFEE780B400AFCA
:1013B000FEE780B400AF00BFBD465DF8047B704718
:1013C00080B400AF00BFBD465DF8047B704780B4B9
:1013D00000AF00BFBD465DF8047B704780B500AF2D
:1013E00000F0F4F800BF80BD80B586B000AF786033
:1013F000144A154BD31A7B617B693B61134B1B6805
:10140000002B02D1114B124A1A60104B1A687B68EC
:1014100013443A699A4207D204F040FB03460C2277
:101420001A604FF0FF3309E0084B1B68FB60074B65
:101430001A687B681344054A1360FB68184618371E
:10144000BD4680BD0080012000040000E0050020B2
:10145000F805002080B400AF174BD3F88830164A47
:1014600043F47003C2F88830144B1B68134A43F0EE
:1014700001031360114B00229A60104B1B680F4A46
:1014800023F0A85323F4102313600C4B4FF4805225
:10149000DA600A4B1B68094A23F480231360074B68
:1014A00000229A61044B4FF000629A6000BFBD4673
:1014B0005DF8047B704700BF00ED00E000100240C3
:1014C000DFF834D0FFF7C6FF002103E00B4B5B5879
:1014D000435004310A480B4B42189A42F6D30A4A49
:1014E00002E0002342F8043B084B9A42F9D304F08F
:1014F000DBFAFFF747F8FEE7008001200C720008D6
:10150000000000207C0000207C000020F805002066
:10151000FEE7000080B582B000AF0023FB710C4BEA
:101520001B680B4A43F480731360032001F046FBF1
:10153000002000F00FF80346002B02D00123FB71BE
:1015400001E0FFF7DBFDFB7918460837BD4680BD9B
:101550000020024080B584B000AF78600023FB73A8
:10156000174B1B78002B23D0164B1A68144B1B7893
:1015700019464FF47A73B3FBF1F3B2FBF3F3184659
:1015800001F043FB0346002B0FD17B680F2B09D8DA
:10159000002279684FF0FF3001F01BFB0A4A7B689C
:1015A000136007E00123FB7304E00123FB7301E0F8
:1015B0000123FB73FB7B18461037BD4680BD00BF7F
:1015C000140000200C0000201000002080B400AFA8
:1015D000064B1B781A46064B1B681344044A1360DB
:1015E00000BFBD465DF8047B704700BF14000020BB
:1015F000E405002080B400AF034B1B681846BD46CD
:101600005DF8047B704700BFE405002080B584B01E
:1016100000AF7860FFF7EEFFB8607B68FB60FB68A7
:10162000B3F1FF3F05D00A4B1B781A46FB68134401
:10163000FB6000BFFFF7DEFF0246BB68D31AFA6803
:101640009A42F7D800BF00BF1037BD4680BD00BF2B
:101650001400002080B483B000AF786039607B68EC
:101660009B6823F47C123B681A437B689A6000BF36
:101670000C37BD465DF8047B704780B483B000AF83
:10168000786039607B689B6823F0E0723B681A439E
:101690007B689A6000BF0C37BD465DF8047B7047DD
:1016A00080B483B000AF78607B689B6803F0E07320
:1016B00018460C37BD465DF8047B704780B487B090
:1016C00000AFF860B9607A603B60FB6860331A462F
:1016D000BB689B0013447B617B691A68084B13400D
:1016E0007A6802F0F8413A680A43134343F0004233
:1016F0007B691A6000BF1C37BD465DF8047B7047EC
:1017000000F0FF0380B485B000AF786039607B687B
:1017100060331A463B689B001344FB60FB681B6800
:1017200003F0F84318461437BD465DF8047B704754
:1017300080B487B000AFF860B9607A60FB6860334E
:101740001A46BB689B0013447B617B691B6823F0CE
:1017500000427B681A437B691A6000BF1C37BD4694
:101760005DF8047B704780B483B000AF78607B681D
:10177000DB6803F44063002B01D1012300E0002368
:1017800018460C37BD465DF8047B704780B487B0BF
:1017900000AFF860B9607A60FB6830331A46BB6806
:1017A0001B0A9B0003F00C0313447B617B691A68DE
:1017B000BB6803F01F031F2101FA03F3DB431A4048
:1017C0007B689B0E03F01F01BB6803F01F0301FA47
:1017D00003F31A437B691A6000BF1C37BD465DF8EE
:1017E000047B704780B487B000AFF860B9607A605E
:1017F000FB6814331A46BB685B0E9B0003F00403BE
:1018000013447B617B691A68BB681B0D03F01F03DF
:10181000072101FA03F3DB431A40BB681B0D03F0F9
:101820001F03796801FA03F31A437B691A6000BF4A
:101830001C37BD465DF8047B7047000080B485B05E
:1018400000AFF860B9607A60FB68D3F8B020BB687D
:10185000C3F31203DB431A407B6803F01803084903
:10186000D940BB680B40C3F312031A43FB68C3F8AB
:10187000B02000BF1437BD465DF8047B704700BF41
:10188000FFFF070080B483B000AF78607B689B687F
:1018900003F01F0318460C37BD465DF8047B704704
:1018A00080B483B000AF78607B689B6803F46043CA
:1018B00018460C37BD465DF8047B704780B483B092
:1018C00000AF78607B689B6823F0204323F03F03E0
:1018D0007A68936000BF0C37BD465DF8047B7047A3
:1018E00080B483B000AF78607B689B6803F00053DE
:1018F000B3F1005F01D1012300E0002318460C374B
:10190000BD465DF8047B704780B483B000AF78605B
:101910007B689B6823F0104323F03F0343F0805221
:101920007B689A6000BF0C37BD465DF8047B70474A
:1019300080B483B000AF78607B689B6803F080530D
:10194000B3F1805F01D1012300E0002318460C377A
:10195000BD465DF8047B704780B483B000AF78600B
:101960007B689B6823F0004323F03F0343F00102B0
:101970007B689A6000BF0C37BD465DF8047B7047FA
:1019800080B483B000AF78607B689B6803F001038C
:10199000012B01D1012300E0002318460C37BD467E
:1019A0005DF8047B704780B483B000AF78607B68DB
:1019B0009B6823F0004323F03F0343F004027B685D
:1019C0009A6000BF0C37BD465DF8047B704780B459
:1019D00083B000AF78607B689B6803F00403042B3E
:1019E00001D1012300E0002318460C37BD465DF805
:1019F000047B704780B483B000AF78607B689B68DD
:101A000003F00803082B01D1012300E0002318464E
:101A10000C37BD465DF8047B7047000090B589B077
:101A200000AF78600023FB770023BB607B68002B4E
:101A300001D1012336E17B681B69002B7B685B6D5C
:101A4000002B09D17868FFF77DFB7B6800229A653F
:101A50007B68002283F850207B681B681846FFF7DC
:101A60003FFF0346002B04D07B681B681846FFF736
:101A700025FF7B681B681846FFF75AFF0346002BBB
:101A800015D17B681B681846FFF73EFF874B1B6824
:101A90009B09874AA2FB03239B0901335B00BB60C0
:101AA00002E0BB68013BBB60BB68002BF9D17B68DF
:101AB0001B681846FFF73CFF0346002B0DD17B68DF
:101AC0005B6D43F010027B685A657B689B6D43F049
:101AD00001027B689A650123FB777B681B681846C7
:101AE000FFF775FF78617B685B6D03F01003002BD7
:101AF00040F0CF807B69002B40F0CB807B685B6D32
:101B000023F4817343F002027B685A657B681B688B
:101B10001846FFF735FF0346002B15D16548FFF740
:101B20002FFF04466448FFF72BFF03461C4363481E
:101B3000FFF726FF03462343002B05D17B685B6834
:101B400019465F48FFF786FD7B685B7E5A037B681A
:101B50005B6B1A437B68DB681A437B689B681A439C
:101B60007B6893F820301B041343BB617B6893F8B8
:101B70002030012B06D17B685B6A013B5B04BA69AC
:101B80001343BB617B689B6A002B09D07B689B6A0F
:101B900003F470727B68DB6A1343BA691343BB6159
:101BA0007B681B68DA68474B13407A681268B9692A
:101BB0000B43D3607B681B681846FFF708FF38614A
:101BC0007B681B681846FFF715FFF8603B69002B20
:101BD0003DD1FB68002B3AD17B681B7E9A037B6862
:101BE00093F830305B001343BB617B681B68DB6894
:101BF00023F4804323F002037A681268B9690B4327
:101C0000D3607B6893F83830012B18D17B681B6850
:101C10001B6923F4FF6323F004037A68D16B7A68AD
:101C2000126C11437A68526C11437A68926C0A43C1
:101C30001A437B681B6842F001021A6107E07B6867
:101C40001B681A697B681B6822F001021A617B68B5
:101C50001B69012B0CD17B681B681B6B23F00F01E8
:101C60007B68DB695A1E7B681B680A431A6307E0BE
:101C70007B681B681A6B7B681B6822F00F021A6373
:101C80007B685B6D23F0030343F001027B685A65B8
:101C900007E07B685B6D43F010027B685A650123A7
:101CA000FB77FB7F18462437BD4690BD0C00002013
:101CB000632D3E0500000450000104500002045052
:101CC0000003045007C0F0FF80B586B000AF786015
:101CD0005748FFF7D7FD38617B681B681846FFF748
:101CE00076FE0346002B40F09C807B6893F85030D2
:101CF000012B01D1022397E07B68012283F8502059
:101D0000786800F071FD0346FB75FB7D002B40F009
:101D100083807B685B6D23F4706323F0010343F4DD
:101D200080727B685A657B681B68424A934202D086
:101D30007B681B6800E0404B7A681268934202D0CF
:101D40003B69002B05D17B685B6D23F480127B68B7
:101D50005A657B685B6D03F48053B3F5805F06D1F1
:101D60007B689B6D23F006027B689A6502E07B68C6
:101D700000229A657B681B681C221A607B6800221F
:101D800083F850207B681B682A4A934202D07B6804
:101D90001B6800E0284B7A681268934208D03B69C0
:101DA000002B05D03B69052B02D03B69092B14D1D0
:101DB0007B681B68DB6803F00073002B07D07B682F
:101DC0005B6D23F4405343F480527B685A657B6813
:101DD0001B681846FFF7E7FD25E07B685B6D43F461
:101DE00080127B685A657B681B68124A934202D056
:101DF0007B681B6800E0104BFB60FB68DB6803F04E
:101E00000073002B0FD07B685B6D23F4405343F4C9
:101E100080527B685A6506E07B68002283F8502078
:101E200001E00223FB75FB7D18461837BD4680BDD7
:101E300000030450000104500000045080B588B035
:101E400000AF786039606648FFF71CFD78617B68F9
:101E50005B69082B02D10823FB612AE07B69002B18
:101E600005D07B69052B02D07B69092B11D17B68DA
:101E70001B68DB6803F00103002B07D07B685B6DF8
:101E800043F020027B685A650123A4E00423FB6130
:101E90000FE05348FFF704FD0346002B07D07B6893
:101EA0005B6D43F020027B685A65012393E00423B5
:101EB000FB61FFF79FFB386121E03B68B3F1FF3F17
:101EC0001DD0FFF797FB02463B69D31A3A689A4246
:101ED00002D33B68002B12D17B681B681A68FB6930
:101EE0001340002B0BD17B685B6D43F004027B68D1
:101EF0005A657B68002283F8502003236BE07B68DF
:101F00001B681A68FB691340002BD6D07B685B6D99
:101F100043F400727B685A657B681B681846FFF7BC
:101F200022FC0346002B1CD07B685B7E002B18D163
:101F30007B681B681B6803F00803082B11D17B68C2
:101F40005B6D23F480727B685A657B685B6D03F47C
:101F50008053002B05D17B685B6D43F001027B68E9
:101F60005A657B681B681F4A934202D07B681B68D6
:101F700000E01D4B7A681268934208D07B69002B01
:101F800005D07B69052B02D07B69092B04D17B68C6
:101F90001B68DB68BB610CE07B681B68114A9342DD
:101FA00002D07B681B6800E00F4BFB60FB68DB68BE
:101FB000BB61FB69082B04D17B681B6808221A608F
:101FC00008E0BB6903F48043002B03D17B681B68E6
:101FD0000C221A60002318462037BD4680BD00BF82
:101FE00000030450000104500000045080B483B08A
:101FF00000AF78607B681B681B6C18460C37BD46C9
:102000005DF8047B7047000080B5B6B000AF786023
:102010003960002387F8D7300023FB607B6893F892
:102020005030012B01D10223C7E37B68012283F8E2
:1020300050207B681B681846FFF7C9FC0346002B3D
:1020400040F0A8833B685B68052B24D83B685B683D
:10205000023B032B1BD801A252F823F06D2000088D
:10206000752000087D200008852000083B680C22B0
:102070005A6011E03B6812225A600DE03B6818225A
:102080005A6009E03B684FF480725A6004E03B6894
:1020900006225A6000E000BF7B6818683B685968F8
:1020A0003B681B681A46FFF771FB7B681B68184684
:1020B000FFF78DFCC7F8D0007B681B681846FFF758
:1020C00099FCC7F8CC00D7F8D030002B40F0A6819F
:1020D000D7F8CC30002B40F0A1817B6818683B68B2
:1020E00019683B689B681A46FFF77CFB3B685A6996
:1020F0007B681B68DB68DB0803F003035B0002FA04
:1021000003F3C7F8C8303B681B69042B0AD07B680F
:1021100018683B6819693B681A68D7F8C830FFF738
:10212000CDFA7BE17B681B6800211846FFF7EAFACD
:102130000346C3F31203002B0AD17B681B680021FE
:102140001846FFF7DFFA03469B0E03F01F021EE05E
:102150007B681B6800211846FFF7D4FA0346C7F8CE
:10216000BC30D7F8BC3093FAA3F3C7F8B830D7F82F
:10217000B830C7F8C030D7F8C030002B01D12023C9
:1021800004E0D7F8C030B3FA83F3DBB21A463B68F9
:102190001B68C3F31203002B05D13B681B689B0E21
:1021A00003F01F0318E03B681B68C7F8B030D7F88E
:1021B000B03093FAA3F3C7F8AC30D7F8AC30C7F817
:1021C000B430D7F8B430002B01D1202304E0D7F885
:1021D000B430B3FA83F3DBB29A4206D17B681B6852
:1021E000002200211846FFF7A3FA7B681B68012133
:1021F0001846FFF787FA0346C3F31203002B0AD1F0
:102200007B681B6801211846FFF77CFA03469B0E8A
:1022100003F01F021EE07B681B6801211846FFF7D0
:1022200071FA0346C7F8A430D7F8A43093FAA3F3A1
:10223000C7F8A030D7F8A030C7F8A830D7F8A83032
:10224000002B01D1202304E0D7F8A830B3FA83F3A0
:10225000DBB21A463B681B68C3F31203002B05D19F
:102260003B681B689B0E03F01F0318E03B681B686C
:10227000C7F89830D7F8983093FAA3F3C7F894309A
:10228000D7F89430C7F89C30D7F89C30002B01D198
:10229000202304E0D7F89C30B3FA83F3DBB29A42F0
:1022A00006D17B681B68002201211846FFF740FA1F
:1022B0007B681B6802211846FFF724FA0346C3F324
:1022C0001203002B0AD17B681B6802211846FFF716
:1022D00019FA03469B0E03F01F021EE07B681B6881
:1022E00002211846FFF70EFA0346C7F88C30D7F8DC
:1022F0008C3093FAA3F3C7F88830D7F88830C7F842
:102300009030D7F89030002B01D1202304E0D7F88B
:102310009030B3FA83F3DBB21A463B681B68C3F311
:102320001203002B05D13B681B689B0E03F01F03B3
:1023300016E03B681B68C7F88030D7F8803093FA06
:10234000A3F3FB67FB6FC7F88430D7F88430002B0A
:1023500001D1202304E0D7F88430B3FA83F3DBB251
:102360009A4206D17B681B68002202211846FFF7BB
:10237000DFF97B681B6803211846FFF7C3F90346A2
:10238000C3F31203002B0AD17B681B680321184694
:10239000FFF7B8F903469B0E03F01F0217E07B68B6
:1023A0001B6803211846FFF7ADF903467B677B6F77
:1023B00093FAA3F33B673B6FBB67BB6F002B01D165
:1023C000202303E0BB6FB3FA83F3DBB21A463B680A
:1023D0001B68C3F31203002B05D13B681B689B0EDF
:1023E00003F01F0311E03B681B68BB66BB6E93FAEA
:1023F000A3F37B667B6EFB66FB6E002B01D1202373
:1024000003E0FB6EB3FA83F3DBB29A4206D17B683A
:102410001B68002203211846FFF78AF97B681B68B6
:102420001846FFF7ADFA0346002B40F03F817B686A
:1024300018683B6819683B68DB681A46FFF7FEF9C5
:102440003B68DB688E4A934240F030817B681868B5
:102450003B681B68C3F31203002B0BD13B681B685E
:102460009B0E013303F01F03092B94BF01230023AC
:10247000DBB219E03B681B68FB65FB6D93FAA3F3C5
:10248000BB65BB6D3B663B6E002B01D1202303E097
:102490003B6EB3FA83F3DBB2013303F01F03092B66
:1024A00094BF01230023DBB2002B79D03B681B686B
:1024B000C3F31203002B07D13B681B689B0E01334B
:1024C0009B0603F0F84215E03B681B683B653B6DDB
:1024D00093FAA3F3FB64FB6C7B657B6D002B01D14E
:1024E000202303E07B6DB3FA83F3DBB201339B0659
:1024F00003F0F8423B681B68C3F31203002B09D1B9
:102500003B681B689B0E013303F01F03012101FA96
:1025100003F317E03B681B687B647B6C93FAA3F3BF
:102520003B643B6CBB64BB6C002B01D1202303E0FC
:10253000BB6CB3FA83F3DBB2013303F01F03012159
:1025400001FA03F342EA03013B681B68C3F3120379
:10255000002B0AD13B681B689B0E013303F01F025E
:1025600013465B0013441B0518E03B681B68BB6304
:10257000BB6B93FAA3F37B637B6BFB63FB6B002B5F
:1025800001D1202303E0FB6BB3FA83F3DBB2013309
:1025900003F01F0213465B0013441B050B4380E04E
:1025A0003B681B68C3F31203002B07D13B681B6811
:1025B0009B0E01339B0603F0F84215E03B681B6855
:1025C000FB62FB6A93FAA3F3BB62BB6A3B633B6BA0
:1025D000002B01D1202303E03B6BB3FA83F3DBB282
:1025E00001339B0603F0F8423B681B68C3F31203F8
:1025F000002B09D13B681B689B0E013303F01F03BE
:10260000012101FA03F317E03B681B683B623B6A58
:1026100093FAA3F3FB61FB697B627B6A002B01D118
:10262000202303E07B6AB3FA83F3DBB2013303F0C8
:102630001F03012101FA03F342EA03013B681B680F
:10264000C3F31203002B0DD13B681B689B0E0133B3
:1026500003F01F0213465B0013441E3B1B0543F0AF
:1026600000731DE03B681B687B617B6993FAA3F3F1
:102670003B613B69BB61BB69002B03D1202305E0B3
:1026800000007F40BB69B3FA83F3DBB2013303F090
:102690001F0213465B0013441E3B1B0543F00073EF
:1026A0000B433A6892681946FFF79CF83B681A6832
:1026B000444B1340002B7AD04348FEF7F1FFC7F894
:1026C000C4003B681B68414A93422CD1D7F8C43000
:1026D00003F40003002B26D17B681B683C4A93421D
:1026E00004D07B681B683B4A93425DD1D7F8C43065
:1026F00043F4000319463448FEF7BFFF364B1B680E
:102700009B09364AA2FB03239B095A1C13465B0014
:1027100013449B00FB6002E0FB68013BFB60FB682D
:10272000002BF9D140E03B681B682D4A934218D139
:10273000D7F8C43003F08073002B12D17B681B687C
:10274000234A934204D07B681B68224A93422DD1CE
:10275000D7F8C43043F0807319461B48FEF78DFF4D
:1027600024E03B681B681F4A934220D1D7F8C4304D
:1027700003F48003002B1AD17B681B68144A934230
:1027800015D1D7F8C43043F4800319460E48FEF73C
:1027900074FF0CE07B685B6D43F020027B685A6538
:1027A000012387F8D73002E000BF00E000BF7B685C
:1027B000002283F8502097F8D7301846D837BD4606
:1027C00080BD00BF0000088000030450000052C715
:1027D00000000450000204500C000020632D3E0550
:1027E000000084CB0100008080B584B000AF786029
:1027F0007B681B681846FFF7C3F80346002B4DD1D2
:102800007B681B689A68284B1340002B0DD07B68AF
:102810005B6D43F010027B685A657B689B6D43F0EB
:1028200001027B689A65012339E07B681B681846C2
:10283000FFF792F8FEF7DEFEF86028E07B681B6881
:102840001846FFF79DF80346002B04D17B681B68F0
:102850001846FFF781F8FEF7CDFE0246FB68D31A53
:10286000022B14D97B681B681B6803F00103012B42
:102870000DD07B685B6D43F010027B685A657B6806
:102880009B6D43F001027B689A65012307E07B683A
:102890001B681B6803F00103012BCFD100231846EE
:1028A0001037BD4680BD00BF3F00008080B483B0BC
:1028B00000AF78607B689B6803F00103012B01D1B6
:1028C000012300E0002318460C37BD465DF8047B69
:1028D000704780B483B000AF78607B689B6803F07A
:1028E0000403042B01D1012300E0002318460C3718
:1028F000BD465DF8047B704790B59FB000AF78602F
:102900003960002387F877307B6893F85030012BCB
:1029100001D1022393E07B68012283F85020002339
:10292000FB6500233B667B681B68474A934202D1E4
:10293000464BBB6001E00023BB60BB68002B0BD1A2
:102940007B685B6D43F020027B685A657B680022E0
:1029500083F85020012372E0BB681846FFF7B9FFE7
:1029600038677B681B681846FFF7B3FF0346002BE8
:1029700054D13B6F002B51D1354BFB663B681B6834
:10298000002B2CD0FB6E9B6823F460423B68596897
:102990007B6893F830305B030B431A43FB6E9A60FD
:1029A0002948FFF783FF04462848FFF77FFF0346C7
:1029B0001C432848FFF77AFF03462343002B37D1F7
:1029C000FB6E9B6823F4716323F00F033A68116870
:1029D0003A6892680A431A43FB6E9A6028E0FB6EDD
:1029E0009B6823F46042FB6E9A601748FFF75EFF16
:1029F00004461648FFF75AFF03461C431548FFF7E5
:102A000055FF03462343002B12D1FB6E9B6823F432
:102A1000716323F00F03FA6E936009E07B685B6DCE
:102A200043F020027B685A65012387F8773000E085
:102A300000BF7B68002283F8502097F87730184653
:102A40007C37BD4690BD00BF00000450000104501B
:102A5000000304500002045080B485B000AF7860D9
:102A60007B6803F00703FB600C4BDB68BB60BA6854
:102A70004FF6FF031340BB60FB681A02BB681343A9
:102A800043F0BF6343F40033BB60044ABB68D360C8
:102A900000BF1437BD465DF8047B704700ED00E0D1
:102AA00080B400AF044BDB681B0A03F00703184631
:102AB000BD465DF8047B704700ED00E080B483B054
:102AC00000AF03463960FB7197F90730002B0ADB32
:102AD0003B68DAB20C4997F907301201D2B20B44C5
:102AE00083F800230AE03B68DAB20849FB7903F077
:102AF0000F03043B1201D2B20B441A7600BF0C370D
:102B0000BD465DF8047B704700E100E000ED00E0A9
:102B100080B489B000AFF860B9607A60FB6803F0F8
:102B20000703FB61FB69C3F10703042B28BF0423E0
:102B3000BB61FB690433062B02D9FB69033B00E050
:102B400000237B614FF0FF32BB6902FA03F3DA43E3
:102B5000BB681A407B699A404FF0FF317B6901FAEC
:102B600003F3D9437B680B40134318462437BD4613
:102B70005DF8047B7047000080B582B000AF7860DC
:102B80007B68013BB3F1807F01D301230FE00A4A48
:102B90007B68013B53600F214FF0FF30FFF78EFF42
:102BA000054B00229A60044B07221A600023184646
:102BB0000837BD4680BD00BF10E000E080B582B0A0
:102BC00000AF78607868FFF747FF00BF0837BD4661
:102BD00080BD80B586B000AF0346B9607A60FB73F4
:102BE00000237B61FFF75CFF78617A68B9687869D8
:102BF000FFF78EFF024697F90F3011461846FFF790
:102C00005DFF00BF1837BD4680BD80B582B000AF04
:102C100078607868FFF7B0FF034618460837BD466E
:102C200080BD000080B487B000AF786039600023B9
:102C30007B617FE13B681A6801217B6901FA03F33C
:102C40001340FB60FB68002B00F071813B685B6800
:102C500003F00303012B05D03B685B6803F003031B
:102C6000022B30D17B689B683B617B695B00032250
:102C700002FA03F3DB433A6913403B613B68DA68CD
:102C80007B695B0002FA03F33A6913433B617B689B
:102C90003A699A607B685B683B6101227B6902FA52
:102CA00003F3DB433A6913403B613B685B681B09F4
:102CB00003F001027B6902FA03F33A6913433B61B3
:102CC0007B683A695A603B685B6803F00303032B37
:102CD00018D17B68DB6A3B6101227B6902FA03F34E
:102CE000DB433A6913403B613B685B68DB0803F0F8
:102CF00001027B6902FA03F33A6913433B617B6883
:102D00003A69DA623B685B6803F00303032B17D070
:102D10007B68DB683B617B695B00032202FA03F39B
:102D2000DB433A6913403B613B689A687B695B000F
:102D300002FA03F33A6913433B617B683A69DA604C
:102D40003B685B6803F00303022B23D17B69DA083D
:102D50007B68083253F822303B617B6903F007033C
:102D60009B000F2202FA03F3DB433A6913403B61F5
:102D70003B681A697B6903F007039B0002FA03F3BF
:102D80003A6913433B617B69DA087B680832396929
:102D900043F822107B681B683B617B695B00032260
:102DA00002FA03F3DB433A6913403B613B685B681B
:102DB00003F003027B695B0002FA03F33A691343F1
:102DC0003B617B683A691A603B685B6803F4403397
:102DD000002B00F0AC805F4B1B6E5E4A43F001039A
:102DE00013665C4B1B6E03F00103BB60BB685A4A61
:102DF0007B699B08023352F823303B617B6903F007
:102E000003039B000F2202FA03F3DB433A691340EA
:102E10003B617B68B3F1904F25D07B684F4A93426A
:102E20001FD07B684E4A934219D07B684D4A93422B
:102E300013D07B684C4A93420DD07B684B4A934237
:102E400007D07B684A4A934201D106230CE007234E
:102E50000AE0052308E0042306E0032304E002233C
:102E600002E0012300E000237A6902F003029200ED
:102E700093403A6913433B6137497B699B080233AE
:102E80003A6941F823203B4B9B683B61FB68DB437D
:102E90003A6913403B613B685B6803F48013002B85
:102EA00003D03A69FB6813433B61324A3B69936044
:102EB000304BDB683B61FB68DB433A6913403B61A5
:102EC0003B685B6803F40013002B03D03A69FB688E
:102ED00013433B61274A3B69D360264B5B683B61E8
:102EE000FB68DB433A6913403B613B685B6803F472
:102EF0000033002B03D03A69FB6813433B611D4A42
:102F00003B6953601B4B1B683B61FB68DB433A69C1
:102F100013403B613B685B6803F48033002B03D0B4
:102F20003A69FB6813433B61124A3B6913607B6952
:102F300001337B613B681A687B6922FA03F3002B3B
:102F40007FF478AE00BF00BF1C37BD465DF8047B40
:102F5000704700BF0010024000000140000400481C
:102F600000080048000C0048001000480014004809
:102F7000001800480004014080B483B000AF7860BE
:102F80000B467B8013467B707B78002B03D07A88BE
:102F90007B689A6102E07A887B689A6200BF0C378E
:102FA000BD465DF8047B704780B582B000AF7860A5
:102FB0007B68002B01D1012381E07B6893F84130CD
:102FC000DBB2002B06D17B68002283F840207868B2
:102FD000FEF722F97B68242283F841207B681B6876
:102FE0001A687B681B6822F001021A607B685A68C5
:102FF0007B681B6822F070621A617B681B689A68A4
:103000007B681B6822F400429A607B68DB68012BB6
:1030100007D17B689A687B681B6842F400429A601B
:1030200006E07B689A687B681B6842F404429A60F9
:103030007B68DB68022B04D17B681B684FF400625D
:103040005A607B681B685B687A68126843F000739B
:1030500043F4004353607B681B68DA687B681B6835
:1030600022F40042DA607B681A697B685B6942EA95
:1030700003017B689B691A027B681B680A43DA605C
:103080007B68D9697B681A6A7B681B680A431A6087
:103090007B681B681A687B681B6842F001021A6033
:1030A0007B6800225A647B68202283F841207B6879
:1030B00000221A637B68002283F84220002318460E
:1030C0000837BD4680BD000080B588B002AFF8600B
:1030D0007A601A460B467B8113463B81FB6893F866
:1030E0004130DBB2202B40F0DA80FB6893F84030AF
:1030F000012B01D10223D3E0FB68012283F8402099
:10310000FEF778FA78617B690093192301224FF466
:103110000041F86800F0F7F90346002B01D00123C5
:10312000BEE0FB68212283F84120FB68102283F86F
:103130004220FB6800225A64FB687A685A62FB6886
:103140003A895A85FB6800225A63FB685B8D9BB203
:10315000FF2B0ED9FB68FF221A85FB681B8DDAB2A4
:103160007989514B00934FF08073F86800F074FB3D
:103170006CE0FB685B8D9AB2FB681A85FB681B8D5F
:10318000DAB27989484B00934FF00073F86800F089
:1031900063FB5BE07A69396AF86800F0F4F903468A
:1031A000002B01D001237BE0FB685B6A1A78FB6887
:1031B0001B689A62FB685B6A5A1CFB685A62FB6870
:1031C0005B8D9BB2013B9AB2FB685A85FB681B8DF5
:1031D000013B9AB2FB681A85FB685B8D9BB2002BA2
:1031E00034D0FB681B8D002B30D17B6900933B6A88
:1031F00000228021F86800F086F90346002B01D0F8
:1032000001234DE0FB685B8D9BB2FF2B0ED9FB6861
:10321000FF221A85FB681B8DDAB27989002300939F
:103220004FF08073F86800F017FB0FE0FB685B8DD0
:103230009AB2FB681A85FB681B8DDAB27989002384
:1032400000934FF00073F86800F006FBFB685B8D9D
:103250009BB2002B9ED17A69396AF86800F0D3F9E5
:103260000346002B01D001231AE0FB681B682022D3
:10327000DA61FB681B685968FB681A680B4B0B40E6
:103280005360FB68202283F84120FB68002283F80A
:103290004220FB68002283F84020002300E0022344
:1032A00018461837BD4680BD0020008000E800FEAB
:1032B00080B58AB002AFF8607A603B600B467B81D4
:1032C00000237B61FB6893F84130DBB2202B40F098
:1032D000F180FB681B689B6903F40043B3F5004F62
:1032E00001D10223E7E0FB6893F84030012B01D1C4
:1032F0000223E0E0FB68012283F84020FB682422DF
:1033000083F84120FB6800225A64FB68DB68012BCC
:1033100007D17B89C3F3090343F0007343F40053DF
:1033200004E07B89C3F3090343F42053FA6812686D
:103330005360FEF75FF9B861FB681B689B6903F097
:103340002003202B0CBF01230023DBB2FB77FB689B
:103350001B689B6903F01003102B0CBF0123002393
:10336000DBB2BB7734E03B68B3F1FF3F1AD0FEF726
:1033700041F90246BB69D31A3A689A4202D33B68C4
:10338000002B0FD1FB68202283F84120FB685B6C87
:1033900043F02002FB685A64FB68002283F8402057
:1033A000012388E0FB681B689B6903F02003202B46
:1033B0000CBF01230023DBB2FB77FB681B689B6912
:1033C00003F01003102B0CBF01230023DBB2BB77EB
:1033D000FB7F002B02D1BB7F002BC4D0FB681B6896
:1033E0009B6903F01003102B1AD0BB6900933B6854
:1033F00000222021F86800F086F80346002B01D057
:10340000012358E0FB681B682022DA61FB68202258
:1034100083F84120FB68002283F8402000234AE023
:10342000BB6900933B6800222021F86800F06BF82C
:103430000346002B01D001233DE0FB681B681022EE
:10344000DA61FB681B682022DA617B697A689A423C
:1034500018D1FB681B685A68FB681B6842F48042FD
:103460005A60BB6900933B6800222021F86800F095
:103470004AF80346002B01D001231CE0FB681B68BF
:103480002022DA617B6901337B617B697A689A4229
:103490003FF63BAFFB68202283F84120FB685B6C62
:1034A00043F02002FB685A64FB68002283F8402046
:1034B000012300E0022318462037BD4680BD80B4BA
:1034C00083B000AF78607B681B689B6903F00203E0
:1034D000022B03D17B681B6800229A627B681B6801
:1034E0009B6903F00103012B07D07B681B689A6975
:1034F0007B681B6842F001029A6100BF0C37BD4631
:103500005DF8047B704780B584B000AFF860B960A7
:103510003B601346FB7122E03B68B3F1FF3F1ED0D6
:10352000FEF768F80246BB69D31A3A689A4202D39A
:103530003B68002B13D1FB685B6C43F02002FB68F7
:103540005A64FB68202283F84120FB68002283F83C
:103550004220FB68002283F8402001230FE0FB6833
:103560001B689A69BB681340BA689A420CBF012372
:103570000023DBB21A46FB799A42CDD000231846CD
:103580001037BD4680BD80B584B000AFF860B9602B
:103590007A602CE07A68B968F86800F071F8034640
:1035A000002B01D001232AE0BB68B3F1FF3F1ED0FE
:1035B000FEF720F802467B68D31ABA689A4202D313
:1035C000BB68002B13D1FB685B6C43F02002FB68E7
:1035D0005A64FB68202283F84120FB68002283F8AC
:1035E0004220FB68002283F84020012307E0FB68AB
:1035F0001B689B6903F00203022BCBD10023184602
:103600001037BD4680BD80B584B000AFF860B960AA
:103610007A6028E07A68B968F86800F031F8034603
:10362000002B01D0012326E0FDF7E4FF02467B6872
:10363000D31ABA689A4202D3BB68002B13D1FB6835
:103640005B6C43F02002FB685A64FB68202283F81D
:103650004120FB68002283F84220FB68002283F8A7
:103660004020012307E0FB681B689B6903F02003EF
:10367000202BCFD1002318461037BD4680BD000057
:1036800080B58AB000AFF860B9607A60002387F82F
:103690002730FB681B689B69BB6100233B627B682A
:1036A000FB61BB6903F01003002B75D0FB681B683E
:1036B0001022DA6156E0BB68B3F1FF3F52D0FDF74C
:1036C00099FF0246FB69D31ABA689A4202D3BB68D3
:1036D000002B47D1FB681B685B6803F480437B6168
:1036E000FB6893F84230FB74FB681B689B6903F42A
:1036F0000043B3F5004F2ED17B69B3F5804F2AD03C
:10370000FB7C202B27D0FB681B685A68FB681B6872
:1037100042F480425A60FDF76DFFF8611BE0FDF74F
:1037200069FF0246FB69D31A192B14D9FB685B6C3D
:1037300043F02002FB685A64FB68202283F8412092
:10374000FB68002283F84220FB68002283F84020B7
:10375000012387F82730FB681B689B6903F020036F
:10376000202BDCD1FB681B689B6903F02003202B16
:1037700003D097F82730002B9DD097F82730002BE7
:1037800003D1FB681B682022DA613B6A43F0040323
:103790003B62012387F82730FB681B689B69BB618C
:1037A000BB6903F48073002B0BD03B6A43F0010329
:1037B0003B62FB681B684FF48072DA61012387F873
:1037C0002730BB6903F48063002B0BD03B6A43F0C6
:1037D00008033B62FB681B684FF48062DA610123D7
:1037E00087F82730BB6903F40073002B0BD03B6ACA
:1037F00043F002033B62FB681B684FF40072DA611E
:10380000012387F8273097F82730002B1CD0F86861
:10381000FFF755FEFB681B685968FB681A680D4B7B
:103820000B405360FB685A6C3B6A1A43FB685A644E
:10383000FB68202283F84120FB68002283F84220A5
:10384000FB68002283F8402097F827301846283775
:10385000BD4680BD00E800FE80B487B000AFF860D0
:103860007B600B467B8113467B727B89C3F3090225
:103870007B7A1B0403F47F031A437B681A433B6A79
:10388000134323F000437B61FB681B685A683B6A63
:103890005B0D03F48061084B0B43DB4302EA030139
:1038A000FB681B687A690A435A6000BF1C37BD4633
:1038B0005DF8047B704700BFFF63FF0380B483B0F3
:1038C00000AF786039607B6893F84130DBB2202B21
:1038D00038D17B6893F84030012B01D1022332E0CC
:1038E0007B68012283F840207B68242283F84120F2
:1038F0007B681B681A687B681B6822F001021A60EB
:103900007B681B681A687B681B6822F480521A6007
:103910007B681B6819687B681B683A680A431A60F1
:103920007B681B681A687B681B6842F001021A609A
:103930007B68202283F841207B68002283F84020A6
:10394000002300E0022318460C37BD465DF8047BD7
:10395000704780B485B000AF786039607B6893F8B9
:103960004130DBB2202B39D17B6893F84030012BFA
:1039700001D1022333E07B68012283F840207B6879
:10398000242283F841207B681B681A687B681B68C7
:1039900022F001021A607B681B681B68FB60FB68F1
:1039A00023F47063FB603B681B02FA681343FB60FF
:1039B0007B681B68FA681A607B681B681A687B68FA
:1039C0001B6842F001021A607B68202283F84120C4
:1039D0007B68002283F84020002300E00223184681
:1039E0001437BD465DF8047B7047000080B400AF1B
:1039F000044B1B6803F4C0631846BD465DF8047BA6
:103A0000704700BF0070004080B485B000AF7860A0
:103A10007B68B3F5007F30D1234B1B6803F4C06390
:103A2000B3F5007F38D0204B1B6823F4C0631E4AD7
:103A300043F4007313601D4B1B68322202FB03F337
:103A40001B4AA2FB03239B0C0133FB6002E0FB68D3
:103A5000013BFB60144B5B6903F48063B3F5806F3B
:103A600002D1FB68002BF2D10F4B5B6903F480633A
:103A7000B3F5806F10D103230FE00B4B1B6803F4E9
:103A8000C063B3F5806F07D0074B1B6823F4C06396
:103A9000054A43F480631360002318461437BD467B
:103AA0005DF8047B704700BF007000400C000020F0
:103AB00083DE1B4380B588B000AF78607B68002B45
:103AC00001D10123D8E3974B9B6803F00C03BB6142
:103AD000944BDB6803F003037B617B681B6803F096
:103AE0001003002B00F0E480BB69002B07D0BB69FA
:103AF0000C2B40F08B807B69012B40F08780894B39
:103B00001B6803F00203002B05D07B689B69002B28
:103B100001D10123B0E37B681A6A824B1B6803F072
:103B20000803002B04D07F4B1B6803F0F00305E073
:103B30007C4BD3F894301B0903F0F003934223D25B
:103B40007B681B6A184600F043FD0346002B01D03A
:103B5000012391E3734B1B68724A43F0080313601F
:103B6000704B1B6823F0F0027B681B6A6D4913439E
:103B70000B606C4B5B6823F47F427B68DB691B0244
:103B8000684913434B6025E0664B1B68654A43F068
:103B900008031360634B1B6823F0F0027B681B6A09
:103BA000604913430B605F4B5B6823F47F427B6883
:103BB000DB691B025B4913434B60BB69002B09D1D6
:103BC0007B681B6A184600F003FD0346002B01D0FA
:103BD000012351E300F038FC0246524B9B681B095D
:103BE00003F00F035049CB5C03F01F0322FA03F3E9
:103BF0004E4A13604E4B1B681846FDF7ABFC03465C
:103C0000FB73FB7B002B52D0FB7B35E37B689B690E
:103C1000002B32D0434B1B68424A43F00103136030
:103C2000FDF7E8FC386108E0FDF7E4FC02463B697B
:103C3000D31A022B01D903231EE33A4B1B6803F06E
:103C40000203002BF0D0374B1B68364A43F00803C1
:103C50001360344B1B6823F0F0027B681B6A314908
:103C600013430B602F4B5B6823F47F427B68DB6957
:103C70001B022C4913434B601AE02A4B1B68294A4C
:103C800023F001031360FDF7B5FC386108E0FDF790
:103C9000B1FC02463B69D31A022B01D90323EBE2A4
:103CA000204B1B6803F00203002BF0D100E000BFA3
:103CB0007B681B6803F00103002B74D0BB69082BE1
:103CC00005D0BB690C2B0ED17B69032B0BD1154B97
:103CD0001B6803F40033002B64D07B685B68002B07
:103CE00060D10123C8E27B685B68B3F5803F06D1F1
:103CF0000C4B1B680B4A43F48033136026E07B684F
:103D00005B68B3F5A02F15D1064B1B68054A43F439
:103D100080231360034B1B68024A43F48033136013
:103D200014E000BF00100240807100080C00002069
:103D300010000020A04B1B689F4A23F480331360BF
:103D40009D4B1B689C4A23F4802313607B685B684F
:103D5000002B13D0FDF74EFC386108E0FDF74AFC5C
:103D600002463B69D31A642B01D9032384E2924BA8
:103D70001B6803F40033002BF0D014E0FDF73AFC8D
:103D8000386108E0FDF736FC02463B69D31A642B24
:103D900001D9032370E2884B1B6803F40033002B26
:103DA000F0D100E000BF7B681B6803F00203002B2A
:103DB00060D0BB69042B05D0BB690C2B19D17B6982
:103DC000022B16D17C4B1B6803F48063002B05D0BB
:103DD0007B68DB68002B01D101234DE2764B5B68E9
:103DE00023F0F8527B681B691B06734913434B6031
:103DF00040E07B68DB68002B23D06F4B1B686E4A6A
:103E000043F480731360FDF7F5FB386108E0FDF7BC
:103E1000F1FB02463B69D31A022B01D903232BE2A3
:103E2000654B1B6803F48063002BF0D0624B5B682A
:103E300023F0F8527B681B691B065F4913434B60F4
:103E400018E05D4B1B685C4A23F480731360FDF738
:103E5000D1FB386108E0FDF7CDFB02463B69D31A80
:103E6000022B01D9032307E2534B1B6803F4806341
:103E7000002BF0D17B681B6803F00803002B3CD0BB
:103E80007B685B69002B1CD04B4BD3F894304A4ABB
:103E900043F00103C2F89430FDF7ACFB386108E051
:103EA000FDF7A8FB02463B69D31A022B01D9032375
:103EB000E2E1414BD3F8943003F00203002BEFD042
:103EC0001BE03D4BD3F894303B4A23F00103C2F88A
:103ED0009430FDF78FFB386108E0FDF78BFB02465D
:103EE0003B69D31A022B01D90323C5E1324BD3F826
:103EF000943003F00203002BEFD17B681B6803F0C2
:103F00000403002B00F0A6800023FB772A4B9B6D57
:103F100003F08053002B0DD1274B9B6D264A43F0B5
:103F200080539365244B9B6D03F08053BB60BB684B
:103F30000123FB77214B1B6803F48073002B18D1FE
:103F40001E4B1B681D4A43F480731360FDF752FB40
:103F5000386108E0FDF74EFB02463B69D31A022B9D
:103F600001D9032388E1154B1B6803F48073002BF0
:103F7000F0D07B689B68012B08D10F4BD3F89030B1
:103F80000D4A43F00103C2F8903029E07B689B683A
:103F9000052B15D1084BD3F89030074A43F00403A2
:103FA000C2F89030044BD3F89030034A43F0010339
:103FB000C2F8903014E000BF0010024000700040D2
:103FC000914BD3F89030904A23F00103C2F890301F
:103FD0008D4BD3F890308C4A23F00403C2F8903014
:103FE0007B689B68002B16D0FDF704FB38610AE064
:103FF000FDF700FB02463B69D31A41F28832934237
:1040000001D9032338E1804BD3F8903003F0020349
:10401000002BEDD015E0FDF7EDFA38610AE0FDF771
:10402000E9FA02463B69D31A41F28832934201D938
:10403000032321E1744BD3F8903003F00203002BEB
:10404000EDD1FB7F012B05D16F4B9B6D6E4A23F0A9
:10405000805393657B689B6A002B00F00C817B6822
:104060009B6A022B40F0D480674BDB687B617B69E5
:1040700003F003027B68DB6A9A4230D17B6903F06C
:1040800070027B681B6B013B1B019A4227D17B6945
:1040900003F4FE427B685B6B1B029A421FD17B6973
:1040A00003F400337A68926B072A14BF01220022BE
:1040B000D2B2934213D17B6903F4C0027B68DB6BFD
:1040C0005B08013B5B059A4209D17B6903F0C06242
:1040D0007B681B6C5B08013B5B069A426ED0BB6938
:1040E0000C2B69D0484B1B6803F08063002B05D173
:1040F000454B1B6803F08053002B01D00123BBE02C
:10410000414B1B68404A23F080731360FDF772FA3D
:10411000386108E0FDF76EFA02463B69D31A022BBC
:1041200001D90323A8E0384B1B6803F00073002B70
:10413000F0D1354BDA68354B13407A68D16A7A682A
:10414000126B013A120111437A68526B1202114349
:104150007A68D26B5208013A520511437A68126CA0
:104160005208013A520611437A68926B12095204BE
:104170000A4325491343CB60234B1B68224A43F073
:1041800080731360204BDB681F4A43F08073D36059
:10419000FDF730FA386108E0FDF72CFA02463B697A
:1041A000D31A022B01D9032366E0174B1B6803F0D7
:1041B0000073002BF0D05EE001235DE0124B1B6822
:1041C00003F00073002B56D10F4B1B680E4A43F0CF
:1041D000807313600C4BDB680B4A43F08073D36031
:1041E000FDF708FA386108E0FDF704FA02463B697A
:1041F000D31A022B01D903233EE0034B1B6803F0C3
:104200000073002BF0D036E0001002408C809DF946
:10421000BB690C2B2DD01A4B1B68194A23F08073F5
:104220001360174B1B6803F02053002B05D1144B70
:10423000DB68134A23F00303D360114BDB68104A99
:1042400023F0887323F48033D360FDF7D3F938610A
:1042500008E0FDF7CFF902463B69D31A022B01D9DA
:10426000032309E0064B1B6803F00073002BF0D119
:1042700001E0012300E0002318462037BD4680BD41
:104280000010024080B584B000AF786039607B6870
:10429000002B01D10123C8E0664B1B6803F0070324
:1042A0003A689A4210D9634B1B6823F007026149B0
:1042B0003B6813430B605F4B1B6803F007033A68CE
:1042C0009A4201D00123B0E07B681B6803F0010330
:1042D000002B4CD07B685B68032B07D1564B1B68C7
:1042E00003F00073002B21D101239EE07B685B6803
:1042F000022B07D1504B1B6803F40033002B15D160
:10430000012392E07B685B68002B07D14A4B1B6856
:1043100003F00203002B09D1012386E0464B1B6802
:1043200003F48063002B01D101237EE0424B9B68A4
:1043300023F003027B685B683F4913438B60FDF702
:1043400059F9F8600AE0FDF755F90246FB68D31AFF
:1043500041F28832934201D9032366E0364B9B68D1
:1043600003F00C027B685B689B009A42EBD17B6890
:104370001B6803F00203002B08D02F4B9B6823F02F
:10438000F0027B689B682C4913438B60294B1B68A8
:1043900003F007033A689A4210D2264B1B6823F0B9
:1043A000070224493B6813430B60224B1B6803F050
:1043B00007033A689A4201D0012336E07B681B6804
:1043C00003F00403002B08D01B4B9B6823F4E0622E
:1043D0007B68DB68184913438B607B681B6803F0BC
:1043E0000803002B09D0144B9B6823F460527B68B0
:1043F0001B69DB00104913438B6000F025F802466F
:104400000D4B9B681B0903F00F030C49CB5C03F0B9
:104410001F0322FA03F30A4A13600A4B1B6818466B
:10442000FDF798F80346FB72FB7A18461037BD4635
:1044300080BD00BF002002400010024080710008D3
:104440000C0000201000002080B489B000AF0023D1
:10445000FB610023BB613E4B9B6803F00C033B6197
:104460003B4BDB6803F00303FB603B69002B05D08B
:104470003B690C2B21D1FB68012B1ED1344B1B68EF
:1044800003F00803002B07D1314BD3F894301B0AFB
:1044900003F00F03FB6105E02D4B1B681B0903F0C4
:1044A0000F03FB612B4AFB6952F82330FB613B6928
:1044B000002B0DD1FB69BB610AE03B69042B02D1E3
:1044C000254BBB6104E03B69082B01D1234BBB6149
:1044D0003B690C2B34D11E4BDB6803F00303BB603C
:1044E000BB68022B03D0BB68032B03D005E01A4B3B
:1044F0007B6105E0194B7B6102E0FB697B6100BFDA
:10450000134BDB681B0903F0070301337B60104B7F
:10451000DB681B0A03F07F037A6903FB02F27B6806
:10452000B2FBF3F37B610A4BDB685B0E03F0030322
:1045300001335B003B607A693B68B2FBF3F3BB611C
:10454000BB6918462437BD465DF8047B704700BF41
:1045500000100240987100080024F40000127A0054
:1045600080B400AF034B1B681846BD465DF8047B62
:10457000704700BF0C00002080B500AFFFF7F0FFD0
:104580000246064B9B681B0A03F007030449CB5CF9
:1045900003F01F0322FA03F3184680BD0010024007
:1045A0009071000880B500AFFFF7DAFF0246064BB6
:1045B0009B68DB0A03F007030449CB5C03F01F038D
:1045C00022FA03F3184680BD0010024090710008E3
:1045D00080B586B000AF786000233B612A4B9B6DAD
:1045E00003F08053002B03D0FFF700FA786114E04A
:1045F000254B9B6D244A43F080539365224B9B6D62
:1046000003F08053FB60FB68FFF7F0F978611E4B05
:104610009B6D1D4A23F0805393657B69B3F5007F42
:104620000BD17B68802B19D97B68A02B02D9022380
:104630003B6113E001233B6110E07B68802B02D9D2
:1046400003233B610AE07B68802B02D102233B619C
:1046500004E07B68702B01D101233B610B4B1B688D
:1046600023F0070209493B6913430B60074B1B68A2
:1046700003F007033A699A4201D0012300E00023C6
:1046800018461837BD4680BD001002400020024089
:1046900080B586B000AF78600023FB740023BB7444
:1046A0007B681B6803F40063002B41D07B685B6E62
:1046B000B3F5400F2AD0B3F5400F24D8B3F5000F5F
:1046C00008D0B3F5000F1ED8002B0AD0B3F5800F29
:1046D00010D018E0864BDB68854A43F48033D36002
:1046E00015E07B6804330021184600F0BBFA03464E
:1046F000FB740CE07B6820330021184600F0A6FB19
:104700000346FB7403E00123FB7400E000BFFB7C65
:10471000002B0BD1764BD3F8883023F440027B6812
:104720005B6E73491343C1F8883001E0FB7CBB74B6
:104730007B681B6803F48053002B41D07B689B6E21
:10474000B3F1407F2AD0B3F1407F24D8B3F1007F8A
:1047500008D0B3F1007F1ED8002B0AD0B3F1807FC0
:1047600010D018E0624BDB68614A43F48033D360B9
:1047700015E07B6804330021184600F073FA034605
:10478000FB740CE07B6820330021184600F05EFBD0
:104790000346FB7403E00123FB7400E000BFFB7CD5
:1047A000002B0BD1524BD3F8883023F040727B683A
:1047B0009B6E4F491343C1F8883001E0FB7CBB740A
:1047C0007B681B6803F40033002B00F0A0800023FB
:1047D0007B74474B9B6D03F08053002B01D1012369
:1047E00000E00023002B0DD0414B9B6D404A43F06D
:1047F000805393653E4B9B6D03F08053BB60BB6859
:1048000001237B743B4B1B683A4A43F4807313606B
:10481000FCF7F0FEF86009E0FCF7ECFE0246FB68EE
:10482000D31A022B02D90323FB7405E0314B1B681A
:1048300003F48073002BEFD0FB7C002B5CD12C4B5E
:10484000D3F8903003F440737B617B69002B1FD059
:104850007B68D3F884307A699A4219D0244BD3F814
:10486000903023F440737B61214BD3F89030204A81
:1048700043F48033C2F890301D4BD3F890301C4A7B
:1048800023F48033C2F89030194A7B69C2F8903023
:104890007B6903F00103002B16D0FCF7ABFEF86038
:1048A0000BE0FCF7A7FE0246FB68D31A41F2883200
:1048B000934202D90323FB7406E00D4BD3F89030EA
:1048C00003F00203002BECD0FB7C002B0CD1084B37
:1048D000D3F8903023F440727B68D3F884300449D5
:1048E0001343C1F8903009E0FB7CBB7406E000BFC5
:1048F0000010024000700040FB7CBB747B7C012BED
:1049000005D19E4B9B6D9D4A23F0805393657B6838
:104910001B6803F00103002B0AD0984BD3F88830B2
:1049200023F003027B689B6B94491343C1F88830E2
:104930007B681B6803F00203002B0AD08F4BD3F86F
:10494000883023F00C027B68DB6B8C491343C1F881
:1049500088307B681B6803F00403002B0AD0874B68
:10496000D3F8883023F030027B681B6C83491343F3
:10497000C1F888307B681B6803F00803002B0AD05D
:104980007E4BD3F8883023F0C0027B685B6C7B4998
:104990001343C1F888307B681B6803F01003002BB9
:1049A0000AD0764BD3F8883023F440727B689B6C36
:1049B00072491343C1F888307B681B6803F02003F9
:1049C000002B0AD06D4BD3F8883023F440627B680B
:1049D000DB6C6A491343C1F888307B681B6803F4B9
:1049E0000073002B0AD0654BD3F8883023F44022A3
:1049F0007B68DB6D61491343C1F888307B681B68B5
:104A000003F48063002B0AD05C4BD3F8883023F486
:104A100040127B681B6E59491343C1F888307B688C
:104A20001B6803F04003002B0AD0544BD3F88830A6
:104A300023F440527B681B6D50491343C1F8883002
:104A40007B681B6803F08003002B0AD04B4BD3F824
:104A5000883023F440427B685B6D48491343C1F8BA
:104A600088307B681B6803F48073002B0AD0434BAB
:104A7000D3F8883023F440327B689B6D3F49134361
:104A8000C1F888307B681B6803F40053002B28D0E2
:104A90003A4BD3F8883023F040627B68DB6E3749AD
:104AA0001343C1F888307B68DB6EB3F1006F06D129
:104AB000324BDB68314A43F48013D36011E07B68EA
:104AC000DB6EB3F1806F0CD17B6804330121184693
:104AD00000F0C8F80346FB74FB7C002B01D0FB7C84
:104AE000BB747B681B6803F40023002B28D0234B86
:104AF000D3F8883023F040627B681B6F1F49134353
:104B0000C1F888307B681B6FB3F1006F06D11B4B77
:104B1000DB681A4A43F48013D36011E07B681B6F93
:104B2000B3F1806F0CD17B6804330121184600F08B
:104B300099F80346FB74FB7C002B01D0FB7CBB7413
:104B40007B681B6803F48023002B2BD00B4BD3F81E
:104B5000883023F040627B685B6F08491343C1F8DB
:104B600088307B685B6FB3F1006F09D1034BDB6862
:104B7000024A43F48013D36014E000BF00100240E7
:104B80007B685B6FB3F1806F0CD17B6804330121CC
:104B9000184600F067F80346FB74FB7C002B01D03D
:104BA000FB7CBB747B681B6803F48043002B2FD015
:104BB0002B4BD3F8883023F040527B689B6F2849F9
:104BC0001343C1F888307B689B6FB3F1805F0DD1D0
:104BD0007B6804330221184600F044F80346FB7456
:104BE000FB7C002B14D0FB7CBB7411E07B689B6FBB
:104BF000B3F1005F0CD17B6820330221184600F02E
:104C000025F90346FB74FB7C002B01D0FB7CBB74B5
:104C10007B681B6803F40043002B0AD0104BD3F8C9
:104C2000883023F080427B68DB6F0D491343C1F865
:104C300088307B681B6803F48033002B0BD0084B53
:104C4000D3F8883023F000427B68D3F880300449E1
:104C50001343C1F88830BB7C18461837BD4680BD69
:104C60000010024080B584B000AF78603960002346
:104C7000FB73754BDB6803F00303002B18D0724BFA
:104C8000DB6803F003027B681B689A420DD17B68E6
:104C90001B68002B09D06C4BDB681B0903F0070372
:104CA0005A1C7B685B689A4247D00123FB7344E03F
:104CB0007B681B68032B18D0032B25D8012B02D04F
:104CC000022B09D020E0604B1B6803F00203002B8D
:104CD0001DD10123FB731AE05B4B1B6803F4806357
:104CE000002B16D10123FB7313E0574B1B6803F411
:104CF0000033002B0FD1544B1B6803F48023002B8F
:104D000009D10123FB7306E00123FB7304E000BF1C
:104D100002E000BF00E000BFFB7B002B0DD14A4B3F
:104D2000DB6823F073027B6819687B685B68013B72
:104D30001B010B4344491343CB60FB7B002B7DD10C
:104D4000414B1B68404A23F080631360FCF752FC20
:104D5000B86009E0FCF74EFC0246BB68D31A022B90
:104D600002D90323FB7305E0374B1B6803F0006394
:104D7000002BEFD1FB7B002B60D13B68002B11D1C6
:104D8000314B1B6923F41F3323F440737A68926814
:104D900011027A68D268120952040A432A4913435D
:104DA0000B6127E03B68012B12D1274B1B6923F4D1
:104DB000C00323F4FE437A68926811027A6812698C
:104DC0005208013A52050A431F4913430B6111E08F
:104DD0001D4B1B6923F0C06323F4FE437A6892687D
:104DE00011027A6852695208013A52060A4316497A
:104DF00013430B61144B1B68134A43F08063136029
:104E0000FCF7F8FBB86009E0FCF7F4FB0246BB686E
:104E1000D31A022B02D90323FB7305E00A4B1B684C
:104E200003F00063002BEFD0FB7B002B06D1064B79
:104E30001A697B689B69044913430B61FB7B184625
:104E40001037BD4680BD00BF0010024080B584B061
:104E500000AF786039600023FB736A4BDB6803F0B6
:104E60000303002B18D0674BDB6803F003027B6859
:104E70001B689A420DD17B681B68002B09D0614BDF
:104E8000DB681B0903F007035A1C7B685B689A42C6
:104E900047D00123FB7344E07B681B68032B18D0C9
:104EA000032B25D8012B02D0022B09D020E0554B33
:104EB0001B6803F00203002B1DD10123FB731AE0D2
:104EC000504B1B6803F48063002B16D10123FB7346
:104ED00013E04C4B1B6803F40033002B0FD1494BFC
:104EE0001B6803F48023002B09D10123FB7306E028
:104EF0000123FB7304E000BF02E000BF00E000BF3D
:104F0000FB7B002B0DD13F4BDB6823F073027B68EA
:104F100019687B685B68013B1B010B4339491343EC
:104F2000CB60FB7B002B67D1364B1B68354A23F0E7
:104F300080531360FCF75EFBB86009E0FCF75AFB96
:104F40000246BB68D31A022B02D90323FB7305E088
:104F50002C4B1B6803F00053002BEFD1FB7B002B85
:104F60004AD13B68002B11D1264B5B6923F41F33D8
:104F700023F440737A68926811027A68D268120941
:104F800052040A431F4913434B6111E01D4B5B69F7
:104F900023F0C06323F4FE437A68926811027A68B2
:104FA00012695208013A52060A43164913434B61EB
:104FB000144B1B68134A43F080531360FCF71AFB31
:104FC000B86009E0FCF716FB0246BB68D31A022B57
:104FD00002D90323FB7305E00A4B1B6803F000535F
:104FE000002BEFD0FB7B002B06D1064B5A697B6868
:104FF0005B69044913434B61FB7B18461037BD4680
:1050000080BD00BF0010024080B582B000AF786064
:105010007B68002B01D1012340E07B689B6F002B54
:1050200006D17B68002283F874207868FCF752F977
:105030007B6824229A677B681B681A687B681B68F8
:1050400022F001021A60786800F0C0F80346012BD4
:1050500001D1012322E07B685B6A002B02D07868D3
:1050600000F06CFB7B681B685A687B681B6822F445
:1050700090425A607B681B689A687B681B6822F0C4
:105080002A029A607B681B681A687B681B6842F07A
:1050900001021A60786800F0F3FB034618460837EF
:1050A000BD4680BD80B58AB002AFF860B9603B6094
:1050B0001346FB80FB689B6F202B40F08280BB680F
:1050C000002B02D0FB88002B01D101237AE0FB6882
:1050D00093F87430012B01D1022373E0FB680122A5
:1050E00083F87420FB680022C3F88020FB6821222B
:1050F0009A67FCF77FFA7861FB68FA88A3F850207A
:10510000FB68FA88A3F85220FB689B68B3F5805FC0
:1051100008D1FB681B69002B04D10023FB61BB682D
:10512000BB6103E0BB68FB610023BB61FB6800223D
:1051300083F874202DE03B6800937B690022802176
:10514000F86800F0E6FB0346002B01D0032339E0AA
:10515000FB69002B0BD1BB691A88FB681B68C2F383
:10516000080292B21A85BB690233BB6108E0FB6991
:105170001A78FB681B6892B21A85FB690133FB61E0
:10518000FB68B3F852309BB2013B9AB2FB68A3F8BC
:105190005220FB68B3F852309BB2002BCBD13B6856
:1051A00000937B6900224021F86800F0B2FB0346BF
:1051B000002B01D0032305E0FB6820229A6700231F
:1051C00000E0022318462037BD4680BD2DE9B04FD0
:1051D0008AB000AFF860002387F82230FB689A6835
:1051E000FB681B691A43FB685B691A43FB68DB6950
:1051F00013437B62FB681B681A68A44B1340FA6870
:105200001268796A0B431360FB681B685B6823F4C0
:105210004051FB68DA68FB681B680A435A60FB6808
:105220009B697B62FB681B68994A934204D0FB68C8
:105230001B6A7A6A13437B62FB681B689B6823F4D2
:105240003061FB681B687A6A0A439A60FB681B68D6
:10525000904A934226D1904BD3F8883003F0030351
:10526000032B1BD801A252F823F000BF7D52000887
:105270008D5200088552000895520008012387F8D6
:10528000233016E1022387F8233012E1042387F844
:1052900023300EE1082387F823300AE1102387F832
:1052A000233006E1FB681B687C4A934238D17A4B75
:1052B000D3F8883003F00C030C2B2DD801A252F840
:1052C00023F000BFF95200081953000819530008D1
:1052D000195300080953000819530008195300080E
:1052E0001953000801530008195300081953000806
:1052F0001953000811530008002387F82330D8E021
:10530000022387F82330D4E0042387F82330D0E049
:10531000082387F82330CCE0102387F82330C8E037
:10532000FB681B685E4A934225D15B4BD3F88830FB
:1053300003F03003302B16D0302B18D8202B0AD096
:10534000202B14D8002B02D0102B08D00FE0002304
:1053500087F82330ADE0022387F82330A9E0042347
:1053600087F82330A5E0082387F82330A1E0102335
:1053700087F823309DE0FB681B684A4A934225D199
:10538000454BD3F8883003F0C003C02B16D0C02B98
:1053900018D8802B0AD0802B14D8002B02D0402B99
:1053A00008D00FE0002387F8233082E0022387F83B
:1053B00023307EE0042387F823307AE0082387F83F
:1053C000233076E0102387F8233072E0FB681B68F7
:1053D000354A93422AD1304BD3F8883003F44073D6
:1053E000B3F5407F1AD0B3F5407F1BD8B3F5007FEB
:1053F0000CD0B3F5007F15D8002B03D0B3F5807F18
:1054000008D00FE0002387F8233052E0022387F80A
:1054100023304EE0042387F823304AE0082387F83E
:10542000233046E0102387F8233042E0FB681B68F6
:10543000174A93423AD1184BD3F8883003F44063AB
:10544000B3F5406F1AD0B3F5406F1BD8B3F5006FBA
:105450000CD0B3F5006F15D8002B03D0B3F5806FD7
:1054600008D00FE0002387F8233022E0022387F8DA
:1054700023301EE0042387F823301AE0082387F83E
:10548000233016E0102387F8233012E0F369FFEF92
:1054900000800040003801400010024000440040FD
:1054A00000480040004C004000500040102387F8A6
:1054B0002330FB681B689F4A93427AD197F82330C8
:1054C000082B24D801A252F823F000BFF1540008A1
:1054D0000F550008F95400080F550008FF54000844
:1054E0000F5500080F5500080F5500080755000814
:1054F000FFF742F8F86110E08F4BFB610DE0FEF71B
:10550000A3FFF86109E04FF40043FB6105E00023CD
:10551000FB61012387F8223000BFFB69002B00F0FC
:10552000FB80FB685A6813465B001344FA699A4291
:1055300005D3FB685B681B03FA699A4203D9012310
:1055400087F82230E8E0FB6900221C4615464FF040
:1055500000024FF000032B0243EA14632202F968B1
:105560004968490800208846814612EB080A43EB47
:10557000090BFB685B6800223B607A60D7E9002377
:1055800050465946FAF77CFE02460B461346BB616D
:10559000BB69B3F5407F08D3BB69B3F5801F04D264
:1055A000FB681B68BA69DA60B6E0012387F822302D
:1055B000B2E0FB68DB69B3F5004F5ED197F82330AA
:1055C000082B28D801A252F823F000BFF15500089B
:1055D000F95500080156000817560008075600083C
:1055E0001756000817560008175600080F560008EF
:1055F000FEF7C2FFF86114E0FEF7D4FFF86110E097
:105600004D4BFB610DE0FEF71FFFF86109E04FF421
:105610000043FB6105E00023FB61012387F8223092
:1056200000BFFB69002B77D0FB695A00FB685B6801
:105630005B081A44FB685B68B2FBF3F3BB61BB69B0
:105640000F2B16D9BB69B3F5803F12D2BB699BB251
:1056500023F00F03FB82BB695B089BB203F00703D7
:105660009AB2FB8A1343FB82FB681B68FA8ADA60F2
:1056700052E0012387F822304EE097F82330082BC0
:1056800027D801A252F823F0AD560008B5560008FD
:10569000BD560008D3560008C3560008D35600086C
:1056A000D3560008D3560008CB560008FEF764FF17
:1056B000F86114E0FEF776FFF86110E01E4BFB6125
:1056C0000DE0FEF7C1FEF86109E04FF40043FB6115
:1056D00005E00023FB61012387F8223000BFFB694E
:1056E000002B19D0FB685B685A08FB691A44FB68F9
:1056F0005B68B2FBF3F3BB61BB690F2B09D9BB69D4
:10570000B3F5803F05D2BB699AB2FB681B68DA60CB
:1057100002E0012387F82230FB6800225A66FB680A
:1057200000229A6697F8223018462837BD46BDE811
:10573000B08F00BF008000400024F40080B483B02C
:1057400000AF78607B685B6A03F00103002B0AD02E
:105750007B681B685B6823F400317B689A6A7B680E
:105760001B680A435A607B685B6A03F00203002BE4
:105770000AD07B681B685B6823F480317B68DA6A37
:105780007B681B680A435A607B685B6A03F004030A
:10579000002B0AD07B681B685B6823F480217B6840
:1057A0001A6B7B681B680A435A607B685B6A03F06C
:1057B0000803002B0AD07B681B685B6823F4004158
:1057C0007B685A6B7B681B680A435A607B685B6A1C
:1057D00003F01003002B0AD07B681B689B6823F43E
:1057E00080517B689A6B7B681B680A439A607B6870
:1057F0005B6A03F02003002B0AD07B681B689B6860
:1058000023F400517B68DA6B7B681B680A439A605B
:105810007B685B6A03F04003002B1AD07B681B682F
:105820005B6823F480117B681A6C7B681B680A43F1
:105830005A607B681B6CB3F5801F0AD17B681B68BC
:105840005B6823F4C0017B685A6C7B681B680A4361
:105850005A607B685B6A03F08003002B0AD07B6888
:105860001B685B6823F400217B689A6C7B681B686B
:105870000A435A6000BF0C37BD465DF8047B704791
:1058800080B586B002AF78607B680022C3F88020C4
:10589000FBF7B0FEF8607B681B681B6803F0080329
:1058A000082B0ED16FF07E430093FB6800224FF46B
:1058B0000011786800F02DF80346002B01D0032377
:1058C00023E07B681B681B6803F00403042B0ED1E4
:1058D0006FF07E430093FB6800224FF480017868EC
:1058E00000F017F80346002B01D003230DE07B687E
:1058F00020229A677B682022DA677B6800221A667A
:105900007B68002283F87420002318461037BD46B8
:1059100080BD80B59CB000AFF860B9603B601346B5
:10592000FB71A5E0BB6FB3F1FF3F00F0A180FBF777
:1059300061FE02463B68D31ABA6F9A4202D3BB6F2C
:10594000002B3ED1FB681B683B653B6D53E8003F75
:10595000FB64FB6C23F4D0737B66FB681B681A4600
:105960007B6EFB65BA65B96DFA6D41E800237B6516
:105970007B6D002BE6D1FB681B680833FB63FB6B78
:1059800053E8003FBB63BB6B23F001033B66FB683E
:105990001B6808333A6EBA647B64796CBA6C41E870
:1059A00000233B643B6C002BE5D1FB6820229A6707
:1059B000FB682022DA67FB68002283F87420032347
:1059C00067E0FB681B681B6803F00403002B4FD0E3
:1059D000FB681B68DB6903F40063B3F5006F47D114
:1059E000FB681B684FF400621A62FB681B68BB62AD
:1059F000BB6A53E8003F7B627B6A23F4D073FB668B
:105A0000FB681B681A46FB6E7B633A63396B7A6BE3
:105A100041E80023FB62FB6A002BE6D1FB681B68B0
:105A200008337B617B6953E8003F3B613B6923F0AE
:105A30000103BB66FB681B680833BA6E3A62FB6100
:105A4000F9693A6A41E80023BB61BB69002BE5D1E3
:105A5000FB6820229A67FB682022DA67FB68202215
:105A6000C3F88020FB68002283F87420032310E031
:105A7000FB681B68DA69BB681340BA689A420CBFBE
:105A800001230023DBB21A46FB799A423FF44AAF66
:105A9000002318467037BD4680BD0000014B1868D2
:105AA000704700BF1800002070B50D4D0D4C641BF1
:105AB000A4100026A64209D10B4D0C4C00F08EFC20
:105AC000641BA4100026A64205D170BD55F8043B06
:105AD00098470136EEE755F8043B98470136F2E760
